:020000040800F2
:100000000000022095190008691700087117000800
:100010007917000881170008891700080000000000
:100020000000000000000000000000009117000820
:100030009F17000800000000AD170008BB1700085C
:10004000E5190008E5190008E5190008E519000898
:10005000E5190008E5190008E5190008E519000888
:10006000E5190008E5190008E5190008E519000878
:10007000E5190008E5190008E5190008E519000868
:10008000E5190008E5190008E5190008E519000858
:10009000E5190008E5190008E5190008E519000848
:1000A000E5190008E5190008E5190008E519000838
:1000B000E5190008E5190008E5190008E519000828
:1000C000E5190008E5190008E5190008E519000818
:1000D000E5190008E5190008E5190008E519000808
:1000E000E5190008E5190008E5190008E5190008F8
:1000F000E5190008E5190008E5190008E5190008E8
:10010000E5190008E5190008E5190008E5190008D7
:10011000E5190008E5190008E5190008E5190008C7
:10012000E5190008E5190008E5190008E5190008B7
:10013000E5190008C9170008E5190008E5190008C5
:10014000E5190008E5190008E5190008E519000897
:10015000E5190008E5190008E5190008E519000887
:10016000E5190008E5190008E5190008E519000877
:10017000E5190008E5190008E5190008000000006D
:08018000E5190008E51900086B
:1001900010B5054C237833B9044B13B10448AFF3C1
:1001A00000800123237010BD8800002000000000A3
:1001B0004822010808B5034B1BB103490348AFF3BC
:1001C000008008BD000000008C00002048220108CB
:1001D00001F0FF01102A2BDB10F0070F08D010F8F8
:1001E000013B013A8B422DD010F0070F42B3F6D1FC
:1001F000F0B441EA012141EA014122F007047FF015
:1002000000070023F0E80256083C85EA010586EA6B
:10021000010685FA47F5A3FA87F586FA47F6A5FAA7
:1002200087F68EB9EED1F0BC01F0FF0102F00702B3
:1002300032B110F8013B013A83EA010313B1F8D15E
:100240000020704701387047002D06BF354603383F
:10025000073815F0010F07D1013015F4807F02BF78
:10026000013015F4C03F0130F0BC0138704700BFC9
:1002700053B94AB9002908BF00281CBF4FF0FF310D
:100280004FF0FF3000F088B9ADF1080C6DE904CEF5
:1002900000F006F8DDF804E0DDE9022304B0704761
:1002A0002DE9F047089D8E4604468846002B4AD12A
:1002B0008A42174662D9B2FA82F64EB1C6F12003DD
:1002C00001FA06F820FA03F3B74043EA0808B440FD
:1002D0004FEA174E1FFA87FCB8FBFEF1230C0EFB0A
:1002E000118843EA084301FB0CF29A4209D9FB1832
:1002F00001F1FF3080F0EA809A4240F2E780023953
:100300003B449A1AA3B2B2FBFEF00EFB102243EA62
:10031000024300FB0CFC9C4509D9FB1800F1FF329D
:1003200080F0D6809C4540F2D3803B44023840EABE
:100330000140A3EB0C0300211DB1F3400022C5E9ED
:100340000032BDE8F0878B4205D90DB1C5E9000147
:1003500000210846F5E7B3FA83F1002946D1734539
:1003600002D3824200F20581841A6EEB030201205F
:100370009046002DE5D0C5E90048E2E7002A00F0EC
:100380009080B2FA82F6002E40F0A4808A1A030C04
:100390004FEA174E80B2BCB20121B2FBFEFC0EFB4D
:1003A0001C2243EA024304FB0CF29A4207D9FB18D1
:1003B0000CF1FF3802D29A4200F2E080C4469B1A48
:1003C000B3FBFEF20EFB123340EA034302FB04F4DC
:1003D0009C4207D9FB1802F1FF3002D29C4200F286
:1003E000CA8002461B1B42EA0C40A5E7C1F1200669
:1003F0008B4022FA06F71F430EFA01F420FA06F3A7
:100400002EFA06FE4FEA1749234300FA01F81FFAB5
:1004100087FCBEFBF9F01C0C09FB10EE44EA0E440D
:1004200000FB0CFEA64502FA01F209D93C1900F1C5
:10043000FF3A80F09C80A64540F2998002383C4407
:10044000A4EB0E041FFA83FEB4FBF9F309FB13447B
:100450004EEA044403FB0CFCA44508D93C1903F103
:10046000FF3E80F08280A4457FD9023B3C4443EAB2
:100470000040A4EB0C04A0FB02EC64457346E1468B
:1004800062D35FD05DB1B8EB030264EB090404FAF8
:1004900006F622FA01F31E43CC40C5E900640021B0
:1004A0004FE7B1FBF2FC010C41EA0E4180B240EA99
:1004B00001423B4638463C46B846BE462026B1FB84
:1004C000F7F1A2EB080241EA0C4166E7014618E7A2
:1004D00010462CE7C6F120022EFA02F3B740B140D5
:1004E00020FA02F24FEA174E0A43B3FBFEF8BCB201
:1004F0000EFB1833110C41EA034108FB04F9B0402C
:1005000089454FEA104380B23ED9791808F1FF3C83
:1005100001D289451FD8A1EB0901B1FBFEF909FB06
:1005200004F80EFB191192B242EA0142424529D267
:10053000BA1809F1FF31C4D24245C2D2A9F1020171
:100540003A44BEE7F0459DD2BEEB02036CEB070CCC
:100550000138E14696E7A7EB09094944A8F1020CE6
:10056000B1FBFEF909FB04F8DBE773467FE7504671
:1005700066E70846FDE63B44023A33E7ACF1020C7D
:100580003B441CE749469CE7A1EB0901C446B1FB8B
:10059000FEF909FB04F8C4E7704700BF80B584B0DA
:1005A00000AF0EF05FF90346134A1360134BBB60B4
:1005B000114B1B6807F1080140F2146218460EF057
:1005C0003BF80F4B7B600C4B1B68391D40F21362EC
:1005D00018460EF0B9F80346FB7397F90F30002B5D
:1005E00006D1054B1B680022064918460EF01AF981
:1005F00000BF1037BD4680BDA4000020C0A8019CEC
:10060000C0A801020906000890B5C5B000AF07F503
:100610008874A4F58274206007F58870A0F5847052
:10062000016007F58871A1F586710A6007F5887287
:10063000A2F58872136007F58873A3F586731B68AB
:10064000596807F58873A3F586731B685B891A469A
:10065000104810F0BEFD104B1B6801330E4A1360AA
:1006600007F58873A3F58673186807F067FE0A4BD1
:100670001A6807F110030949184610F013FD07F135
:100680001003184600F00CF800BF07F58A77BD4646
:1006900090BD00BFA80000202801002060220108B2
:1006A00080B5C4B000AF07F58873A3F586731860F2
:1006B00007F58873A3F5867307F108001A681749D0
:1006C00010F0F0FCC7F80C01D7F80C319BB24FF4D6
:1006D00020721946362007F04DFBC7F80801D7F8FD
:1006E0000831002B14D0D7F80C319AB207F1080367
:1006F0001946D7F8080108F08DF8094B1B68D7F8A0
:10070000081118460DF0AEFDD7F8080107F016FEE7
:1007100000BF07F58877BD4680BD00BF982201085D
:10072000A400002080B500AF01F064FA00F020F8CA
:1007300000F098FB00F086F800F0D6F800F008F919
:1007400000F03AF900F09CF900F042FA00F0BAFA31
:1007500000F006FB00F058FB00F05CF900F02AFB0B
:1007600005F092FDFFF71AFF05F0CEFEFCE7000052
:1007700080B594B000AF07F1200330220021184665
:1007800010F01FFD07F10C0300221A605A609A60F6
:10079000DA601A610023BB60284B1B6C274A43F0C8
:1007A00080531364254B1B6C03F08053BB60BB6804
:1007B00000237B60224B1B68214A43F48043136073
:1007C0001F4B1B6803F480437B607B6801233B6203
:1007D0004FF480337B620223BB634FF48003FB63DF
:1007E00004233B64A8237B640223BB640723FB64CC
:1007F00007F12003184603F0D7FD0346002B01D074
:1008000000F054FC0F23FB6002233B6100237B615B
:100810004FF4A053BB614FF48053FB6107F10C030D
:100820000521184604F038F80346002B01D000F0EB
:100830003DFC00BF5037BD4680BD00BF00380240C0
:100840000070004080B584B000AF3B4600221A60C3
:100850005A609A60DA60214B214A1A601F4B4FF4AC
:1008600080325A601D4B00229A601C4B00221A6194
:100870001A4B00221A76194B002283F82020174BBE
:100880000022DA62154B174A9A62144B0022DA6092
:10089000124B0122DA61114B002283F830200F4BFA
:1008A00001225A610D4801F03BFA0346002B01D0AA
:1008B00000F0FCFB00233B6001237B600023BB6056
:1008C0003B461946054801F06FFA0346002B01D05C
:1008D00000F0ECFB00BF1037BD4680BD2C010020AE
:1008E000002001400100000F80B500AF164B174AF1
:1008F0001A60154B10225A60134B00229A60124B5B
:100900000022DA60104B00221A610F4B00225A615C
:100910000D4B00221A760C4B00225A760A4B00220D
:100920009A76094B0022DA76074B00221A77064B9B
:1009300000225A77044801F055FC0346002B01D0F1
:1009400000F0B4FB00BF80BD7401002000640040D3
:1009500080B582B000AF3B4600221A605A60144B4B
:10096000144A1A60124801F04AFE0346002B01D0D7
:1009700000F09CFB00233B6000237B603B46002291
:1009800019460B4801F05DFE0346002B01D000F034
:100990008DFB3B4610221946054801F052FE0346E6
:1009A000002B01D000F082FB00BF0837BD4680BDA0
:1009B0009C0100200074004080B500AF124B134A28
:1009C0001A60114B124A5A600F4B00229A600E4B6C
:1009D0000022DA600C4B4FF480421A610A4B00226D
:1009E0005A61094B00229A61074B0022DA61064BDB
:1009F00000221A62044803F083FA0346002B01D058
:100A000000F054FB00BF80BDB00100200054004046
:100A1000A086010080B500AF174B184A1A60164B2C
:100A20004FF482725A60144B00229A60124B0022DB
:100A3000DA60114B00221A610F4B00225A610E4BF3
:100A40004FF400729A610C4B0022DA610A4B0022CB
:100A50001A62094B00225A62074B00229A62064B27
:100A60000A22DA62044804F037F90346002B01D069
:100A700000F01CFB00BF80BD04020020003C0040D1
:100A800080B592B000AF07F1400300221A605A60AF
:100A900007F1240300221A605A609A60DA601A6132
:100AA0005A619A613B1D20220021184610F089FBF3
:100AB000454B464A1A60444B00225A60424B002282
:100AC0009A60414B4FF6FF72DA603F4B00221A6189
:100AD0003D4B00225A613C4B00229A613A4804F097
:100AE000D3F90346002B01D000F0E0FA00233B6469
:100AF00000237B6407F140031946334804F032FDBC
:100B00000346002B01D000F0D1FA60237B62002362
:100B1000BB620023FB6200233B6300237B63002353
:100B2000BB630023FB6307F1240300221946264818
:100B300004F0FAF90346002B01D000F0B7FA07F1F0
:100B4000240304221946204804F0EEF90346002B42
:100B500001D000F0ABFA07F12403082219461A4825
:100B600004F0E2F90346002B01D000F09FFA07F1F0
:100B700024030C221946144804F0D6F90346002B2E
:100B800001D000F093FA00237B600023BB600023B8
:100B9000FB6000233B6100237B614FF40053BB618A
:100BA00000233B623B1D1946074804F057FD0346EE
:100BB000002B01D000F07AFA034800F05FFC00BF80
:100BC0004837BD4680BD00BF5C02002000000140E8
:100BD00080B58AB000AF07F1200300221A605A6086
:100BE0003B1D00221A605A609A60DA601A615A61ED
:100BF0009A61324B324A1A60304B00225A602F4BB6
:100C000000229A602D4B4FF6FF72DA602B4B0022C8
:100C10001A612A4B00229A61284804F035F90346EC
:100C2000002B01D000F042FA00233B6200237B62DC
:100C300007F120031946214804F094FC0346002BD9
:100C400001D000F033FA60237B600023BB600023F7
:100C5000FB6000237B613B1D00221946174804F00E
:100C600063F90346002B01D000F020FA3B1D04225B
:100C70001946124804F058F90346002B01D000F041
:100C800015FA3B1D082219460C4804F04DF903469D
:100C9000002B01D000F00AFA3B1D0C221946074830
:100CA00004F042F90346002B01D000F0FFF903489D
:100CB00000F0E4FB00BF2837BD4680BDA402002041
:100CC0000004004080B588B000AF3B1D00221A60D0
:100CD0005A609A60DA601A615A619A611E4B1F4A23
:100CE0001A601D4B00225A601B4B00229A601A4B5F
:100CF0004FF6FF72DA60184B00221A61164B002281
:100D00009A61154804F071F80346002B01D000F0F9
:100D1000CDF9114804F0B8F80346002B01D000F0DB
:100D2000C5F960237B600023BB600023FB600023C8
:100D30007B613B1D00221946074804F0F5F8034685
:100D4000002B01D000F0B2F9034800F097FB00BF80
:100D50002037BD4680BD00BFEC020020001C0040D3
:100D600080B500AF114B124A1A60104B4FF4E132BC
:100D70005A600E4B00229A600C4B0022DA600B4B3B
:100D800000221A61094B0C225A61084B00229A6119
:100D9000064B0022DA61054804F0B2FC0346002B42
:100DA00001D000F083F900BF80BD00BF34030020F4
:100DB0000010014080B500AF114B124A1A60104B71
:100DC0004FF4E1325A600E4B00229A600C4B002225
:100DD000DA600B4B00221A61094B0C225A61084B56
:100DE00000229A61064B0022DA61054804F088FC73
:100DF0000346002B01D000F059F900BF80BD00BFB1
:100E00007C0300200048004080B500AF144B4FF039
:100E1000A0421A60124B04221A71114B0222DA719D
:100E20000F4B00229A710E4B02225A720C4B002279
:100E30009A720B4B0022DA72094B00221A73084B8C
:100E400000229A73064B0022DA73054803F09CF9DE
:100E50000346002B01D000F029F900BF80BD00BF80
:100E6000C403002080B58CB000AF07F11C03002242
:100E70001A605A609A60DA601A610023BB61854B80
:100E80001B6B844A43F010031363824B1B6B03F00C
:100E90001003BB61BB6900237B617E4B1B6B7D4AEA
:100EA00043F0040313637B4B1B6B03F004037B6170
:100EB0007B6900233B61774B1B6B764A43F08003D1
:100EC0001363744B1B6B03F080033B613B6900238E
:100ED000FB60704B1B6B6F4A43F0010313636D4B58
:100EE0001B6B03F00103FB60FB680023BB60694BD5
:100EF0001B6B684A43F002031363664B1B6B03F0E2
:100F00000203BB60BB6800237B60624B1B6B614AC2
:100F100043F0080313635F4B1B6B03F008037B6014
:100F20007B68002249F288515B4802F0CFFF002223
:100F30004FF46041594802F0C9FF00224FF4474185
:100F4000574802F0C3FF00224FF40141554802F018
:100F5000BDFF00220821544802F0B8FF4523FB6181
:100F600000233B6200237B6207F11C0319464A48B9
:100F700002F010FE49F28853FB6101233B6200231B
:100F80007B620023BB6207F11C031946424802F052
:100F900001FE3223FB614FF488133B6200237B6226
:100FA00007F11C0319463C4802F0F4FD4FF460437E
:100FB000FB6101233B6200237B620023BB6207F1DC
:100FC0001C031946354802F0E5FD40F24D33FB6144
:100FD0004FF488133B6200237B6207F11C03194620
:100FE0002E4802F0D7FD4FF44743FB6101233B62DB
:100FF00000237B620023BB6207F11C0319462848CB
:1010000002F0C8FD4FF68043FB614FF488133B624A
:1010100000237B6207F11C031946234802F0BAFD46
:101020004FF40143FB6101233B6200237B620023F9
:10103000BB6207F11C0319461A4802F0ABFD74238A
:10104000FB6100233B6200237B6207F11C0319460E
:10105000154802F09FFD0823FB6101233B6200233A
:101060007B620023BB6207F11C0319460E4802F0A5
:1010700091FD2023FB6100233B6200237B6207F18B
:101080001C031946064802F085FD00BF3037BD46F7
:1010900080BD00BF0038024000100240000802403E
:1010A0000004024000000240000C024080B400AF87
:1010B00072B600BF00BFFDE780B483B000AF00236D
:1010C0007B60104B5B6C0F4A43F4804353640D4BC1
:1010D0005B6C03F480437B607B6800233B60094BBF
:1010E0001B6C084A43F080531364064B1B6C03F0DF
:1010F00080533B603B6800BF0C37BD465DF8047B06
:10110000704700BF0038024080B58AB000AF7860F9
:1011100007F1140300221A605A609A60DA601A61BB
:101120007B681B68174A934227D100233B61164B0B
:101130005B6C154A43F480735364134B5B6C03F48C
:1011400080733B613B690023FB600F4B1B6B0E4AB6
:1011500043F0010313630C4B1B6B03F00103FB60B3
:10116000FB6809237B610323BB610023FB6107F15B
:1011700014031946054802F00DFD00BF2837BD468F
:1011800080BD00BF00200140003802400000024046
:1011900080B58AB000AF786007F1140300221A60AE
:1011A0005A609A60DA601A617B681B68194A934238
:1011B0002BD100233B61184B1B6C174A43F0007383
:1011C0001364154B1B6C03F000733B613B690023F8
:1011D000FB60114B1B6B104A43F0080313630E4B6B
:1011E0001B6B03F00803FB60FB6803237B61022396
:1011F000BB610023FB6103233B6209237B6207F190
:1012000014031946054802F0C5FC00BF2837BD4647
:1012100080BD00BF0064004000380240000C024066
:1012200080B58AB000AF786007F1140300221A601D
:101230005A609A60DA601A617B681B68174A9342A9
:1012400027D100233B61164B1B6C154A43F000531A
:101250001364134B1B6C03F000533B613B69002389
:10126000FB600F4B1B6B0E4A43F0010313630C4BE7
:101270001B6B03F00103FB60FB6830237B610323DE
:10128000BB610023FB6107F114031946054802F016
:1012900081FC00BF2837BD4680BD00BF0074004000
:1012A000003802400000024080B58AB000AF78608C
:1012B00007F1140300221A605A609A60DA601A611A
:1012C0007B681B68194A93422BD100233B61184B62
:1012D0001B6B174A43F002031363154B1B6B03F0A0
:1012E00002033B613B69C0237B611223BB61002386
:1012F000FB6103233B6204237B6207F1140319465D
:101300000C4802F047FC0023FB60094B1B6C084AA9
:1013100043F400131364064B1B6C03F40013FB60CF
:10132000FB6800BF2837BD4680BD00BF00540040A9
:10133000003802400004024080B58AB000AF7860F7
:1013400007F1140300221A605A609A60DA601A6189
:101350007B681B68194A93422CD100233B61184BD0
:101360001B6C174A43F400431364154B1B6C03F4C6
:1013700000433B613B690023FB60114B1B6B104A30
:1013800043F0040313630E4B1B6B03F00403FB6079
:10139000FB684FF4E0537B610223BB610023FB61D8
:1013A00003233B6206237B6207F1140319460548B9
:1013B00002F0F0FB00BF2837BD4680BD003C004076
:1013C000003802400008024080B485B000AF786069
:1013D0007B681B68154A93420ED10023FB60144BB7
:1013E0005B6C134A43F001035364114B5B6C03F0D5
:1013F0000103FB60FB6812E07B681B680D4A9342A7
:101400000DD10023BB600A4B1B6C094A43F0020359
:101410001364074B1B6C03F00203BB60BB6800BF87
:101420001437BD465DF8047B704700BF00000140E3
:10143000003802400004004080B485B000AF7860FE
:101440007B681B680B4A93420DD10023FB600A4B5B
:101450001B6C094A43F080031364074B1B6C03F0B9
:101460008003FB60FB6800BF1437BD465DF8047B5A
:10147000704700BF001C00400038024080B58CB0AF
:1014800000AF786007F11C0300221A605A609A606E
:10149000DA601A617B681B68454A93421FD10023BA
:1014A000BB61444B1B6B434A43F010031363414B36
:1014B0001B6B03F01003BB61BB694FF4D443FB61AA
:1014C00002233B6200237B620023BB620123FB6299
:1014D00007F11C031946384802F05CFB64E07B68A6
:1014E0001B68364A93423CD100237B61314B1B6B16
:1014F000304A43F0020313632E4B1B6B03F00203CD
:101500007B617B6900233B612A4B1B6B294A43F0BB
:1015100004031363274B1B6B03F004033B613B691C
:101520001323FB6102233B6200237B620023BB6227
:101530000223FB6207F11C031946214802F02AFB33
:101540008023FB6102233B6200237B620023BB629A
:101550000223FB6207F11C0319461A4802F01AFB2A
:1015600022E07B681B68184A93421DD10023FB6070
:10157000104B1B6B0F4A43F0010313630D4B1B6BA6
:1015800003F00103FB60FB684023FB6102233B6225
:1015900000237B620023BB620923FB6207F11C036B
:1015A00019460A4802F0F6FA00BF3037BD4680BD42
:1015B00000000140003802400010024000040040DA
:1015C0000004024000080240001C004000000240ED
:1015D00080B58CB000AF786007F11C0300221A6060
:1015E0005A609A60DA601A617B681B68334A9342DA
:1015F0002DD10023BB61324B5B6C314A43F01003A9
:1016000053642F4B5B6C03F01003BB61BB69002379
:101610007B612B4B1B6B2A4A43F001031363284B5E
:101620001B6B03F001037B617B694FF4C063FB61BB
:1016300002233B6200237B620323BB620723FB621E
:1016400007F11C0319461F4802F0A4FA31E07B6839
:101650001B681D4A93422CD100233B61184B1B6C25
:10166000174A43F480231364154B1B6C03F4802347
:101670003B613B690023FB60114B1B6B104A43F03D
:10168000080313630E4B1B6B03F00803FB60FB683E
:101690004FF44073FB6102233B6200237B62032310
:1016A000BB620723FB6207F11C031946074802F0DF
:1016B00071FA00BF3037BD4680BD00BF0010014049
:1016C000003802400000024000480040000C024088
:1016D00080B58AB000AF786007F1140300221A6069
:1016E0005A609A60DA601A617B681B68B3F1A04F98
:1016F00032D100233B611A4B1B6B194A43F00103A3
:101700001363174B1B6B03F001033B613B694FF401
:10171000C0537B610223BB610023FB6103233B6257
:101720000A237B6207F1140319460E4802F032FACD
:101730000B4B5B6B0A4A43F0800353630023FB604F
:10174000074B5B6C064A43F480435364044B5B6C69
:1017500003F48043FB60FB6800BF2837BD4680BDB3
:10176000003802400000024080B400AF00BFFDE737
:1017700080B400AF00BFFDE780B400AF00BFFDE75D
:1017800080B400AF00BFFDE780B400AF00BFFDE74D
:1017900080B400AF00BFBD465DF8047B704780B4E5
:1017A00000AF00BFBD465DF8047B704780B400AF5A
:1017B00000BFBD465DF8047B704780B500AF00F008
:1017C0006BFA00BF80BD000080B500AF024801F099
:1017D000F3FA00BF80BD00BFCC53002080B400AF3F
:1017E00001231846BD465DF8047B704780B483B082
:1017F00000AF78603960054B16221A604FF0FF3356
:1018000018460C37BD465DF8047B70479C8A002063
:1018100080B582B000AF78604FF0FF317868FFF795
:10182000E5FF00BFFDE780B586B000AFF860B960A6
:101830007A6000237B610AE0AFF300800146BB6859
:101840005A1CBA60CAB21A707B6901337B617A692B
:101850007B689A42F0DB7B6818461837BD4680BD2E
:1018600080B586B000AFF860B9607A6000237B6114
:1018700009E0BB685A1CBA601B781846AFF30080B9
:101880007B6901337B617A697B689A42F1DB7B6813
:1018900018461837BD4680BD80B483B000AF78606D
:1018A0004FF0FF3318460C37BD465DF8047B704798
:1018B00080B483B000AF786039603B684FF4005269
:1018C0005A60002318460C37BD465DF8047B70470C
:1018D00080B483B000AF7860012318460C37BD4652
:1018E0005DF8047B704780B485B000AFF860B960E4
:1018F0007A60002318461437BD465DF8047B7047B4
:1019000080B487B000AF7860144A154BD31A7B615E
:101910007B693B61134B1B68002B02D1114B124AB0
:101920001A60104B1A687B6813443A699A4205D2D0
:101930000E4B0C221A604FF0FF3309E0094B1B6875
:10194000FB60084B1A687B681344064A1360FB6807
:1019500018461C37BD465DF8047B70470000022026
:1019600000400000A8080020B08A00209C8A0020C7
:1019700080B400AF064BD3F88830054A43F47003B7
:10198000C2F8883000BFBD465DF8047B704700BFD9
:1019900000ED00E0DFF834D0FFF7EAFF0C480D4916
:1019A0000D4A002302E0D458C4500433C4188C42BA
:1019B000F9D30A4A0A4C002301E013600432A24220
:1019C000FBD30FF05FFCFEF7ADFE70470000022076
:1019D0000000002088000020704E010888000020D0
:1019E000AC8A0020FEE780B483B000AF7860396035
:1019F0007B68002B0BD03B68DB68002B07D03B6873
:101A00009B68002B03D03B681B69002B02D14FF071
:101A1000FF3314E03B681A687B689A603B685A6839
:101A20007B68DA603B68DA687B685A613B689A6871
:101A30007B681A613B681A697B689A6100231846C3
:101A40000C37BD465DF8047B704780B586B000AFAB
:101A500078600023FB6000237B6100233B617B688F
:101A60005B68002B39D17B689B68002B02D07B68B8
:101A70009B6898477B6820221A6000237B611CE0EA
:101A80007B685B6907F10C0212217869984703466D
:101A9000002B03DA6FF004033B610BE0FB6803F0FB
:101AA0001F037A699A4205D17B687A691A6000231C
:101AB0003B6105E07B6901337B617B691F2BDFD9CB
:101AC0007B681B681F2B02D96FF002033B613B69E7
:101AD000002B02D17B6801225A603B6918461837F7
:101AE000BD4680BD80B584B000AF78600023FB6048
:101AF0007B685B697A68106807F10C0201219847DE
:101B00000346002B02DA6FF004036EE07B685B692A
:101B10007A68106807F10C02012198470346002BF0
:101B200002DA6FF0040360E0FB6803F00403002BAB
:101B300001D1012359E07B685B697A68106807F17D
:101B40000C02002198470346002B02DA6FF00403D1
:101B50004BE0FB6803F48053002B1BD1FB6803F4BC
:101B60000053002B06D0FB6803F48073002B01D0D8
:101B700002233AE0FB6803F40053002B01D0032357
:101B800033E0FB6803F48073002B01D004232CE0C6
:101B900005232AE07B685B697A68106807F10C020C
:101BA0001F2198470346002B02DA6FF004031CE064
:101BB000FB6803F48053002B01D1062315E0FB687A
:101BC00003F01C03182B01D102230EE0FB6803F085
:101BD0001C03082B01D1032307E0FB6803F01C035F
:101BE000142B01D1042300E0052318461037BD460D
:101BF00080BD000080B500AF0E4B1B680D4A43F45A
:101C0000007313600B4B1B680A4A43F48063136034
:101C1000084B1B68074A43F480731360032000F0ED
:101C2000ADFC0F2000F008F8FFF746FA0023184635
:101C300080BD00BF003C024080B582B000AF78603C
:101C4000124B1A68124B1B7819464FF47A73B3FB88
:101C5000F1F3B2FBF3F3184600F0C5FC0346002B8A
:101C600001D001230EE07B680F2B0AD8002279688F
:101C70004FF0FF3000F08DFC064A7B6813600023B4
:101C800000E0012318460837BD4680BD0000002053
:101C9000080000200400002080B400AF064B1B7831
:101CA0001A46064B1B681344044A136000BFBD4626
:101CB0005DF8047B704700BF08000020AC080020DE
:101CC00080B400AF034B1B681846BD465DF8047B2B
:101CD000704700BFAC08002080B584B000AF7860CA
:101CE000FFF7EEFFB8607B68FB60FB68B3F1FF3F76
:101CF00005D00A4B1B781A46FB681344FB6000BFF3
:101D0000FFF7DEFF0246BB68D31AFA689A42F7D89B
:101D100000BF00BF1037BD4680BD00BF08000020D7
:101D200080B584B000AF78600023FB737B68002B24
:101D300001D1012333E07B681B6C002B09D178684B
:101D4000FFF7E2F97B6800225A647B68002283F87F
:101D50003C207B681B6C03F01003002B18D17B68C0
:101D60001B6C23F4885323F0020343F002027B68C8
:101D70001A64786800F03AF97B6800225A647B683C
:101D80001B6C23F0030343F001027B681A6401E03B
:101D90000123FB737B68002283F83C20FB7B184601
:101DA0001037BD4680BD000080B485B000AF7860BC
:101DB00039600023BB607B6893F83C30012B01D174
:101DC000022305E17B68012283F83C203B681B6805
:101DD000092B25D97B681B68D9683B681B689BB2B7
:101DE0001A4613465B0013441E3B072202FA03F314
:101DF000DA437B681B680A40DA607B681B68D96835
:101E00003B689A683B681B689BB2184603465B00B8
:101E100003441E3B9A407B681B680A43DA6022E059
:101E20007B681B6819693B681B689BB21A4613469E
:101E30005B001344072202FA03F3DA437B681B6852
:101E40000A401A617B681B6819693B689A683B689D
:101E50001B689BB2184603465B0003449A407B68AC
:101E60001B680A431A613B685B68062B24D87B68B1
:101E70001B68596B3B685A6813469B001344053B2B
:101E80001F2202FA03F3DA437B681B680A405A6395
:101E90007B681B68596B3B681B689BB218463B68A4
:101EA0005A6813469B001344053B00FA03F27B6813
:101EB0001B680A435A634CE03B685B680C2B24D8D0
:101EC0007B681B68196B3B685A6813469B00134478
:101ED000233B1F2202FA03F3DA437B681B680A40A4
:101EE0001A637B681B68196B3B681B689BB21846BA
:101EF0003B685A6813469B001344233B00FA03F2E5
:101F00007B681B680A431A6323E07B681B68D96AF5
:101F10003B685A6813469B001344413B1F2202FA58
:101F200003F3DA437B681B680A40DA627B681B684C
:101F3000D96A3B681B689BB218463B685A681346CF
:101F40009B001344413B00FA03F27B681B680A4381
:101F5000DA62224BFB607B681B68214A934209D1FD
:101F60003B681B68122B05D1FB685B6843F4800259
:101F7000FB685A607B681B68194A934223D13B680F
:101F80001B68102B03D03B681B68112B1BD1FB680F
:101F90005B6843F40002FB685A603B681B68102BC7
:101FA00011D1104B1B68104AA2FB03239A0C134655
:101FB0009B0013445B00BB6002E0BB68013BBB605D
:101FC000BB68002BF9D17B68002283F83C200023FA
:101FD00018461437BD465DF8047B70470023014066
:101FE000002001400000002083DE1B4380B485B048
:101FF00000AF7860794BFB60FB685B6823F440328C
:10200000FB685A60FB685A687B685B681A43FB6828
:102010005A607B681B685A687B681B6822F4807270
:102020005A607B681B6859687B681B691A027B6869
:102030001B680A435A607B681B685A687B681B6888
:1020400022F040725A607B681B6859687B689A6806
:102050007B681B680A435A607B681B689A687B68C8
:102060001B6822F400629A607B681B6899687B6831
:10207000DA687B681B680A439A607B689B6A584AE7
:10208000934222D07B681B689A687B681B6822F0A9
:1020900070629A607B681B6899687B689A6A7B6843
:1020A0001B680A439A607B681B689A687B681B6898
:1020B00022F040529A607B681B6899687B68DA6AF4
:1020C0007B681B680A439A600FE07B681B689A680C
:1020D0007B681B6822F070629A607B681B689A6854
:1020E0007B681B6822F040529A607B681B689A6884
:1020F0007B681B6822F002029A607B681B68996803
:102100007B681B7E5A007B681B680A439A607B6869
:1021100093F82030002B1BD07B681B685A687B68C3
:102120001B6842F400625A607B681B685A687B68CF
:102130001B6822F460425A607B681B6859687B68A0
:102140005B6A013B5A037B681B680A435A6007E0DD
:102150007B681B685A687B681B6822F400625A60BF
:102160007B681B68DA6A7B681B6822F47002DA629B
:102170007B681B68D96A7B68DB69013B1A057B6851
:102180001B680A43DA627B681B689A687B681B6875
:1021900022F400729A607B681B6899687B6893F8E8
:1021A00030305A027B681B680A439A607B681B6860
:1021B0009A687B681B6822F480629A607B681B685F
:1021C00099687B685B699A027B681B680A439A601E
:1021D00000BF1437BD465DF8047B70470023014003
:1021E0000100000F80B584B000AF78607B68002BE1
:1021F00001D10123EDE07B6893F82030DBB2002BA6
:1022000002D17868FEF7C4FF7B681B681A687B6898
:102210001B6842F001021A60FFF752FDF86012E0FD
:10222000FFF74EFD0246FB68D31A0A2B0BD97B68D9
:102230005B6A43F400327B685A627B68052283F84C
:1022400020200123C5E07B681B685B6803F0010365
:10225000002BE5D07B681B681A687B681B6822F03E
:1022600002021A60FFF72CFDF86012E0FFF728FD6C
:102270000246FB68D31A0A2B0BD97B685B6A43F4CE
:1022800000327B685A627B68052283F82020012394
:102290009FE07B681B685B6803F00203002BE5D1BD
:1022A0007B681B7E012B08D17B681B681A687B68E2
:1022B0001B6842F080021A6007E07B681B681A689E
:1022C0007B681B6822F080021A607B685B7E012BB2
:1022D00008D17B681B681A687B681B6842F0400263
:1022E0001A6007E07B681B681A687B681B6822F02D
:1022F00040021A607B689B7E012B08D17B681B68BB
:102300001A687B681B6842F020021A6007E07B684D
:102310001B681A687B681B6822F020021A607B68C1
:10232000DB7E012B08D17B681B681A687B681B6801
:1023300022F010021A6007E07B681B681A687B684D
:102340001B6842F010021A607B681B7F012B08D1CA
:102350007B681B681A687B681B6842F008021A6079
:1023600007E07B681B681A687B681B6822F008021C
:102370001A607B685B7F012B08D17B681B681A6839
:102380007B681B6842F004021A6007E07B681B68E8
:102390001A687B681B6822F004021A607B689A68DE
:1023A0007B68DB681A437B681B691A437B685B693F
:1023B00042EA03017B685B685A1E7B681B680A431C
:1023C000DA617B6800225A627B68012283F8202050
:1023D000002318461037BD4680BD000080B485B08C
:1023E00000AF78607B6803F00703FB600C4BDB6891
:1023F000BB60BA684FF6FF031340BB60FB681A026C
:10240000BB68134343F0BF6343F40033BB60044A2B
:10241000BB68D36000BF1437BD465DF8047B7047CE
:1024200000ED00E080B400AF044BDB681B0A03F052
:1024300007031846BD465DF8047B704700ED00E0D9
:1024400080B483B000AF0346FB7197F90730002BCF
:102450000BDBFB7903F01F02074997F907305B0993
:10246000012000FA02F241F8232000BF0C37BD46DC
:102470005DF8047B704700BF00E100E080B483B0EA
:1024800000AF03463960FB7197F90730002B0ADB78
:102490003B68DAB20C4997F907301201D2B20B440B
:1024A00083F800230AE03B68DAB20849FB7903F0BD
:1024B0000F03043B1201D2B20B441A7600BF0C3753
:1024C000BD465DF8047B704700E100E000ED00E0F0
:1024D00080B489B000AFF860B9607A60FB6803F03F
:1024E0000703FB61FB69C3F10703042B28BF042327
:1024F000BB61FB690433062B02D9FB69033B00E097
:1025000000237B614FF0FF32BB6902FA03F3DA4329
:10251000BB681A407B699A404FF0FF317B6901FA32
:1025200003F3D9437B680B40134318462437BD4659
:102530005DF8047B7047000080B582B000AF786022
:102540007B68013BB3F1807F01D301230FE00A4A8E
:102550007B68013B53600F214FF0FF30FFF78EFF88
:10256000054B00229A60044B07221A60002318468C
:102570000837BD4680BD00BF10E000E080B582B0E6
:1025800000AF78607868FFF729FF00BF0837BD46C5
:1025900080BD80B586B000AF0346B9607A60FB733A
:1025A00000237B61FFF73EFF78617A68B96878693C
:1025B000FFF78EFF024697F90F3011461846FFF7D6
:1025C0005DFF00BF1837BD4680BD80B582B000AF4B
:1025D0000346FB7197F907301846FFF731FF00BF3C
:1025E0000837BD4680BD80B582B000AF786078689E
:1025F000FFF7A2FF034618460837BD4680BD80B5E9
:1026000082B000AF78607B68002B01D1012314E019
:102610007B681B79DBB2002B05D17B6800225A71E5
:102620007868FEF7FDFD7B6802221A717B68002244
:102630001A617B6801221A71002318460837BD46CB
:1026400080BD80B489B000AFF860B9607A600023C3
:10265000FB77FB68002B02D0BB68002B01D1012364
:1026600042E0FB685B79012B01D102233CE0FB686F
:1026700001225A71FB6802221A71FB681B681B68F1
:10268000BB617B6803F0100340F6FE7202FA03F3AD
:10269000DB43BA691340BB61BB681A68BB685B68FF
:1026A00013437B617B6803F010037A6902FA03F33A
:1026B000BA691343BB61FB681B68BA691A60FB689F
:1026C0001B6819687B6803F01003C02202FA03F349
:1026D000DA43FB681B680A401A60FB6801221A7122
:1026E000FB6800225A71FB7F18462437BD465DF80F
:1026F000047B704780B584B000AF78607B68002BA6
:1027000001D101238AE07B68D3F88430002B06D105
:102710007B682322C3F88420786804F0B9F800238A
:10272000BB60404B5B6C3F4A43F4804353643D4B7A
:102730005B6C03F48043BB60BB683B4B5B683A4A0D
:1027400023F400035360384B5A687B689B68364912
:1027500013434B60344B5B687B681B6803F5805305
:102760001B687A68126843F0010302F58052136017
:10277000FFF7A6FAF86011E0FFF7A2FA0246FB683D
:10278000D31AB3F5FA7F09D97B680422C3F88820ED
:102790007B68E022C3F8842001233FE07B681B684C
:1027A00003F580531B6803F00103002BE4D1786824
:1027B00000F032FF786800F0DDFF786801F033F850
:1027C0007B685B681A460021786800F09BFF7B6895
:1027D0001B68DA6B7B681B6842F40272DA637B6801
:1027E0001B68D3F80C317A68126843F4003343F065
:1027F0006003C2F80C317B681B68D3F810217B683A
:102800001B6842F40312C3F810217B680022C3F84E
:1028100088207B681022C3F88420002318461037D4
:10282000BD4680BD003802400038014080B584B00C
:1028300000AF78607B68D3F88430102B61D17B685F
:102840002322C3F884207B6801229A657B680422D6
:10285000DA66786800F02CFA7B681B681B68FB60FE
:102860000120FFF739FA7B681B68FA681A607B68F9
:102870001B6803F580539B697A68126843F4005320
:1028800002F5805293617B681B6803F580539B6956
:102890007A68126843F0020302F580529361786807
:1028A00000F056FD7B681B681A687B681B6842F065
:1028B00008021A607B681B681B68FB600120FFF739
:1028C0000BFA7B681B68FA681A607B681B681A68D9
:1028D0007B681B6842F004021A607B681B6803F582
:1028E0008053DB697A68126843F4D03343F0C10344
:1028F00002F58052D3617B682322C3F88420002331
:1029000000E0012318461037BD4680BD80B586B073
:1029100000AF78607B68D3F88430232B70D17B685C
:102920002322C3F884207B681B6803F58053DB698E
:102930007A68126823F4D03323F0C10302F5805281
:10294000D3617B681B6803F580539B697A681268C2
:1029500023F4005302F5805293617B681B6803F5F2
:1029600080539B697A68126823F0020302F5805253
:1029700093617B681B681A687B681B6822F00402FD
:102980001A607B681B681B683B610120FFF7A4F994
:102990007B681B683A691A60786800F0D9FC7B682C
:1029A0001B681A687B681B6822F008021A607B6843
:1029B0001B681B683B610120FFF78EF97B681B6871
:1029C0003A691A6000237B610EE07B687A691232F3
:1029D00053F82230FB60FB685B6843F00042FB6801
:1029E0005A607B6901337B617B69032BEDD97B687E
:1029F00000229A657B681022C3F88420002300E03F
:102A0000012318461837BD4680BD80B586B000AF9B
:102A1000F860B9607A60BB68002B09D1FB68D3F815
:102A2000883043F00102FB68C3F8882001237CE072
:102A3000FB68D3F88430232B76D10022B968F8687C
:102A400000F060FF0346002B09D0FB68D3F8883004
:102A500043F00202FB68C3F88820012365E0BFF35E
:102A60004F8F00BFFB689A6AFB68063253F822302A
:102A70007B61FB689B6A5A1CFB689A62FB689B6AD5
:102A8000032B04D9FB689B6A1A1FFB689A62FB68D8
:102A9000996AFB681A68FB68063153F8213002F521
:102AA00080525360FFF70CF9386137E0FB681B6810
:102AB00003F580535B6903F40053002B11D0FB68CE
:102AC000D3F8883043F00802FB68C3F88820FB681D
:102AD0001B6803F580535A69FB68C3F88C200123F7
:102AE00023E07B68B3F1FF3F18D0FFF7E9F8024617
:102AF0003B69D31A7A689A4202D37B68002B0DD1C6
:102B0000FB68D3F8883043F00402FB68C3F88820E0
:102B10007B694FF040521A60012306E07B691B6815
:102B2000002BC3DB002300E0012318461837BD4605
:102B300080BD80B588B000AF7860396000237B61CC
:102B40000023FB743B68002B09D17B68D3F88830E5
:102B500043F001027B68C3F888200123A4E07B686E
:102B6000D3F88430232B01D001239DE07B68DB6DFB
:102B7000FB617B68FA69123253F82230BB617B68D3
:102B8000DB6EC3F10403FB6066E0BB691B6803F402
:102B90008073002B07D0BB69DA697B689A67BB69D1
:102BA0009A697B685A67BB691B6803F40073002B42
:102BB00003D17B68DB6F002B3CD0BB691B6803F43F
:102BC0000073002B05D07B6800221A667B68002208
:102BD0005A66BB691B681B0CC3F30D03BB60BB6962
:102BE0001B6803F48073002B05D0BB691A687B68EF
:102BF0001A670123FB74BB699A68BB691A627B6818
:102C000003F17C007B6803F18001BB691B6A1A46F3
:102C1000BB689BB203F0F4FF7B681B6E5A1C7B6899
:102C20001A667B685A6EBB681A447B685A66BB6931
:102C300000221A62FB690133FB61FB69032B02D995
:102C4000FB69043BFB617B68FA69123253F822305E
:102C5000BB617B6901337B61BB691B68002B06DBB1
:102C60007A69FB689A4202D2FB7C002B8DD07B688C
:102C7000DA6E7B691A447B68DA667B68DB6E002B50
:102C800002D0786800F014F87B68FA69DA65FB7C9A
:102C9000012B08D17B68DA6F3B681A607B680022E1
:102CA000DA67002300E0012318462037BD4680BDC7
:102CB00080B588B000AF78600023BB600123FB744F
:102CC0007B689B6EFB617B68FA69123253F8223095
:102CD0007B617B68DB6EBB6144E07B691B6A002B18
:102CE00012D107F10803184603F05AFFBB68002B06
:102CF00002D10023FB7407E0BB681A467B691A62A5
:102D0000BB681A467B699A60FB7C002B2AD07B68E3
:102D10009B6D002B08D17B685B6943F0004343F453
:102D200080437A69536005E07B685B6943F48042C5
:102D30007B695A607B691B6843F000427B691A60BB
:102D4000FB690133FB61FB69032B02D9FB69043B7F
:102D5000FB617B68FA69123253F822307B61BB69F0
:102D6000013BBB61BB69002B02D0FB7C002BB4D1C3
:102D70007B68DB6EBA699A421AD0FB69013303F0B3
:102D80000303FB60BFF35F8F00BF7B681969FA68BC
:102D900013469B001344DB00CA187B681B6803F5CD
:102DA00080539A607B68FA699A667B68BA69DA66CA
:102DB00000BF2037BD4680BD80B586B000AF7860CB
:102DC0007B681B689B6B7B617B681B6803F580538A
:102DD0005B693B617B681B6803F58053DB69FB60C3
:102DE0004B4B5B69BB603B6903F04003002B0ED08B
:102DF000FB6803F04003002B09D07B681B6803F5D8
:102E000080531A46434B5361786800F091F83B6950
:102E100003F00103002B0FD0FB6803F00103002B2C
:102E20000AD07B681B6803F580531A464FF00113E4
:102E30005361786800F072F83B6903F40043002B9B
:102E400042D0FB6803F40043002B3DD07B68D3F8ED
:102E5000883043F008027B68C3F888203B6903F49C
:102E60000053002B1AD07B681B6803F580535A6906
:102E7000294B13407A68C2F88C307B681B6803F5D5
:102E80008053DB697A68126823F4C03302F58052FC
:102E9000D3617B68E022C3F8842012E07B681B6862
:102EA00003F580535A6948F2806313407A68C2F888
:102EB0008C307B681B6803F580531A4648F28063A8
:102EC0005361786800F03EF87B6903F00803002B3B
:102ED0000ED07B681B68DB6A03F060027B68C3F876
:102EE0009420786800F038F87B680022C3F89420BA
:102EF000BB6803F40023002B06D0054B4FF40022DF
:102F00005A61786800F032F800BF1837BD4680BDBE
:102F1000003C01404000010000207E0080B483B0EE
:102F200000AF786000BF0C37BD465DF8047B70478A
:102F300080B483B000AF786000BF0C37BD465DF849
:102F4000047B704780B483B000AF786000BF0C375B
:102F5000BD465DF8047B704780B483B000AF7860F5
:102F600000BF0C37BD465DF8047B704780B483B06A
:102F700000AF786000BF0C37BD465DF8047B70473A
:102F800080B586B000AFF860B9607A603B60FB68DE
:102F90001B681B697B617B6903F01C037B61BB6859
:102FA000DB029BB27A6913437B617B689B0103F46C
:102FB000F8637A6913437B617B6923F002037B61C9
:102FC0007B6943F001037B61FB681B687A691A61C6
:102FD000FEF776FE38610DE0FEF772FE02463B69B1
:102FE000D31AB3F5803F01D3012310E0FB681B68BF
:102FF0001B697B617B6903F00103002BECD1FB684B
:103000001B685B699BB21A463B681A60002318462E
:103010001837BD4680BD80B586B000AFF860B96096
:103020007A603B60FB681B681B697B617B6903F00E
:103030001C037B61BB68DB029BB27A6913437B6133
:103040007B689B0103F4F8637A6913437B617B69B6
:1030500043F002037B617B6943F001037B613B68C2
:103060009AB2FB681B685A61FB681B687A691A612F
:10307000FEF726FE38610DE0FEF722FE02463B69B0
:10308000D31AB3F5803F01D3012309E0FB681B6825
:103090001B697B617B6903F00103002BECD10023EA
:1030A00018461837BD4680BD80B483B000AF786045
:1030B00039603B68002B01D10123E6E07B681B6887
:1030C0001B6803F01003002B14BF01230023DBB2A5
:1030D0001A463B6883F828207B681B681B6803F04E
:1030E00060023B685A627B681B681B6803F40073CC
:1030F000002B0CBF01230023DBB21A463B6883F888
:1031000020207B681B681B6803F48033002B14BFEE
:1031100001230023DBB21A463B68DA777B681B6821
:103120001B6803F40053002B0CBF01230023DBB208
:103130001A463B689A777B681B681B6803F48053C8
:10314000002B14BF01230023DBB21A463B681A7719
:103150007B681B681B6803F400623B689A617B68AC
:103160001B681B6803F480423B685A617B681B68DC
:103170001B6803F48003002B0CBF01230023DBB288
:103180001A463B685A747B681B681B6803F400038B
:10319000002B0CBF01230023DBB21A463B681A74D4
:1031A0007B681B681B6803F08003002B14BF01239E
:1031B0000023DBB21A463B68DA737B681B681B6826
:1031C00003F460223B689A607B681B681B6803F409
:1031D0008063002B14BF01230023DBB21A463B6837
:1031E0001A717B681B681B6803F00073002B14BF07
:1031F00001230023DBB21A463B689A737B681B6885
:103200009B6903F00203002B14BF01230023DBB2F0
:103210001A463B6883F854207B681B689B6903F05F
:103220008003002B0CBF01230023DBB21A463B684E
:1032300083F84C207B681B689B6903F030023B6875
:103240001A657B681B689B691B0C9AB23B689A6481
:103250007B681B689B6903F00403002B14BF0123E8
:103260000023DBB21A463B6883F856207B681B6854
:103270009B6903F00803002B14BF01230023DBB27A
:103280001A463B6883F85520002318460C37BD4684
:103290005DF8047B704780B582B000AF786039601C
:1032A0003B68002B01D101230BE07B68D3F884300D
:1032B000102B05D13968786800F070F8002300E021
:1032C000012318460837BD4680BD000080B584B094
:1032D00000AF78607B681B681B69FB60FB6823F0AC
:1032E0001C03FB6001F0C4FCB860BB68144A934245
:1032F00004D8FB6843F00803FB6019E0BB68114A7F
:10330000934204D2FB6843F00C03FB6010E0BB68FF
:103310000D4A93420CD9BB680C4A934204D8FB680F
:1033200043F00403FB6003E0FB6843F01003FB6021
:103330007B681B68FA681A6100BF1037BD4680BD04
:10334000BF0E160200879303FFE0F5057FD1F0085A
:1033500080B584B000AF78600023FB607B681B6899
:1033600003F580539B697A68126843F4801302F571
:10337000805293617B681B6803F580539B69FB60F7
:103380000120FEF7A9FC7B681A68FB6802F58052F1
:10339000936100BF1037BD4680BD000080B584B08A
:1033A00000AF786039607B681B681B68FB60FA6857
:1033B000534B1340FB603B689B7B5B063A68127C77
:1033C000002A02D14FF4000200E0002213433A68C1
:1033D000527C002A02D14FF4800200E000221A43FE
:1033E0003B689B681A433B68DB7F1B041A433B68BE
:1033F0005B6913433A68927F002A02D14FF400526E
:1034000000E000221A433B681B7F1B031A433B6802
:103410009B691A433B681B799B0213433A6892F8F5
:103420002020002A02D14FF4007200E000221A434B
:103430003B68DB7BDB011A433B685B6A1A433B68F2
:1034400093F828301B011343FA681343FB607B6831
:103450001B68FA681A607B681B681B68FB600120A8
:10346000FEF73AFC7B681B68FA681A607B681B6889
:103470009B69FB60FA684FF641731340FB603B6841
:103480009B6C1B043A6892F84C20002A01D18022E0
:1034900000E000221A433B681B6D13433A6892F820
:1034A0005520012A01D1082200E0002213433A6886
:1034B00092F85620012A01D1042200E00022134391
:1034C0003A6892F85420012A01D1022200E0002239
:1034D0001343FA681343FB607B681B68FA689A61C0
:1034E0007B681B689B69FB600120FEF7F5FB7B682E
:1034F0001B68FA689A6100BF1037BD4680BD00BFE7
:103500000F8120FD80B584B000AF786039607B68A2
:103510001B6803F580539B69FB60FA683D4B1340C1
:10352000FB603B681B7B002B02D14FF0806200E008
:1035300000223B685B7B5B0613433A68527F002A9C
:1035400002D14FF4801200E000221A433B689B7BBB
:103550005B051A433B685B691A433B681B7FDB01D1
:103560001A433B689B7F9B011A433B681B6A1A43C3
:103570003B6893F824309B001343FA681343FB60C5
:103580007B681B6803F580531A46FB6893617B6870
:103590001B6803F580539B69FB600120FEF79CFBD1
:1035A0007B681B6803F580531A46FB6893613B6890
:1035B0001B795A063B689B681A433B689B691A4310
:1035C0003B681B691A433B6893F82530DB011A43BB
:1035D0003B689B6A9B001A433B681B6813437A68ED
:1035E000126843F4000302F5805213607B681B6885
:1035F00003F580531B68FB600120FEF76DFB7B68C1
:103600001B6803F580531A46FB68136000BF103730
:10361000BD4680BD233FDEF880B5A6B000AF786020
:10362000012387F84430012387F845300023FB63EA
:10363000002387F85330012387F85230002387F89E
:103640005030012387F84230012387F838300023B7
:1036500087F85430002387F843300023BB650023EC
:1036600087F85C300023FB67002387F88030002355
:10367000C7F88430002387F88A30002387F8883021
:103680004FF48043BB644FF40063FB64002387F86E
:10369000893007F1340319467868FFF77FFE01236C
:1036A0003B7501237B75012387F825300123BB750A
:1036B0000023FB61002387F82430002387F826309D
:1036C0000023BB62012387F82C3001233B734FF4A6
:1036D00080333B614FF480033B624FF40053BB6186
:1036E000012387F82D3000233B630023BB6007F1E3
:1036F000080319467868FFF705FF00BF9837BD46F5
:1037000080BD000080B487B000AFF860B9607A6017
:103710007B6805331B781B027A68043212781343E6
:103720007B61BA68114B13441A467B6913607B684E
:1037300003331B781A067B6802331B781B041A4379
:103740007B6801331B781B0213437A68127813439A
:103750007B61BA68064B13441A467B69136000BF4D
:103760001C37BD465DF8047B704700BF40800240B7
:103770004480024080B485B000AF78600023FB60D5
:103780003EE07B68D968FA6813469B001344DB006F
:103790000B44BB60BB6800221A60BB6800225A6001
:1037A000BB6800229A60BB680022DA60B9687B6857
:1037B000FA68063243F82210BB681B6843F4801293
:1037C000BB681A60FB68022B0CD87B68D968FB6861
:1037D0005A1C13469B001344DB000B441A46BB687B
:1037E000DA6004E07B68DB681A46BB68DA60BB68B5
:1037F0001B6843F44002BB681A60FB680133FB603E
:10380000FB68032BBDD97B6800229A627B68DA686B
:103810007B681B6803F580531A6100BF1437BD46EF
:103820005DF8047B704780B485B000AF78600023FA
:10383000FB6048E07B681969FA6813469B001344F3
:10384000DB000B44BB60BB6800221A60BB6800222F
:103850005A60BB6800229A60BB680022DA60BB68CD
:1038600000221A62BB6800225A62BB684FF0004215
:103870001A607B685B6943F48042BB685A60BB682E
:103880005B6823F00042BB685A60B9687B68FA68DD
:10389000123243F82210FB68022B0CD87B6819699E
:1038A000FB685A1C13469B001344DB000B441A466A
:1038B000BB68DA6004E07B681B691A46BB68DA60A3
:1038C000FB680133FB60FB68032BB3D97B680022E4
:1038D000DA657B6800221A667B6800229A667B683C
:1038E0000022DA667B6800229A657B681A697B6829
:1038F0001B6803F58053DA6000BF1437BD465DF8DE
:10390000047B704780B491B000AFF860B9607A6012
:10391000FB6818337B627B6A1B69FB637B6A1B69EC
:103920003B6200237B637B6AFA6B53F822303B6374
:10393000BB689B68FB620023BB623B6B1B6803F0A8
:103940000043B3F1004F07D07A6AFB6B04339B004E
:1039500013445B68002B01D0022315E17B6B01331C
:103960007B63FB6A1B681A463B6B9A603B6B5B6828
:1039700023F4FF5323F01F03FA6A52681A433B6B88
:103980005A60BB681B6803F00103002B08D03B6B37
:103990001B6823F44002BB685B691A433B6B1A60E7
:1039A000BB681B6803F02003002B08D03B6B1B682F
:1039B00023F04062BB681B691A433B6B1A60BB680B
:1039C0001B6803F00403002B05D03B6B1B6843F01E
:1039D00080023B6B1A603B6B1B6843F080523B6B71
:1039E0001A6084E03B6B1B6823F000523B6B1A604B
:1039F0007B68002B06D03B6B1B6843F080423B6B1F
:103A00001A6005E03B6B1B6823F080423B6B1A6039
:103A1000FB6B0133FB63FB6B032B02D9FB6B043B9A
:103A2000FB637B6AFA6B53F822303B633B6B1B688A
:103A300003F00043B3F1004F07D07A6AFB6B043305
:103A40009B0013445B68002B29D03B6AFB637B6AB5
:103A5000FA6B53F822303B630023BB6319E0BFF3DA
:103A60005F8F00BF3B6B1B6823F000423B6B1A600B
:103A7000FB6B0133FB63FB6B032B02D9FB6B043B3A
:103A8000FB637B6AFA6B53F822303B63BB6B0133F9
:103A9000BB63BA6B7B6B9A42E1D3022374E03B6B4E
:103AA0001B6823F080523B6B1A607B6B01337B6396
:103AB000FB6A9B68FB62FB6A1B681A463B6B9A6059
:103AC0003B6B5B6823F4FF5323F01F03FA6A5268D1
:103AD0001A433B6B5A60BB6A0133BB62BFF35F8F13
:103AE00000BF3B6B1B6843F000423B6B1A60FB6AF4
:103AF0009B68002B7FF476AF7B68002B06D03B6B76
:103B00001B6843F080423B6B1A6005E03B6B1B680F
:103B100023F080423B6B1A603B6B1B6843F0005202
:103B20003B6B1A607B6A3A6A53F822303B63BFF3FF
:103B30005F8F00BF3B6B1B6843F000423B6B1A601A
:103B40007B6A5A6A796AFB6B04339B000B445A60A8
:103B50007B6AFA6B1A61EFF310833B613B69FB618F
:103B600001237B617B6983F3108800BF7B6A9A6ABB
:103B7000BB6A13445A1C7B6A9A62FB69BB61BB69CE
:103B800083F3108800BF002318464437BD465DF814
:103B9000047B704780B489B000AF7860396000233F
:103BA0007B6100233B610023BB610023FB616BE170
:103BB0000122FB6902FA03F37B613B681B687A69A7
:103BC00013403B613A697B699A4240F05A813B68F5
:103BD0005B6803F00303012B05D03B685B6803F0CF
:103BE0000303022B30D17B689B68BB61FB695B00E0
:103BF000032202FA03F3DB43BA691340BB613B685B
:103C0000DA68FB695B0002FA03F3BA691343BB612C
:103C10007B68BA699A607B685B68BB610122FB695B
:103C200002FA03F3DB43BA691340BB613B685B688C
:103C30001B0903F00102FB6902FA03F3BA6913439B
:103C4000BB617B68BA695A603B685B6803F0030339
:103C5000032B17D07B68DB68BB61FB695B00032229
:103C600002FA03F3DB43BA691340BB613B689A680D
:103C7000FB695B0002FA03F3BA691343BB617B681B
:103C8000BA69DA603B685B6803F00303022B23D157
:103C9000FB69DA087B68083253F82230BB61FB69A4
:103CA00003F007039B000F2202FA03F3DB43BA6918
:103CB0001340BB613B681A69FB6903F007039B0073
:103CC00002FA03F3BA691343BB61FB69DA087B6844
:103CD0000832B96943F822107B681B68BB61FB6935
:103CE0005B00032202FA03F3DB43BA691340BB61B2
:103CF0003B685B6803F00302FB695B0002FA03F3B5
:103D0000BA691343BB617B68BA691A603B685B6838
:103D100003F44033002B00F0B4800023FB60604BC1
:103D20005B6C5F4A43F4804353645D4B5B6C03F40C
:103D30008043FB60FB685B4AFB699B08023352F8D7
:103D40002330BB61FB6903F003039B000F2202FADF
:103D500003F3DB43BA691340BB617B68524A934269
:103D60002BD07B68514A934225D07B68504A9342BE
:103D70001FD07B684F4A934219D07B684E4A9342CA
:103D800013D07B684D4A93420DD07B684C4A9342D6
:103D900007D07B684B4A934201D107230EE00823EA
:103DA0000CE006230AE0052308E0042306E00323D1
:103DB00004E0022302E0012300E00023FA6902F09C
:103DC000030292009340BA691343BB613549FB6912
:103DD0009B080233BA6941F823203B4B9B68BB61C7
:103DE0003B69DB43BA691340BB613B685B6803F422
:103DF0008013002B03D0BA693B691343BB61324A7D
:103E0000BB699360304BDB68BB613B69DB43BA69DC
:103E10001340BB613B685B6803F40013002B03D0C5
:103E2000BA693B691343BB61274ABB69D360264B20
:103E30005B68BB613B69DB43BA691340BB613B68AC
:103E40005B6803F40033002B03D0BA693B6913436A
:103E5000BB611D4ABB6953601B4B1B68BB613B695F
:103E6000DB43BA691340BB613B685B6803F4803392
:103E7000002B03D0BA693B691343BB61124ABB698B
:103E80001360FB690133FB61FB690F2B7FF690AE7A
:103E900000BF00BF2437BD465DF8047B704700BFFC
:103EA0000038024000380140000002400004024097
:103EB00000080240000C02400010024000140240C2
:103EC00000180240001C0240003C014080B483B056
:103ED00000AF78600B467B8013467B707B78002BAD
:103EE00003D07A887B689A6103E07B881A047B6838
:103EF0009A6100BF0C37BD465DF8047B7047000037
:103F000080B584B000AF78607B68002B01D10123BD
:103F10002BE17B6893F83D30DBB2002B06D17B6848
:103F2000002283F83C207868FDF7BEF97B682422E4
:103F300083F83D207B681B681A687B681B6822F049
:103F400001021A607B681B681A687B681B6842F470
:103F500000421A607B681B681A687B681B6822F441
:103F600000421A6000F090FEF8607B685B68814A4E
:103F7000934207D8FB68804A934294BF01230023F1
:103F8000DBB206E0FB687D4A934294BF0123002325
:103F9000DBB2002B01D00123E7E0FB68784AA2FBEB
:103FA00003239B0CBB607B681B685B6823F03F01AD
:103FB0007B681B68BA680A435A607B681B681B6A87
:103FC00023F03F017B685B686A4A934202D8BB6872
:103FD000013309E0BB684FF4967202FB03F3694AB0
:103FE000A2FB03239B0901337A6812680B43136217
:103FF0007B681B68DB6923F44F4222F0FF027B6879
:104000005B685C498B4219D8FB68591E7B685B680A
:104010005B00B1FBF3F3591C40F6FC730B40002B23
:104020000AD0FB68591E7B685B685B00B1FBF3F349
:104030000133C3F30B0351E004234FE07B689B681B
:10404000002B11D1FB68581E7B6859680B465B003A
:104050000B44B0FBF3F30133C3F30B03002B0CBF92
:1040600001230023DBB212E0FB68581E7B6859680D
:104070000B469B000B4499000B44B0FBF3F3013358
:10408000C3F30B03002B0CBF01230023DBB2002B77
:1040900001D0012322E07B689B68002B0ED1FB68D6
:1040A000581E7B6859680B465B000B44B0FBF3F36A
:1040B0000133C3F30B0343F400430FE0FB68581EC6
:1040C0007B6859680B469B000B4499000B44B0FB7E
:1040D000F3F30133C3F30B0343F4404379680968F6
:1040E0001343CB617B681B681B6823F0C0017B68AE
:1040F000DA697B681B6A1A437B681B680A431A608B
:104100007B681B689B6823F4034323F0FF037A68F2
:1041100011697A68D26811437A6812680B43936018
:104120007B681B68DB6823F0FF017B685A697B684A
:104130009B691A437B681B680A43DA607B681B68CB
:104140001A687B681B6842F001021A607B680022D3
:104150001A647B68202283F83D207B6800221A6362
:104160007B68002283F83E20002318461037BD46A6
:1041700080BD00BFA08601007F841E00FF083D00B7
:1041800083DE1B43D34D621080B586B002AF7860EA
:104190007B68002B01D1012301E17B681B68BB60B8
:1041A0007B6893F89534DBB2002B06D17B68002244
:1041B00083F894247868FDF78BFA7B68032283F8F0
:1041C0009524BB68B3F1A04F02D17B6800229A719D
:1041D0007B681B68184601F0BBFD7B6818687B682C
:1041E0001A7C8DF8002004330ECB01F04DFD034600
:1041F000002B05D07B68022283F895240123CEE0B2
:104200007B681B680021184601F0B3FD0346002BB4
:1042100005D07B68022283F895240123BFE00023A8
:10422000FB734AE0FA7B79681346DB0013449B007A
:104230000B44153301221A70FA7B79681346DB00B0
:1042400013449B000B441433FA7B1A70FA7BFB7BFC
:1042500098B279681346DB0013449B000B442E335D
:1042600002461A80FA7B79681346DB0013449B00F0
:104270000B44183300221A70FA7B79681346DB006E
:1042800013449B000B441C3300221A60FA7B7968AC
:104290001346DB0013449B000B44203300221A60BA
:1042A000FA7B79681346DB0013449B000B442433EC
:1042B00000221A60FB7B0133FB737B681B79FA7B5E
:1042C0009A42AFD30023FB7344E0FA7B796813462C
:1042D000DB0013449B000B4403F2552300221A70A9
:1042E000FA7B79681346DB0013449B000B4403F50B
:1042F0001573FA7B1A70FA7B79681346DB00134456
:104300009B000B4403F5167300221A70FA7B796840
:104310001346DB0013449B000B4403F51773002284
:104320001A60FA7B79681346DB0013449B000B4448
:1043300003F5187300221A60FA7B79681346DB00D4
:1043400013449B000B4403F5197300221A60FB7B96
:104350000133FB737B681B79FA7B9A42B5D37B6888
:1043600018687B681A7C8DF8002004330ECB01F0AE
:104370004DFD0346002B05D07B68022283F895246F
:1043800001230CE07B6800225A747B68012283F8C9
:1043900095247B681B68184601F015FF002318461A
:1043A0001037BD4680BD000080B586B000AF786094
:1043B0007B68002B01D1012367E27B681B6803F057
:1043C0000103002B75D0884B9B6803F00C03042B72
:1043D0000CD0854B9B6803F00C03082B12D1824B49
:1043E0005B6803F48003B3F5800F0BD17E4B1B6831
:1043F00003F40033002B5BD07B685B68002B57D144
:10440000012342E27B685B68B3F5803F06D1764BBF
:104410001B68754A43F4803313601DE07B685B685A
:10442000B3F5A02F0CD1704B1B686F4A43F4802367
:1044300013606D4B1B686C4A43F4803313600BE0D0
:10444000694B1B68684A23F480331360664B1B6812
:10445000654A23F4802313607B685B68002B13D0CC
:10446000FDF72EFC386108E0FDF72AFC02463B69A7
:10447000D31A642B01D9032307E25B4B1B6803F4B7
:104480000033002BF0D014E0FDF71AFC386108E08F
:10449000FDF716FC02463B69D31A642B01D90323AE
:1044A000F3E1514B1B6803F40033002BF0D100E023
:1044B00000BF7B681B6803F00203002B63D04A4BEC
:1044C0009B6803F00C03002B0BD0474B9B6803F059
:1044D0000C03082B1CD1444B5B6803F48003002BB6
:1044E00016D1414B1B6803F00203002B05D07B68FB
:1044F000DB68012B01D00123C7E13B4B1B6823F094
:10450000F8027B681B69DB00374913430B603AE014
:104510007B68DB68002B20D0344B01221A60FDF74A
:10452000CFFB386108E0FDF7CBFB02463B69D31AAD
:10453000022B01D90323A8E12B4B1B6803F00203D4
:10454000002BF0D0284B1B6823F0F8027B681B6916
:10455000DB00254913430B6015E0244B00221A6051
:10456000FDF7AEFB386108E0FDF7AAFB02463B69A8
:10457000D31A022B01D9032387E11B4B1B6803F0DD
:104580000203002BF0D17B681B6803F00803002BAB
:1045900036D07B685B69002B16D0154B01221A6060
:1045A000FDF78EFB386108E0FDF78AFB02463B69A8
:1045B000D31A022B01D9032367E10B4B5B6F03F086
:1045C0000203002BF0D01BE0094B00221A60FDF71C
:1045D00077FB38610EE0FDF773FB02463B69D31AA7
:1045E000022B07D9032350E1003802400000474264
:1045F000800E4742884B5B6F03F00203002BEAD129
:104600007B681B6803F00403002B00F097800023F5
:10461000FB75814B1B6C03F08053002B0FD10023E3
:10462000BB607D4B1B6C7C4A43F0805313647A4B18
:104630001B6C03F08053BB60BB680123FB75774B99
:104640001B6803F48073002B18D1744B1B68734AEA
:1046500043F480731360FDF733FB386108E0FDF726
:104660002FFB02463B69D31A022B01D903230CE12D
:104670006A4B1B6803F48073002BF0D07B689B6847
:10468000012B06D1644B1B6F634A43F00103136790
:104690001CE07B689B68052B0CD15F4B1B6F5E4A4F
:1046A00043F0040313675C4B1B6F5B4A43F0010349
:1046B00013670BE0584B1B6F574A23F00103136736
:1046C000554B1B6F544A23F0040313677B689B68A8
:1046D000002B15D0FDF7F4FA38610AE0FDF7F0FA87
:1046E00002463B69D31A41F28832934201D903232F
:1046F000CBE0494B1B6F03F00203002BEED014E01C
:10470000FDF7DEFA38610AE0FDF7DAFA02463B69A6
:10471000D31A41F28832934201D90323B5E03E4BCC
:104720001B6F03F00203002BEED1FB7D012B05D1A3
:10473000394B1B6C384A23F0805313647B689B69A8
:10474000002B00F0A180344B9B6803F00C03082B76
:104750005CD07B689B69022B41D1314B00221A60EF
:10476000FDF7AEFA386108E0FDF7AAFA02463B69A8
:10477000D31A022B01D9032387E0274B1B6803F0D0
:104780000073002BF0D17B68DA697B681B6A1A43DF
:104790007B685B6A9B011A437B689B6A5B08013BF1
:1047A0001B041A437B68DB6A1B061B4913434B60DF
:1047B0001B4B01221A60FDF783FA386108E0FDF710
:1047C0007FFA02463B69D31A022B01D903235CE02E
:1047D000114B1B6803F00073002BF0D054E0104B1A
:1047E00000221A60FDF76CFA386108E0FDF768FAFC
:1047F00002463B69D31A022B01D9032345E0064B3D
:104800001B6803F00073002BF0D13DE07B689B69CF
:10481000012B07D1012338E000380240007000402E
:10482000600047421B4B5B68FB607B689B69012B08
:1048300028D0FB6803F480027B68DB699A4221D1AF
:10484000FB6803F03F027B681B6A9A421AD1FA6840
:1048500047F6C07313407A68526A9201934211D1AD
:10486000FB6803F440327B689B6A5B08013B1B04D6
:104870009A4207D1FB6803F070627B68DB6A1B0613
:104880009A4201D0012300E0002318461837BD46A4
:1048900080BD00BF0038024080B584B000AF7860B2
:1048A00039607B68002B01D10123CCE0684B1B6889
:1048B00003F007033A689A420CD9654B3A68D2B2C2
:1048C0001A70634B1B6803F007033A689A4201D0E1
:1048D0000123B8E07B681B6803F00203002B20D0A3
:1048E0007B681B6803F00403002B05D0594B9B68C1
:1048F000584A43F4E05393607B681B6803F0080355
:10490000002B05D0534B9B68524A43F4604393609D
:10491000504B9B6823F0F0027B689B684D49134322
:104920008B607B681B6803F00103002B44D07B681D
:104930005B68012B07D1474B1B6803F40033002B46
:1049400019D101237FE07B685B68022B03D07B6871
:104950005B68032B07D13F4B1B6803F00073002BF0
:1049600009D101236FE03B4B1B6803F00203002BCE
:1049700001D1012367E0374B9B6823F003027B687A
:104980005B68344913438B60FDF79AF9F8600AE0DD
:10499000FDF796F90246FB68D31A41F2883293423A
:1049A00001D903234FE02B4B9B6803F00C027B687B
:1049B0005B689B009A42EBD1254B1B6803F0070311
:1049C0003A689A420CD2224B3A68D2B21A70204B03
:1049D0001B6803F007033A689A4201D0012332E0D2
:1049E0007B681B6803F00403002B08D0194B9B68FD
:1049F00023F4E0527B68DB68164913438B607B68C5
:104A00001B6803F00803002B09D0124B9B6823F4AA
:104A100060427B681B69DB000E4913438B6000F02A
:104A200021F802460B4B9B681B0903F00F030A4950
:104A3000CB5C22FA03F3094A1360094B1B68184642
:104A4000FDF7FAF8002318461037BD4680BD00BFB9
:104A5000003C0240003802407C4C0108000000206D
:104A6000040000202DE9B04F94B000AF00237B6418
:104A70000023FB6400233B640023BB64794B9B68E9
:104A800003F00C03082B0DD0082B00F2E180002B63
:104A900002D0042B03D0DBE0734BBB64DBE0734B31
:104AA000BB64D8E06F4B5B6803F03F037B646D4BE6
:104AB0005B6803F48003002B63D06A4B5B689B093F
:104AC0000022BB63FA63BB6BC3F308033B630023A1
:104AD0007B63D7E90C4522462B464FF000004FF090
:104AE0000001590141EAD261500102460B462146BC
:104AF000511A3961294663EB01037B614FF00002D3
:104B00004FF00003D7E904AB59468B01514643EA05
:104B1000916351468A015146B2EB0108594663EB55
:104B200001094FF000024FF000034FEAC90343EAC6
:104B300058734FEAC80290469946234618EB030380
:104B4000BB602B4649EB0303FB604FF000024FF0C4
:104B50000003D7E9024529464B02214643EAD153D7
:104B600021464A02104619467B6C0022BB62FA625B
:104B7000D7E90A23FBF77CFB02460B461346FB648E
:104B800058E0384B5B689B09002218461146C0F379
:104B900008033B6200237B62D7E9088942464B4603
:104BA0004FF000004FF00001590141EAD26150017D
:104BB00002460B464146B2EB010A494663EB010B44
:104BC0004FF000024FF000034FEA8B1343EA9A6361
:104BD0004FEA8A12B2EB0A0463EB0B054FF00002B6
:104BE0004FF00003EB0043EA5473E20014461D4605
:104BF0004346E3183B604B4645EB03037B604FF0B5
:104C000000024FF00003D7E9004529468B022146F8
:104C100043EA915321468A02104619467B6C0022D2
:104C2000BB61FA61D7E90623FBF722FB02460B467C
:104C30001346FB640B4B5B681B0C03F0030301334F
:104C40005B003B64FA6C3B6CB2FBF3F3BB6402E0C9
:104C5000054BBB6400BFBB6C18465037BD46BDE872
:104C6000B08F00BF003802400024F40000127A0028
:104C700080B400AF034B1B681846BD465DF8047B4B
:104C8000704700BF0000002080B500AFFFF7F0FFC5
:104C90000246054B9B689B0A03F007030349CB5C64
:104CA00022FA03F3184680BD003802408C4C0108FC
:104CB00080B500AFFFF7DCFF0246054B9B685B0B3E
:104CC00003F007030349CB5C22FA03F3184680BDC7
:104CD000003802408C4C010880B582B000AF78608B
:104CE0007B68002B01D101237BE07B685B6A002B92
:104CF00008D17B685B68B3F5827F09D07B680022AE
:104D0000DA6105E07B6800221A617B6800225A6143
:104D10007B6800229A627B6893F85130DBB2002BEB
:104D200006D17B68002283F850207868FCF704FBEA
:104D30007B68022283F851207B681B681A687B68B5
:104D40001B6822F040021A607B685B6803F4827281
:104D50007B689B6803F404431A437B68DB6803F4B5
:104D600000631A437B681B6903F002031A437B68E4
:104D70005B6903F001031A437B689B6903F40073CA
:104D80001A437B68DB6903F038031A437B681B6AAC
:104D900003F0800342EA03017B689B6A03F400523C
:104DA0007B681B680A431A607B689B691B0C03F0D5
:104DB00004017B685B6A03F010027B681B680A438E
:104DC0005A607B681B68DA697B681B6822F40062A2
:104DD000DA617B6800225A657B68012283F85120E2
:104DE000002318460837BD4680BD80B582B000AFAD
:104DF00078607B68002B01D1012341E07B6893F848
:104E00003D30DBB2002B06D17B68002283F83C20CA
:104E10007868FCF711FB7B68022283F83D207B68F1
:104E20001A687B6804331946104600F03FF97B6826
:104E3000012283F846207B68012283F83E207B68AC
:104E4000012283F83F207B68012283F840207B68A1
:104E5000012283F841207B68012283F842207B688D
:104E6000012283F843207B68012283F844207B6879
:104E7000012283F845207B68012283F83D2000232E
:104E800018460837BD4680BD80B582B000AF786057
:104E90007B68002B01D1012341E07B6893F83D3012
:104EA000DBB2002B06D17B68002283F83C207868B7
:104EB000FCF78AFA7B68022283F83D207B681A6837
:104EC0007B6804331946104600F0F0F87B68012235
:104ED00083F846207B68012283F83E207B6801220C
:104EE00083F83F207B68012283F840207B68012201
:104EF00083F841207B68012283F842207B680122ED
:104F000083F843207B68012283F844207B680122D8
:104F100083F845207B68012283F83D200023184652
:104F20000837BD4680BD000080B586B000AFF86090
:104F3000B9607A600023FB75FB6893F83C30012B65
:104F400001D10223AEE0FB68012283F83C207B689C
:104F50000C2B00F29F8001A252F823F0914F000821
:104F6000955000089550000895500008D14F000852
:104F700095500008955000089550000813500008FF
:104F800095500008955000089550000853500008AF
:104F9000FB681B68B968184600F034F9FB681B68A9
:104FA0009A69FB681B6842F008029A61FB681B68FB
:104FB0009A69FB681B6822F004029A61FB681B680F
:104FC0009969BB681A69FB681B680A439A6164E0C7
:104FD000FB681B68B968184600F084F9FB681B6819
:104FE0009A69FB681B6842F400629A61FB681B685F
:104FF0009A69FB681B6822F480629A61FB681B68EF
:105000009969BB681B691A02FB681B680A439A61AD
:1050100043E0FB681B68B968184600F0D9F9FB68E3
:105020001B68DA69FB681B6842F00802DA61FB68FA
:105030001B68DA69FB681B6822F00402DA61FB680E
:105040001B68D969BB681A69FB681B680A43DA6187
:1050500023E0FB681B68B968184600F02DFAFB686E
:105060001B68DA69FB681B6842F40062DA61FB685E
:105070001B68DA69FB681B6822F48062DA61FB68EE
:105080001B68D969BB681B691A02FB681B680A4365
:10509000DA6102E00123FB7500BFFB68002283F8A0
:1050A0003C20FB7D18461837BD4680BD80B485B0D6
:1050B00000AF786039607B681B68FB607B68464A9C
:1050C000934213D07B68B3F1804F0FD07B68434A83
:1050D00093420BD07B68424A934207D07B68414A97
:1050E000934203D07B68404A934208D1FB6823F087
:1050F0007003FB603B685B68FA681343FB607B6886
:10510000354A93422BD07B68B3F1804F27D07B6820
:10511000324A934223D07B68314A93421FD07B6846
:10512000304A93421BD07B682F4A934217D07B684A
:105130002E4A934213D07B682D4A93420FD07B684E
:105140002C4A93420BD07B682B4A934207D07B6852
:105150002A4A934203D07B68294A934208D1FB68CC
:1051600023F44073FB603B68DB68FA681343FB6021
:10517000FB6823F080023B685B691343FB607B683C
:10518000FA681A603B689A687B68DA623B681A685A
:105190007B689A627B68104A934203D07B68124A0C
:1051A000934203D13B681A697B681A637B680122CA
:1051B0005A617B681B6903F00103012B05D17B68F1
:1051C0001B6923F001027B681A6100BF1437BD46DA
:1051D0005DF8047B704700BF000001400004004000
:1051E00000080040000C0040000401400040014065
:1051F000004401400048014000180040001C0040ED
:105200000020004080B487B000AF786039607B68D0
:105210001B6A7B617B681B6A23F001027B681A6250
:105220007B685B683B617B689B69FB60FB6823F084
:105230007003FB60FB6823F00303FB603B681B68A3
:10524000FA681343FB607B6923F002037B613B68D0
:105250009B687A6913437B617B68204A934203D041
:105260007B681F4A93420CD17B6923F008037B6162
:105270003B68DB687A6913437B617B6923F0040335
:105280007B617B68154A934203D07B68144A934242
:1052900011D13B6923F480733B613B6923F40073B4
:1052A0003B613B685B693A6913433B613B689B69BF
:1052B0003A6913433B617B683A695A607B68FA68D4
:1052C0009A613B685A687B685A637B687A691A629C
:1052D00000BF1C37BD465DF8047B704700000140ED
:1052E0000004014080B487B000AF786039607B680B
:1052F0001B6A7B617B681B6A23F010027B681A6261
:105300007B685B683B617B689B69FB60FB6823F49F
:10531000E043FB60FB6823F44073FB603B681B6861
:105320001B02FA681343FB607B6923F020037B6157
:105330003B689B681B017A6913437B617B68224A47
:10534000934203D07B68214A93420DD17B6923F0BD
:1053500080037B613B68DB681B017A6913437B61D7
:105360007B6923F040037B617B68174A934203D03B
:105370007B68164A934213D13B6923F480633B61F7
:105380003B6923F400633B613B685B699B003A69BE
:1053900013433B613B689B699B003A6913433B6144
:1053A0007B683A695A607B68FA689A613B685A6818
:1053B0007B689A637B687A691A6200BF1C37BD46B6
:1053C0005DF8047B704700BF00000140000401400D
:1053D00080B487B000AF786039607B681B6A7B61FE
:1053E0007B681B6A23F480727B681A627B685B6847
:1053F0003B617B68DB69FB60FB6823F07003FB604B
:10540000FB6823F00303FB603B681B68FA681343E7
:10541000FB607B6923F400737B613B689B681B0224
:105420007A6913437B617B68214A934203D07B688E
:10543000204A93420DD17B6923F400637B613B6872
:10544000DB681B027A6913437B617B6923F4806309
:105450007B617B68164A934203D07B68154A93426E
:1054600013D13B6923F480533B613B6923F4005320
:105470003B613B685B691B013A6913433B613B68D5
:105480009B691B013A6913433B617B683A695A6027
:105490007B68FA68DA613B685A687B68DA637B6824
:1054A0007A691A6200BF1C37BD465DF8047B7047FD
:1054B000000001400004014080B487B000AF786074
:1054C00039607B681B6A3B617B681B6A23F48052EE
:1054D0007B681A627B685B687B617B68DB69FB6069
:1054E000FB6823F4E043FB60FB6823F44073FB603C
:1054F0003B681B681B02FA681343FB603B6923F49B
:1055000000533B613B689B681B033A6913433B6153
:105510007B68124A934203D07B68114A934209D1B7
:105520007B6923F480437B613B685B699B017A69FB
:1055300013437B617B687A695A607B68FA68DA6139
:105540003B685A687B681A647B683A691A6200BFD4
:105550001C37BD465DF8047B704700BF000001406A
:105560000004014080B485B000AF786039607B688A
:1055700093F83C30012B01D102235AE07B680122D1
:1055800083F83C207B68022283F83D207B681B68FF
:105590005B68FB607B681B689B68BB60FB6823F0F3
:1055A0007003FB603B681B68FA681343FB607B6811
:1055B0001B68FA685A607B681B68214A934222D0B4
:1055C0007B681B68B3F1804F1DD07B681B681D4A48
:1055D000934218D07B681B681B4A934213D07B68A8
:1055E0001B681A4A93420ED07B681B68184A934284
:1055F00009D07B681B68174A934204D07B681B68FC
:10560000154A93420CD1BB6823F08003BB603B6812
:105610005B68BA681343BB607B681B68BA689A60B2
:105620007B68012283F83D207B68002283F83C20C0
:10563000002318461437BD465DF8047B704700BF51
:10564000000001400004004000080040000C004041
:1056500000040140004001400018004080B485B0C3
:1056600000AF786039600023FB607B6893F83C30C2
:10567000012B01D102233DE07B68012283F83C200D
:10568000FB6823F0FF023B68DB681343FB60FB68A9
:1056900023F440723B689B681343FB60FB6823F470
:1056A00080623B685B681343FB60FB6823F4006225
:1056B0003B681B681343FB60FB6823F480523B6824
:1056C0001B691343FB60FB6823F400523B685B6972
:1056D0001343FB60FB6823F480423B68DB691343A0
:1056E000FB607B681B68FA685A647B68002283F859
:1056F0003C20002318461437BD465DF8047B7047F4
:1057000080B582B000AF78607B68002B01D10123A7
:1057100042E07B6893F84130DBB2002B06D17B6816
:10572000002283F840207868FBF752FF7B68242230
:1057300083F841207B681B68DA687B681B6822F469
:105740000052DA60786800F02BF87B681B681A69F1
:105750007B681B6822F490421A617B681B685A6957
:105760007B681B6822F02A025A617B681B68DA6832
:105770007B681B6842F40052DA607B6800225A643E
:105780007B68202283F841207B68202283F8422016
:105790007B6800225A63002318460837BD4680BD47
:1057A0002DE9B04FC0B000AFC7F8F400D7F8F4301F
:1057B0001B681B6923F44050D7F8F430D968D7F838
:1057C000F4301A6840EA01031361D7F8F4309A689C
:1057D000D7F8F4301B691A43D7F8F4305B691A43E1
:1057E000D7F8F430DB691343C7F8F830D7F8F43052
:1057F0001B68DB6823F4164121F00C01D7F8F43064
:105800001A68D7F8F8300B43D360D7F8F4301B6828
:105810005B6923F44070D7F8F4309969D7F8F43015
:105820001A6840EA01035361D7F8F4301A688F4BC5
:105830009A4205D0D7F8F4301A688D4B9A4204D1B9
:10584000FFF736FAC7F8FC0003E0FFF71DFAC7F8C8
:10585000FC00D7F8F430DB69B3F5004F40F00C8161
:10586000D7F8FC300022C7F8E830C7F8EC20D7E9B9
:105870003A4522462B469118B9655B41FB65D7E94D
:105880001623214612EB0108294643EB01094FF08C
:1058900000024FF000034FEAC90343EA58734FEA8E
:1058A000C80290469946234618EB0303C7F8E03038
:1058B0002B4649EB0303C7F8E430D7F8F4305B68B4
:1058C0000022C7F8D830C7F8DC20D7E936120B46DB
:1058D000DB183B65134642EB03037B65D7E91423D2
:1058E000D7E93801FAF7C4FC02460B46614BA3FB2B
:1058F00002235B091C01D7F8FC300022C7F8D03026
:10590000C7F8D420D7E9348942464B469118B96488
:105910005B41FB64D7E91223414612EB010A494679
:1059200043EB010B4FF000024FF000034FEACB03B3
:1059300043EA5A734FEACA0292469B4643461AEB21
:105940000303C7F8C8304B464BEB0303C7F8CC3012
:10595000D7F8F4305B680022C7F8C030C7F8C4201D
:10596000D7E930120B46DB183B64134642EB0303C6
:105970007B64D7E91023D7E93201FAF779FC0246B4
:105980000B4611463B4BA3FB01235B09642202FB40
:1059900003F3CB1ADB0003F13202364BA3FB0223E5
:1059A0005B095B0003F4F8731C44D7F8FC30002259
:1059B000C7F8B830C7F8BC20D7E92E8942464B4615
:1059C0009118B9635B41FB63D7E90E234146511837
:1059D000396349464B417B634FF000024FF00003AF
:1059E000D7E90CAB5946CB00514643EA51735146B7
:1059F000CA0010461946034642469B18C7F8B03005
:105A00004B460A4642EB0303C7F8B430D7F8F430EC
:105A10005B680022C7F8A830C7F8AC20D7E92A1283
:105A20000B46DB18BB62134642EB0303FB62D7E96C
:105A30000A23D7E92C01FAF71BFC02460B460D4B53
:105A4000A3FB02135B09642101FB03F3D31ADB0000
:105A50003233084AA2FB03235B0903F00702D7F89D
:105A6000F4301B6822449A6006E100BF0010014038
:105A7000001401401F85EB51D7F8FC300022C7F815
:105A8000A030C7F8A420D7E9288942464B46911890
:105A900039625B417B62D7E9082341465418494685
:105AA00043EB01054FF000024FF00003EB0043EA27
:105AB0005473E20014461D464346E318C7F8983075
:105AC0004B4645EB0303C7F89C30D7F8F4305B68CE
:105AD0000022C7F89030C7F894204FF000024FF032
