:020000040800F2
:10000000000002206535000839330008413300083C
:10001000493300085133000859330008000000003C
:100020000000000000000000000000006133000834
:100030006F330008000000007D3300088B33000898
:10004000B5350008B5350008B5350008B5350008E8
:10005000B5350008B5350008B5350008B5350008D8
:10006000B5350008B5350008B5350008B5350008C8
:10007000B5350008B5350008B5350008B5350008B8
:10008000B5350008B5350008B5350008B5350008A8
:10009000B5350008B5350008B5350008B535000898
:1000A000B5350008B5350008B5350008B535000888
:1000B000B5350008B5350008B5350008B535000878
:1000C000B5350008B5350008B5350008B535000868
:1000D000B5350008B5350008B5350008B535000858
:1000E000B5350008B5350008B5350008B535000848
:1000F000B5350008B5350008B5350008B535000838
:10010000B5350008B5350008B5350008B535000827
:10011000B5350008B5350008B5350008B535000817
:10012000B5350008B5350008B5350008B535000807
:10013000B535000899330008B5350008B535000815
:10014000B5350008B5350008B5350008B5350008E7
:10015000B5350008B5350008B5350008B5350008D7
:10016000B5350008B5350008B5350008B5350008C7
:10017000B5350008B5350008B535000800000000A9
:08018000B5350008B535000893
:1001900010B5054C237833B9044B13B10448AFF3C1
:1001A00000800123237010BDFC000020000000002F
:1001B0007445010808B5034B1BB103490348AFF36D
:1001C000008008BD00000000000100207445010807
:1001D00001F0FF01102A2BDB10F0070F08D010F8F8
:1001E000013B013A8B422DD010F0070F42B3F6D1FC
:1001F000F0B441EA012141EA014122F007047FF015
:1002000000070023F0E80256083C85EA010586EA6B
:10021000010685FA47F5A3FA87F586FA47F6A5FAA7
:1002200087F68EB9EED1F0BC01F0FF0102F00702B3
:1002300032B110F8013B013A83EA010313B1F8D15E
:100240000020704701387047002D06BF354603383F
:10025000073815F0010F07D1013015F4807F02BF78
:10026000013015F4C03F0130F0BC0138704700BFC9
:1002700081F0004102E000BF83F0004330B54FEA57
:1002800041044FEA430594EA050F08BF90EA020FC4
:100290001FBF54EA000C55EA020C7FEA645C7FEA57
:1002A000655C00F0E2804FEA5454D4EB5555B8BF7A
:1002B0006D420CDD2C4480EA020281EA030382EAEB
:1002C000000083EA010180EA020281EA0303362D7D
:1002D00088BF30BD11F0004F4FEA01314FF4801C50
:1002E0004CEA113102D0404261EB410113F0004F62
:1002F0004FEA03334CEA133302D0524263EB430319
:1003000094EA050F00F0A780A4F10104D5F1200EB6
:100310000DDB02FA0EFC22FA05F2801841F1000111
:1003200003FA0EF2801843FA05F359410EE0A5F1E5
:1003300020050EF1200E012A03FA0EFC28BF4CF016
:10034000020C43FA05F3C01851EBE37101F00045CC
:1003500007D54FF0000EDCF1000C7EEB00006EEBD9
:100360000101B1F5801F1BD3B1F5001F0CD3490863
:100370005FEA30004FEA3C0C04F101044FEA4452BA
:1003800012F5800F80F09A80BCF1004F08BF5FEA41
:10039000500C50F1000041EB045141EA050130BD21
:1003A0005FEA4C0C404141EB0101013C28BFB1F533
:1003B000801FE9D291F0000F04BF01460020B1FA7E
:1003C00081F308BF2033A3F10B03B3F120020CDA51
:1003D0000C3208DD02F1140CC2F10C0201FA0CF02F
:1003E00021FA02F10CE002F11402D8BFC2F1200C94
:1003F00001FA02F120FA0CFCDCBF41EA0C0190404A
:10040000E41AA2BF01EB0451294330BD6FEA040492
:100410001F3C1CDA0C340EDC04F11404C4F120027D
:1004200020FA04F001FA02F340EA030021FA04F38F
:1004300045EA030130BDC4F10C04C4F1200220FAE6
:1004400002F001FA04F340EA0300294630BD21FA24
:1004500004F0294630BD94F0000F83F4801306BFEA
:1004600081F480110134013D4EE77FEA645C18BFDE
:100470007FEA655C29D094EA050F08BF90EA020F75
:1004800005D054EA000C04BF1946104630BD91EA6D
:10049000030F1EBF0021002030BD5FEA545C05D170
:1004A0004000494128BF41F0004130BD14F58004AF
:1004B0003CBF01F5801130BD01F0004545F0FE4123
:1004C00041F470014FF0000030BD7FEA645C1ABF58
:1004D000194610467FEA655C1CBF0B46024650EA8F
:1004E000013406BF52EA033591EA030F41F40021BB
:1004F00030BD00BF90F0000F04BF0021704730B541
:100500004FF4806404F132044FF000054FF0000115
:1005100050E700BF90F0000F04BF0021704730B5D6
:100520004FF4806404F1320410F0004548BF4042AB
:100530004FF000013EE700BF42004FEAE2014FEA00
:1005400031014FEA02701FBF12F07F4393F07F4FDB
:1005500081F06051704732F07F4208BF704793F0DE
:100560007F4F04BF41F40021704730B54FF46074F1
:1005700001F0004521F000411CE700BF50EA0102F4
:1005800008BF704730B54FF000050AE050EA01029D
:1005900008BF704730B511F0004502D5404261EB0D
:1005A00041014FF4806404F132045FEA915C3FF44E
:1005B000D8AE4FF003025FEADC0C18BF03325FEAEB
:1005C000DC0C18BF033202EBDC02C2F1200300FA9C
:1005D00003FC20FA02F001FA03FE40EA0E0021FAC1
:1005E00002F11444BDE600BF70B54FF0FF0C4CF4AF
:1005F000E06C1CEA11541DBF1CEA135594EA0C0F61
:1006000095EA0C0F00F0DEF82C4481EA030621EA9B
:100610004C5123EA4C5350EA013518BF52EA0335D6
:1006200041F4801143F4801338D0A0FB02CE4FF088
:100630000005E1FB02E506F00042E0FB03E54FF0B8
:100640000006E1FB03569CF0000F18BF4EF0010EB0
:10065000A4F1FF04B6F5007F64F5407404D25FEAAC
:100660004E0E6D4146EB060642EAC62141EA55515F
:100670004FEAC52040EA5E504FEACE2EB4F1FD0CA1
:1006800088BFBCF5E06F1ED8BEF1004F08BF5FEA1F
:10069000500E50F1000041EB045170BD06F00046D1
:1006A00046EA010140EA020081EA0301B4EB5C047E
:1006B000C2BFD4EB0C0541EA045170BD41F4801176
:1006C0004FF0000E013C00F3AB8014F1360FDEBF9B
:1006D000002001F0004170BDC4F10004203C35DA77
:1006E0000C341BDC04F11404C4F1200500FA05F3FA
:1006F00020FA04F001FA05F240EA020001F000429B
:1007000021F0004110EBD37021FA04F642EB060110
:100710005EEA430E08BF20EAD37070BDC4F10C043A
:10072000C4F1200500FA04F320FA05F001FA04F2FE
:1007300040EA020001F0004110EBD37041F10001EA
:100740005EEA430E08BF20EAD37070BDC4F12005F5
:1007500000FA05F24EEA020E20FA04F301FA05F25D
:1007600043EA020321FA04F001F0004121FA04F205
:1007700020EA020000EBD3705EEA430E08BF20EAD5
:10078000D37070BD94F0000F0FD101F0004640000F
:1007900041EB010111F4801F08BF013CF7D041EA91
:1007A000060195F0000F18BF704703F00046520095
:1007B00043EB030313F4801F08BF013DF7D043EA66
:1007C0000603704794EA0C0F0CEA135518BF95EA1C
:1007D0000C0F0CD050EA410618BF52EA4306D1D1A3
:1007E00081EA030101F000414FF0000070BD50EAC2
:1007F000410606BF1046194652EA430619D094EA4C
:100800000C0F02D150EA013613D195EA0C0F05D135
:1008100052EA03361CBF104619460AD181EA030189
:1008200001F0004141F0FE4141F470014FF0000041
:1008300070BD41F0FE4141F4780170BD70B54FF0DC
:10084000FF0C4CF4E06C1CEA11541DBF1CEA13555C
:1008500094EA0C0F95EA0C0F00F0A7F8A4EB05043E
:1008600081EA030E52EA03354FEA013100F0888035
:100870004FEA03334FF0805545EA131343EA1263FE
:100880004FEA022245EA111545EA10654FEA0026B3
:100890000EF000419D4208BF964244F1FD0404F56C
:1008A000407402D25B084FEA3202B61A65EB0305C8
:1008B0005B084FEA32024FF480104FF4002CB6EB85
:1008C000020E75EB030E22BFB61A754640EA0C0005
:1008D0005B084FEA3202B6EB020E75EB030E22BF45
:1008E000B61A754640EA5C005B084FEA3202B6EB86
:1008F000020E75EB030E22BFB61A754640EA9C0045
:100900005B084FEA3202B6EB020E75EB030E22BF14
:10091000B61A754640EADC0055EA060E18D04FEAD2
:10092000051545EA16754FEA06164FEAC30343EA72
:1009300052734FEAC2025FEA1C1CC0D111F4801F3F
:100940000BD141EA00014FF000004FF0004CB6E738
:1009500011F4801F04BF01430020B4F1FD0C88BFD7
:10096000BCF5E06F3FF6AFAEB5EB030C04BFB6EBE2
:10097000020C5FEA500C50F1000041EB045170BDD5
:100980000EF0004E4EEA113114EB5C04C2BFD4EB02
:100990000C0541EA045170BD41F480114FF0000E86
:1009A000013C90E645EA060E8DE60CEA135594EA02
:1009B0000C0F08BF95EA0C0F3FF43BAF94EA0C0F05
:1009C0000AD150EA01347FF434AF95EA0C0F7FF47A
:1009D00025AF104619462CE795EA0C0F06D152EACE
:1009E00003353FF4FDAE1046194622E750EA4106B2
:1009F00018BF52EA43067FF4C5AE50EA41047FF4C3
:100A00000DAF52EA43057FF4EBAE12E74FF0FF3C27
:100A100006E000BF4FF0010C02E000BF4FF0010CF8
:100A20004DF804CD4FEA410C7FEA6C5C4FEA430C71
:100A300018BF7FEA6C5C1BD001B050EA410C0CBFC0
:100A400052EA430C91EA030F02BF90EA020F002022
:100A5000704710F1000F91EA030F58BF994208BF89
:100A600090422CBFD8176FEAE37040F00100704746
:100A70004FEA410C7FEA6C5C02D150EA013C07D19D
:100A80004FEA430C7FEA6C5CD6D152EA033CD3D0E8
:100A90005DF8040B704700BF8446104662468C46E2
:100AA0001946634600E000BF01B5FFF7B7FF002815
:100AB00048BF10F1000F01BD4DF808EDFFF7F4FF3E
:100AC0000CBF012000205DF808FB00BF4DF808EDC9
:100AD000FFF7EAFF34BF012000205DF808FB00BFEC
:100AE0004DF808EDFFF7E0FF94BF012000205DF80E
:100AF00008FB00BF4DF808EDFFF7CEFF94BF0120C3
:100B000000205DF808FB00BF4DF808EDFFF7C4FFBB
:100B100034BF012000205DF808FB00BF4FEA410C04
:100B20007FEA6C5C02D150EA013C0AD14FEA430CE7
:100B30007FEA6C5C02D152EA033C02D14FF0000024
:100B400070474FF0010070474A0011D212F50012B1
:100B500011D20DD56FF47873B3EB62520ED44FEA15
:100B6000C12343F0004343EA505323FA02F0704795
:100B70004FF00000704750EA013002D14FF0FF30D3
:100B800070474FF0000070474FEA4102B2F1E04376
:100B900024BFB3F5001CDCF1FE5C0DD901F0004C64
:100BA0004FEAC0024CEA5070B2F1004F40EB8300B4
:100BB00008BF20F00100704711F0804F21D113F1E0
:100BC0003872BCBF01F00040704741F480114FEA19
:100BD0005252C2F11802C2F1200C10FA0CF320FAA2
:100BE00002F018BF40F001004FEAC1234FEAD323BF
:100BF00003FA0CFC40EA0C0023FA02F34FEA430329
:100C0000CCE77FEA625307D150EA01331EBF4FF0B1
:100C1000FE4040F44000704701F0004040F0FE40CC
:100C200040F40000704700BF53B94AB9002908BF1B
:100C300000281CBF4FF0FF314FF0FF3000F088B9A3
:100C4000ADF1080C6DE904CE00F006F8DDF804E023
:100C5000DDE9022304B070472DE9F047089D8E4678
:100C600004468846002B4AD18A42174662D9B2FA16
:100C700082F64EB1C6F1200301FA06F820FA03F31A
:100C8000B74043EA0808B4404FEA174E1FFA87FC02
:100C9000B8FBFEF1230C0EFB118843EA084301FB6D
:100CA0000CF29A4209D9FB1801F1FF3080F0EA807A
:100CB0009A4240F2E78002393B449A1AA3B2B2FB4F
:100CC000FEF00EFB102243EA024300FB0CFC9C45A5
:100CD00009D9FB1800F1FF3280F0D6809C4540F224
:100CE000D3803B44023840EA0140A3EB0C030021CF
:100CF0001DB1F3400022C5E90032BDE8F0878B4208
:100D000005D90DB1C5E9000100210846F5E7B3FAA0
:100D100083F1002946D1734502D3824200F2058156
:100D2000841A6EEB030201209046002DE5D0C5E940
:100D30000048E2E7002A00F09080B2FA82F6002E26
:100D400040F0A4808A1A030C4FEA174E80B2BCB25E
:100D50000121B2FBFEFC0EFB1C2243EA024304FB12
:100D60000CF29A4207D9FB180CF1FF3802D29A42D2
:100D700000F2E080C4469B1AB3FBFEF20EFB123376
:100D800040EA034302FB04F49C4207D9FB1802F13A
:100D9000FF3002D29C4200F2CA8002461B1B42EA8C
:100DA0000C40A5E7C1F120068B4022FA06F71F434D
:100DB0000EFA01F420FA06F32EFA06FE4FEA17495E
:100DC000234300FA01F81FFA87FCBEFBF9F01C0C64
:100DD00009FB10EE44EA0E4400FB0CFEA64502FAA5
:100DE00001F209D93C1900F1FF3A80F09C80A64538
:100DF00040F2998002383C44A4EB0E041FFA83FEB3
:100E0000B4FBF9F309FB13444EEA044403FB0CFC66
:100E1000A44508D93C1903F1FF3E80F08280A44527
:100E20007FD9023B3C4443EA0040A4EB0C04A0FB06
:100E300002EC64457346E14662D35FD05DB1B8EB26
:100E4000030264EB090404FA06F622FA01F31E43D6
:100E5000CC40C5E9006400214FE7B1FBF2FC010C76
:100E600041EA0E4180B240EA01423B4638463C46E8
:100E7000B846BE462026B1FBF7F1A2EB080241EAD4
:100E80000C4166E7014618E710462CE7C6F1200240
:100E90002EFA02F3B740B14020FA02F24FEA174EA1
:100EA0000A43B3FBFEF8BCB20EFB1833110C41EA47
:100EB000034108FB04F9B04089454FEA104380B272
:100EC0003ED9791808F1FF3C01D289451FD8A1EB22
:100ED0000901B1FBFEF909FB04F80EFB191192B2EE
:100EE00042EA0142424529D2BA1809F1FF31C4D27F
:100EF0004245C2D2A9F102013A44BEE7F0459DD273
:100F0000BEEB02036CEB070C0138E14696E7A7EB5A
:100F100009094944A8F1020CB1FBFEF909FB04F8E8
:100F2000DBE773467FE7504666E70846FDE63B444D
:100F3000023A33E7ACF1020C3B441CE749469CE71C
:100F4000A1EB0901C446B1FBFEF909FB04F8C4E7B3
:100F5000704700BF80B582B000AF03463960FB80A8
:100F60003B68FA881A81FB88B3F5806F09D8FB8843
:100F70000221184611F024FF03461A463B681A6006
:100F800008E002214FF4806011F01AFF03461A4670
:100F90003B681A603B680122DA803B6800229A8035
:100FA00000BF0837BD4680BD80B483B000AF786015
:100FB0007B68DB889AB27B689B889BB29A420FD28F
:100FC0007B681B899AB27B689B889BB2D31A9AB2C2
:100FD0007B68DB889BB213449BB2013B9BB209E068
:100FE0007B68DB889AB27B689B889BB2D31A9BB2E2
:100FF000013B9BB218460C37BD465DF8047B704739
:1010000090B583B000AF78607B681B899CB278682C
:10101000FFF7CAFF0346E31A9BB2023B9BB2184696
:101020000C37BD4690BD80B582B000AF786078685F
:10103000FFF7E6FF0346002B01D1002300E0012368
:1010400018460837BD4680BD80B582B000AF7860D5
:1010500039607868FFF7E7FF034683F00103DBB2EE
:10106000002B01D002231BE07B68DB889AB27B68EF
:101070001B899BB29A4202D37B680022DA807B688C
:101080001A687B68DB889BB29B0013443A681A603D
:101090007B68DB889BB201339AB27B68DA800323DA
:1010A00018460837BD4680BD80B584B000AF0FF04C
:1010B00079FB0346154A1360154BBB60134B1B6845
:1010C00007F1080140F2146218460FF055FA114B6F
:1010D0007B600E4B1B68391D40F2136218460FF0FF
:1010E000D3FA0346FB7397F90F30002B06D1074B59
:1010F0001B680022084918460FF034FB07490520F9
:10110000FFF728FF00BF1037BD4680BD1801002043
:10111000C0A8019CC0A8010221110008A001002064
:1011200080B584B000AFF860B9607A603B607B68DE
:1011300059687B685B891A46084812F038F9084BF1
:101140001B680133064A1360786809F097F801F0CC
:10115000FDFC00BF1037BD4680BD00BF1C01002054
:101160009C01002080B5C4B000AF07F58873A3F5DB
:101170008673186007F58873A3F5867307F1080076
:101180001A68174912F07CF8C7F80C01D7F80C312F
:101190009BB24FF420721946362008F08BFDC7F839
:1011A0000801D7F80831002B14D0D7F80C319AB2C7
:1011B00007F108031946D7F8080109F0CBFA094BE3
:1011C0001B68D7F8081118460EF0ECFFD7F8080195
:1011D00009F054F800BF07F58877BD4680BD00BF11
:1011E000904501081801002080B400AF084B1B682F
:1011F000074A43F080731360064B1B68054A43F0AF
:101200000103136000BFBD465DF8047B704700BF5B
:10121000FCED00E0001000E080B485B000AF786025
:101220000C4B1B680C4AA2FB03239A0C7B6802FB45
:1012300003F3FB60094B00221A6000BF074B1B68D9
:10124000FA689A42FAD800BF00BF1437BD465DF86D
:10125000047B70477400002083DE1B43041000E011
:1012600080B483B000AF7860044A7B68136000BF2D
:101270000C37BD465DF8047B704700BFAC01002011
:1012800080B483B000AF786039603B681A687B68CF
:101290001A603B689A887B689A803B689A687B688A
:1012A0009A603B689A897B689A817B6800221A6100
:1012B0007B6800229A827B6800229A617B68012207
:1012C0001A777B6800225A777B6800229A777B68BE
:1012D0000022DA7700BF0C37BD465DF8047B70470B
:1012E00080B582B000AF78607B681B7F5AB27B68A4
:1012F0009B691A447B689A617B681B7F5BB21946C5
:10130000786800F019F80B4B1B687A6810687A68E7
:101310009188012298470520FFF77EFF054B1B6847
:101320007A6810687A6891880022984700BF083769
:10133000BD4680BDAC01002080B582B000AF7860B2
:101340000B46FB707B68DB7F83F00103DBB2002B75
:101350001BD097F90330012B0BD17B6801221A7740
:10136000194B1B687A6890687A68918901229847BE
:1013700026E07B68FF221A77134B1B687A68906817
:101380007A689189002298471AE097F90330012B77
:101390000BD17B6801221A770B4B1B687A68906827
:1013A0007A689189002298470AE07B68FF221A77C1
:1013B000054B1B687A6890687A6891890122984782
:1013C00000BF0837BD4680BDAC01002080B582B0AB
:1013D00000AF78607B6801225A777B689B7F83F03F
:1013E0000103DBB2002B08D00A4B1B687A68106936
:1013F0007A68918A0122984707E0064B1B687A6851
:1014000010697A68918A0022984700BF0837BD4664
:1014100080BD00BFAC01002080B582B000AF786015
:101420007B6800225A777B689B7F83F00103DBB2E5
:10143000002B08D00A4B1B687A6810697A68918A79
:101440000022984707E0064B1B687A6810697A68A3
:10145000918A0122984700BF0837BD4680BD00BF72
:10146000AC01002080B485B000AFF860B9607A604C
:101470003B60094AFB681360084ABB681360084A6E
:101480007B681360074A3B68136000BF1437BD4692
:101490005DF8047B704700BFB0010020B40100205C
:1014A000B8010020BC01002080B584B000AFF86016
:1014B000B9607A603B60FB68BA681A60FB687A685A
:1014C0005A60FB6800229A60FB680022DA60FB68C1
:1014D00000221A61FB683A7E1A75FB6800225A7571
:1014E000FB6800229A75FB680022DA753868FFF7FE
:1014F00001F84FF00002254BFFF7A0F902460B461A
:1015000010461946FFF740FB0246FB689A61FB68EC
:1015100000229A83FB6800221A62FB684FF00002E7
:101520005A62FB6800229A62FB680022DA62FB685A
:1015300000221A63FB6800225A63FB6800229A6348
:10154000FB680022DA63FB684FF000021A64FB6854
:101550004FF000025A64FB68002283F84820FB68C1
:101560004FF00002DA64FB684FF000021A65FB6876
:1015700000225A65FB6800229A65FB684FF07E5294
:10158000DA6500BF1037BD4680BD00BF00807640E1
:1015900080B483B000AF78600B46FB707B68FA784C
:1015A0005A7500BF0C37BD465DF8047B70470000DC
:1015B00080B582B000AF7860084B1B689847024640
:1015C0007B68DA607B68DA687B681A627B681A6A13
:1015D0007B68DA6300BF0837BD4680BDB8010020D4
:1015E00080B483B000AF78607B684FF000021A646B
:1015F00000BF0C37BD465DF8047B704780B582B0F4
:1016000000AF78607B68DB7D022B40D1234B1B68E9
:10161000984702467B689A607B685B7D002B06D109
:101620007B689B8B002B02D0786800F089F87B6880
:101630005B7D012B06D17B689B8B002B02D07868E9
:1016400000F07AFB7B681B69002B20D07B689A68CE
:101650007B68DB68D21A7B681B699A4217D37B6868
:101660009A687B68DA607B685B7D002B0CD17B68B5
:101670009A6A7B681B689B699A4205D1786800F07A
:1016800032F87B68DB7D04E0786800F04BF87B681B
:10169000DB7D18460837BD4680BD00BFB80100207D
:1016A00080B582B000AF78607B680122DA75786817
:1016B000FFF77EFF7B681B681846FFF787FE00BFB9
:1016C0000837BD4680BD80B582B000AF78607B68CA
:1016D0000322DA757B681B681846FFF79DFE00BF82
:1016E0000837BD4680BD80B582B000AF78607B68AA
:1016F0000122DA757B6800221A617B684FF00002D4
:101700001A647B6800225A657868FFF769FF7B6876
:101710009B7D002B02D07868FFF7D5FF00BF08370C
:10172000BD4680BD80B582B000AF78607B681B6825
:101730001846FFF7D5FD00BF0837BD4680BD000045
:101740002DE9B04F84B000AF78607B681B681B7FC9
:10175000FB737B68DA6A7B689B6BD31A002B01DB17
:10176000012301E04FF0FF33BB737B689A687B680D
:101770001B6AD21A7B681B699A42C0F01D817B6884
:101780009A687B681A627B689A6B7B68DB6A9A420C
:1017900006D37B689A6B7B681B6B9A4240F2A180F0
:1017A0007B685B6D002B04D17B68DA6C7B681A6503
:1017B00064E07B685B6D012B13D17B68DB6C1846A2
:1017C000FEF7BAFE84A3D3E90023FEF70DFF02461D
:1017D0000B4610461946FFF7D7F902467B681A6593
:1017E0004CE07B685B6D012B48DD7B681B6D184608
:1017F000FEF7A2FE04460D4697F90E301846FEF796
:1018000089FE02460B46FEF739FD02460B4690461E
:1018100099467B685B6D1846FEF77CFE4FF0000230
:101820006B4BFEF7E1FE02460B4692469B4697F94C
:101830000E301846FEF76EFE02460B4650465946DD
:10184000FEF71CFD02460B4640464946FEF7F6FFF2
:1018500002460B464FF000005E49FEF70DFD0246C2
:101860000B4620462946FEF7BFFE02460B461046B1
:101870001946FFF789F902467B681A657B68D3ED44
:10188000147AFCEEE77A17EE903A5A1F7B681A61D9
:1018900097F90F301846FEF73DFE4BA3D3E900231E
:1018A000FEF7A2FE02460B4614461D467B681B6DE2
:1018B0001846FEF741FE02460B4620462946FEF733
:1018C000BDFF02460B4610461946FFF75DF902467A
:1018D0007B681A647B685A6D97F90E301A447B68EE
:1018E0005A657B689A6B7B68DB6A9A4228D17B6871
:1018F000DA6A7B681B6B9A4222D097F90F3007EEA9
:10190000903AB8EEE77A7B68D3ED097A67EE277AEA
:101910007B68C3ED107A7B685B6A1846FEF70CFEA5
:1019200002460B4628A1D1E90001FEF787FF0246D7
:101930000B4610461946FFF707F902467B681A6105
:101940007B689A6B7B681B6B9A4230D17B68D3EDC6
:10195000147AFCEEE77A17EE903A5A1F7B681A6108
:1019600097F90F301846FEF7D5FD17A3D3E90023EA
:10197000FEF73AFE02460B4614461D467B681B6D79
:101980001846FEF7D9FD02460B4620462946FEF7CB
:1019900055FF02460B4610461946FFF7F5F802467A
:1019A0007B681A647B685B6D5A1E7B685A657B682E
:1019B0009B6B5A1C7B689A6300BF1037BD46BDE81D
:1019C000B08F00BFAFF300800000000080842E4184
:1019D000000010400000F03F857CD0B359F5D93F9E
:1019E000B0B584B000AF786039607B681B689B69D4
:1019F0003A68D31A002BB8BF5B42FB607B685B7D03
:101A0000002B01D00023A9E07B68DB7D022B01D1F4
:101A10000023A3E07B683A689A627B689A6A7B68D5
:101A20001B689B699A4200F098807B689A6A7B6881
:101A30001B689B699A4201DD012201E04FF0FF32F1
:101A40007B681B681A777B689B8B002B09D07B68AF
:101A5000D3ED097AB1EE047AF4EEC77AF1EE10FA1A
:101A600015D57B685B6A1846FEF766FD02460B4695
:101A70003DA1D1E90001FEF7E1FE02460B4610460A
:101A80001946FFF761F802467B681A6162E07B68DD
:101A900093ED097A7B68D3ED097A67EE277A17EE22
:101AA000900AFEF749FD04460D467B689B8B18465D
:101AB000FEF730FD02460B46FEF7E0FB02460B4602
:101AC00020462946FEF7BAFE02460B461046194646
:101AD000FFF73AF802467B689A657B689B6D5B006E
:101AE000FA689A4215D97B689A6D7B68DA627B68DE
:101AF000DA6AFB681A447B689B6D5B00D21A7B68CC
:101B00001A637B681A6B7B689B6D1A447B685A6307
:101B10001DE0FB685A087B68DA627B68DB6AFA685A
:101B200002F00102002A0CBF01220022D2B21344AB
:101B3000002B0CBF01230023DBB21A467B681A631B
:101B40007B681A6B7B68DB6A1A447B685A637B6824
:101B500000229A637B680222DA7501231846103747
:101B6000BD46B0BDAFF300800000000080842E4170
:101B700080B582B000AF786087ED000A7B6893ED96
:101B8000067AD7ED007A67EE277AFDEEE77A17EE50
:101B9000901A7868FFF724FF034618460837BD46B9
:101BA00080BD00000000000080B582B000AF78600A
:101BB00087ED000A7B68DB7D022B01D1002319E051
:101BC000D7ED007AF0EEE77A17EE900AFEF7B4FC54
:101BD00002460B469FED0A1B43EC102B12F0A6FBAE
:101BE00053EC102B10461946FEF7CEFF02467B68D9
:101BF0005A62012318460837BD4680BDAFF3008006
:101C0000DFBC9A785634323F80B582B000AF78603E
:101C100087ED000AD7ED007AB0EEE77A7B68D3ED66
:101C2000067A67EE277AB0EE670A7868FFF7BCFF9E
:101C3000034618460837BD4680BD0000000000007E
:101C400080B582B000AF78600B467B807B68DB7D1F
:101C5000022B01D1002332E07B687A889A837B884B
:101C6000002B27D07B689B8B1846FEF753FC02465F
:101C70000B464FF000004FF08041FEF7DFFD0246BB
:101C80000B4643EC172BB0EE470AF0EE670A12F052
:101C900021FB51EC100B0CA3D3E90023FEF7A4FCAD
:101CA00002460B4610461946FEF76EFF02467B6859
:101CB000DA6403E07B684FF00002DA64012318461F
:101CC0000837BD4680BD00BF0000000080842E4163
:101CD00080B582B000AF786087ED000A7B6893ED35
:101CE000067AD7ED007A67EE277AFCEEE77A17EEF0
:101CF000903A9BB219467868FFF7A2FF0346184650
:101D00000837BD4680BD80B483B000AF78607B6883
:101D10001B689B6907EE903AB8EEE77A7B68D3EDD3
:101D2000067AC7EE276AF0EE667AB0EE670A0C37DD
:101D3000BD465DF8047B70472DE9B04F84B000AF1D
:101D400078607B6893ED117A7B68D3ED107A77EE3B
:101D5000677AC7ED037A7B681B681B7FFB727B6821
:101D600093F84830002B14D07B68D3ED107AF0EE56
:101D7000E77A17EE900AFEF7DFFB9CA3D3E9002376
:101D8000FEF7AEFE0346002B03D07868FFF7ABFCEE
:101D90001AE17B689A687B68DB6BD21A7B681B69E7
:101DA0009A42C0F011817B689A687B68DA637B682D
:101DB0005B6D002B04D17B68DA6C7B681A65B8E038
:101DC0007B685B6D012B13D17B68DB6C1846FEF7DB
:101DD000B3FB88A3D3E90023FEF706FC02460B46BB
:101DE00010461946FEF7D0FE02467B681A65A0E051
:101DF0007B685B6D012B77DD7B681B6D1846FEF7FA
:101E00009BFB04460D4697F90B3007EE903AB8EE6F
:101E1000E77AD7ED037A67EE277A17EE900AFEF796
:101E20008BFB6BA3D3E90023FEF76EFE0346002B6A
:101E300003D04FF000006A4902E04FF0000069490A
:101E400002460B46FEF71AFA02460B4690469946A2
:101E50007B685B6D1846FEF75DFB4FF00002624B3E
:101E6000FEF7C2FB02460B4692469B4697F90B30A3
:101E700007EE903AB8EEE77AD7ED037A67EE277A65
:101E800017EE900AFEF758FB51A3D3E90023FEF7A3
:101E90003BFE0346002B03D04FF00000504902E008
:101EA0004FF000004F4952465B46FEF7E7F9024605
:101EB0000B4640464946FEF7C1FC02460B464FF032
:101EC00000004749FEF7D8F902460B46204629464E
:101ED000FEF78AFB02460B4610461946FEF754FEF3
:101EE00002467B681A6524E07B685B6D002B20DA74
:101EF0007B684FF000021A647B6893F84830002B2F
:101F000003D07868FFF7EFFB5EE07B685B6C1846F8
:101F1000FEF712FB2EA3D3E90023FEF7F5FD0346DF
:101F2000002B01D0012201E04FF0FF327B681B68DB
:101F30001A777B68D3ED147AFCEEE77A17EE903AC5
:101F40005A1F7B681A6197F90B301846FEF7E2FAC0
:101F500021A3D3E90023FEF747FB02460B461446B4
:101F60001D467B681B6D1846FEF7E6FA02460B46D7
:101F700020462946FEF762FC02460B4610461946EB
:101F8000FEF702FE02467B681A647B685C6D97F977
:101F90000B3007EE903AB8EEE77AD7ED037A67EEAA
:101FA000277A17EE900AFEF7C7FA09A3D3E90023B0
:101FB000FEF7AAFD0346002B01D0012301E04FF0FC
:101FC000FF331A197B685A651037BD46BDE8B08FDC
:101FD00011EA2D819997713D0000000080842E4107
:101FE0000000F03F0000F0BF00001040DFBC9A7816
:101FF0005634323F857CD0B359F5D93F00000000FC
:10200000B0B582B000AF786087ED000A7B685B7D79
:10201000012B01D00023B6E07B683A685A647B68E4
:10202000D3ED117AF5EE407AF1EE10FA0CBF0123F0
:102030000023DAB27B6883F848207B68D3ED117AFD
:10204000F5EE407AF1EE10FA0BD17B689B8B002BFA
:1020500007D17B6800221A617868FFF744FB0123EF
:1020600091E0D7ED007AF5EEC07AF1EE10FA01DDDD
:10207000012201E04FF0FF327B681B681A77D7ED31
:10208000007AF0EEE77A17EE900AFEF755FA43A3CE
:10209000D3E90023FEF71AFD0346002B14D07B681A
:1020A0001B681B7F5BB21846FEF734FA3BA3D3E9EB
:1020B0000023FEF799FA02460B4610461946FEF732
:1020C00063FD02467B685A647B689B8B002B25D19D
:1020D0007B685A6C7B681A647B685B6C1846FEF7F9
:1020E0002BFA02460B462FA1D1E90001FEF7A6FB11
:1020F00002460B46144623F000454FF00002264BE3
:1021000020462946FEF7B8F802460B461046194607
:10211000FEF71AFD02467B681A6130E07B68D3ED5A
:10212000107AF5EE407AF1EE10FA14D17B685B6C10
:102130001846FEF701FA16A3D3E90023FEF7E4FCE4
:102140000346002B01D0012201E04FF0FF327B68F3
:102150001B681A7713E07B681B6C1846FEF7ECF9D6
:102160000BA3D3E90023FEF7CFFC0346002B01D0DD
:10217000012201E04FF0FF327B681B681A777B6811
:102180000222DA75012318460837BD46B0BD00BFEC
:1021900011EA2D819997713D00001440DFBC9A78B7
:1021A0005634323F0000000080842E4180B582B05A
:1021B00000AF786087ED000A7B6893ED067AD7ED73
:1021C000007A67EE277AB0EE670A7868FFF718FFA3
:1021D000034618460837BD4680BD80B483B000AFC3
:1021E00078607B68002283F86C207B68002283F88B
:1021F0006D207B68002283F86E207B68012283F8C3
:102200006F207B68002283F8702000BF0C37BD462A
:102210005DF8047B7047000080B582B002AF01F02A
:10222000D1FA00F077F800F019FB00F0DDF800F0CB
:102230002DF900F05FF900F091F900F03FFA00F09D
:102240008BFA00F0DDFA00F0B7F900F0AFFA05F014
:10225000BBFF00F0E7F9FEF7C7FF204B1B681846ED
:10226000FEF7FEFF1E4B18681E4B19681E4B1A68BE
:102270001E4B1B68FFF7F6F81D491E48FFF700F8D4
:102280001D491E48FEF7FCFF012300934FF4C8636D
:102290001B4A18491B48FFF707F9012300934FF425
:1022A000C863194A15491948FFF7FEF81848FFF79F
:1022B00094FFFEF7F9FE00F01FFC1248FFF7F0F95B
:1022C0001248FFF7EDF900210E48FFF761F90D48BC
:1022D000FFF794F906F0B8F800BFF8E70000002017
:1022E00004000020080000200C0000201000002046
:1022F00014000020F40800202C0000201409002005
:1023000044000020340900205C00002094090020D3
:10231000F409002080B594B000AF07F1200330220B
:102320000021184611F03BF807F10C0300221A6057
:102330005A609A60DA601A610023BB60284B1B6CFC
:10234000274A43F080531364254B1B6C03F08053E2
:10235000BB60BB6800237B60224B1B68214A43F4AF
:10236000804313601F4B1B6803F480437B607B68D2
:1023700001233B624FF480337B620223BB634FF443
:102380008003FB6304233B64A8237B640223BB64B8
:102390000723FB6407F12003184603F0EDFD034615
:1023A000002B01D000F0FEFC0F23FB6002233B61F9
:1023B00000237B614FF4A053BB614FF48053FB615A
:1023C00007F10C030521184604F04EF80346002BD4
:1023D00001D000F0E7FC00BF5037BD4680BD00BF14
:1023E000003802400070004080B584B000AF3B462A
:1023F00000221A605A609A60DA60214B214A1A6002
:102400001F4B4FF480325A601D4B00229A601C4BC8
:1024100000221A611A4B00221A76194B002283F807
:102420002020174B0022DA62154B174A9A62144B90
:102430000022DA60124B0122DA61114B002283F88C
:1024400030200F4B01225A610D4801F051FA03462A
:10245000002B01D000F0A6FC00233B6001237B6031
:102460000023BB603B461946054801F085FA034648
:10247000002B01D000F096FC00BF1037BD4680BD98
:10248000C0010020002001400100000F80B500AF16
:10249000164B174A1A60154B10225A60134B002234
:1024A0009A60124B0022DA60104B00221A610F4B27
:1024B00000225A610D4B00221A760C4B00225A76EC
:1024C0000A4B00229A76094B0022DA76074B00224B
:1024D0001A77064B00225A77044801F06BFC03463A
:1024E000002B01D000F05EFC00BF80BD0802002080
:1024F0000064004080B582B000AF3B4600221A6005
:102500005A60144B144A1A60124801F060FE0346E8
:10251000002B01D000F046FC00233B6000237B60D1
:102520003B46002219460B4801F073FE0346002B80
:1025300001D000F037FC3B4610221946054801F057
:1025400068FE0346002B01D000F02CFC00BF0837CA
:10255000BD4680BD300200200074004080B500AF51
:10256000124B134A1A60114B124A5A600F4B002249
:102570009A600E4B0022DA600C4B4FF480421A61D5
:102580000A4B00225A61094B00229A61074B002234
:10259000DA61064B00221A62044803F099FA0346F6
:1025A000002B01D000F0FEFB00BF80BD44020020E4
:1025B00000540040A086010080B500AF174B184AB8
:1025C0001A60164B4FF482725A60144B00229A60C4
:1025D000124B0022DA60114B00221A610F4B0022CD
:1025E0005A610E4B4FF400729A610C4B0022DA6173
:1025F0000A4B00221A62094B00225A62074B002242
:102600009A62064B0A22DA62044804F04DF9034646
:10261000002B01D000F0C6FB00BF80BD9802002057
:10262000003C004080B586B000AF07F108030022EF
:102630001A605A609A60DA603B4600221A605A605B
:102640001D4B4FF080421A601B4B53225A601A4BAD
:1026500000229A60184B4FF0FF32DA60164B0022CE
:102660001A61154B00229A61134804F0A6F903463B
:10267000002B01D000F096FB4FF48053BB6007F1B4
:10268000080319460C4804F0A1FB0346002B01D0B7
:1026900000F088FB00233B6000237B603B4619462B
:1026A000054804F051FF0346002B01D000F07AFBEF
:1026B00000BF1837BD4680BDF002002080B588B04D
:1026C00000AF3B1D00221A605A609A60DA601A61FE
:1026D0005A619A611E4B1F4A1A601D4B00225A60B4
:1026E0001B4B00229A601A4B4FF6FF72DA60184BB0
:1026F00000221A61164B00229A61154804F05DF918
:102700000346002B01D000F04DFB114804F043FAC2
:102710000346002B01D000F045FB60237B600023C3
:10272000BB600023FB6000237B613B1D0022194638
:10273000074804F089FA0346002B01D000F032FB71
:10274000034800F0F3FC00BF2037BD4680BD00BF4A
:1027500038030020001C004080B500AF114B124A26
:102760001A60104B4FF4E1325A600E4B00229A600F
:102770000C4B0022DA600B4B00221A61094B0C2231
:102780005A61084B00229A61064B0022DA61054823
:1027900004F056FF0346002B01D000F003FB00BFFE
:1027A00080BD00BF800300200010014080B500AF55
:1027B000114B124A1A60104B4FF4E1325A600E4B23
:1027C00000229A600C4B0022DA600B4B00221A6147
:1027D000094B0C225A61084B00229A61064B0022D9
:1027E000DA61054804F02CFF0346002B01D000F00D
:1027F000D9FA00BF80BD00BFC803002000480040D8
:1028000080B500AF144B4FF0A0421A60124B042267
:102810001A71114B0222DA710F4B00229A710E4B82
:1028200002225A720C4B00229A720B4B0022DA726F
:10283000094B00221A73084B00229A73064B0022A0
:10284000DA73054803F088FA0346002B01D000F044
:10285000A9FA00BF80BD00BF1004002080B58CB075
:1028600000AF07F11C0300221A605A609A60DA6018
:102870001A610023BB619A4B1B6B994A43F010030A
:102880001363974B1B6B03F01003BB61BB69002301
:102890007B61934B1B6B924A43F004031363904B91
:1028A0001B6B03F004037B617B6900233B618C4B52
:1028B0001B6B8B4A43F080031363894B1B6B03F044
:1028C00080033B613B690023FB60854B1B6B844AA3
:1028D00043F001031363824B1B6B03F00103FB60A6
:1028E000FB680023BB607E4B1B6B7D4A43F00203F9
:1028F00013637B4B1B6B03F00203BB60BB680023BD
:102900007B60774B1B6B764A43F008031363744B71
:102910001B6B03F008037B607B6800224FF6887115
:10292000704803F0BBF800224EF280016E4803F0BD
:10293000B5F800224CF213716C4803F0AFF8002296
:102940004FF401416A4803F0A9F8002208216948C0
:1029500003F0A4F84523FB6100233B6200237B6264
:1029600007F11C0319465F4802F0FCFE0823FB61D7
:1029700001233B6200237B620023BB6207F11C033F
:102980001946584802F0EEFE3223FB614FF48813DB
:102990003B6200237B6207F11C031946514802F099
:1029A000E1FE4FF46043FB6101233B6200237B6245
:1029B0000023BB6207F11C0319464B4802F0D2FE0C
:1029C00040F24D33FB614FF488133B6200237B627E
:1029D00007F11C031946444802F0C4FE4CF21343AD
:1029E000FB6101233B6200237B620323BB6207F18F
:1029F0001C0319463D4802F0B5FE4FF68073FB619B
:102A000001233B6200237B620323BB6207F11C03AB
:102A10001946344802F0A6FE4FF68043FB614FF49E
:102A200088133B6200237B6207F11C03194631487F
:102A300002F098FE8023FB6101233B6200237B624E
:102A40000323BB6207F11C031946274802F08AFEE4
:102A50004FF40143FB6101233B6200237B620023AF
:102A6000BB6207F11C031946214802F07BFE742368
:102A7000FB6100233B6200237B6207F11C031946C4
:102A80001C4802F06FFE0823FB6101233B62002318
:102A90007B620023BB6207F11C031946154802F054
:102AA00061FE2023FB6100233B6200237B6207F170
:102AB0001C0319460D4802F055FE4FF44073FB61AC
:102AC00001233B6200237B620023BB6207F11C03EE
:102AD0001946064802F046FE00BF3037BD4680BDAD
:102AE000003802400010024000080240000402408A
:102AF00000000240000C024080B500AF024803F025
:102B0000ABFF00BF80BD00BFF002002080B500AF6A
:102B1000024804F011F800BF80BD00BFF0020020A1
:102B200080B400AF4FF0804300225A6200BFBD4620
:102B30005DF8047B704780B400AF4FF080435B6A60
:102B40001846BD465DF8047B70470000B0B5ADF592
:102B5000087D04AF874B1B78542B28D1854B5B78BD
:102B6000532B24D10A220021834810F0ABFA0346EC
:102B7000A7F80E32B7F90E3207EE903AF8EEE77A80
:102B8000B0EE670A7D48FFF711FBB7F90E227C4BC8
:102B90001B6838467B4910F073FB3B461846FEF72E
:102BA000E1FA80220021734810F0F9FBDDE0714B5F
:102BB0001B784D2B28D16F4B5B78532B24D10A22E5
:102BC00000216D4810F07EFA0346A7F80C32B7F8E2
:102BD0000C3207EE903AF8EE677AB0EE670A674873
:102BE000FFF712F8B7F80C22654B1B6838466649A8
:102BF00010F046FB3B461846FEF7B4FA802200214F
:102C00005C4810F0CCFBB0E05A4B1B78472B1CD132
:102C1000584B5B78502B18D15848FFF774F8F0EEFA
:102C2000407AFDEEE77A564B1B68384617EE902A3D
:102C3000564910F025FB3B461846FEF793FA8022D2
:102C400000214C4810F0ABFB8FE04A4B1B78412B26
:102C500024D10A2200214E4810F034FA0346A7F886
:102C60000232B7F8023207EE903AF8EE677AB0EE29
:102C7000670A4248FFF72CF8B7F80222404B1B685E
:102C80003846444910F0FCFA3B461846FEF76AFA0B
:102C900080220021374810F082FB66E0354B1B781C
:102CA000542B43D1334B5B78502B3FD10A22002168
:102CB000314810F007FA0346A7F80A32B7F90A328A
:102CC00007EE903AF8EEE77AB0EE670A2B48FEF787
:102CD0004FFF2B4B1D68B7F90A3207EE903AB8EE5A
:102CE000E77A264BD3ED067A67EE277AFDEEE77A90
:102CF000224BDB6A214A126B2049496B1F48806DC9
:102D00003C46039002910192009317EE903A2A46B6
:102D10002149204610F0B4FA3B461846FEF722FA45
:102D200080220021134810F03AFB1EE00A22002105
:102D3000104810F0C7F9C7F80402802200210D489E
:102D400010F02DFBD7F804121448FEF77DF9034666
:102D5000022B0AD10A4B1A683B461149184610F05B
:102D60008FFA3B461846FEF7FDF907F50477BD4696
:102D7000B0BD00BF1C0100201E010020340900204E
:102D80009C01002094450108D44501080C46010827
:102D90001D0100204C46010888460108A0010020C2
:102DA000DC46010880B400AF72B600BF00BFFDE78B
:102DB00080B483B000AF00237B60104B5B6C0F4A84
:102DC00043F4804353640D4B5B6C03F480437B609E
:102DD0007B6800233B60094B1B6C084A43F080531F
:102DE0001364064B1B6C03F080533B603B6800BFD1
:102DF0000C37BD465DF8047B704700BF00380240C9
:102E000080B58AB000AF786007F1140300221A6021
:102E10005A609A60DA601A617B681B68174A9342AD
:102E200027D100233B61164B5B6C154A43F480733A
:102E30005364134B5B6C03F480733B613B69002369
:102E4000FB600F4B1B6B0E4A43F0010313630C4BEB
:102E50001B6B03F00103FB60FB6809237B61032309
:102E6000BB610023FB6107F114031946054802F01A
:102E700079FC00BF2837BD4680BD00BF002001405F
:102E8000003802400000024080B58AB000AF786090
:102E900007F1140300221A605A609A60DA601A611E
:102EA0007B681B68194A93422BD100233B61184B66
:102EB0001B6C174A43F000731364154B1B6C03F033
:102EC00000733B613B690023FB60114B1B6B104A95
:102ED00043F0080313630E4B1B6B03F00803FB6006
:102EE000FB6803237B610223BB610023FB61032397
:102EF0003B6209237B6207F114031946054802F07F
:102F000031FC00BF2837BD4680BD00BF00640040D3
:102F100000380240000C024080B58AB000AF7860F3
:102F200007F1140300221A605A609A60DA601A618D
:102F30007B681B68174A934227D100233B61164BDD
:102F40001B6C154A43F000531364134B1B6C03F0C6
:102F500000533B613B690023FB600F4B1B6B0E4A28
:102F600043F0010313630C4B1B6B03F00103FB6085
:102F7000FB6830237B610323BB610023FB6107F106
:102F800014031946054802F0EDFB00BF2837BD4683
:102F900080BD00BF007400400038024000000240C5
:102FA00080B58AB000AF786007F1140300221A6080
:102FB0005A609A60DA601A617B681B68194A93420A
:102FC0002BD100233B61184B1B6B174A43F00203C4
:102FD0001363154B1B6B03F002033B613B69C0237A
:102FE0007B611223BB610023FB6103233B6204234B
:102FF0007B6207F1140319460C4802F0B3FB00236F
:10300000FB60094B1B6C084A43F400131364064B26
:103010001B6C03F40013FB60FB6800BF2837BD4640
:1030200080BD00BF00540040003802400004024050
:1030300080B58AB000AF786007F1140300221A60EF
:103040005A609A60DA601A617B681B68194A934279
:103050002CD100233B61184B1B6C174A43F40043EF
:103060001364154B1B6C03F400433B613B69002365
:10307000FB60114B1B6B104A43F0040313630E4BB0
:103080001B6B03F00403FB60FB684FF4E0537B61B0
:103090000223BB610023FB6103233B6206237B62A7
:1030A00007F114031946054802F05CFB00BF2837FE
:1030B000BD4680BD003C0040003802400008024090
:1030C00080B485B000AF78607B681B68B3F1804F37
:1030D0000ED10023FB60134B1B6C124A43F001031B
:1030E0001364104B1B6C03F00103FB60FB6812E0E0
:1030F0007B681B680C4A93420DD10023BB60094BCF
:103100001B6C084A43F080031364064B1B6C03F0EE
:103110008003BB60BB6800BF1437BD465DF8047B0D
:10312000704700BF00380240001C004080B588B0E6
:1031300000AF786007F10C0300221A605A609A60B1
:10314000DA601A617B681B68124A93421DD1002322
:10315000BB60114B1B6B104A43F0010313630E4B12
:103160001B6B03F00103BB60BB684023FB600223C1
:103170003B6100237B610023BB610923FB6107F1F5
:103180000C031946054802F0EDFA00BF2037BD4692
:1031900080BD00BF001C004000380240000002401B
:1031A00080B58CB000AF786007F11C0300221A6074
:1031B0005A609A60DA601A617B681B68334A9342EE
:1031C0002DD10023BB61324B5B6C314A43F01003BD
:1031D00053642F4B5B6C03F01003BB61BB6900238E
:1031E0007B612B4B1B6B2A4A43F001031363284B73
:1031F0001B6B03F001037B617B694FF4C063FB61D0
:1032000002233B6200237B620323BB620723FB6232
:1032100007F11C0319461F4802F0A4FA31E07B684D
:103220001B681D4A93422CD100233B61184B1B6C39
:10323000174A43F480231364154B1B6C03F480235B
:103240003B613B690023FB60114B1B6B104A43F051
:10325000080313630E4B1B6B03F00803FB60FB6852
:103260004FF44073FB6102233B6200237B62032324
:10327000BB620723FB6207F11C031946074802F0F3
:1032800071FA00BF3037BD4680BD00BF001001405D
:10329000003802400000024000480040000C02409C
:1032A00080B58AB000AF786007F1140300221A607D
:1032B0005A609A60DA601A617B681B68B3F1A04FAC
:1032C00032D100233B611A4B1B6B194A43F00103B7
:1032D0001363174B1B6B03F001033B613B694FF416
:1032E000C0537B610223BB610023FB6103233B626C
:1032F0000A237B6207F1140319460E4802F032FAE2
:103300000B4B5B6B0A4A43F0800353630023FB6063
:10331000074B5B6C064A43F480435364044B5B6C7D
:1033200003F48043FB60FB6800BF2837BD4680BDC7
:10333000003802400000024080B400AF00BFFDE74B
:1033400080B400AF00BFFDE780B400AF00BFFDE771
:1033500080B400AF00BFFDE780B400AF00BFFDE761
:1033600080B400AF00BFBD465DF8047B704780B4F9
:1033700000AF00BFBD465DF8047B704780B400AF6E
:1033800000BFBD465DF8047B704780B500AF00F01C
:103390006BFA00BF80BD000080B500AF024801F0AD
:1033A000F3FA00BF80BD00BF8C55002080B400AF91
:1033B00001231846BD465DF8047B704780B483B096
:1033C00000AF78603960054B16221A604FF0FF336A
:1033D00018460C37BD465DF8047B7047648C0020AE
:1033E00080B582B000AF78604FF0FF317868FFF7AA
:1033F000E5FF00BFFDE780B586B000AFF860B960BB
:103400007A6000237B610AE0AFF300800146BB686D
:103410005A1CBA60CAB21A707B6901337B617A693F
:103420007B689A42F0DB7B6818461837BD4680BD42
:1034300080B586B000AFF860B9607A6000237B6128
:1034400009E0BB685A1CBA601B781846AFF30080CD
:103450007B6901337B617A697B689A42F1DB7B6827
:1034600018461837BD4680BD80B483B000AF786081
:103470004FF0FF3318460C37BD465DF8047B7047AC
:1034800080B483B000AF786039603B684FF400527D
:103490005A60002318460C37BD465DF8047B704720
:1034A00080B483B000AF7860012318460C37BD4666
:1034B0005DF8047B704780B485B000AFF860B960F8
:1034C0007A60002318461437BD465DF8047B7047C8
:1034D00080B487B000AF7860144A154BD31A7B6173
:1034E0007B693B61134B1B68002B02D1114B124AC5
:1034F0001A60104B1A687B6813443A699A4205D2E5
:103500000E4B0C221A604FF0FF3309E0094B1B6889
:10351000FB60084B1A687B681344064A1360FB681B
:1035200018461C37BD465DF8047B7047000002203A
:1035300000400000680A0020708C0020648C00208D
:1035400080B400AF064BD3F88830054A43F47003CB
:10355000C2F8883000BFBD465DF8047B704700BFED
:1035600000ED00E0DFF834D0FFF7EAFF0C480D492A
:103570000D4A002302E0D458C4500433C4188C42CE
:10358000F9D30A4A0A4C002301E013600432A24234
:10359000FBD30FF07BFFFEF73FFE704700000220D9
:1035A00000000020FC00002008740108FC0000203E
:1035B0006C8C0020FEE780B483B000AF7860396087
:1035C0007B68002B0BD03B68DB68002B07D03B6887
:1035D0009B68002B03D03B681B69002B02D14FF086
:1035E000FF3314E03B681A687B689A603B685A684E
:1035F0007B68DA603B68DA687B685A613B689A6886
:103600007B681A613B681A697B689A6100231846D7
:103610000C37BD465DF8047B704780B586B000AFBF
:1036200078600023FB6000237B6100233B617B68A3
:103630005B68002B39D17B689B68002B02D07B68CC
:103640009B6898477B6820221A6000237B611CE0FE
:103650007B685B6907F10C02122178699847034681
:10366000002B03DA6FF004033B610BE0FB6803F00F
:103670001F037A699A4205D17B687A691A60002330
:103680003B6105E07B6901337B617B691F2BDFD9DF
:103690007B681B681F2B02D96FF002033B613B69FB
:1036A000002B02D17B6801225A603B69184618370B
:1036B000BD4680BD80B584B000AF78600023FB605C
:1036C0007B685B697A68106807F10C0201219847F2
:1036D0000346002B02DA6FF004036EE07B685B693F
:1036E0007A68106807F10C02012198470346002B05
:1036F00002DA6FF0040360E0FB6803F00403002BC0
:1037000001D1012359E07B685B697A68106807F191
:103710000C02002198470346002B02DA6FF00403E5
:103720004BE0FB6803F48053002B1BD1FB6803F4D0
:103730000053002B06D0FB6803F48073002B01D0EC
:1037400002233AE0FB6803F40053002B01D003236B
:1037500033E0FB6803F48073002B01D004232CE0DA
:1037600005232AE07B685B697A68106807F10C0220
:103770001F2198470346002B02DA6FF004031CE078
:10378000FB6803F48053002B01D1062315E0FB688E
:1037900003F01C03182B01D102230EE0FB6803F099
:1037A0001C03082B01D1032307E0FB6803F01C0373
:1037B000142B01D1042300E0052318461037BD4621
:1037C00080BD000080B500AF0E4B1B680D4A43F46E
:1037D000007313600B4B1B680A4A43F48063136049
:1037E000084B1B68074A43F480731360032000F002
:1037F000ADFC0F2000F008F8FFF7DAFA00231846B6
:1038000080BD00BF003C024080B582B000AF786050
:10381000124B1A68124B1B7819464FF47A73B3FB9C
:10382000F1F3B2FBF3F3184600F0C5FC0346002B9E
:1038300001D001230EE07B680F2B0AD800227968A3
:103840004FF0FF3000F08DFC064A7B6813600023C8
:1038500000E0012318460837BD4680BD74000020F3
:103860007C0000207800002080B400AF064B1B785D
:103870001A46064B1B681344044A136000BFBD463A
:103880005DF8047B704700BF7C0000206C0A0020BC
:1038900080B400AF034B1B681846BD465DF8047B3F
:1038A000704700BF6C0A002080B584B000AF78601C
:1038B000FFF7EEFFB8607B68FB60FB68B3F1FF3F8A
:1038C00005D00A4B1B781A46FB681344FB6000BF07
:1038D000FFF7DEFF0246BB68D31AFA689A42F7D8B0
:1038E00000BF00BF1037BD4680BD00BF7C00002078
:1038F00080B584B000AF78600023FB737B68002B39
:1039000001D1012333E07B681B6C002B09D178685F
:10391000FFF776FA7B6800225A647B68002283F8FE
:103920003C207B681B6C03F01003002B18D17B68D4
:103930001B6C23F4885323F0020343F002027B68DC
:103940001A64786800F03AF97B6800225A647B6850
:103950001B6C23F0030343F001027B681A6401E04F
:103960000123FB737B68002283F83C20FB7B184615
:103970001037BD4680BD000080B485B000AF7860D0
:1039800039600023BB607B6893F83C30012B01D188
:10399000022305E17B68012283F83C203B681B6819
:1039A000092B25D97B681B68D9683B681B689BB2CB
:1039B0001A4613465B0013441E3B072202FA03F328
:1039C000DA437B681B680A40DA607B681B68D96849
:1039D0003B689A683B681B689BB2184603465B00CD
:1039E00003441E3B9A407B681B680A43DA6022E06E
:1039F0007B681B6819693B681B689BB21A461346B3
:103A00005B001344072202FA03F3DA437B681B6866
:103A10000A401A617B681B6819693B689A683B68B1
:103A20001B689BB2184603465B0003449A407B68C0
:103A30001B680A431A613B685B68062B24D87B68C5
:103A40001B68596B3B685A6813469B001344053B3F
:103A50001F2202FA03F3DA437B681B680A405A63A9
:103A60007B681B68596B3B681B689BB218463B68B8
:103A70005A6813469B001344053B00FA03F27B6827
:103A80001B680A435A634CE03B685B680C2B24D8E4
:103A90007B681B68196B3B685A6813469B0013448C
:103AA000233B1F2202FA03F3DA437B681B680A40B8
:103AB0001A637B681B68196B3B681B689BB21846CE
:103AC0003B685A6813469B001344233B00FA03F2F9
:103AD0007B681B680A431A6323E07B681B68D96A0A
:103AE0003B685A6813469B001344413B1F2202FA6D
:103AF00003F3DA437B681B680A40DA627B681B6861
:103B0000D96A3B681B689BB218463B685A681346E3
:103B10009B001344413B00FA03F27B681B680A4395
:103B2000DA62224BFB607B681B68214A934209D111
:103B30003B681B68122B05D1FB685B6843F480026D
:103B4000FB685A607B681B68194A934223D13B6823
:103B50001B68102B03D03B681B68112B1BD1FB6823
:103B60005B6843F40002FB685A603B681B68102BDB
:103B700011D1104B1B68104AA2FB03239A0C134669
:103B80009B0013445B00BB6002E0BB68013BBB6071
:103B9000BB68002BF9D17B68002283F83C2000230E
:103BA00018461437BD465DF8047B7047002301407A
:103BB000002001407400002083DE1B4380B485B0E8
:103BC00000AF7860794BFB60FB685B6823F44032A0
:103BD000FB685A60FB685A687B685B681A43FB683D
:103BE0005A607B681B685A687B681B6822F4807285
:103BF0005A607B681B6859687B681B691A027B687E
:103C00001B680A435A607B681B685A687B681B689C
:103C100022F040725A607B681B6859687B689A681A
:103C20007B681B680A435A607B681B689A687B68DC
:103C30001B6822F400629A607B681B6899687B6845
:103C4000DA687B681B680A439A607B689B6A584AFB
:103C5000934222D07B681B689A687B681B6822F0BD
:103C600070629A607B681B6899687B689A6A7B6857
:103C70001B680A439A607B681B689A687B681B68AC
:103C800022F040529A607B681B6899687B68DA6A08
:103C90007B681B680A439A600FE07B681B689A6820
:103CA0007B681B6822F070629A607B681B689A6868
:103CB0007B681B6822F040529A607B681B689A6898
:103CC0007B681B6822F002029A607B681B68996817
:103CD0007B681B7E5A007B681B680A439A607B687E
:103CE00093F82030002B1BD07B681B685A687B68D8
:103CF0001B6842F400625A607B681B685A687B68E4
:103D00001B6822F460425A607B681B6859687B68B4
:103D10005B6A013B5A037B681B680A435A6007E0F1
:103D20007B681B685A687B681B6822F400625A60D3
:103D30007B681B68DA6A7B681B6822F47002DA62AF
:103D40007B681B68D96A7B68DB69013B1A057B6865
:103D50001B680A43DA627B681B689A687B681B6889
:103D600022F400729A607B681B6899687B6893F8FC
:103D700030305A027B681B680A439A607B681B6874
:103D80009A687B681B6822F480629A607B681B6873
:103D900099687B685B699A027B681B680A439A6032
:103DA00000BF1437BD465DF8047B70470023014017
:103DB0000100000F80B584B000AF78607B68002BF5
:103DC00001D10123EDE07B6893F82030DBB2002BBA
:103DD00002D17868FFF758F87B681B681A687B681F
:103DE0001B6842F001021A60FFF752FDF86012E012
:103DF000FFF74EFD0246FB68D31A0A2B0BD97B68EE
:103E00005B6A43F400327B685A627B68052283F860
:103E100020200123C5E07B681B685B6803F0010379
:103E2000002BE5D07B681B681A687B681B6822F052
:103E300002021A60FFF72CFDF86012E0FFF728FD80
:103E40000246FB68D31A0A2B0BD97B685B6A43F4E2
:103E500000327B685A627B68052283F820200123A8
:103E60009FE07B681B685B6803F00203002BE5D1D1
:103E70007B681B7E012B08D17B681B681A687B68F6
:103E80001B6842F080021A6007E07B681B681A68B2
:103E90007B681B6822F080021A607B685B7E012BC6
:103EA00008D17B681B681A687B681B6842F0400277
:103EB0001A6007E07B681B681A687B681B6822F041
:103EC00040021A607B689B7E012B08D17B681B68CF
:103ED0001A687B681B6842F020021A6007E07B6862
:103EE0001B681A687B681B6822F020021A607B68D6
:103EF000DB7E012B08D17B681B681A687B681B6816
:103F000022F010021A6007E07B681B681A687B6861
:103F10001B6842F010021A607B681B7F012B08D1DE
:103F20007B681B681A687B681B6842F008021A608D
:103F300007E07B681B681A687B681B6822F0080230
:103F40001A607B685B7F012B08D17B681B681A684D
:103F50007B681B6842F004021A6007E07B681B68FC
:103F60001A687B681B6822F004021A607B689A68F2
:103F70007B68DB681A437B681B691A437B685B6953
:103F800042EA03017B685B685A1E7B681B680A4330
:103F9000DA617B6800225A627B68012283F8202064
:103FA000002318461037BD4680BD000080B485B0A0
:103FB00000AF78607B6803F00703FB600C4BDB68A5
:103FC000BB60BA684FF6FF031340BB60FB681A0280
:103FD000BB68134343F0BF6343F40033BB60044A40
:103FE000BB68D36000BF1437BD465DF8047B7047E3
:103FF00000ED00E080B400AF044BDB681B0A03F067
:1040000007031846BD465DF8047B704700ED00E0ED
:1040100080B483B000AF0346FB7197F90730002BE3
:104020000BDBFB7903F01F02074997F907305B09A7
:10403000012000FA02F241F8232000BF0C37BD46F0
:104040005DF8047B704700BF00E100E080B483B0FE
:1040500000AF03463960FB7197F90730002B0ADB8C
:104060003B68DAB20C4997F907301201D2B20B441F
:1040700083F800230AE03B68DAB20849FB7903F0D1
:104080000F03043B1201D2B20B441A7600BF0C3767
:10409000BD465DF8047B704700E100E000ED00E004
:1040A00080B489B000AFF860B9607A60FB6803F053
:1040B0000703FB61FB69C3F10703042B28BF04233B
:1040C000BB61FB690433062B02D9FB69033B00E0AB
:1040D00000237B614FF0FF32BB6902FA03F3DA433E
:1040E000BB681A407B699A404FF0FF317B6901FA47
:1040F00003F3D9437B680B40134318462437BD466E
:104100005DF8047B7047000080B582B000AF786036
:104110007B68013BB3F1807F01D301230FE00A4AA2
:104120007B68013B53600F214FF0FF30FFF78EFF9C
:10413000054B00229A60044B07221A6000231846A0
:104140000837BD4680BD00BF10E000E080B582B0FA
:1041500000AF78607868FFF729FF00BF0837BD46D9
:1041600080BD80B586B000AF0346B9607A60FB734E
:1041700000237B61FFF73EFF78617A68B968786950
:10418000FFF78EFF024697F90F3011461846FFF7EA
:104190005DFF00BF1837BD4680BD80B582B000AF5F
:1041A0000346FB7197F907301846FFF731FF00BF50
:1041B0000837BD4680BD80B582B000AF78607868B2
:1041C000FFF7A2FF034618460837BD4680BD80B5FD
:1041D00082B000AF78607B68002B01D1012314E02E
:1041E0007B681B79DBB2002B05D17B6800225A71FA
:1041F0007868FEF791FE7B6802221A717B680022C4
:104200001A617B6801221A71002318460837BD46DF
:1042100080BD80B489B000AFF860B9607A600023D7
:10422000FB77FB68002B02D0BB68002B01D1012378
:1042300042E0FB685B79012B01D102233CE0FB6883
:1042400001225A71FB6802221A71FB681B681B6805
:10425000BB617B6803F0100340F6FE7202FA03F3C1
:10426000DB43BA691340BB61BB681A68BB685B6813
:1042700013437B617B6803F010037A6902FA03F34E
:10428000BA691343BB61FB681B68BA691A60FB68B3
:104290001B6819687B6803F01003C02202FA03F35D
:1042A000DA43FB681B680A401A60FB6801221A7136
:1042B000FB6800225A71FB7F18462437BD465DF823
:1042C000047B704780B584B000AF78607B68002BBA
:1042D00001D101238AE07B68D3F88430002B06D11A
:1042E0007B682322C3F88420786804F071FA0023E5
:1042F000BB60404B5B6C3F4A43F4804353643D4B8F
:104300005B6C03F48043BB60BB683B4B5B683A4A21
:1043100023F400035360384B5A687B689B68364926
:1043200013434B60344B5B687B681B6803F5805319
:104330001B687A68126843F0010302F5805213602B
:10434000FFF7A6FAF86011E0FFF7A2FA0246FB6851
:10435000D31AB3F5FA7F09D97B680422C3F8882001
:104360007B68E022C3F8842001233FE07B681B6860
:1043700003F580531B6803F00103002BE4D1786838
:1043800000F032FF786800F0DDFF786801F033F864
:104390007B685B681A460021786800F09BFF7B68A9
:1043A0001B68DA6B7B681B6842F40272DA637B6815
:1043B0001B68D3F80C317A68126843F4003343F079
:1043C0006003C2F80C317B681B68D3F810217B684E
:1043D0001B6842F40312C3F810217B680022C3F863
:1043E00088207B681022C3F88420002318461037E9
:1043F000BD4680BD003802400038014080B584B021
:1044000000AF78607B68D3F88430102B61D17B6873
:104410002322C3F884207B6801229A657B680422EA
:10442000DA66786800F02CFA7B681B681B68FB6012
:104430000120FFF739FA7B681B68FA681A607B680D
:104440001B6803F580539B697A68126843F4005334
:1044500002F5805293617B681B6803F580539B696A
:104460007A68126843F0020302F58052936178681B
:1044700000F056FD7B681B681A687B681B6842F079
:1044800008021A607B681B681B68FB600120FFF74D
:104490000BFA7B681B68FA681A607B681B681A68ED
:1044A0007B681B6842F004021A607B681B6803F596
:1044B0008053DB697A68126843F4D03343F0C10358
:1044C00002F58052D3617B682322C3F88420002345
:1044D00000E0012318461037BD4680BD80B586B088
:1044E00000AF78607B68D3F88430232B70D17B6871
:1044F0002322C3F884207B681B6803F58053DB69A3
:104500007A68126823F4D03323F0C10302F5805295
:10451000D3617B681B6803F580539B697A681268D6
:1045200023F4005302F5805293617B681B6803F506
:1045300080539B697A68126823F0020302F5805267
:1045400093617B681B681A687B681B6822F0040211
:104550001A607B681B681B683B610120FFF7A4F9A8
:104560007B681B683A691A60786800F0D9FC7B6840
:104570001B681A687B681B6822F008021A607B6857
:104580001B681B683B610120FFF78EF97B681B6885
:104590003A691A6000237B610EE07B687A69123207
:1045A00053F82230FB60FB685B6843F00042FB6815
:1045B0005A607B6901337B617B69032BEDD97B6892
:1045C00000229A657B681022C3F88420002300E053
:1045D000012318461837BD4680BD80B586B000AFB0
:1045E000F860B9607A60BB68002B09D1FB68D3F82A
:1045F000883043F00102FB68C3F8882001237CE087
:10460000FB68D3F88430232B76D10022B968F86890
:1046100000F060FF0346002B09D0FB68D3F8883018
:1046200043F00202FB68C3F88820012365E0BFF372
:104630004F8F00BFFB689A6AFB68063253F822303E
:104640007B61FB689B6A5A1CFB689A62FB689B6AE9
:10465000032B04D9FB689B6A1A1FFB689A62FB68EC
:10466000996AFB681A68FB68063153F8213002F535
:1046700080525360FFF70CF9386137E0FB681B6824
:1046800003F580535B6903F40053002B11D0FB68E2
:10469000D3F8883043F00802FB68C3F88820FB6831
:1046A0001B6803F580535A69FB68C3F88C2001230B
:1046B00023E07B68B3F1FF3F18D0FFF7E9F802462B
:1046C0003B69D31A7A689A4202D37B68002B0DD1DA
:1046D000FB68D3F8883043F00402FB68C3F88820F5
:1046E0007B694FF040521A60012306E07B691B682A
:1046F000002BC3DB002300E0012318461837BD461A
:1047000080BD80B588B000AF7860396000237B61E0
:104710000023FB743B68002B09D17B68D3F88830F9
:1047200043F001027B68C3F888200123A4E07B6882
:10473000D3F88430232B01D001239DE07B68DB6D0F
:10474000FB617B68FA69123253F82230BB617B68E7
:10475000DB6EC3F10403FB6066E0BB691B6803F416
:104760008073002B07D0BB69DA697B689A67BB69E5
:104770009A697B685A67BB691B6803F40073002B56
:1047800003D17B68DB6F002B3CD0BB691B6803F453
:104790000073002B05D07B6800221A667B6800221C
:1047A0005A66BB691B681B0CC3F30D03BB60BB6976
:1047B0001B6803F48073002B05D0BB691A687B6803
:1047C0001A670123FB74BB699A68BB691A627B682C
:1047D00003F17C007B6803F18001BB691B6A1A4608
:1047E000BB689BB204F0ACF97B681B6E5A1C7B68FB
:1047F0001A667B685A6EBB681A447B685A66BB6946
:1048000000221A62FB690133FB61FB69032B02D9A9
:10481000FB69043BFB617B68FA69123253F8223072
:10482000BB617B6901337B61BB691B68002B06DBC5
:104830007A69FB689A4202D2FB7C002B8DD07B68A0
:10484000DA6E7B691A447B68DA667B68DB6E002B64
:1048500002D0786800F014F87B68FA69DA65FB7CAE
:10486000012B08D17B68DA6F3B681A607B680022F5
:10487000DA67002300E0012318462037BD4680BDDB
:1048800080B588B000AF78600023BB600123FB7463
:104890007B689B6EFB617B68FA69123253F82230A9
:1048A0007B617B68DB6EBB6144E07B691B6A002B2C
:1048B00012D107F10803184604F012F9BB68002B67
:1048C00002D10023FB7407E0BB681A467B691A62B9
:1048D000BB681A467B699A60FB7C002B2AD07B68F8
:1048E0009B6D002B08D17B685B6943F0004343F468
:1048F00080437A69536005E07B685B6943F48042DA
:104900007B695A607B691B6843F000427B691A60CF
:10491000FB690133FB61FB69032B02D9FB69043B93
:10492000FB617B68FA69123253F822307B61BB6904
:10493000013BBB61BB69002B02D0FB7C002BB4D1D7
:104940007B68DB6EBA699A421AD0FB69013303F0C7
:104950000303FB60BFF35F8F00BF7B681969FA68D0
:1049600013469B001344DB00CA187B681B6803F5E1
:1049700080539A607B68FA699A667B68BA69DA66DE
:1049800000BF2037BD4680BD80B586B000AF7860DF
:104990007B681B689B6B7B617B681B6803F580539E
:1049A0005B693B617B681B6803F58053DB69FB60D7
:1049B0004B4B5B69BB603B6903F04003002B0ED09F
:1049C000FB6803F04003002B09D07B681B6803F5EC
:1049D00080531A46434B5361786800F091F83B6965
:1049E00003F00103002B0FD0FB6803F00103002B41
:1049F0000AD07B681B6803F580531A464FF00113F9
:104A00005361786800F072F83B6903F40043002BAF
:104A100042D0FB6803F40043002B3DD07B68D3F801
:104A2000883043F008027B68C3F888203B6903F4B0
:104A30000053002B1AD07B681B6803F580535A691A
:104A4000294B13407A68C2F88C307B681B6803F5E9
:104A50008053DB697A68126823F4C03302F5805210
:104A6000D3617B68E022C3F8842012E07B681B6876
:104A700003F580535A6948F2806313407A68C2F89C
:104A80008C307B681B6803F580531A4648F28063BC
:104A90005361786800F03EF87B6903F00803002B4F
:104AA0000ED07B681B68DB6A03F060027B68C3F88A
:104AB0009420786800F038F87B680022C3F89420CE
:104AC000BB6803F40023002B06D0054B4FF40022F3
:104AD0005A61786800F032F800BF1837BD4680BDD3
:104AE000003C01404000010000207E0080B483B003
:104AF00000AF786000BF0C37BD465DF8047B70479F
:104B000080B483B000AF786000BF0C37BD465DF85D
:104B1000047B704780B483B000AF786000BF0C376F
:104B2000BD465DF8047B704780B483B000AF786009
:104B300000BF0C37BD465DF8047B704780B483B07E
:104B400000AF786000BF0C37BD465DF8047B70474E
:104B500080B586B000AFF860B9607A603B60FB68F2
:104B60001B681B697B617B6903F01C037B61BB686D
:104B7000DB029BB27A6913437B617B689B0103F480
:104B8000F8637A6913437B617B6923F002037B61DD
:104B90007B6943F001037B61FB681B687A691A61DA
:104BA000FEF776FE38610DE0FEF772FE02463B69C5
:104BB000D31AB3F5803F01D3012310E0FB681B68D3
:104BC0001B697B617B6903F00103002BECD1FB685F
:104BD0001B685B699BB21A463B681A600023184643
:104BE0001837BD4680BD80B586B000AFF860B960AB
:104BF0007A603B60FB681B681B697B617B6903F023
:104C00001C037B61BB68DB029BB27A6913437B6147
:104C10007B689B0103F4F8637A6913437B617B69CA
:104C200043F002037B617B6943F001037B613B68D6
:104C30009AB2FB681B685A61FB681B687A691A6143
:104C4000FEF726FE38610DE0FEF722FE02463B69C4
:104C5000D31AB3F5803F01D3012309E0FB681B6839
:104C60001B697B617B6903F00103002BECD10023FE
:104C700018461837BD4680BD80B483B000AF786059
:104C800039603B68002B01D10123E6E07B681B689B
:104C90001B6803F01003002B14BF01230023DBB2B9
:104CA0001A463B6883F828207B681B681B6803F062
:104CB00060023B685A627B681B681B6803F40073E0
:104CC000002B0CBF01230023DBB21A463B6883F89C
:104CD00020207B681B681B6803F48033002B14BF03
:104CE00001230023DBB21A463B68DA777B681B6836
:104CF0001B6803F40053002B0CBF01230023DBB21D
:104D00001A463B689A777B681B681B6803F48053DC
:104D1000002B14BF01230023DBB21A463B681A772D
:104D20007B681B681B6803F400623B689A617B68C0
:104D30001B681B6803F480423B685A617B681B68F0
:104D40001B6803F48003002B0CBF01230023DBB29C
:104D50001A463B685A747B681B681B6803F400039F
:104D6000002B0CBF01230023DBB21A463B681A74E8
:104D70007B681B681B6803F08003002B14BF0123B2
:104D80000023DBB21A463B68DA737B681B681B683A
:104D900003F460223B689A607B681B681B6803F41D
:104DA0008063002B14BF01230023DBB21A463B684B
:104DB0001A717B681B681B6803F00073002B14BF1B
:104DC00001230023DBB21A463B689A737B681B6899
:104DD0009B6903F00203002B14BF01230023DBB205
:104DE0001A463B6883F854207B681B689B6903F074
:104DF0008003002B0CBF01230023DBB21A463B6863
:104E000083F84C207B681B689B6903F030023B6889
:104E10001A657B681B689B691B0C9AB23B689A6495
:104E20007B681B689B6903F00403002B14BF0123FC
:104E30000023DBB21A463B6883F856207B681B6868
:104E40009B6903F00803002B14BF01230023DBB28E
:104E50001A463B6883F85520002318460C37BD4698
:104E60005DF8047B704780B582B000AF7860396030
:104E70003B68002B01D101230BE07B68D3F8843021
:104E8000102B05D13968786800F070F8002300E035
:104E9000012318460837BD4680BD000080B584B0A8
:104EA00000AF78607B681B681B69FB60FB6823F0C0
:104EB0001C03FB6001F0C4FCB860BB68144A934259
:104EC00004D8FB6843F00803FB6019E0BB68114A93
:104ED000934204D2FB6843F00C03FB6010E0BB6814
:104EE0000D4A93420CD9BB680C4A934204D8FB6824
:104EF00043F00403FB6003E0FB6843F01003FB6036
:104F00007B681B68FA681A6100BF1037BD4680BD18
:104F1000BF0E160200879303FFE0F5057FD1F0086E
:104F200080B584B000AF78600023FB607B681B68AD
:104F300003F580539B697A68126843F4801302F585
:104F4000805293617B681B6803F580539B69FB600B
:104F50000120FEF7A9FC7B681A68FB6802F5805205
:104F6000936100BF1037BD4680BD000080B584B09E
:104F700000AF786039607B681B681B68FB60FA686B
:104F8000534B1340FB603B689B7B5B063A68127C8B
:104F9000002A02D14FF4000200E0002213433A68D5
:104FA000527C002A02D14FF4800200E000221A4312
:104FB0003B689B681A433B68DB7F1B041A433B68D2
:104FC0005B6913433A68927F002A02D14FF4005282
:104FD00000E000221A433B681B7F1B031A433B6817
:104FE0009B691A433B681B799B0213433A6892F80A
:104FF0002020002A02D14FF4007200E000221A4360
:105000003B68DB7BDB011A433B685B6A1A433B6806
:1050100093F828301B011343FA681343FB607B6845
:105020001B68FA681A607B681B681B68FB600120BC
:10503000FEF73AFC7B681B68FA681A607B681B689D
:105040009B69FB60FA684FF641731340FB603B6855
:105050009B6C1B043A6892F84C20002A01D18022F4
:1050600000E000221A433B681B6D13433A6892F834
:105070005520012A01D1082200E0002213433A689A
:1050800092F85620012A01D1042200E000221343A5
:105090003A6892F85420012A01D1022200E000224D
:1050A0001343FA681343FB607B681B68FA689A61D4
:1050B0007B681B689B69FB600120FEF7F5FB7B6842
:1050C0001B68FA689A6100BF1037BD4680BD00BFFB
:1050D0000F8120FD80B584B000AF786039607B68B7
:1050E0001B6803F580539B69FB60FA683D4B1340D6
:1050F000FB603B681B7B002B02D14FF0806200E01D
:1051000000223B685B7B5B0613433A68527F002AB0
:1051100002D14FF4801200E000221A433B689B7BCF
:105120005B051A433B685B691A433B681B7FDB01E5
:105130001A433B689B7F9B011A433B681B6A1A43D7
:105140003B6893F824309B001343FA681343FB60D9
:105150007B681B6803F580531A46FB6893617B6884
:105160001B6803F580539B69FB600120FEF79CFBE5
:105170007B681B6803F580531A46FB6893613B68A4
:105180001B795A063B689B681A433B689B691A4324
:105190003B681B691A433B6893F82530DB011A43CF
:1051A0003B689B6A9B001A433B681B6813437A6801
:1051B000126843F4000302F5805213607B681B6899
:1051C00003F580531B68FB600120FEF76DFB7B68D5
:1051D0001B6803F580531A46FB68136000BF103745
:1051E000BD4680BD233FDEF880B5A6B000AF786035
:1051F000012387F84430012387F845300023FB63FF
:10520000002387F85330012387F85230002387F8B2
:105210005030012387F84230012387F838300023CB
:1052200087F85430002387F843300023BB65002300
:1052300087F85C300023FB67002387F88030002369
:10524000C7F88430002387F88A30002387F8883035
:105250004FF48043BB644FF40063FB64002387F882
:10526000893007F1340319467868FFF77FFE012380
:105270003B7501237B75012387F825300123BB751E
:105280000023FB61002387F82430002387F82630B1
:105290000023BB62012387F82C3001233B734FF4BA
:1052A00080333B614FF480033B624FF40053BB619A
:1052B000012387F82D3000233B630023BB6007F1F7
:1052C000080319467868FFF705FF00BF9837BD4609
:1052D00080BD000080B487B000AFF860B9607A602C
:1052E0007B6805331B781B027A68043212781343FB
:1052F0007B61BA68114B13441A467B6913607B6863
:1053000003331B781A067B6802331B781B041A438D
:105310007B6801331B781B0213437A6812781343AE
:105320007B61BA68064B13441A467B69136000BF61
:105330001C37BD465DF8047B704700BF40800240CB
:105340004480024080B485B000AF78600023FB60E9
:105350003EE07B68D968FA6813469B001344DB0083
:105360000B44BB60BB6800221A60BB6800225A6015
:10537000BB6800229A60BB680022DA60B9687B686B
:10538000FA68063243F82210BB681B6843F48012A7
:10539000BB681A60FB68022B0CD87B68D968FB6875
:1053A0005A1C13469B001344DB000B441A46BB688F
:1053B000DA6004E07B68DB681A46BB68DA60BB68C9
:1053C0001B6843F44002BB681A60FB680133FB6052
:1053D000FB68032BBDD97B6800229A627B68DA6880
:1053E0007B681B6803F580531A6100BF1437BD4604
:1053F0005DF8047B704780B485B000AF786000230F
:10540000FB6048E07B681969FA6813469B00134407
:10541000DB000B44BB60BB6800221A60BB68002243
:105420005A60BB6800229A60BB680022DA60BB68E1
:1054300000221A62BB6800225A62BB684FF0004229
:105440001A607B685B6943F48042BB685A60BB6842
:105450005B6823F00042BB685A60B9687B68FA68F1
:10546000123243F82210FB68022B0CD87B681969B2
:10547000FB685A1C13469B001344DB000B441A467E
:10548000BB68DA6004E07B681B691A46BB68DA60B7
:10549000FB680133FB60FB68032BB3D97B680022F8
:1054A000DA657B6800221A667B6800229A667B6850
:1054B0000022DA667B6800229A657B681A697B683D
:1054C0001B6803F58053DA6000BF1437BD465DF8F2
:1054D000047B704780B491B000AFF860B9607A6027
:1054E000FB6818337B627B6A1B69FB637B6A1B6901
:1054F0003B6200237B637B6AFA6B53F822303B6389
:10550000BB689B68FB620023BB623B6B1B6803F0BC
:105510000043B3F1004F07D07A6AFB6B04339B0062
:1055200013445B68002B01D0022315E17B6B013330
:105530007B63FB6A1B681A463B6B9A603B6B5B683C
:1055400023F4FF5323F01F03FA6A52681A433B6B9C
:105550005A60BB681B6803F00103002B08D03B6B4B
:105560001B6823F44002BB685B691A433B6B1A60FB
:10557000BB681B6803F02003002B08D03B6B1B6843
:1055800023F04062BB681B691A433B6B1A60BB681F
:105590001B6803F00403002B05D03B6B1B6843F032
:1055A00080023B6B1A603B6B1B6843F080523B6B85
:1055B0001A6084E03B6B1B6823F000523B6B1A605F
:1055C0007B68002B06D03B6B1B6843F080423B6B33
:1055D0001A6005E03B6B1B6823F080423B6B1A604E
:1055E000FB6B0133FB63FB6B032B02D9FB6B043BAF
:1055F000FB637B6AFA6B53F822303B633B6B1B689F
:1056000003F00043B3F1004F07D07A6AFB6B043319
:105610009B0013445B68002B29D03B6AFB637B6AC9
:10562000FA6B53F822303B630023BB6319E0BFF3EE
:105630005F8F00BF3B6B1B6823F000423B6B1A601F
:10564000FB6B0133FB63FB6B032B02D9FB6B043B4E
:10565000FB637B6AFA6B53F822303B63BB6B01330D
:10566000BB63BA6B7B6B9A42E1D3022374E03B6B62
:105670001B6823F080523B6B1A607B6B01337B63AA
:10568000FB6A9B68FB62FB6A1B681A463B6B9A606D
:105690003B6B5B6823F4FF5323F01F03FA6A5268E5
:1056A0001A433B6B5A60BB6A0133BB62BFF35F8F27
:1056B00000BF3B6B1B6843F000423B6B1A60FB6A08
:1056C0009B68002B7FF476AF7B68002B06D03B6B8A
:1056D0001B6843F080423B6B1A6005E03B6B1B6824
:1056E00023F080423B6B1A603B6B1B6843F0005217
:1056F0003B6B1A607B6A3A6A53F822303B63BFF314
:105700005F8F00BF3B6B1B6843F000423B6B1A602E
:105710007B6A5A6A796AFB6B04339B000B445A60BC
:105720007B6AFA6B1A61EFF310833B613B69FB61A3
:1057300001237B617B6983F3108800BF7B6A9A6ACF
:10574000BB6A13445A1C7B6A9A62FB69BB61BB69E2
:1057500083F3108800BF002318464437BD465DF828
:10576000047B704780B489B000AF78603960002353
:105770007B6100233B610023BB610023FB616BE184
:105780000122FB6902FA03F37B613B681B687A69BB
:1057900013403B613A697B699A4240F05A813B6809
:1057A0005B6803F00303012B05D03B685B6803F0E3
:1057B0000303022B30D17B689B68BB61FB695B00F4
:1057C000032202FA03F3DB43BA691340BB613B686F
:1057D000DA68FB695B0002FA03F3BA691343BB6141
:1057E0007B68BA699A607B685B68BB610122FB6970
:1057F00002FA03F3DB43BA691340BB613B685B68A1
:105800001B0903F00102FB6902FA03F3BA691343AF
:10581000BB617B68BA695A603B685B6803F003034D
:10582000032B17D07B68DB68BB61FB695B0003223D
:1058300002FA03F3DB43BA691340BB613B689A6821
:10584000FB695B0002FA03F3BA691343BB617B682F
:10585000BA69DA603B685B6803F00303022B23D16B
:10586000FB69DA087B68083253F82230BB61FB69B8
:1058700003F007039B000F2202FA03F3DB43BA692C
:105880001340BB613B681A69FB6903F007039B0087
:1058900002FA03F3BA691343BB61FB69DA087B6858
:1058A0000832B96943F822107B681B68BB61FB6949
:1058B0005B00032202FA03F3DB43BA691340BB61C6
:1058C0003B685B6803F00302FB695B0002FA03F3C9
:1058D000BA691343BB617B68BA691A603B685B684D
:1058E00003F44033002B00F0B4800023FB60604BD6
:1058F0005B6C5F4A43F4804353645D4B5B6C03F421
:105900008043FB60FB685B4AFB699B08023352F8EB
:105910002330BB61FB6903F003039B000F2202FAF3
:1059200003F3DB43BA691340BB617B68524A93427D
:105930002BD07B68514A934225D07B68504A9342D2
:105940001FD07B684F4A934219D07B684E4A9342DE
:1059500013D07B684D4A93420DD07B684C4A9342EA
:1059600007D07B684B4A934201D107230EE00823FE
:105970000CE006230AE0052308E0042306E00323E5
:1059800004E0022302E0012300E00023FA6902F0B0
:10599000030292009340BA691343BB613549FB6926
:1059A0009B080233BA6941F823203B4B9B68BB61DB
:1059B0003B69DB43BA691340BB613B685B6803F436
:1059C0008013002B03D0BA693B691343BB61324A91
:1059D000BB699360304BDB68BB613B69DB43BA69F1
:1059E0001340BB613B685B6803F40013002B03D0DA
:1059F000BA693B691343BB61274ABB69D360264B35
:105A00005B68BB613B69DB43BA691340BB613B68C0
:105A10005B6803F40033002B03D0BA693B6913437E
:105A2000BB611D4ABB6953601B4B1B68BB613B6973
:105A3000DB43BA691340BB613B685B6803F48033A6
:105A4000002B03D0BA693B691343BB61124ABB699F
:105A50001360FB690133FB61FB690F2B7FF690AE8E
:105A600000BF00BF2437BD465DF8047B704700BF10
:105A700000380240003801400000024000040240AB
:105A800000080240000C02400010024000140240D6
:105A900000180240001C0240003C014080B483B06A
:105AA00000AF78600B467B8013467B707B78002BC1
:105AB00003D07A887B689A6103E07B881A047B684C
:105AC0009A6100BF0C37BD465DF8047B704700004B
:105AD00080B584B000AF78607B68002B01D10123D2
