:020000040800F2
:100000000000022045660008F9630008016400084A
:100010000964000811640008196400080000000069
:100020000000000000000000000000002164000843
:100030002F640008000000003D6400084B640008C5
:1000400095660008956600089566000895660008A4
:100050009566000895660008956600089566000894
:100060009566000895660008956600089566000884
:100070009566000895660008956600089566000874
:100080009566000895660008956600089566000864
:100090009566000895660008956600089566000854
:1000A0009566000859640008956600089566000882
:1000B0009566000895660008956600089566000834
:1000C0009566000895660008956600089566000824
:1000D0009566000895660008956600089566000814
:1000E0009566000895660008956600089566000804
:1000F0007964000895660008956600089566000812
:1001000095660008956600089566000895660008E3
:1001100095660008956600089566000895660008D3
:1001200095660008956600089566000895660008C3
:1001300095660008956600089566000895660008B3
:1001400095660008956600089566000895660008A3
:100150009566000895660008956600089566000893
:100160009566000895660008956600089566000883
:100170009566000895660008956600080000000076
:08018000956600089566000871
:1001900010B5054C237833B9044B13B10448AFF3C1
:1001A00000800123237010BDE00A00200000000041
:1001B000AC9E010808B5034B1BB103490348AFF3DC
:1001C000008008BD00000000E40A0020AC9E010889
:1001D00010F8012B11F8013B012A28BF9A42F7D0F1
:1001E000D01A7047034613F8012B002AFBD1181AC6
:1001F000013870470000000000000000000000000F
:1002000001F0FF01102A2BDB10F0070F08D010F8C7
:10021000013B013A8B422DD010F0070F42B3F6D1CB
:10022000F0B441EA012141EA014122F007047FF0E4
:1002300000070023F0E80256083C85EA010586EA3B
:10024000010685FA47F5A3FA87F586FA47F6A5FA77
:1002500087F68EB9EED1F0BC01F0FF0102F0070283
:1002600032B110F8013B013A83EA010313B1F8D12E
:100270000020704701387047002D06BF354603380F
:10028000073815F0010F07D1013015F4807F02BF48
:10029000013015F4C03F0130F0BC0138704700BF99
:1002A00081F0004102E000BF83F0004330B54FEA27
:1002B00041044FEA430594EA050F08BF90EA020F94
:1002C0001FBF54EA000C55EA020C7FEA645C7FEA27
:1002D000655C00F0E2804FEA5454D4EB5555B8BF4A
:1002E0006D420CDD2C4480EA020281EA030382EABB
:1002F000000083EA010180EA020281EA0303362D4D
:1003000088BF30BD11F0004F4FEA01314FF4801C1F
:100310004CEA113102D0404261EB410113F0004F31
:100320004FEA03334CEA133302D0524263EB4303E8
:1003300094EA050F00F0A780A4F10104D5F1200E86
:100340000DDB02FA0EFC22FA05F2801841F10001E1
:1003500003FA0EF2801843FA05F359410EE0A5F1B5
:1003600020050EF1200E012A03FA0EFC28BF4CF0E6
:10037000020C43FA05F3C01851EBE37101F000459C
:1003800007D54FF0000EDCF1000C7EEB00006EEBA9
:100390000101B1F5801F1BD3B1F5001F0CD3490833
:1003A0005FEA30004FEA3C0C04F101044FEA44528A
:1003B00012F5800F80F09A80BCF1004F08BF5FEA11
:1003C000500C50F1000041EB045141EA050130BDF1
:1003D0005FEA4C0C404141EB0101013C28BFB1F503
:1003E000801FE9D291F0000F04BF01460020B1FA4E
:1003F00081F308BF2033A3F10B03B3F120020CDA21
:100400000C3208DD02F1140CC2F10C0201FA0CF0FE
:1004100021FA02F10CE002F11402D8BFC2F1200C63
:1004200001FA02F120FA0CFCDCBF41EA0C01904019
:10043000E41AA2BF01EB0451294330BD6FEA040462
:100440001F3C1CDA0C340EDC04F11404C4F120024D
:1004500020FA04F001FA02F340EA030021FA04F35F
:1004600045EA030130BDC4F10C04C4F1200220FAB6
:1004700002F001FA04F340EA0300294630BD21FAF4
:1004800004F0294630BD94F0000F83F4801306BFBA
:1004900081F480110134013D4EE77FEA645C18BFAE
:1004A0007FEA655C29D094EA050F08BF90EA020F45
:1004B00005D054EA000C04BF1946104630BD91EA3D
:1004C000030F1EBF0021002030BD5FEA545C05D140
:1004D0004000494128BF41F0004130BD14F580047F
:1004E0003CBF01F5801130BD01F0004545F0FE41F3
:1004F00041F470014FF0000030BD7FEA645C1ABF28
:10050000194610467FEA655C1CBF0B46024650EA5E
:10051000013406BF52EA033591EA030F41F400218A
:1005200030BD00BF90F0000F04BF0021704730B510
:100530004FF4806404F132044FF000054FF00001E5
:1005400050E700BF90F0000F04BF0021704730B5A6
:100550004FF4806404F1320410F0004548BF40427B
:100560004FF000013EE700BF42004FEAE2014FEAD0
:1005700031014FEA02701FBF12F07F4393F07F4FAB
:1005800081F06051704732F07F4208BF704793F0AE
:100590007F4F04BF41F40021704730B54FF46074C1
:1005A00001F0004521F000411CE700BF50EA0102C4
:1005B00008BF704730B54FF000050AE050EA01026D
:1005C00008BF704730B511F0004502D5404261EBDD
:1005D00041014FF4806404F132045FEA915C3FF41E
:1005E000D8AE4FF003025FEADC0C18BF03325FEABB
:1005F000DC0C18BF033202EBDC02C2F1200300FA6C
:1006000003FC20FA02F001FA03FE40EA0E0021FA90
:1006100002F11444BDE600BF70B54FF0FF0C4CF47E
:10062000E06C1CEA11541DBF1CEA135594EA0C0F30
:1006300095EA0C0F00F0DEF82C4481EA030621EA6B
:100640004C5123EA4C5350EA013518BF52EA0335A6
:1006500041F4801143F4801338D0A0FB02CE4FF058
:100660000005E1FB02E506F00042E0FB03E54FF088
:100670000006E1FB03569CF0000F18BF4EF0010E80
:10068000A4F1FF04B6F5007F64F5407404D25FEA7C
:100690004E0E6D4146EB060642EAC62141EA55512F
:1006A0004FEAC52040EA5E504FEACE2EB4F1FD0C71
:1006B00088BFBCF5E06F1ED8BEF1004F08BF5FEAEF
:1006C000500E50F1000041EB045170BD06F00046A1
:1006D00046EA010140EA020081EA0301B4EB5C044E
:1006E000C2BFD4EB0C0541EA045170BD41F4801146
:1006F0004FF0000E013C00F3AB8014F1360FDEBF6B
:10070000002001F0004170BDC4F10004203C35DA46
:100710000C341BDC04F11404C4F1200500FA05F3C9
:1007200020FA04F001FA05F240EA020001F000426A
:1007300021F0004110EBD37021FA04F642EB0601E0
:100740005EEA430E08BF20EAD37070BDC4F10C040A
:10075000C4F1200500FA04F320FA05F001FA04F2CE
:1007600040EA020001F0004110EBD37041F10001BA
:100770005EEA430E08BF20EAD37070BDC4F12005C5
:1007800000FA05F24EEA020E20FA04F301FA05F22D
:1007900043EA020321FA04F001F0004121FA04F2D5
:1007A00020EA020000EBD3705EEA430E08BF20EAA5
:1007B000D37070BD94F0000F0FD101F000464000DF
:1007C00041EB010111F4801F08BF013CF7D041EA61
:1007D000060195F0000F18BF704703F00046520065
:1007E00043EB030313F4801F08BF013DF7D043EA36
:1007F0000603704794EA0C0F0CEA135518BF95EAEC
:100800000C0F0CD050EA410618BF52EA4306D1D172
:1008100081EA030101F000414FF0000070BD50EA91
:10082000410606BF1046194652EA430619D094EA1B
:100830000C0F02D150EA013613D195EA0C0F05D105
:1008400052EA03361CBF104619460AD181EA030159
:1008500001F0004141F0FE4141F470014FF0000011
:1008600070BD41F0FE4141F4780170BD70B54FF0AC
:10087000FF0C4CF4E06C1CEA11541DBF1CEA13552C
:1008800094EA0C0F95EA0C0F00F0A7F8A4EB05040E
:1008900081EA030E52EA03354FEA013100F0888005
:1008A0004FEA03334FF0805545EA131343EA1263CE
:1008B0004FEA022245EA111545EA10654FEA002683
:1008C0000EF000419D4208BF964244F1FD0404F53C
:1008D000407402D25B084FEA3202B61A65EB030598
:1008E0005B084FEA32024FF480104FF4002CB6EB55
:1008F000020E75EB030E22BFB61A754640EA0C00D5
:100900005B084FEA3202B6EB020E75EB030E22BF14
:10091000B61A754640EA5C005B084FEA3202B6EB55
:10092000020E75EB030E22BFB61A754640EA9C0014
:100930005B084FEA3202B6EB020E75EB030E22BFE4
:10094000B61A754640EADC0055EA060E18D04FEAA2
:10095000051545EA16754FEA06164FEAC30343EA42
:1009600052734FEAC2025FEA1C1CC0D111F4801F0F
:100970000BD141EA00014FF000004FF0004CB6E708
:1009800011F4801F04BF01430020B4F1FD0C88BFA7
:10099000BCF5E06F3FF6AFAEB5EB030C04BFB6EBB2
:1009A000020C5FEA500C50F1000041EB045170BDA5
:1009B0000EF0004E4EEA113114EB5C04C2BFD4EBD2
:1009C0000C0541EA045170BD41F480114FF0000E56
:1009D000013C90E645EA060E8DE60CEA135594EAD2
:1009E0000C0F08BF95EA0C0F3FF43BAF94EA0C0FD5
:1009F0000AD150EA01347FF434AF95EA0C0F7FF44A
:100A000025AF104619462CE795EA0C0F06D152EA9D
:100A100003353FF4FDAE1046194622E750EA410681
:100A200018BF52EA43067FF4C5AE50EA41047FF492
:100A30000DAF52EA43057FF4EBAE12E74FF0FF3CF7
:100A400006E000BF4FF0010C02E000BF4FF0010CC8
:100A50004DF804CD4FEA410C7FEA6C5C4FEA430C41
:100A600018BF7FEA6C5C1BD001B050EA410C0CBF90
:100A700052EA430C91EA030F02BF90EA020F0020F2
:100A8000704710F1000F91EA030F58BF994208BF59
:100A900090422CBFD8176FEAE37040F00100704716
:100AA0004FEA410C7FEA6C5C02D150EA013C07D16D
:100AB0004FEA430C7FEA6C5CD6D152EA033CD3D0B8
:100AC0005DF8040B704700BF8446104662468C46B2
:100AD0001946634600E000BF01B5FFF7B7FF0028E5
:100AE00048BF10F1000F01BD4DF808EDFFF7F4FF0E
:100AF0000CBF012000205DF808FB00BF4DF808ED99
:100B0000FFF7EAFF34BF012000205DF808FB00BFBB
:100B10004DF808EDFFF7E0FF94BF012000205DF8DD
:100B200008FB00BF4DF808EDFFF7CEFF94BF012092
:100B300000205DF808FB00BF4DF808EDFFF7C4FF8B
:100B400034BF012000205DF808FB00BF4FEA410CD4
:100B50007FEA6C5C02D150EA013C0AD14FEA430CB7
:100B60007FEA6C5C02D152EA033C02D14FF00000F4
:100B700070474FF0010070474FEA410212F5001232
:100B800015D211D56FF47873B3EB625212D94FEAD4
:100B9000C12343F0004343EA505311F0004F23FABE
:100BA00002F018BF404270474FF00000704750EA13
:100BB000013005D111F0004008BF6FF000407047D0
:100BC0004FF00000704700BF4A0011D212F500122A
:100BD00011D20DD56FF47873B3EB62520ED44FEA95
:100BE000C12343F0004343EA505323FA02F0704715
:100BF0004FF00000704750EA013002D14FF0FF3053
:100C000070474FF0000070474FEA4102B2F1E043F5
:100C100024BFB3F5001CDCF1FE5C0DD901F0004CE3
:100C20004FEAC0024CEA5070B2F1004F40EB830033
:100C300008BF20F00100704711F0804F21D113F15F
:100C40003872BCBF01F00040704741F480114FEA98
:100C50005252C2F11802C2F1200C10FA0CF320FA21
:100C600002F018BF40F001004FEAC1234FEAD3233E
:100C700003FA0CFC40EA0C0023FA02F34FEA4303A8
:100C8000CCE77FEA625307D150EA01331EBF4FF031
:100C9000FE4040F44000704701F0004040F0FE404C
:100CA00040F40000704700BF80F0004002E000BF49
:100CB00081F0004142001FBF5FEA410392EA030F47
:100CC0007FEA226C7FEA236C6AD04FEA1262D2EB91
:100CD0001363C1BFD218414048404140B8BF5B4296
:100CE000192B88BF704710F0004F40F4000020F02F
:100CF0007F4018BF404211F0004F41F4000121F045
:100D00007F4118BF494292EA030F3FD0A2F101028E
:100D100041FA03FC10EB0C00C3F1200301FA03F1CC
:100D200000F0004302D5494260EB4000B0F5000FEF
:100D300013D3B0F1807F06D340084FEA310102F1AE
:100D40000102FE2A51D2B1F1004F40EBC25008BF60
:100D500020F0010040EA03007047490040EB00002A
:100D6000013A28BFB0F5000FEDD2B0FA80FCACF12B
:100D7000080CB2EB0C0200FA0CF0AABF00EBC25058
:100D800052421843BCBFD0401843704792F0000F46
:100D900081F4000106BF80F400000132013BB5E799
:100DA0004FEA41037FEA226C18BF7FEA236C21D00F
:100DB00092EA030F04D092F0000F08BF0846704774
:100DC00090EA010F1CBF0020704712F07F4F04D142
:100DD000400028BF40F00040704712F100723CBF55
:100DE00000F50000704700F0004343F0FE4040F47F
:100DF000000070477FEA226216BF08467FEA23633D
:100E00000146420206BF5FEA412390EA010F40F427
:100E1000800070474FF0000304E000BF10F0004373
:100E200048BF40425FEA000C08BF704743F096435A
:100E300001464FF000001CE050EA010208BF704775
:100E40004FF000030AE000BF50EA010208BF7047FC
:100E500011F0004302D5404261EB41015FEA010C11
:100E600002BF84460146002043F0B64308BFA3F109
:100E70008053A3F50003BCFA8CF2083AA3EBC253EB
:100E800010DB01FA02FC634400FA02FCC2F120020A
:100E9000BCF1004F20FA02F243EB020008BF20F041
:100EA0000100704702F1200201FA02FCC2F12002A7
:100EB00050EA4C0021FA02F243EB020008BF20EA9C
:100EC000DC70704753B94AB9002908BF00281CBF1D
:100ED0004FF0FF314FF0FF3000F0BEB9ADF1080C1C
:100EE0006DE904CE00F03CF8DDF804E0DDE9022312
:100EF00004B0704738B50022002304460D46FFF7C2
:100F0000FDFD28B920462946BDE8384000F00AB862
:100F1000204605F1004100F005F8404261EB410137
:100F200038BD00BFD0B50C4B002206460F46FFF778
:100F300073FBFFF749FE0446FFF7F4FA074B002264
:100F4000FFF76AFB02460B4630463946FFF7ACF91D
:100F5000FFF73AFE2146D0BD0000F03D0000F04111
:100F60002DE9F047089D8E4604468846002B4AD15D
:100F70008A42174662D9B2FA82F64EB1C6F1200310
:100F800001FA06F820FA03F3B74043EA0808B44030
:100F90004FEA174E1FFA87FCB8FBFEF1230C0EFB3D
:100FA000118843EA084301FB0CF29A4209D9FB1865
:100FB00001F1FF3080F0EA809A4240F2E780023986
:100FC0003B449A1AA3B2B2FBFEF00EFB102243EA96
:100FD000024300FB0CFC9C4509D9FB1800F1FF32D1
:100FE00080F0D6809C4540F2D3803B44023840EAF2
:100FF0000140A3EB0C0300211DB1F3400022C5E921
:101000000032BDE8F0878B4205D90DB1C5E900017A
:1010100000210846F5E7B3FA83F1002946D173456C
:1010200002D3824200F20581841A6EEB0302012092
:101030009046002DE5D0C5E90048E2E7002A00F01F
:101040009080B2FA82F6002E40F0A4808A1A030C37
:101050004FEA174E80B2BCB20121B2FBFEFC0EFB80
:101060001C2243EA024304FB0CF29A4207D9FB1804
:101070000CF1FF3802D29A4200F2E080C4469B1A7B
:10108000B3FBFEF20EFB123340EA034302FB04F40F
:101090009C4207D9FB1802F1FF3002D29C4200F2B9
:1010A000CA8002461B1B42EA0C40A5E7C1F120069C
:1010B0008B4022FA06F71F430EFA01F420FA06F3DA
:1010C0002EFA06FE4FEA1749234300FA01F81FFAE9
:1010D00087FCBEFBF9F01C0C09FB10EE44EA0E4441
:1010E00000FB0CFEA64502FA01F209D93C1900F1F9
:1010F000FF3A80F09C80A64540F2998002383C443B
:10110000A4EB0E041FFA83FEB4FBF9F309FB1344AE
:101110004EEA044403FB0CFCA44508D93C1903F136
:10112000FF3E80F08280A4457FD9023B3C4443EAE5
:101130000040A4EB0C04A0FB02EC64457346E146BE
:1011400062D35FD05DB1B8EB030264EB090404FA2B
:1011500006F622FA01F31E43CC40C5E900640021E3
:101160004FE7B1FBF2FC010C41EA0E4180B240EACC
:1011700001423B4638463C46B846BE462026B1FBB7
:10118000F7F1A2EB080241EA0C4166E7014618E7D5
:1011900010462CE7C6F120022EFA02F3B740B14008
:1011A00020FA02F24FEA174E0A43B3FBFEF8BCB234
:1011B0000EFB1833110C41EA034108FB04F9B0405F
:1011C00089454FEA104380B23ED9791808F1FF3CB7
:1011D00001D289451FD8A1EB0901B1FBFEF909FB3A
:1011E00004F80EFB191192B242EA0142424529D29B
:1011F000BA1809F1FF31C4D24245C2D2A9F10201A5
:101200003A44BEE7F0459DD2BEEB02036CEB070CFF
:101210000138E14696E7A7EB09094944A8F1020C19
:10122000B1FBFEF909FB04F8DBE773467FE75046A4
:1012300066E70846FDE63B44023A33E7ACF1020CB0
:101240003B441CE749469CE7A1EB0901C446B1FBBE
:10125000FEF909FB04F8C4E7704700BF80B485B00D
:1012600000AFF860B9607A603B60094AFB681360C0
:10127000084ABB681360084A7B681360074A3B68EA
:10128000136000BF1437BD465DF8047B704700BF94
:10129000FC0A0020000B0020040B0020080B00209B
:1012A00080B584B000AFF860B9607A607B80FB687D
:1012B000BA681A60FB687A685A60FB6800229A6014
:1012C000FB680022DA60FB6800221A61FB683A7E44
:1012D0001A75FB6800225A75FB6800229A75FB6834
:1012E0000122DA75FB687A881A833B7E002B0FD1C6
:1012F000FB6805221A847B88324AA2FB03239B08E1
:101300009AB2FB685A84FB684FF00002DA611AE077
:101310003B7E012B17D17B881846FFF713F94FF05E
:101320000002294BFFF7A2FA02460B461046194667
:10133000FFF76AFC0246FB68DA61FB6800221A8448
:10134000FB6800225A84FB684FF47A729A84FB6827
:1013500000229A62FB681D4ADA62FB6800221A6367
:10136000FB6800225A63FB6800229A63FB68002234
:10137000DA63FB6800221A64FB6800225A64FB6887
:101380004FF000029A64FB684FF00002DA64FB68D9
:10139000002283F85020FB684FF000025A65FB687A
:1013A0004FF000029A65FB680022DA65FB680022B4
:1013B0001A66FB684FF07E525A6600BF1037BD4672
:1013C00080BD00BFCDCCCCCC0080764000007A44FC
:1013D00080B483B000AF78600B46FB707B68FA780E
:1013E0005A7500BF0C37BD465DF8047B704700009E
:1013F00080B582B000AF7860084B1B689847024602
:101400007B68DA607B68DA687B689A627B689A6AD4
:101410007B685A6400BF0837BD4680BD040B0020BE
:1014200080B582B000AF78607B680222DA75786898
:10143000FFF7DEFF7B681B68184604F0A9FC00BFBD
:101440000837BD4680BD80B582B000AF78607B684C
:101450000122DA757B681B68184604F0BFFC00BFE8
:101460000837BD4680BD000080B582B000AF78600F
:101470007B68DB7D5BB2032B48D1284B1B68984708
:1014800002467B689A607B685B7DDBB2002B07D1EC
:101490007B689B8C9BB2002B02D0786800F060F8D0
:1014A0007B685B7DDBB2012B07D17B689B8C9BB299
:1014B000002B02D0786800F0FFFB7B681B69002BD3
:1014C00024D07B689A687B68DB68D21A7B681B69CA
:1014D0009A421BD37B689A687B68DA607B685B7D85
:1014E000DBB2002B0DD17B681A6B7B681B689B6994
:1014F0009A4206D1786800F013F87B68DB7D5BB216
:1015000007E07B681B68184604F0CAFB7B68DB7D3C
:101510005BB218460837BD4680BD00BF040B0020F3
:1015200080B582B000AF78607B680222DA757B6894
:1015300000221A617B684FF000029A647B680022E7
:10154000DA657B689B7DDBB2002B02D07868FFF701
:101550007AFF00BF0837BD4680BD000000000000D4
:101560002DE9B04F84B000AF78607B681B681B7FAB
:10157000FB737B685A6B7B681B6CD31A002B01DBF7
:10158000012301E04FF0FF33BB737B689A687B68EF
:101590009B6AD21A7B681B699A42C0F01D817B68E6
:1015A0009A687B689A627B681A6C7B685B6B9A426C
:1015B00006D37B681A6C7B689B6B9A4240F2A180D1
:1015C0007B68DB6D002B04D17B685A6D7B689A6564
:1015D00064E07B68DB6D012B13D17B685B6D184683
:1015E000FEF7C2FF84A3D3E90023FFF715F80246F4
:1015F0000B4610461946FFF707FB02467B689A65C3
:101600004CE07B68DB6D012B48DD7B689B6D1846E9
:10161000FEF7AAFF04460D4697F90E301846FEF76E
:1016200091FF02460B46FEF741FE02460B469046EE
:1016300099467B68DB6D1846FEF784FF4FF0000289
:101640006B4BFEF7E9FF02460B4692469B4697F925
:101650000E301846FEF776FF02460B4650465946B6
:10166000FEF724FE02460B4640464946FFF7FEF8C9
:1016700002460B464FF000005E49FEF715FE02469B
:101680000B4620462946FEF7C7FF02460B4610468A
:101690001946FFF7B9FA02467B689A657B68D3ED75
:1016A000167AFCEEE77A17EE903A5A1F7B681A61B9
:1016B00097F90F301846FEF745FF4BA3D3E90023F7
:1016C000FEF7AAFF02460B4614461D467B689B6D3B
:1016D0001846FEF749FF02460B4620462946FFF70B
:1016E000C5F802460B4610461946FFF78DFA02462A
:1016F0007B689A647B68DA6D97F90E301A447B68D0
:10170000DA657B681A6C7B685B6B9A4228D17B68D0
:101710005A6B7B689B6B9A4222D097F90F3007EE89
:10172000903AB8EEE77A7B68D3ED0B7A67EE277ACA
:101730007B68C3ED127A7B68DB6A1846FEF714FFFC
:1017400002460B4628A1D1E90001FFF78FF80246B7
:101750000B4610461946FFF737FA02467B681A61B6
:101760007B681A6C7B689B6B9A4230D17B68D3EDA7
:10177000167AFCEEE77A17EE903A5A1F7B681A61E8
:1017800097F90F301846FEF7DDFE17A3D3E90023C3
:10179000FEF742FF02460B4614461D467B689B6DD2
:1017A0001846FEF7E1FE02460B4620462946FFF7A3
:1017B0005DF802460B4610461946FFF725FA024629
:1017C0007B689A647B68DB6D5A1E7B68DA657B6890
:1017D0001B6C5A1C7B681A6400BF1037BD46BDE8FD
:1017E000B08F00BFAFF300800000000080842E4166
:1017F000000010400000F03F857CD0B359F5D93F80
:10180000B0B584B000AF786039607B681B689B69B5
:101810003A68D31A002BB8BF5B42FB607B685B7DE4
:10182000DBB2002B02D04FF0FF33ADE07B68DB7DF5
:101830005BB2032B02D14FF0FF33A5E07B683A681F
:101840001A637B681A6B7B681B689B699A4200F07D
:101850009A807B681A6B7B681B689B699A4201DDE2
:10186000012201E04FF0FF327B681B681A777B682A
:101870009B8C9BB2002B09D07B68D3ED0B7AB1EE29
:10188000047AF4EEC77AF1EE10FA15D57B68DB6ABC
:101890001846FEF769FE02460B463DA1D1E900015C
:1018A000FEF7E4FF02460B4610461946FFF78CF997
:1018B00002467B681A6163E07B6893ED0B7A7B6874
:1018C000D3ED0B7A67EE277A17EE900AFEF74CFEFF
:1018D00004460D467B689B8C9BB21846FEF732FE91
:1018E00002460B46FEF7E2FC02460B46204629461E
:1018F000FEF7BCFF02460B4610461946FFF764F997
:1019000002467B681A667B681B6E5B00FA689A4227
:1019100015D97B681A6E7B685A637B685A6BFB68C3
:101920001A447B681B6E5B00D21A7B689A637B68E3
:101930009A6B7B681B6E1A447B68DA631DE0FB6858
:101940005A087B685A637B685B6BFA6802F0010295
:10195000002A0CBF01220022D2B21344002B0CBF7C
:1019600001230023DBB21A467B689A637B689A6B7B
:101970007B685B6B1A447B68DA637B6800221A64BD
:101980007B680322DA75002318461037BD46B0BDC8
:101990000000000080842E4180B582B000AF7860E6
:1019A00087ED000A7B681B7DDBB2012B0FD17B68C2
:1019B00093ED077AD7ED007A67EE277AFDEEE77AA6
:1019C00017EE901A7868FFF71BFF034601E04FF00F
:1019D000FF3318460837BD4680BD80B582B000AFE2
:1019E000786087ED000A7B681B7DDBB2002B12D18B
:1019F0007B685B8C07EE903AB8EEE77AD7ED007A19
:101A000067EE277AFDEEE77A17EE901A7868FFF70F
:101A1000F7FE034601E04FF0FF3318460837BD4696
:101A200080BD00000000000080B582B000AF78608B
:101A300087ED000A7B68DB7D5BB2032B02D14FF0A0
:101A4000FF3319E0D7ED007AF0EEE77A17EE900A4F
:101A5000FEF78AFD02460B469FED091B43EC102B57
:101A600018F0BAF853EC102B10461946FFF7CCF8D3
:101A700002467B68DA62002318460837BD4680BDFF
:101A8000DFBC9A785634323F80B582B000AF7860C0
:101A900087ED000A7B681B7DDBB2012B0FD1D7EDF0
:101AA000007AB0EEE77A7B68D3ED077A67EE277AA3
:101AB000B0EE670A7868FFF7B7FF034601E04FF022
:101AC000FF3318460837BD4680BDB0B582B000AFC1
:101AD000786087ED000A7B681B7DDBB2002B22D18A
:101AE000D7ED007AF0EEE77A17EE900AFEF73CFDAC
:101AF00004460D467B685B8C1846FEF723FD0246C4
:101B00000B4620462946FEF787FD02460B46104647
:101B10001946FFF779F8034600EE103A7868FFF7A8
:101B200083FF034601E04FF0FF3318460837BD46F8
:101B3000B0BD00000000000080B582B000AF78604A
:101B40000B467B807B68DB7D5BB2032B02D14FF0C1
:101B5000FF3339E0B7F90230002BB8BF5B429AB2CD
:101B60007B689A84B7F90230002B28D07B689B8C65
:101B70009BB21846FEF7E6FC02460B464FF000000B
:101B80004FF08041FEF772FE02460B4643EC172BE6
:101B9000B0EE470AF0EE670A17F050FE51EC100B5A
:101BA0000BA3D3E90023FEF737FD02460B46104690
:101BB0001946FFF729F802467B685A6503E07B68FF
:101BC0004FF000025A65002318460837BD4680BD15
:101BD0000000000080842E4180B582B000AF7860A4
:101BE00087ED000A7B681B7DDBB2012B11D17B687E
:101BF00093ED077AD7ED007A67EE277AFDEEE77A64
:101C000017EE903A1BB219467868FFF795FF034626
:101C100001E04FF0FF3318460837BD4680BD80B560
:101C200082B000AF786087ED000A7B681B7DDBB275
:101C3000002B14D17B685B8C07EE903AB8EEE77A04
:101C4000D7ED007A67EE277AFDEEE77A17EE903A45
:101C50001BB219467868FFF76FFF034601E04FF0AB
:101C6000FF3318460837BD4680BD000080B483B0FE
:101C700000AF78607B681B7DDBB2012B0CD17B68E9
:101C80001B689B6907EE903AB8EEE77A7B68D3ED64
:101C9000077AC7EE276A01E0DFED056AF0EE667AA3
:101CA000B0EE670A0C37BD465DF8047B704700BF95
:101CB00000000000000000002DE9B04F84B000AF2C
:101CC00078607B6893ED137A7B68D3ED127A77EEB8
:101CD000677AC7ED037A7B681B681B7FFB727B68A2
:101CE00093F85030002B14D07B68D3ED127AF0EECD
:101CF000E77A17EE900AFEF737FC9CA3D3E900239E
:101D0000FEF706FF0346002B03D07868FFF708FCB8
:101D10001AE17B689A687B685B6CD21A7B681B69E6
:101D20009A42C0F011817B689A687B685A647B682C
:101D3000DB6D002B04D17B685A6D7B689A65B8E037
:101D40007B68DB6D012B13D17B685B6D1846FEF75A
:101D50000BFC88A3D3E90023FEF75EFC02460B468A
:101D600010461946FEF750FF02467B689A65A0E0D0
:101D70007B68DB6D012B77DD7B689B6D1846FEF77A
:101D8000F3FB04460D4697F90B3007EE903AB8EE98
:101D9000E77AD7ED037A67EE277A17EE900AFEF717
:101DA000E3FB6BA3D3E90023FEF7C6FE0346002B3B
:101DB00003D04FF000006A4902E04FF0000069498B
:101DC00002460B46FEF772FA02460B4690469946CB
:101DD0007B68DB6D1846FEF7B5FB4FF00002624BE7
:101DE000FEF71AFC02460B4692469B4697F90B30CB
:101DF00007EE903AB8EEE77AD7ED037A67EE277AE6
:101E000017EE900AFEF7B0FB51A3D3E90023FEF7CB
:101E100093FE0346002B03D04FF00000504902E030
:101E20004FF000004F4952465B46FEF73FFA02462C
:101E30000B4640464946FEF719FD02460B464FF059
:101E400000004749FEF730FA02460B462046294675
:101E5000FEF7E2FB02460B4610461946FEF7D4FE9B
:101E600002467B689A6524E07B68DB6D002B20DAF4
:101E70007B684FF000029A647B6893F85030002B27
:101E800003D07868FFF74CFB5EE07B68DB6C18469C
:101E9000FEF76AFB2EA3D3E90023FEF74DFE0346AF
:101EA000002B01D0012201E04FF0FF327B681B685C
:101EB0001A777B68D3ED167AFCEEE77A17EE903A44
:101EC0005A1F7B681A6197F90B301846FEF73AFBE8
:101ED00021A3D3E90023FEF79FFB02460B461446DD
:101EE0001D467B689B6D1846FEF73EFB02460B467F
:101EF00020462946FEF7BAFC02460B461046194614
:101F0000FEF782FE02467B689A647B68DC6D97F977
:101F10000B3007EE903AB8EEE77AD7ED037A67EE2A
:101F2000277A17EE900AFEF71FFB09A3D3E90023D7
:101F3000FEF702FE0346002B01D0012301E04FF023
:101F4000FF331A197B68DA651037BD46BDE8B08FDC
:101F500011EA2D819997713D0000000080842E4187
:101F60000000F03F0000F0BF00001040DFBC9A7896
:101F70005634323F857CD0B359F5D93F000000007C
:101F8000B0B582B000AF786087ED000A7B685B7DFA
:101F9000DBB2012B02D04FF0FF33B8E07B683A6828
:101FA000DA647B68D3ED137AF5EE407AF1EE10FA3D
:101FB0000CBF01230023DAB27B6883F850207B68D2
:101FC000D3ED137AF5EE407AF1EE10FA0CD17B687E
:101FD0009B8C9BB2002B07D17B6800221A6178682A
:101FE000FFF79EFA002392E0D7ED007AF5EEC07A73
:101FF000F1EE10FA01DD012201E04FF0FF327B68C3
:102000001B681A77D7ED007AF0EEE77A17EE900AA0
:10201000FEF7AAFA43A3D3E90023FEF76FFD0346B8
:10202000002B14D07B681B681B7F5BB21846FEF741
:1020300089FA3CA3D3E90023FEF7EEFA02460B46E9
:1020400010461946FEF7E0FD02467B68DA647B68BD
:102050009B8C9BB2002B25D17B68DA6C7B689A64E1
:102060007B68DB6C1846FEF77FFA02460B462FA111
:10207000D1E90001FEF7FAFB02460B46144623F0B5
:1020800000454FF00002264B20462946FEF70CF98A
:1020900002460B4610461946FEF796FD02467B683F
:1020A0001A6130E07B68D3ED127AF5EE407AF1EEFA
:1020B00010FA14D17B68DB6C1846FEF755FA16A3AC
:1020C000D3E90023FEF738FD0346002B01D001229F
:1020D00001E04FF0FF327B681B681A7713E07B68E2
:1020E0009B6C1846FEF740FA0BA3D3E90023FEF7DA
:1020F00023FD0346002B01D0012201E04FF0FF3207
:102100007B681B681A777B680322DA750023184600
:102110000837BD46B0BD00BF11EA2D819997713DCA
:1021200000001440DFBC9A785634323F00000000B3
:1021300080842E4180B582B000AF786087ED000AC0
:102140007B681B7DDBB2012B0DD17B6893ED077A99
:10215000D7ED007A67EE277AB0EE670A7868FFF766
:102160000FFF034601E04FF0FF3318460837BD4626
:1021700080BD000080B400AF084B1B68074A43F0E5
:1021800080731360064B1B68054A43F0010313601C
:1021900000BFBD465DF8047B704700BFFCED00E06A
:1021A000001000E080B485B000AF78600C4B1B6875
:1021B0000C4AA2FB03239A0C7B6802FB03F3FB602F
:1021C000094B00221A6000BF074B1B68FA689A424D
:1021D000FAD800BF00BF1437BD465DF8047B7047D6
:1021E000E808002083DE1B43041000E080B485B0C3
:1021F00000AFF860B9607A60FB687A68DA60FB6803
:10220000BA681A60FB6800225A60FB6801229A6073
:10221000FB681B68002B02D14FF0FF3300E0012365
:1022200018461437BD465DF8047B704780B485B00E
:1022300000AF78600023FB6008E07B681A68FB68E9
:10224000134400221A70FB680133FB607B68DB6873
:10225000FA689A42F1D37B6800225A607B680122B7
:102260009A60042318461437BD465DF8047B704716
:1022700080B483B000AF78607B689A687B685B68E5
:102280009A420FD27B68DB689AB27B685B689BB22C
:10229000D31A9AB27B689B689BB213449BB2013BF2
:1022A0009BB209E07B689B689AB27B685B689BB2D3
:1022B000D31A9BB2013B9BB218460C37BD465DF862
:1022C000047B704780B582B000AF78607868FFF714
:1022D000CFFF0346002B01D0002300E00223184665
:1022E0000837BD4680BD90B583B000AF78607B688D
:1022F000DB689CB27868FFF7BBFF0346E31A9BB22A
:10230000023B9BB218460C37BD4690BD80B582B0EB
:1023100000AF78607868FFF7E6FF0346002B01D135
:10232000032300E0002318460837BD4680BD80B473
:1023300083B000AF78600B46FB707B689A687B685F
:10234000DB689A4202D37B6800229A607B681A6835
:102350007B689B681344FA781A707B689B685A1CE8
:102360007B689A60002318460C37BD465DF8047BF5
:10237000704780B483B000AF786039603B68002B51
:1023800002D14FF0FF3317E07B685B685A1C7B6813
:102390005A607B685A687B68DB689A4202D37B6824
:1023A00000225A607B681A687B685B68134493F963
:1023B00000203B681A70002318460C37BD465DF8B4
:1023C000047B704780B485B000AFF860B9607A6074
:1023D000FB687A68DA60FB68BA681A60FB680022FA
:1023E0005A60FB6801229A60FB681B68002B02D1CF
:1023F0004FF0FF3300E0012318461437BD465DF867
:10240000047B704780B483B000AF78607B689A68C3
:102410007B685B689A420FD27B68DB689AB27B6804
:102420005B689BB2D31A9AB27B689B689BB21344D9
:102430009BB2013B9BB209E07B689B689AB27B68C8
:102440005B689BB2D31A9BB2013B9BB218460C3718
:10245000BD465DF8047B704780B582B000AF786000
:102460007868FFF7CFFF0346002B01D0002300E080
:10247000022318460837BD4680BD80B582B000AF44
:10248000786039603B68002B02D14FF0FF3319E0D0
:102490007B685B685A1C7B685A607B685A687B68FB
:1024A000DB689A4202D37B6800225A607B681A6814
:1024B0007B685B689B0013441B681946386815F0FD
:1024C000DCF9002318460837BD4680BD80B582B0D0
:1024D00000AF78607B680B4A1A607B6802221A7131
:1024E0007B68FF225A717B681B68184600F016FA59
:1024F0004FF4807204490548FFF764FF00BF0837B6
:10250000BD4680BDE80F0020E80B0020EC0F002046
:1025100080B582B000AF78600748FFF79DFF0346A3
:10252000002B02D1786800F00BF8786800F07AF997
:1025300000BF0837BD4680BDEC0F00200000000042
:1025400080B5A2B000AF78607B6893F90430022BAD
:1025500040F04A8107F1080380220021184615F057
:10256000DEF807F108031946A348FFF786FF3B7A18
:10257000472B40F0358107F108035821184615F024
:10258000D6F803460133184614F08AF8B0EE407AC4
:10259000F0EE607A994B83ED007B07F10803592137
:1025A000184615F0C4F803460133184614F078F8BD
:1025B000B0EE407AF0EE607A914B83ED007BBB7A0F
:1025C000302B4CD18D4BD3E9000189A3D3E90023F3
:1025D000FEF74CF902460B4643EC172BB0EE470AC8
:1025E000F0EE670A17F01CFC53EC102B104619464E
:1025F000FEF780FC02460B468249C1E90023804B6E
:10260000D3E900017AA3D3E90023FEF72FF90246AC
:102610000B4643EC172BB0EE470AF0EE670A17F0B3
:10262000FFFB53EC102B10461946FEF763FC0246E5
:102630000B467549C1E90023704BD3E90023734968
:10264000C1E900236E4BD3E900237149C1E900239E
:102650007B6800225A717B6801221A71C5E0BB7A3F
:10266000312B1AD1654B93ED007B654B93ED006BDD
:10267000B0EE461AF0EE661AB0EE470AF0EE670AC0
:10268000644800F061F90346002B06D17B68012203
:102690005A717B6801221A71A7E0BB7A322B4DD1A7
:1026A00007F108034921184615F041F803460133A4
:1026B000184613F0F5FFB0EE407AF0EE607A564B14
:1026C00083ED007B07F108034A21184615F02FF827
:1026D00003460133184613F0E3FFB0EE407AF0EE04
:1026E000607A4E4B83ED007B444B93ED007B444B73
:1026F00093ED006B484B93ED005B484B93ED004B23
:102700000121B0EE443AF0EE643AB0EE452AF0EE24
:10271000652AB0EE461AF0EE661AB0EE470AF0EE01
:10272000670A3F4800F0B4FA0346002B06D17B68E5
:1027300002225A717B6801221A7156E0BB7A332B50
:1027400052D107F108034921184614F0F0FF03465F
:102750000133184613F0A4FFB0EE407AF0EE607A31
:102760002D4B83ED007B07F108034A21184614F036
:10277000DEFF03460133184613F092FFB0EE407AB5
:10278000F0EE607A254B83ED007B1C4B93ED007BD4
:102790001B4B93ED006B204B93ED005B1F4B93EDB8
:1027A000004B4FF0FF31B0EE443AF0EE643AB0EE39
:1027B000452AF0EE652AB0EE461AF0EE661AB0EE43
:1027C000470AF0EE670A164800F062FA0346002B4B
:1027D0000AD17B6803225A717B6801221A7104E0D6
:1027E0007B6802221A7100E000BF8837BD4680BDB9
:1027F000000000A09999793FEC0F0020100B0020F9
:10280000180B0020001000200810002010100020DD
:1028100018100020300B0020200B0020280B002077
:10282000900B002080B584B002AF78607B6893F98C
:102830000430012B4CD17B6893F905300133042B14
:1028400046D801A252F823F05D2800086528000848
:102850006D2800088B280008A92800087B68022240
:102860001A7136E07B6802221A7132E0012300936C
:102870000023194A19491A4800F002FC0346002BAC
:1028800021D17B6802221A711DE0012300930023ED
:10289000144A1249124800F0D7FD0346002B14D108
:1028A0007B6802221A7110E00123009300230D4A75
:1028B0000A490B4800F0C8FD0346002B07D17B688E
:1028C00002221A7103E000BF02E000BF00E000BF77
:1028D00000BF0837BD4680BD300B002020D8002047
:1028E000E80F0020900B002080B483B000AF786028
:1028F0007B6893F90430022B09D17B681B6893F93C
:102900000030012B03D17B6800221A7100BF00BF89
:102910000C37BD465DF8047B7047000080B582B07F
:1029200000AF78607B6801221A704FF44842044976
:102930000448FFF75BFC00BF0837BD4680BD00BF01
:102940002010002020D800202DE9B04F88B000AF23
:10295000F86187ED040B87ED021B954BD3E900234B
:10296000F969C1E90023934BD3E90023F969C1E96F
:102970000223F969D7E90423C1E90423F969D7E9F6
:102980000223C1E906238A4BD3E90001D7E90423D6
:10299000FDF78AFC02460B463A6023F000437B6059
:1029A00081A3D3E90023D7E90001FEF7B1F803467C
:1029B000002B18D07F4BD3E90001D7E90223FDF7A4
:1029C00073FC02460B46924623F0004B76A3D3E9F4
:1029D000002350465946FEF79BF80346002B02D0D1
:1029E0004FF0FF3344E1FB69D3E90401FB69D3E90C
:1029F0000023FDF759FC02460B46F969C1E908239B
:102A0000FB69D3E90601FB69D3E90223FDF74CFC1E
:102A100002460B46F969C1E90A23674BD3E9002353
:102A200010461946FEF710FA07EE100ADFED637A3A
:102A300067EE277A17EE900AFDF796FDFB69D3E95A
:102A40000023FDF731FC02460B46F969C1E90C236E
:102A50005B4BD3E9002310461946FEF7F5F907EE64
:102A6000100ADFED567A67EE277A17EE900AFDF727
:102A70007BFDFB69D3E90223FDF716FC02460B46FA
:102A8000F969C1E90E23FB69D3E90801FB69D3E9C0
:102A90000E23FDF7C1FD02460B4692469B46FB699D
:102AA000D3E90A01FB69D3E90C23FDF7B5FD024622
:102AB0000B4650465946FDF7F7FB02460B46F969AF
:102AC000C1E91023FB69D3E908014FF000024FF080
:102AD0000003FEF727F80346002B18D0FB69D3E963
:102AE0000A014FF000024FF00003FEF725F80346FD
:102AF000002B0CD0FB69012283F84820FB690122DE
:102B000083F84920FB69012283F858207EE0FB69A5
:102B1000D3E90A014FF000024FF00003FDF7F8FF80
:102B20000346002B18D0FB69D3E908014FF00002DF
:102B30004FF00003FEF700F80346002B0CD0FB69B2
:102B4000012283F84820FB69FF2283F84920FB69B2
:102B5000FF2283F8582059E0FB69D3E908014FF0C0
:102B600000024FF00003FDF7D3FF0346002B29D0EE
:102B7000FB69D3E90A014FF000024FF00003FDF7B3
:102B8000BDFF0346002B1DD0FB69FF2283F84820C0
:102B9000FB69FF2283F84920FB69012283F8582052
:102BA00034E000BFAFF30080000000A09999793FA6
:102BB000101000201810002000100020CDCCCC3BBD
:102BC00008100020FB69D3E90A014FF000024FF022
:102BD0000003FDF7A7FF0346002B17D0FB69D3E9DD
:102BE00008014FF000024FF00003FDF787FF034696
:102BF000002B0BD0FB69FF2283F84820FB690122E0
:102C000083F84920FB69FF2283F85820FB69D3E948
:102C10000823904623F0004919A3D3E90023404636
:102C20004946FDF775FF0346002B06D0F96916A348
:102C3000D3E90023C1E9142319E0FB69D3E90A01B0
:102C4000FB69D3E90823FDF711FE02460B4643EC6E
:102C5000172BB0EE470AF0EE670A16F01DFE53EC94
:102C6000102B144623F00045FB69C3E914450023EB
:102C700018462037BD46BDE8B08F00BFAFF30080D7
:102C8000000000A09999793F182D4454FB21F93F89
:102C90002DE9B0438AB000AF786287ED060B87ED6F
:102CA000041B87ED022B87ED003B0B4687F8233092
:102CB000A34BD3E90023796AC1E90023A14BD3E9EF
:102CC0000023796AC1E90223796AD7E90623C1E9B9
:102CD0000423796AD7E90423C1E906237B6AD3E98F
:102CE0000001D7E90223FDF7E1FA02460B46796AB3
:102CF000C1E908237B6AD3E90201D7E90023FDF784
:102D0000D5FA02460B46796AC1E90A238C4BD3E90E
:102D10000001D7E90623FDF7C7FA02460B469046A5
:102D200023F0004984A3D3E9002340464946FDF738
:102D3000EFFE0346002B18D0824BD3E90001D7E900
:102D40000423FDF7B1FA02460B46144623F0004572
:102D500079A3D3E9002320462946FDF7D9FE03468F
:102D6000002B02D04FF0FF3385E1774BD3E90023EE
:102D700010461946FEF768F807EE100ADFED737A81
:102D800067EE277A17EE900AFDF7EEFB7B6AD3E930
:102D90000823FDF789FA02460B46796AC1E90C233C
:102DA0006B4BD3E9002310461946FEF74DF807EEAA
:102DB000100ADFED667A67EE277A17EE900AFDF7C4
:102DC000D3FB7B6AD3E90A23FDF76EFA02460B4672
:102DD000796AC1E90E237B6AD3E900017B6AD3E9F2
:102DE0000823FDF761FA02460B46796AC1E9002320
:102DF0007B6AD3E902017B6AD3E90A23FDF754FA1F
:102E000002460B46796AC1E902237B6AD3E90401D1
:102E10007B6AD3E90823FDF747FA02460B46796A35
:102E2000C1E904237B6AD3E906017B6AD3E90A235B
:102E3000FDF73AFA02460B46796AC1E90623D7E95B
:102E40000223D7E90201FDF7E7FB02460B461446D1
:102E50001D46D7E90023D7E90001FDF7DDFB024657
:102E60000B4620462946FDF721FA02460B46796AB1
:102E7000C1E910237B6AD3E90C017B6AD3E90C23F7
:102E8000FDF7CAFB02460B4614461D467B6AD3E992
:102E90000E017B6AD3E90E23FDF7BEFB02460B460B
:102EA00020462946FDF702FA02460B46104619460F
:102EB0007B6AD3E91023FDF7F7F902460B46796ADE
:102EC000C1E912237B6A97F8232083F853207B6A99
:102ED000D3E90C014FF000024FF00003FDF722FE92
:102EE0000346002B36D07B6AD3E90E014FF0000277
:102EF0004FF00003FDF720FE0346002B2AD07B6A2B
:102F000093F953207B6A83F850207B6A93F95330FE
:102F1000DBB25B42DBB25AB27B6A83F851207B6A38
:102F200093F95330DBB25B42DBB25AB27B6A83F86F
:102F300052209FE0AFF30080000000A09999793FF4
:102F4000101000201810002000100020CDCCCC3B29
:102F5000081000207B6AD3E90E014FF000024FF009
:102F60000003FDF7D5FD0346002B26D07B6AD3E98D
:102F70000C014FF000024FF00003FDF7DDFD0346AA
:102F8000002B1AD07B6A93F95330DBB25B42DBB281
:102F90005AB27B6A83F850207B6A93F95330DBB2D4
:102FA0005B42DBB25AB27B6A83F851207B6A93F9A9
:102FB00053207B6A83F852205CE07B6AD3E90C01E2
:102FC0004FF000024FF00003FDF7A2FD0346002B77
:102FD00026D07B6AD3E90E014FF000024FF00003C8
:102FE000FDF78CFD0346002B1AD07B6A93F9533012
:102FF000DBB25B42DBB25AB27B6A83F850207B6A59
:1030000093F953207B6A83F851207B6A93F95330FC
:10301000DBB25B42DBB25AB27B6A83F8522029E012
:103020007B6AD3E90E014FF000024FF00003FDF779
:1030300079FD0346002B1DD07B6AD3E90C014FF0CC
:1030400000024FF00003FDF759FD0346002B11D09D
:103050007B6A93F953207B6A83F850207B6A93F94B
:1030600053207B6A83F851207B6A93F953207B6A53
:1030700083F85220002318462837BD46BDE8B083A8
:103080002DE9B04F94B000AFF864B9647A6487F862
:103090004330FB6C93F90030012B40F0C281B86CD7
:1030A000FFF734F90346002B40F0BB81FA6C022392
:1030B00013707B6CD3E91023144623F0004580A3E2
:1030C000D3E9002320462946FDF722FD0346002BC5
:1030D00000F08F807B6CD3E914017BA3D3E900233C
:1030E000FDF70CFD0346002B41D07B6CD3E90C456A
:1030F0007B6C93F9483007EE903AF8EEE77A9FED53
:10310000747A67EE877A17EE900AFDF72DFA024679
:103110000B4620462946FDF7C9F802460B46796C56
:10312000C1E90C237B6C93F948305BB2DA179A46FD
:103130009346614BD3E900231AEB0201B9634BEBD1
:103140000303FB635C4BD7E90E12C3E900127B6CEF
:1031500093F9482097F843301146184600F03AFC9E
:1031600003465BB21946B86CFFF7E1F8F6E07B6CFA
:10317000D3E90E457B6C93F9493007EE903AF8EEAF
:10318000E77A9FED537A67EE877A17EE900AFDF79C
:10319000EBF902460B4620462946FDF787F8024622
:1031A0000B46796CC1E90E237B6C93F949305BB215
:1031B000DA1798469146414BD3E9002318EB0201F8
:1031C000396349EB03037B633C4BD7E90C12C3E93A
:1031D00000127B6C93F9492097F87030114618461D
:1031E00000F0F8FB03465BB21946B86CFFF79FF896
:1031F000B4E07B6CD3E910457B6C93F958301846EA
:10320000FDF7A0F902460B4620462946FDF704FAD1
:1032100002460B46104619464FF000024FF00003DD
:10322000FDF78AFC0346002B54D07B6CD3E90C4598
:103230007B6C93F9483007EE903AF8EEE77A9FED11
:10324000247A67EE877A17EE900AFDF78DF9024629
:103250000B4620462946FDF729F802460B46796CB5
:10326000C1E90C237B6C93F948305BB2DA17BB627F
:10327000FA62114BD3E90023D7E90A4521468918A0
:103280003962294643EB010179620B4BD7E90812F9
:10329000C3E900127B6C93F9482097F8433011463C
:1032A000184600F097FB03465BB21946B86CFFF76F
:1032B0003EF853E0AFF3008000100020081000201B
:1032C00095D626E80B2E113E182D4454FB21E93FDC
:1032D000CDCCCC3B7B6CD3E90E457B6C93F949306C
:1032E00007EE903AF8EEE77A1FED077A67EE877AF5
:1032F00017EE900AFDF738F902460B46204629469C
:10330000FCF7D4FF02460B46796CC1E90E237B6CB7
:1033100093F949305BB2DA17BB61FA61464BD3E9E6
:103320000023D7E90645214689183961294643EB30
:1033300001017961404BD7E90412C3E900127B6CAB
:1033400093F9492097F870301146184600F042FB77
:1033500003465BB21946B86CFEF7E9FF7B6CD3E914
:1033600008017B6CD3E90E23FDF756F902460B46A4
:1033700014461D467B6CD3E90A017B6CD3E90C2310
:10338000FDF74AF902460B4620462946FCF78CFF1A
:1033900002460B46796CC1E910237B6CD3E90C0122
:1033A0007B6CD3E90823FCF77FFF02460B46BA602B
:1033B00023F00043FB601EA3D3E90023D7E90201F9
:1033C000FDF79CFB0346002B28D07B6CD3E90E0154
:1033D0007B6CD3E90A23FCF767FF02460B463A6091
:1033E00023F000437B6012A3D3E90023D7E9000157
:1033F000FDF784FB0346002B10D07B6CD3E904233C
:103400000E49C1E900237B6CD3E906230C49C1E9CD
:103410000023FB6C01221A70002303E0FB6C0122E5
:103420001A70022318465037BD46BDE8B08F00BF62
:10343000000000A09999793F08100020101000208A
:1034400018100020000000002DE9B04F98B000AF28
:10345000F865B9657A6587F85330FB6D93F90030EC
:10346000012B40F0B082B86DFEF750FF0346002BF1
:1034700040F0A982FA6D022313707B6D93F95230EC
:10348000B3F1FF3F40F09A807B6DD3E912014FF01A
:1034900000024FF00003FDF745FB0346002B46D02A
:1034A0007B6DD3E90E457B6D93F9513007EE903A71
:1034B000F8EEE77A9FED6B7A67EE877A17EE900A5F
:1034C000FDF752F802460B4620462946FCF7EEFE71
:1034D00002460B46104619467B6DC3E90E017B6D13
:1034E00093F951305BB2DA17BB64FA645B4BD3E9F2
:1034F0000023D7E91245214689183964294643EB50
:1035000001017964554BD7E91012C3E900127B6DB4
:1035100093F9512097F880301146184600F05AFA76
:1035200003465BB21946B86DFEF701FFDFE07B6D25
:10353000D3E90C457B6D93F9503007EE903AF8EEE5
:10354000E77A9FED487A67EE877A17EE900AFDF7E3
:103550000BF802460B4620462946FCF7A7FE02461A
:103560000B46104619467B6DC3E90C017B6D93F940
:1035700050305BB2DA17BB63FA63394BD3E90023EF
:10358000D7E90E45214689183963294643EB0101E5
:103590007963334BD7E90C12C3E900127B6D93F9C1
:1035A000502097F853301146184600F013FA03469E
:1035B0005BB21946B86DFEF7BAFE98E07B6DD3E9B1
:1035C00012014FF000024FF00003FDF7ABFA034683
:1035D000002B49D07B6DD3E90C457B6D93F95030BE
:1035E00007EE903AF8EEE77A9FED1E7A67EE877A5B
:1035F00017EE900AFCF7B8FF02460B462046294614
:10360000FCF754FE02460B46104619467B6DC3E993
:103610000C017B6D93F950305BB2DA179A469346F2
:103620000F4BD3E900231AEB0201B9624BEB030302
:10363000FB620B4BD7E90A12C3E900127B6D93F9C9
:10364000502097F853301146184600F0C3F903464E
:103650005BB21946B86DFEF76AFE48E0081000201C
:1036600000100020CDCCCC3B7B6DD3E90E457B6DAB
:1036700093F9513007EE903AF8EEE77A1FED077AAA
:1036800067EE877A17EE900AFCF76EFF02460B464C
:1036900020462946FCF70AFE02460B46104619460C
:1036A0007B6DC3E90E017B6D93F951305BB2DA1784
:1036B00098469146AA4BD3E9002318EB02013962E0
:1036C00049EB03037B62A64BD7E90812C3E900125A
:1036D0007B6D93F9512097F880301146184600F021
:1036E00079F903465BB21946B86DFEF720FE7B6D93
:1036F000D3E90C017B6DD3E90C23FCF78DFF024667
:103700000B4614461D467B6DD3E90E017B6DD3E954
:103710000E23FCF781FF02460B4620462946FCF7A4
:10372000C5FD02460B46104619467B6DD3E91023B2
:10373000FCF7BAFD02460B46796DC1E912237B6D99
:10374000D3E90C017B6DD3E90423FCF7ADFD024600
:103750000B46BA6123F00043FB617FA3D3E900234A
:10376000D7E90601FDF7CAF90346002B36D07B6D79
:10377000D3E90E017B6DD3E90623FCF795FD0246E4
:103780000B463A6123F000437B6173A3D3E9002326
:10379000D7E90401FDF7B2F90346002B1ED07B6D7B
:1037A000D3E904017B6DD3E90823FCF77FFD0246D2
:1037B0000B466C49C1E900237B6DD3E906017B6DA3
:1037C000D3E90A23FCF772FD02460B466649C1E9BC
:1037D0000023FB6D01221A700023F5E07B6DD3E915
:1037E0000C23BA6023F00043FB605BA3D3E9002302
:1037F000D7E90201FDF78CF90346002B11D17B6D4F
:10380000D3E90E233A6023F000437B6052A3D3E94F
:103810000023D7E90001FDF77BF90346002B00F0F8
:10382000CF807B6DD3E90C014FF000024FF0000315
:10383000FDF778F90346002B26D07B6DD3E90E0106
:103840004FF000024FF00003FDF776F90346002B1E
:103850001AD07B6D93F953207B6D83F850207B6DDC
:1038600093F95330DBB25B42DBB25AB27B6D83F823
:1038700051207B6D93F95330DBB25B42DBB25AB21D
:103880007B6D83F852209BE07B6DD3E90E014FF0F6
:1038900000024FF00003FDF73BF90346002B26D052
:1038A0007B6DD3E90C014FF000024FF00003FDF7F0
:1038B00043F90346002B1AD07B6D93F95330DBB2EA
:1038C0005B42DBB25AB27B6D83F850207B6D93F97B
:1038D0005330DBB25B42DBB25AB27B6D83F85120CE
:1038E0007B6D93F953207B6D83F8522068E07B6DEC
:1038F000D3E90C014FF000024FF00003FDF708F987
:103900000346002B32D07B6DD3E90E014FF000024D
:103910004FF00003FDF7F2F80346002B26D07B6D35
:1039200093F95330DBB25B42DBB25AB27B6D83F862
:1039300050207B6D93F953207B6D83F851207B6D74
:1039400093F95330DBB25B42DBB25AB27B6D83F842
:10395000522035E0AFF30080000000A09999793F34
:103960000810002010100020181000207B6DD3E9F3
:103970000E014FF000024FF00003FDF7D3F80346AD
:10398000002B1DD07B6DD3E90C014FF000024FF0EE
:103990000003FDF7B3F80346002B11D07B6D93F9BC
:1039A00053207B6D83F850207B6D93F953207B6D02
:1039B00083F851207B6D93F953207B6D83F852205F
:1039C000FB6D01221A70022318466037BD46BDE820
:1039D000B08F00BF80B485B000AF03460A46FB71CC
:1039E0001346BB710023FB7397F90630012B09D1F5
:1039F000FB795B00012202FA03F35AB2FB7B13430B
:103A0000FB730DE097F90630B3F1FF3F08D1FB7966
:103A10005B00032202FA03F35AB2FB7B1343FB73EE
:103A2000FB7B18461437BD465DF8047B70470000E9
:103A300080B584B002AF02F035FF00F0D7F800F097
:103A4000CBFB00F03DF900F08DF900F0BFF900F07C
:103A5000F1F900F0F1FA00F03DFB00F08FFB00F00F
:103A600017FA00F061FB07F053FC00F099FA00F040
:103A700045FAFEF77FFB01F0FBFC4A4B1B6818463A
:103A800002F0CEF8484B1868484B1968484B1A6842
:103A9000484B1B68FDF7E2FB4749484802F0D0F865
:103AA0004749484802F0CCF8002300934FF448738C
:103AB000454A42494548FDF7F3FB002300934FF484
:103AC0004873434A3F494348FDF7EAFB424801F047
:103AD00083FD374B1B68184601F06EFD3F48FEF72B
:103AE000F5FC002239493C4802F050F801223949DE
:103AF000394802F04BF800F0BDFC0023FB710BE0ED
:103B0000FB79682202FB03F3304A13441846FDF7A1
:103B100087FCFB790133FB71FB79012BF0D92B4B2F
:103B20001B680122DA77294B9B6E0122DA7700238A
:103B3000BB710BE0BB79682202FB03F3234A1344F9
:103B40001846FDF791FCBB790133BB71BB79012BA2
:103B5000F0D92248FEF7DCFC214B1B78002B1DD04E
:103B60002048FEF7AFFB0346002B02D11A4801F0B4
:103B70008DFD1D48FEF770FC0346022B0ED119483F
:103B8000FEF7A0FB0346022B08D11448FEF7ACFE5B
:103B9000114B0522DA76124B00221A7007F0F8FC5E
:103BA000C5E700BF74080020780800207C080020CA
:103BB000800800208408002088080020ACDF002056
:103BC000A0080020CCDF0020B8080020ACE00020D6
:103BD000D008002014E10020ECE3002094E4002051
:103BE0009CE4002020D80020EC0F002080B594B089
:103BF00000AF07F1200330220021184613F08FFD9B
:103C000007F10C0300221A605A609A60DA601A61A8
:103C10000023BB60284B1B6C274A43F0805313647E
:103C2000254B1B6C03F08053BB60BB6800237B609B
:103C3000224B1B68214A43F4804313601F4B1B68CF
:103C400003F480437B607B6801233B624FF4803345
:103C50007B620223BB634FF48003FB6304233B645A
:103C6000A8237B640223BB640723FB6407F12003C2
:103C7000184605F0EFF80346002B01D001F0F2FBE7
:103C80000F23FB6002233B6100237B614FF4A053B1
:103C9000BB614FF48053FB6107F10C03052118460B
:103CA00005F050FB0346002B01D001F0DBFB00BF09
:103CB0005037BD4680BD00BF003802400070004054
:103CC00080B584B000AF3B4600221A605A609A600B
:103CD000DA60214B214A1A601F4B4FF480325A6040
:103CE0001D4B00229A601C4B00221A611A4B0022C5
:103CF0001A76194B002283F82020174B0022DA6233
:103D0000154B174A9A62144B0022DA60124B0122BB
:103D1000DA61114B002283F830200F4B01225A61E7
:103D20000D4802F055FE0346002B01D001F09AFB2E
:103D300000233B6001237B600023BB603B461946A8
:103D4000054802F089FE0346002B01D001F08AFBF2
:103D500000BF1037BD4680BD30D800200020014094
:103D60000100000F80B500AF164B174A1A60154BC3
:103D700010225A60134B00229A60124B0022DA6024
:103D8000104B00221A610F4B00225A610D4B00228A
:103D90001A760C4B00225A760A4B00229A76094B6F
:103DA0000022DA76074B00221A77064B00225A7758
:103DB000044803F06FF80346002B01D001F052FBDA
:103DC00000BF80BD78D800200064004080B582B07C
:103DD00000AF3B4600221A605A60144B144A1A6026
:103DE000124803F064FA0346002B01D001F03AFBBD
:103DF00000233B6000237B603B46002219460B48B2
:103E000003F077FA0346002B01D001F02BFB3B4671
:103E100010221946054803F06CFA0346002B01D026
:103E200001F020FB00BF0837BD4680BDA0D80020B0
:103E30000074004080B500AF124B134A1A60114B5A
:103E4000124A5A600F4B00229A600E4B0022DA6031
:103E50000C4B4FF480421A610A4B00225A61094B05
:103E600000229A61074B0022DA61064B00221A6297
:103E7000044804F09BFD0346002B01D001F0F2FA48
:103E800000BF80BDB4D8002000540040A0860100CF
:103E900080B500AF174B184A1A60164B4FF4827268
:103EA0005A60144B00229A60124B0022DA60114BC8
:103EB00000221A610F4B00225A610E4B4FF4007220
:103EC0009A610C4B0022DA610A4B00221A62094BFC
:103ED00000225A62074B00229A62064B0A22DA62DB
:103EE000044805F04FFC0346002B01D001F0BAFA5C
:103EF00000BF80BD08D90020003C004080B586B0DE
:103F000000AF07F1080300221A605A609A60DA6075
:103F10003B4600221A605A601F4B204A1A601E4B13
:103F200040F28F625A601C4B00229A601A4B4CF28E
:103F30004F32DA60184B00221A61174B00225A6187
:103F4000154B00229A61144805F0A5FC0346002B8E
:103F500001D001F087FA4FF48053BB6007F10803EA
:103F600019460D4805F090FF0346002B01D001F0E3
:103F700079FA20233B6000237B603B4619460648C4
:103F800006F072FB0346002B01D001F06BFA00BF74
:103F90001837BD4680BD00BF60D900200000014039
:103FA00080B586B000AF07F1080300221A605A609E
:103FB0009A60DA603B4600221A605A601D4B4FF04F
:103FC00080421A601B4B53225A601A4B00229A609F
:103FD000184B4FF0FF32DA60164B00221A61154B76
:103FE00000229A61134805F056FC0346002B01D0CD
:103FF00001F038FA4FF48053BB6007F1080319460B
:104000000C4805F041FF0346002B01D001F02AFACD
:1040100000233B6000237B603B461946054806F0C1
:1040200023FB0346002B01D001F01CFA00BF183718
:10403000BD4680BDA8D9002080B588B000AF3B1D2B
:1040400000221A605A609A60DA601A615A619A61B5
:104050001E4B1F4A1A601D4B00225A601B4B002248
:104060009A601A4B4FF6FF72DA60184B00221A6101
:10407000164B00229A61154805F00DFC0346002BF3
:1040800001D001F0EFF9114805F0F3FC0346002BD5
:1040900001D001F0E7F960237B600023BB600023BF
:1040A000FB6000237B613B1D00221946074805F099
:1040B00029FE0346002B01D001F0D4F9034802F099
:1040C00095F800BF2037BD4680BD00BFF0D9002065
:1040D000001C004080B500AF114B124A1A60104B13
:1040E0004FF4E1325A600E4B00229A600C4B0022D2
:1040F000DA600B4B00221A61094B0C225A61084B03
:1041000000229A61064B0022DA61054806F03CFB6A
:104110000346002B01D001F0A5F900BF80BD00BF10
:1041200038DA00200010014080B500AF114B124A70
:104130001A60104B4FF4E1325A600E4B00229A6025
:104140000C4B0022DA600B4B00221A61094B0C2247
:104150005A61084B00229A61064B0022DA61054839
:1041600006F012FB0346002B01D001F07BF900BFE3
:1041700080BD00BF80DA00200048004080B500AF5D
:10418000144B4FF0A0421A60124B04221A71114BCB
:104190000222DA710F4B00229A710E4B02225A72E0
:1041A0000C4B00229A720B4B0022DA72094B002250
:1041B0001A73084B00229A73064B0022DA730548E3
:1041C00004F038FD0346002B01D001F04BF900BF8D
:1041D00080BD00BFC8DA002080B58CB000AF07F109
:1041E0001C0300221A605A609A60DA601A61002388
:1041F000BB619A4B1B6B994A43F010031363974BB7
:104200001B6B03F01003BB61BB6900237B61934B05
:104210001B6B924A43F004031363904B1B6B03F038
:1042200004037B617B6900233B618C4B1B6B8B4AD6
:1042300043F080031363894B1B6B03F080033B61E6
:104240003B690023FB60854B1B6B844A43F00103F1
:104250001363824B1B6B03F00103FB60FB680023BD
:10426000BB607E4B1B6B7D4A43F0020313637B4BA9
:104270001B6B03F00203BB60BB6800237B60774BC2
:104280001B6B764A43F008031363744B1B6B03F0FC
:1042900008037B607B6800224FF68871704804F049
:1042A00051FB00224EF280016E4804F04BFB0022CD
:1042B0004CF213716C4804F045FB00224FF40141AD
:1042C0006A4804F03FFB00220821694804F03AFBE9
:1042D0004523FB6100233B6200237B6207F11C0343
:1042E00019465F4804F092F90823FB6101233B6201
:1042F00000237B620023BB6207F11C031946584868
:1043000004F084F93223FB614FF488133B620023ED
:104310007B6207F11C031946514804F077F94FF40A
:104320006043FB6101233B6200237B620023BB628D
:1043300007F11C0319464B4804F068F940F24D336D
:10434000FB614FF488133B6200237B6207F11C037F
:104350001946444804F05AF94CF21343FB61012317
:104360003B6200237B620323BB6207F11C031946F7
:104370003D4804F04BF94FF68073FB6101233B622B
:1043800000237B620323BB6207F11C0319463448F8
:1043900004F03CF94FF68043FB614FF488133B6215
:1043A00000237B6207F11C031946314804F02EF903
:1043B0008023FB6101233B6200237B620323BB62FA
:1043C00007F11C031946274804F020F94FF4014374
:1043D000FB6101233B6200237B620023BB6207F188
:1043E0001C031946214804F011F97423FB610023D2
:1043F0003B6200237B6207F11C0319461C4804F052
:1044000005F90823FB6101233B6200237B62002343
:10441000BB6207F11C031946154804F0F7F8202386
:10442000FB6100233B6200237B6207F11C031946FA
:104430000D4804F0EBF84FF44073FB6101233B623D
:1044400000237B620023BB6207F11C031946064868
:1044500004F0DCF800BF3037BD4680BD00380240B4
:104460000010024000080240000402400000024028
:10447000000C024080B500AF024805F05BFA00BFB7
:1044800080BD00BFA8D9002080B500AF024805F06C
:10449000C1FA00BF80BD00BFA8D9002080B400AF22
:1044A0004FF0804300225A6200BFBD465DF8047B96
:1044B000704780B400AF4FF080435B6A1846BD463A
:1044C0005DF8047B7047000090B5D7B002AFAF4BEA
:1044D0001B681946AE48FBF77BFE0346002B36D11E
:1044E000AC4B1B78002B11D0AB4B1A683B46AB4949
:1044F000184613F085F83B46184601F01BF8802259
:104500000021A34813F00BF900F08FBFA448FDF77A
:104510008DFE4FF48072A349A348FDF753FFA24BD1
:1045200013229A60A14B02221A719B4B1A683B46D8
:104530009F49184613F064F83B46184600F0FAFF0E
:1045400080220021924813F0EAF800F06EBF8F4BF2
:104550005B6819468E48FBF73BFE0346002B36D1BD
:104560008C4B1B78002B11D08B4B1A683B468B4928
:10457000184613F045F83B46184600F0DBFF802252
:104580000021834813F0CBF800F04FBF8448FDF7BB
:104590004DFE4FF4807287498348FDF713FF824B2D
:1045A00077229A60814B02221A717B4B1A683B4634
:1045B0008149184613F024F83B46184600F0BAFF2C
:1045C00080220021724813F0AAF800F02EBF6F4B32
:1045D0009B6819466E48FBF7FBFD0346002B36D15E
:1045E0006C4B1B78002B11D06B4B1A683B466B4908
:1045F000184613F005F83B46184600F09BFF802252
:104600000021634813F08BF800F00FBF6448FDF7FA
:104610000DFE4FF4807269496348FDF7D3FE624B8B
:1046200081229A60614B02221A715B4B1A683B46E9
:104630006349184612F0E4FF3B46184600F07AFF43
:1046400080220021524813F06AF800F0EEBE4F4B72
:10465000DB6819464E48FBF7BBFD0346002B36D1FD
:104660004C4B1B78002B11D04B4B1A683B464B49E7
:10467000184612F0C5FF3B46184600F05BFF80224B
:104680000021434813F04BF800F0CFBE4448FDF73B
:10469000CDFD4FF480724B494348FDF793FE424BEA
:1046A000F3229A60414B02221A713B4B1A683B4637
:1046B0004549184612F0A4FF3B46184600F03AFF61
:1046C00080220021324813F02AF800F0AEBE2F4BB2
:1046D0001B6919462E48FBF77BFD0346002B36D19C
:1046E0002C4B1B78002B11D02B4B1A683B462B49C7
:1046F000184612F085FF3B46184600F01BFF80224B
:104700000021234813F00BF800F08FBE2448FDF77A
:104710008DFD4FF480722D492348FDF753FE224B47
:1047200004229A60214B02221A711B4B1A683B46E5
:104730002749184612F064FF3B46184600F0FAFE7F
:1047400080220021124812F0EAFF00F06EBE0F4BEB
:104750005B6919460E48FBF73BFD0346002B5AD117
:104760000C4B1B78002B35D00B4B1A683B460B4982
:10477000184612F045FF3B46184600F0DBFE80224B
:104780000021034812F0CBFF00F04FBE1C080020B0
:10479000A4E400209CE4002024E5002024FB010880
:1047A00020D8002024000020EC0F002094E40020FA
:1047B00070FB010870000020A0FB01084C020020E3
:1047C000D0FB01085004002000FC01081400002068
:1047D00030FC0108B248FDF729FD4FF48072B14961
:1047E000B148FDF7EFFDB04B05229A60AF4B0222B6
:1047F0001A71AF4B1A683B46AE49184612F000FFDB
:104800003B46184600F096FE80220021AA4812F08E
:1048100086FF00F00ABEA94B9B691946A648FBF724
:10482000D7FC0346002B45D1A54B1B78002B11D09C
:104830009F4B1A683B46A349184612F0E1FE3B46DF
:10484000184600F077FE802200219B4812F067FF97
:1048500000F0EBBD9248FDF735FD0346022B11D168
:10486000934B1A683B469849184612F0C9FE3B46DE
:10487000184600F05FFE802200218F4812F04FFFA3
:1048800000F0D3BD914801F07FF88D4B01221A70E2
:10489000874B1A683B468E49184612F0B1FE3B46DC
:1048A000184600F047FE80220021834812F037FFAF
:1048B00000F0BBBD814BDB6919467F48FBF788FCE4
:1048C0000346002B2DD17E4B1B7883F00103DBB216
:1048D000002B11D0764B1A683B467E49184612F0E1
:1048E0008FFE3B46184600F025FE802200217248CC
:1048F00012F015FF00F099BD744801F059F96C4BA6
:104900001A683B467449184612F07AFE3B46184630
:1049100000F010FE80220021674812F000FF00F036
:1049200084BD664B1B6A19466348FBF751FC03467E
:10493000002B2DD1624B1B7883F00103DBB2002BDF
:1049400011D05B4B1A683B466249184612F058FE7C
:104950003B46184600F0EEFD80220021564812F03A
:10496000DEFE00F062BD594801F03CF9504B1A6878
:104970003B465A49184612F043FE3B46184600F0A3
:10498000D9FD802200214C4812F0C9FE00F04DBD37
:104990004A4B5B6A19464848FBF71AFC0346002B52
:1049A0002DD1474B1B7883F00103DBB2002B11D0D4
:1049B0003F4B1A683B464749184612F021FE3B46DA
:1049C000184600F0B7FD802200213B4812F0A7FEF8
:1049D00000F02BBD3D4801F016F9354B1A683B46F7
:1049E0003F49184612F00CFE3B46184600F0A2FD67
:1049F00080220021304812F092FE00F016BD2F4BAD
:104A0000DC6A2E4BDB6A1846FBF7ECFB03461A46C2
:104A10002146294812F098FE0346002B66D1284B08
:104A20001B78002B11D0224B1A683B462D491846A3
:104A300012F0E6FD3B46184600F07CFD8022002186
:104A40001D4812F06CFE00F0F0BC20211A4812F054
:104A50006EFE03460133184611F022FE53EC102B74
:104A600010461946FCF7D0F80346C7F8003197ED19
:104A7000400A164800F0F4FF0D4B1A68134B5B69AF
:104A80003846194912F0BCFD3B46184600F052FD6D
:104A900080220021084812F042FE00F0C6BC00BF90
:104AA00020D8002000000020EC0F002094E400201B
:104AB00024E500205CFC0108A4E400201C08002080
:104AC0009CE4002088FC0108C4FC0108ECE3002001
:104AD000ECFC010818FD010850FD01087CFD0108EF
:104AE000A8FD0108D4FD01080CFE0108BD4B9C6A1D
:104AF000BC4B9B6A1846FBF775FB03461A462146DA
:104B0000B94812F021FE0346002B3FD1B74B1B786A
:104B1000002B11D0B64B1A683B46B649184612F026
:104B20006FFD3B46184600F005FD80220021AE488F
:104B300012F0F5FD00F079BC2021AB4812F0F7FD32
:104B400003460133184611F0ABFD53EC102B104611
:104B50001946FCF759F80346C7F8043197ED410AA6
:104B6000A54800F0E7FFA24B1A68A34B1B69384623
:104B7000A24912F045FD3B46184600F0DBFC8022BE
:104B80000021994812F0CBFD00F04FBC954B1C6BF7
:104B9000944B1B6B1846FBF725FB03461A46214630
:104BA000914812F0D1FD0346002B5BD120218E48A5
:104BB00012F0BDFD03460133184611F074FD0346A3
:104BC00087F80B31874B1B6B1846FBF70BFB034633
:104BD0000333854AD35C562B13D1854B1A6897F95A
:104BE0000B313846864912F00BFD97F90B316822DC
:104BF00002FB03F3834A134401211846FCF7E8FB48
:104C000026E0784B1B6B1846FBF7ECFA03460333A0
:104C1000754AD35C502B13D1754B1A6897F90B3139
:104C20003846794912F0ECFC97F90B31682202FB07
:104C300003F3744A134400211846FCF7C9FB07E04C
:104C40006B4B1A6897F90B313846704912F0D8FC53
:104C50003B46184600F06EFC80220021624812F0AC
:104C60005EFDE2E35F4B9C6B5E4B9B6B1846FBF774
:104C7000B9FA03461A4621465B4812F065FD034621
:104C8000002B4FD12021584812F051FD034601332B
:104C9000184611F008FD034687F8133120215248C9
:104CA00012F045FD03460333184611F0F9FC53ECAE
:104CB000102B10461946FBF7A7FF0346C7F80C3127
:104CC00097F91331682202FB03F34E4A134497ED20
:104CD000430A1846FCF780FF0346002B10D1444BD3
:104CE0001A6897F91331D7ED437AFDEEE77A17EE9C
:104CF000901A09B238460091454912F081FC07E04C
:104D00003B4B1A6897F913313846424912F078FC48
:104D10003B46184600F00EFC80220021324812F07B
:104D2000FEFC82E32F4BDC6B2E4BDB6B1846FBF754
:104D300059FA03461A4621462B4812F005FD034650
:104D4000002B6BD12021284812F0F1FC03460133DF
:104D5000184611F0A8FC034687F81B312021224891
:104D600012F0E5FC03460333184611F099FC53ECAE
:104D7000102B10461946FBF747FF0346C7F81431BE
:104D800097F91B31682202FB03F31E4A134497ED87
:104D9000450A1846FCF743FF0346002B10D1144B7D
:104DA0001A6897F91B31D7ED457AFDEEE77A17EED1
:104DB000901A09B238460091174912F021FC07E019
:104DC0000B4B1A6897F91B313846124912F018FC40
:104DD0003B46184600F0AEFB80220021024812F04C
:104DE0009EFC22E31C080020A4E400209CE4002098
:104DF00024E50020D4FD0108ECE3002044FE010876
:104E00007CFE0108ACE00020B8FE0108F4FE0108B9
:104E100030FF01086CFF0108A8FF0108BB4B5C6B69
:104E2000BA4B5B6B1846FBF7DDF903461A46214681
:104E3000B74812F089FC0346002B46D12021B44824
:104E400012F075FC03460133184611F02CFC0346A2
:104E500087F81F312021AE4812F069FC0346033366
:104E6000184611F024FC0346A7F81C3197F91F31AE
:104E7000682202FB03F3A74A1344B7F91C21114629
:104E80001846FCF759FE0346002B0CD1A24B1A68BA
:104E900097F91F11B7F91C31384600930B469F490B
:104EA00012F0AEFB07E09C4B1A6897F91F313846A9
:104EB0009B4912F0A5FB3B46184600F03BFB8022C5
:104EC0000021934812F02BFCAFE2904B5C6C8F4BAF
:104ED0005B6C1846FBF786F903461A4621468C4858
:104EE00012F032FC0346002B4FD12021884812F0EB
:104EF0001EFC03460133184611F0D5FB034687F824
:104F000027312021824812F012FC03460333184651
:104F100011F0C6FB53EC102B10461946FBF774FE3C
:104F20000346C7F8203197F92731682202FB03F3C3
:104F3000784A134497ED480A1846FCF7A5FD034646
:104F4000002B10D1744B1A6897F92731D7ED487AA6
:104F5000FDEEE77A17EE901A09B2384600917149D2
:104F600012F04EFB07E06C4B1A6897F92731384670
:104F70006D4912F045FB3B46184600F0DBFA8022F3
:104F80000021634812F0CBFB4FE2604B9C6C5F4BFF
:104F90009B6C1846FBF726F903461A4621465C48E7
:104FA00012F0D2FB0346002B4FD12021584812F0BB
:104FB000BEFB03460133184611F075FB034687F824
:104FC0002F312021524812F0B2FB0346033318461A
:104FD00011F066FB53EC102B10461946FBF714FE3C
:104FE0000346C7F8283197F92F31682202FB03F3F3
:104FF000484A134497ED4A0A1846FCF766FD0346F3
:10500000002B10D1444B1A6897F92F31D7ED4A7A0B
:10501000FDEEE77A17EE901A09B23846009143493F
:1050200012F0EEFA07E03C4B1A6897F92F31384638
:105030003D4912F0E5FA3B46184600F07BFA802223
:105040000021334812F06BFBEFE1304B1C6C2F4B0F
:105050001B6C1846FBF7C6F803461A4621462C4837
:1050600012F072FB0346002B64D12021284812F075
:105070005EFB03460133184611F015FB034687F823
:1050800037312021224812F052FB034603331846E1
:1050900011F006FB53EC102B10461946FBF7B4FD3C
:1050A0000346C7F8303197F93731682202FB03F322
:1050B000184A134497ED4C0A1846FCF7B5FC034612
:1050C000002B10D1144B1A6897F93731D7ED4C7A71
:1050D000FDEEE77A17EE901A09B2384600911449AE
:1050E00012F08EFA07E00C4B1A6897F93731384600
:1050F0000D4912F085FA3B46184600F01BFA802253
:105100000021034812F00BFB8FE100BF1C080020B8
:10511000A4E40020ACE0002024E50020E4FF010826
:105120006CFF0108200002085800020890000208E5
:10513000C4000208BF4B1C6DBE4B1B6D1846FBF72D
:1051400051F803461A462146BB4812F0FDFA0346C1
:10515000002B4ED12021B84812F0E9FA0346013362
:10516000184611F0A0FA034687F83F312021B248D3
:1051700012F0DDFA03460333184611F091FA53ECAE
:10518000102B10461946FBF73FFD0346C7F8383190
:1051900097F93F31682202FB03F3A84A134497EDC5
:1051A0004E0A1846FCF7F8FB0346002B0FD1A44B20
:1051B0001A6897F93F31D7ED4E7AFDEEE77A17EE90
:1051C000901A384600919F4912F01AFA07E09C4B5A
:1051D0001A6897F93F3138469B4912F011FA3B465D
:1051E000184600F0A7F980220021934812F097FAA0
:1051F0001BE1904B5C6D8F4B5B6D1846FAF7F2FF2D
:1052000003461A4621468C4812F09EFA0346002BAC
:105210004ED12021884812F08AFA034601331846FD
:1052200011F041FA034687F847312021824812F0F5
:105230007EFA03460333184611F032FA53EC102B72
:1052400010461946FBF7E0FC0346C7F8403197F9D2
:105250004731682202FB03F3784A134497ED500A62
:105260001846FCF7BAFB0346002B0FD1744B1A68A3
:1052700097F94731D7ED507AFDEEE77A17EE901A9D
:1052800038460091714912F0BBF907E06C4B1A687F
:1052900097F9473138466C4912F0B2F93B46184647
:1052A00000F048F980220021634812F038FABCE08F
:1052B000604BDC6C5F4BDB6C1846FAF793FF0346E0
:1052C0001A4621465C4812F03FFA0346002B44D1AF
:1052D0002021594812F02BFA03460133184611F0E9
:1052E000E2F9034687F84D312021534812F01FFAA6
:1052F00003460333184611F0DAF9C7F8480197F965
:105300004D31682202FB03F34C4A1344D7F848118D
:105310001846FCF775FA0346002B0CD1484B1A6867
:1053200097F94D113846D7F8483100930B46484954
:1053300012F066F907E0424B1A6897F94D3138468A
:10534000414912F05DF93B46184600F0F3F880221F
:105350000021394812F0E3F967E0374B1B78532BF3
:105360002CD1354B5B78542B28D1334B9B78532B66
:1053700024D10A220021374812F064F80346A7F826
:105380004E31B7F94E3107EE903AF8EEE77AB0EECB
:10539000670A2A48FCF7CEFE294B1A68B7F94E3146
:1053A00038462D4912F02CF93B46184600F0C2F859
:1053B00080220021204812F0B2F936E01E4B1B7803
:1053C000472B21D11C4B5B78432B1DD11A4B9B786B
:1053D000502B19D11A4B1C681848FCF747FCF0EE0B
:1053E000407AFDEEE77A384617EE903A22461B499E
:1053F00012F006F93B46184600F09CF88022002186
:105400000D4812F08CF910E00D4B1A6838460A4B23
:10541000134912F0F5F83B46184600F08BF880224D
:105420000021054812F07BF900BF07F5AA77BD46B9
:1054300090BD00BF1C080020A4E40020ACE00020C8
:1054400024E50020FC00020834010208740102086F
:10545000AC010208A7E40020E801020818020208D3
:105460004002020880B400AF72B600BF00BFFDE783
:1054700080B584B000AF0EF005FE0346164A1360F7
:10548000164BBB60144B1B6807F1080140F2146215
:1054900018460EF09FFC124B7B600F4B1B68391DAA
:1054A00040F2136218460EF01DFD0346FB7397F998
:1054B0000F30002B06D1084B1B6800220949184603
:1054C0000EF07EFD802208490848FCF78FFE00BFE1
:1054D0001037BD4680BD00BFA0E40020C0A8019CDD
:1054E000C0A80102F154000838E5002028E500209A
:1054F00080B584B000AFF860B9607A603B607B68CB
:1055000059687B685B891A46084812F02FF9084BE6
:105510001B680133064A1360786808F015FAFEF735
:10552000D3FF00BF1037BD4680BD00BFA4E40020FC
:1055300024E5002080B5C4B000AF07F58873A3F55B
:105540008673186007F58873A3F5867307F1080062
:105550001A68174912F054F8C7F80C01D7F80C3143
:105560009BB24FF420721946362007F009FFC7F8A6
:105570000801D7F80831002B14D0D7F80C319AB2B3
:1055800007F108031946D7F8080108F085FC094B14
:105590001B68D7F8081118460EF032FAD7F8080140
:1055A00008F0D2F900BF07F58877BD4680BD00BF7F
:1055B00058020208A0E4002080B483B000AF7860F5
:1055C000044A7B68136000BF0C37BD465DF8047B5E
:1055D000704700BFB8E5002080B485B000AF7860A8
:1055E0000023FB7307E0FA7B7B68002143F822105D
:1055F000FB7B0133FB73FB7B012BF4D97B6800221F
:105600009A607B680022DA607B684FF448621A6116
:105610007B684FF4FA625A617B680022DA617B682A
:1056200000225A627B6800221A627B6800221A7686
:105630007B6800225A767B680122DA767B68032237
:105640009A767B684FF000029A627B684FF0000206
:10565000DA627B6800221A637B6800225A637B68E7
:105660004FF07E529A637B680022DA637B680022E7
:1056700083F840207B6800225A647B6800229A6489
:1056800000BF1437BD465DF8047B704780B584B019
:1056900000AF78607B6893F91B30032B61D17B6886
:1056A0005B69002B02DD786800F066F82F4B1B6801
:1056B000984702467B68DA617B68DA697B681B6A17
:1056C000D21A7B685B6A9A424BD37B68DA697B6843
:1056D0001A6207F10E0319462548FCF74AFE00231B
:1056E000FB733AE097F90E30DBB203F00303012BB2
:1056F0000FD1FA7B7B6853F822301B6801221A779E
:10570000FA7B7B6853F822301B68184600F0C8FA11
:1057100027E097F90E30DBB203F00303032B0FD120
:10572000FA7B7B6853F822301B68FF221A77FA7BDA
:105730007B6853F822301B68184600F0B1FA10E07D
:1057400097F90E301A46FB7B01335B0042FA03F3F4
:105750005BB2BB73FB7B0133FB73FB7B012BC1D9BA
:10576000FFE700BF1037BD4680BD00BFB8E5002091
:1057700020D80020000000002DE9B04F82B000AF1B
:1057800078607B68DA697B689B68D21A7B685B6AA1
:105790009A42C0F0BD807B685B7E83F00103DBB280
:1057A000002B02D0786800F0C9F87B6893F91A20C2
:1057B0005F4B1A707B68DA697B689A605C4B93F97F
:1057C0000030012B06D05A4B93F90030B3F1FF3F64
:1057D00040F097807B681B6B002B04D17B689A6A32
:1057E0007B68DA6266E07B681B6B012B13D17B68F8
:1057F0009B6A1846FAF7B8FE49A3D3E90023FAF7E3
:105800000BFF02460B4610461946FBF7FDF9024610
:105810007B68DA624EE07B681B6B012B4ADD7B689C
:10582000DB6A1846FAF7A0FE04460D46404B93F992
:1058300000301846FAF786FE02460B46FAF736FDA8
:1058400002460B46904699467B681B6B1846FAF752
:1058500079FE4FF00002374BFAF7DEFE02460B46A8
:1058600092469B46324B93F900301846FAF76AFE8F
:1058700002460B4650465946FAF718FD02460B46BB
:1058800040464946FAF7F2FF02460B464FF0000049
:105890002949FAF709FD02460B4620462946FAF740
:1058A000BBFE02460B4610461946FBF7ADF9024611
:1058B0007B68DA627B68D3ED0B7AFCEEE77A17EE51
:1058C000903A5A1F7B685A627B68DB6A1846FAF77F
:1058D0004BFE02460B4614A1D1E90001FAF7C6FFC0
:1058E00002460B4610461946FBF746F902467B680E
:1058F000DA607B681B6B0E4A92F900201A447B68C1
:105900001A637B681B6B002B02DA7B680422DA7651
:1059100000BF0837BD46BDE8B08F00BFAFF30080C1
:10592000857CD0B359F5D93F0000000080842E411A
:10593000BCE50020000010400000F03F80B582B0C0
:1059400000AF78607B681B6B7A68526B934208D11A
:105950007B6893F91A30012B03D17B6800229A7679
:105960000CE00848FCF784FC03461A467B685B6B36
:105970009A4203D17B68FF229A7600BF0837BD4662
:1059800080BD00BF20D80020B0B584B000AF7860E3
:105990007B685B69002B03D07B681B69042B18DCD8
:1059A0007B681B691846FAF7CDFD02460B4629A114
:1059B000D1E90001FAF75AFF02460B461046194694
:1059C000FBF702F902467B685A627B6800229A76EE
:1059D00037E01F48FCF74CFC0346FB607B68002265
:1059E0001A637B6801229A767B681B697A68126960
:1059F00002FB03F31846FAF7A5FD04460D467B6843
:105A00005B691846FAF79EFD02460B46FAF74EFC14
:105A100002460B4620462946FAF728FF02460B4667
:105A200010461946FBF7D0F802467B685A637B683C
:105A30005B6B5B00FA689A4203D2FB685A087B688A
:105A40005A637B680322DA7600BF1037BD46B0BDCB
:105A500020D800200000000080842E4100000000BB
:105A600080B582B000AF786087ED000A7B6893F95B
:105A70001B30032B02D14FF0FF334DE0D7ED007AFE
:105A8000F0EEE77A17EE900AFAF76EFD4FF000029B
:105A9000274BFAF7C1FD02460B4610461946FBF7A5
:105AA0006BF802467B685A613868FAF75DFD1CA303
:105AB000D3E90023FBF740F80346002B27D07B688F
:105AC0005B691846FAF73EFD02460B464FF00000B0
:105AD0004FF08041FAF7CAFE02460B4643EC172B03
