:020000040800F2
:1000000000000220B54C0008694A0008714A000847
:10001000794A0008814A0008894A00080000000067
:10002000000000000000000000000000914A0008ED
:100030009F4A000800000000AD4A0008BB4A0008C3
:10004000054D0008054D0008054D0008054D000848
:10005000054D0008054D0008054D0008054D000838
:10006000054D0008054D0008054D0008054D000828
:10007000054D0008054D0008054D0008054D000818
:10008000054D0008054D0008054D0008054D000808
:10009000054D0008054D0008054D0008054D0008F8
:1000A000054D0008C94A0008054D0008054D000827
:1000B000054D0008054D0008054D0008054D0008D8
:1000C000054D0008054D0008054D0008054D0008C8
:1000D000054D0008054D0008054D0008054D0008B8
:1000E000054D0008054D0008054D0008054D0008A8
:1000F000E94A0008054D0008054D0008054D0008B7
:10010000054D0008054D0008054D0008054D000887
:10011000054D0008054D0008054D0008054D000877
:10012000054D0008054D0008054D0008054D000867
:10013000054D0008054D0008054D0008054D000857
:10014000054D0008054D0008054D0008054D000847
:10015000054D0008054D0008054D0008054D000837
:10016000054D0008054D0008054D0008054D000827
:10017000054D0008054D0008054D00080000000071
:08018000054D0008054D0008C3
:1001900010B5054C237833B9044B13B10448AFF3C1
:1001A00000800123237010BD3806002000000000ED
:1001B0000C85010808B5034B1BB103490348AFF395
:1001C000008008BD000000003C0600200C850108EE
:1001D000034613F8012B002AFBD1181A0138704787
:1001E00001F0FF01102A2BDB10F0070F08D010F8E8
:1001F000013B013A8B422DD010F0070F42B3F6D1EC
:10020000F0B441EA012141EA014122F007047FF004
:1002100000070023F0E80256083C85EA010586EA5B
:10022000010685FA47F5A3FA87F586FA47F6A5FA97
:1002300087F68EB9EED1F0BC01F0FF0102F00702A3
:1002400032B110F8013B013A83EA010313B1F8D14E
:100250000020704701387047002D06BF354603382F
:10026000073815F0010F07D1013015F4807F02BF68
:10027000013015F4C03F0130F0BC0138704700BFB9
:1002800081F0004102E000BF83F0004330B54FEA47
:1002900041044FEA430594EA050F08BF90EA020FB4
:1002A0001FBF54EA000C55EA020C7FEA645C7FEA47
:1002B000655C00F0E2804FEA5454D4EB5555B8BF6A
:1002C0006D420CDD2C4480EA020281EA030382EADB
:1002D000000083EA010180EA020281EA0303362D6D
:1002E00088BF30BD11F0004F4FEA01314FF4801C40
:1002F0004CEA113102D0404261EB410113F0004F52
:100300004FEA03334CEA133302D0524263EB430308
:1003100094EA050F00F0A780A4F10104D5F1200EA6
:100320000DDB02FA0EFC22FA05F2801841F1000101
:1003300003FA0EF2801843FA05F359410EE0A5F1D5
:1003400020050EF1200E012A03FA0EFC28BF4CF006
:10035000020C43FA05F3C01851EBE37101F00045BC
:1003600007D54FF0000EDCF1000C7EEB00006EEBC9
:100370000101B1F5801F1BD3B1F5001F0CD3490853
:100380005FEA30004FEA3C0C04F101044FEA4452AA
:1003900012F5800F80F09A80BCF1004F08BF5FEA31
:1003A000500C50F1000041EB045141EA050130BD11
:1003B0005FEA4C0C404141EB0101013C28BFB1F523
:1003C000801FE9D291F0000F04BF01460020B1FA6E
:1003D00081F308BF2033A3F10B03B3F120020CDA41
:1003E0000C3208DD02F1140CC2F10C0201FA0CF01F
:1003F00021FA02F10CE002F11402D8BFC2F1200C84
:1004000001FA02F120FA0CFCDCBF41EA0C01904039
:10041000E41AA2BF01EB0451294330BD6FEA040482
:100420001F3C1CDA0C340EDC04F11404C4F120026D
:1004300020FA04F001FA02F340EA030021FA04F37F
:1004400045EA030130BDC4F10C04C4F1200220FAD6
:1004500002F001FA04F340EA0300294630BD21FA14
:1004600004F0294630BD94F0000F83F4801306BFDA
:1004700081F480110134013D4EE77FEA645C18BFCE
:100480007FEA655C29D094EA050F08BF90EA020F65
:1004900005D054EA000C04BF1946104630BD91EA5D
:1004A000030F1EBF0021002030BD5FEA545C05D160
:1004B0004000494128BF41F0004130BD14F580049F
:1004C0003CBF01F5801130BD01F0004545F0FE4113
:1004D00041F470014FF0000030BD7FEA645C1ABF48
:1004E000194610467FEA655C1CBF0B46024650EA7F
:1004F000013406BF52EA033591EA030F41F40021AB
:1005000030BD00BF90F0000F04BF0021704730B530
:100510004FF4806404F132044FF000054FF0000105
:1005200050E700BF90F0000F04BF0021704730B5C6
:100530004FF4806404F1320410F0004548BF40429B
:100540004FF000013EE700BF42004FEAE2014FEAF0
:1005500031014FEA02701FBF12F07F4393F07F4FCB
:1005600081F06051704732F07F4208BF704793F0CE
:100570007F4F04BF41F40021704730B54FF46074E1
:1005800001F0004521F000411CE700BF50EA0102E4
:1005900008BF704730B54FF000050AE050EA01028D
:1005A00008BF704730B511F0004502D5404261EBFD
:1005B00041014FF4806404F132045FEA915C3FF43E
:1005C000D8AE4FF003025FEADC0C18BF03325FEADB
:1005D000DC0C18BF033202EBDC02C2F1200300FA8C
:1005E00003FC20FA02F001FA03FE40EA0E0021FAB1
:1005F00002F11444BDE600BF70B54FF0FF0C4CF49F
:10060000E06C1CEA11541DBF1CEA135594EA0C0F50
:1006100095EA0C0F00F0DEF82C4481EA030621EA8B
:100620004C5123EA4C5350EA013518BF52EA0335C6
:1006300041F4801143F4801338D0A0FB02CE4FF078
:100640000005E1FB02E506F00042E0FB03E54FF0A8
:100650000006E1FB03569CF0000F18BF4EF0010EA0
:10066000A4F1FF04B6F5007F64F5407404D25FEA9C
:100670004E0E6D4146EB060642EAC62141EA55514F
:100680004FEAC52040EA5E504FEACE2EB4F1FD0C91
:1006900088BFBCF5E06F1ED8BEF1004F08BF5FEA0F
:1006A000500E50F1000041EB045170BD06F00046C1
:1006B00046EA010140EA020081EA0301B4EB5C046E
:1006C000C2BFD4EB0C0541EA045170BD41F4801166
:1006D0004FF0000E013C00F3AB8014F1360FDEBF8B
:1006E000002001F0004170BDC4F10004203C35DA67
:1006F0000C341BDC04F11404C4F1200500FA05F3EA
:1007000020FA04F001FA05F240EA020001F000428A
:1007100021F0004110EBD37021FA04F642EB060100
:100720005EEA430E08BF20EAD37070BDC4F10C042A
:10073000C4F1200500FA04F320FA05F001FA04F2EE
:1007400040EA020001F0004110EBD37041F10001DA
:100750005EEA430E08BF20EAD37070BDC4F12005E5
:1007600000FA05F24EEA020E20FA04F301FA05F24D
:1007700043EA020321FA04F001F0004121FA04F2F5
:1007800020EA020000EBD3705EEA430E08BF20EAC5
:10079000D37070BD94F0000F0FD101F000464000FF
:1007A00041EB010111F4801F08BF013CF7D041EA81
:1007B000060195F0000F18BF704703F00046520085
:1007C00043EB030313F4801F08BF013DF7D043EA56
:1007D0000603704794EA0C0F0CEA135518BF95EA0C
:1007E0000C0F0CD050EA410618BF52EA4306D1D193
:1007F00081EA030101F000414FF0000070BD50EAB2
:10080000410606BF1046194652EA430619D094EA3B
:100810000C0F02D150EA013613D195EA0C0F05D125
:1008200052EA03361CBF104619460AD181EA030179
:1008300001F0004141F0FE4141F470014FF0000031
:1008400070BD41F0FE4141F4780170BD70B54FF0CC
:10085000FF0C4CF4E06C1CEA11541DBF1CEA13554C
:1008600094EA0C0F95EA0C0F00F0A7F8A4EB05042E
:1008700081EA030E52EA03354FEA013100F0888025
:100880004FEA03334FF0805545EA131343EA1263EE
:100890004FEA022245EA111545EA10654FEA0026A3
:1008A0000EF000419D4208BF964244F1FD0404F55C
:1008B000407402D25B084FEA3202B61A65EB0305B8
:1008C0005B084FEA32024FF480104FF4002CB6EB75
:1008D000020E75EB030E22BFB61A754640EA0C00F5
:1008E0005B084FEA3202B6EB020E75EB030E22BF35
:1008F000B61A754640EA5C005B084FEA3202B6EB76
:10090000020E75EB030E22BFB61A754640EA9C0034
:100910005B084FEA3202B6EB020E75EB030E22BF04
:10092000B61A754640EADC0055EA060E18D04FEAC2
:10093000051545EA16754FEA06164FEAC30343EA62
:1009400052734FEAC2025FEA1C1CC0D111F4801F2F
:100950000BD141EA00014FF000004FF0004CB6E728
:1009600011F4801F04BF01430020B4F1FD0C88BFC7
:10097000BCF5E06F3FF6AFAEB5EB030C04BFB6EBD2
:10098000020C5FEA500C50F1000041EB045170BDC5
:100990000EF0004E4EEA113114EB5C04C2BFD4EBF2
:1009A0000C0541EA045170BD41F480114FF0000E76
:1009B000013C90E645EA060E8DE60CEA135594EAF2
:1009C0000C0F08BF95EA0C0F3FF43BAF94EA0C0FF5
:1009D0000AD150EA01347FF434AF95EA0C0F7FF46A
:1009E00025AF104619462CE795EA0C0F06D152EABE
:1009F00003353FF4FDAE1046194622E750EA4106A2
:100A000018BF52EA43067FF4C5AE50EA41047FF4B2
:100A10000DAF52EA43057FF4EBAE12E74FF0FF3C17
:100A200006E000BF4FF0010C02E000BF4FF0010CE8
:100A30004DF804CD4FEA410C7FEA6C5C4FEA430C61
:100A400018BF7FEA6C5C1BD001B050EA410C0CBFB0
:100A500052EA430C91EA030F02BF90EA020F002012
:100A6000704710F1000F91EA030F58BF994208BF79
:100A700090422CBFD8176FEAE37040F00100704736
:100A80004FEA410C7FEA6C5C02D150EA013C07D18D
:100A90004FEA430C7FEA6C5CD6D152EA033CD3D0D8
:100AA0005DF8040B704700BF8446104662468C46D2
:100AB0001946634600E000BF01B5FFF7B7FF002805
:100AC00048BF10F1000F01BD4DF808EDFFF7F4FF2E
:100AD0000CBF012000205DF808FB00BF4DF808EDB9
:100AE000FFF7EAFF34BF012000205DF808FB00BFDC
:100AF0004DF808EDFFF7E0FF94BF012000205DF8FE
:100B000008FB00BF4DF808EDFFF7CEFF94BF0120B2
:100B100000205DF808FB00BF4DF808EDFFF7C4FFAB
:100B200034BF012000205DF808FB00BF4FEA410CF4
:100B30007FEA6C5C02D150EA013C0AD14FEA430CD7
:100B40007FEA6C5C02D152EA033C02D14FF0000014
:100B500070474FF0010070474A0011D212F50012A1
:100B600011D20DD56FF47873B3EB62520ED44FEA05
:100B7000C12343F0004343EA505323FA02F0704785
:100B80004FF00000704750EA013002D14FF0FF30C3
:100B900070474FF0000070474FEA4102B2F1E04366
:100BA00024BFB3F5001CDCF1FE5C0DD901F0004C54
:100BB0004FEAC0024CEA5070B2F1004F40EB8300A4
:100BC00008BF20F00100704711F0804F21D113F1D0
:100BD0003872BCBF01F00040704741F480114FEA09
:100BE0005252C2F11802C2F1200C10FA0CF320FA92
:100BF00002F018BF40F001004FEAC1234FEAD323AF
:100C000003FA0CFC40EA0C0023FA02F34FEA430318
:100C1000CCE77FEA625307D150EA01331EBF4FF0A1
:100C2000FE4040F44000704701F0004040F0FE40BC
:100C300040F40000704700BF80F0004002E000BFB9
:100C400081F0004142001FBF5FEA410392EA030FB7
:100C50007FEA226C7FEA236C6AD04FEA1262D2EB01
:100C60001363C1BFD218414048404140B8BF5B4206
:100C7000192B88BF704710F0004F40F4000020F09F
:100C80007F4018BF404211F0004F41F4000121F0B5
:100C90007F4118BF494292EA030F3FD0A2F10102FF
:100CA00041FA03FC10EB0C00C3F1200301FA03F13D
:100CB00000F0004302D5494260EB4000B0F5000F60
:100CC00013D3B0F1807F06D340084FEA310102F11F
:100CD0000102FE2A51D2B1F1004F40EBC25008BFD1
:100CE00020F0010040EA03007047490040EB00009B
:100CF000013A28BFB0F5000FEDD2B0FA80FCACF19C
:100D0000080CB2EB0C0200FA0CF0AABF00EBC250C8
:100D100052421843BCBFD0401843704792F0000FB6
:100D200081F4000106BF80F400000132013BB5E709
:100D30004FEA41037FEA226C18BF7FEA236C21D07F
:100D400092EA030F04D092F0000F08BF08467047E4
:100D500090EA010F1CBF0020704712F07F4F04D1B2
:100D6000400028BF40F00040704712F100723CBFC5
:100D700000F50000704700F0004343F0FE4040F4EF
:100D8000000070477FEA226216BF08467FEA2363AD
:100D90000146420206BF5FEA412390EA010F40F498
:100DA000800070474FF0000304E000BF10F00043E4
:100DB00048BF40425FEA000C08BF704743F09643CB
:100DC00001464FF000001CE050EA010208BF7047E6
:100DD0004FF000030AE000BF50EA010208BF70476D
:100DE00011F0004302D5404261EB41015FEA010C82
:100DF00002BF84460146002043F0B64308BFA3F17A
:100E00008053A3F50003BCFA8CF2083AA3EBC2535B
:100E100010DB01FA02FC634400FA02FCC2F120027A
:100E2000BCF1004F20FA02F243EB020008BF20F0B1
:100E30000100704702F1200201FA02FCC2F1200217
:100E400050EA4C0021FA02F243EB020008BF20EA0C
:100E5000DC70704753B94AB9002908BF00281CBF8D
:100E60004FF0FF314FF0FF3000F0BEB9ADF1080C8C
:100E70006DE904CE00F03CF8DDF804E0DDE9022382
:100E800004B0704738B50022002304460D46FFF732
:100E900025FE28B920462946BDE8384000F00AB8AA
:100EA000204605F1004100F005F8404261EB4101A8
:100EB00038BD00BFD0B50C4B002206460F46FFF7E9
:100EC0009BFBFFF749FE0446FFF71CFB074B002284
:100ED000FFF792FB02460B4630463946FFF7D4F93E
:100EE000FFF73AFE2146D0BD0000F03D0000F04182
:100EF0002DE9F047089D8E4604468846002B4AD1CE
:100F00008A42174662D9B2FA82F64EB1C6F1200380
:100F100001FA06F820FA03F3B74043EA0808B440A0
:100F20004FEA174E1FFA87FCB8FBFEF1230C0EFBAD
:100F3000118843EA084301FB0CF29A4209D9FB18D5
:100F400001F1FF3080F0EA809A4240F2E7800239F6
:100F50003B449A1AA3B2B2FBFEF00EFB102243EA06
:100F6000024300FB0CFC9C4509D9FB1800F1FF3241
:100F700080F0D6809C4540F2D3803B44023840EA62
:100F80000140A3EB0C0300211DB1F3400022C5E991
:100F90000032BDE8F0878B4205D90DB1C5E90001EB
:100FA00000210846F5E7B3FA83F1002946D17345DD
:100FB00002D3824200F20581841A6EEB0302012003
:100FC0009046002DE5D0C5E90048E2E7002A00F090
:100FD0009080B2FA82F6002E40F0A4808A1A030CA8
:100FE0004FEA174E80B2BCB20121B2FBFEFC0EFBF1
:100FF0001C2243EA024304FB0CF29A4207D9FB1875
:101000000CF1FF3802D29A4200F2E080C4469B1AEB
:10101000B3FBFEF20EFB123340EA034302FB04F47F
:101020009C4207D9FB1802F1FF3002D29C4200F229
:10103000CA8002461B1B42EA0C40A5E7C1F120060C
:101040008B4022FA06F71F430EFA01F420FA06F34A
:101050002EFA06FE4FEA1749234300FA01F81FFA59
:1010600087FCBEFBF9F01C0C09FB10EE44EA0E44B1
:1010700000FB0CFEA64502FA01F209D93C1900F169
:10108000FF3A80F09C80A64540F2998002383C44AB
:10109000A4EB0E041FFA83FEB4FBF9F309FB13441F
:1010A0004EEA044403FB0CFCA44508D93C1903F1A7
:1010B000FF3E80F08280A4457FD9023B3C4443EA56
:1010C0000040A4EB0C04A0FB02EC64457346E1462F
:1010D00062D35FD05DB1B8EB030264EB090404FA9C
:1010E00006F622FA01F31E43CC40C5E90064002154
:1010F0004FE7B1FBF2FC010C41EA0E4180B240EA3D
:1011000001423B4638463C46B846BE462026B1FB27
:10111000F7F1A2EB080241EA0C4166E7014618E745
:1011200010462CE7C6F120022EFA02F3B740B14078
:1011300020FA02F24FEA174E0A43B3FBFEF8BCB2A4
:101140000EFB1833110C41EA034108FB04F9B040CF
:1011500089454FEA104380B23ED9791808F1FF3C27
:1011600001D289451FD8A1EB0901B1FBFEF909FBAA
:1011700004F80EFB191192B242EA0142424529D20B
:10118000BA1809F1FF31C4D24245C2D2A9F1020115
:101190003A44BEE7F0459DD2BEEB02036CEB070C70
:1011A0000138E14696E7A7EB09094944A8F1020C8A
:1011B000B1FBFEF909FB04F8DBE773467FE7504615
:1011C00066E70846FDE63B44023A33E7ACF1020C21
:1011D0003B441CE749469CE7A1EB0901C446B1FB2F
:1011E000FEF909FB04F8C4E7704700BF80B485B07E
:1011F00000AFF860B9607A603B60094AFB68136031
:10120000084ABB681360084A7B681360074A3B685A
:10121000136000BF1437BD465DF8047B704700BF04
:1012200054060020580600205C06002060060020BE
:1012300080B584B000AFF860B9607A603B60FB684D
:10124000BA681A60FB687A685A60FB6800229A6084
:10125000FB680022DA60FB6800221A61FB683A7EB4
:101260001A75FB6800225A75FB6800229A75FB68A4
:101270000122DA753868FFF745F94FF00002254B77
:10128000FFF7E4FA02460B4610461946FFF784FCC6
:101290000246FB689A61FB684FF4FA729A83FB6816
:1012A00000221A62FB684FF000025A62FB680022BB
:1012B0009A62FB680022DA62FB6800221A63FB680C
:1012C00000225A63FB6800229A63FB680022DA63FB
:1012D000FB684FF000021A64FB684FF000025A648A
:1012E000FB68002283F84820FB684FF00002DA64B4
:1012F000FB684FF000021A65FB6800225A65FB6824
:1013000000229A65FB684FF07E52DA6500BF103705
:10131000BD4680BD0080764080B483B000AF786069
:101320000B46FB707B68FA785A7500BF0C37BD46D8
:101330005DF8047B7047000080B582B000AF786034
:10134000084B1B68984702467B68DA607B68DA685E
:101350007B681A627B681A6A7B68DA6300BF0837A9
:10136000BD4680BD5C06002080B483B000AF7860CD
:101370007B684FF000021A6400BF0C37BD465DF871
:10138000047B704780B582B000AF78600B46FB707D
:101390007B681B6897F903201146184602F0E6FFA8
:1013A00000BF0837BD4680BD80B582B000AF786011
:1013B0007B680222DA757868FFF7BEFF7B681B68DE
:1013C000184603F01DF800BF0837BD4680BD80B544
:1013D00082B000AF78607B680422DA757B681B6896
:1013E000184603F033F800BF0837BD4680BD80B50E
:1013F00082B000AF78607B680222DA757B680022D9
:101400001A617B684FF000021A647B6800225A65FB
:101410007868FFF7A9FF7B689B7D002B02D0786876
:10142000FFF7D5FF00BF0837BD4680BD80B582B04D
:1014300000AF78607B681B68184602F06BFF00BF46
:101440000837BD4680BD0000B0B584B000AF7860FD
:1014500039607B681B689B693A68D31A002BB8BF58
:101460005B42FB607B685B7D002B02D04FF0FF335B
:10147000ABE07B6893F91730032B02D14FF0FF33B9
:10148000A3E07B683A689A627B689A6A7B681B680B
:101490009B699A4200F098807B689A6A7B681B6817
:1014A0009B699A4201DD012201E04FF0FF327B6827
:1014B0001B681A777B689B8B002B09D07B68D3ED68
:1014C000097AB1EE047AF4EEC77AF1EE10FA15D586
:1014D0007B685B6A1846FFF737F802460B463EA169
:1014E000D1E90001FFF7B2F902460B461046194652
:1014F000FFF732FB02467B681A6162E07B6893ED7E
:10150000097A7B68D3ED097A67EE277A17EE900A9D
:10151000FFF71AF804460D467B689B8B1846FFF7C9
:1015200001F802460B46FEF7B1FE02460B46204686
:101530002946FFF78BF902460B4610461946FFF77E
:101540000BFB02467B689A657B689B6D5B00FA68C3
:101550009A4215D97B689A6D7B68DA627B68DA6A91
:10156000FB681A447B689B6D5B00D21A7B681A6328
:101570007B681A6B7B689B6D1A447B685A631DE01D
:10158000FB685A087B68DA627B68DB6AFA6802F0FB
:101590000102002A0CBF01220022D2B21344002B08
:1015A0000CBF01230023DBB21A467B681A637B68F9
:1015B0001A6B7B68DB6A1A447B685A637B6800227B
:1015C0009A637B680322DA75002318461037BD46FC
:1015D000B0BD00BFAFF300800000000080842E414A
:1015E00080B582B000AF786087ED000A7B6893ED2C
:1015F000067AD7ED007A67EE277AFDEEE77A17EEE6
:10160000901A7868FFF720FF034618460837BD4652
:1016100080BD00000000000080B582B000AF78609F
:1016200087ED000A7B6893F91730032B02D14FF046
:10163000FF3319E0D7ED007AF0EEE77A17EE900A63
:10164000FEF782FF02460B469FED091B43EC102B71
:1016500016F0F2FD53EC102B10461946FFF79CFADA
:1016600002467B685A62002318460837BD4680BD93
:10167000DFBC9A785634323F80B582B000AF7860D4
:1016800087ED000AD7ED007AB0EEE77A7B68D3EDFC
:10169000067A67EE277AB0EE670A7868FFF7BCFF34
:1016A000034618460837BD4680BD00000000000014
:1016B00080B582B000AF78600B467B807B6893F981
:1016C0001730032B02D14FF0FF3332E07B687A886A
:1016D0009A837B88002B27D07B689B8B1846FEF76C
:1016E00021FF02460B464FF000004FF08041FFF70C
:1016F000ADF802460B4643EC172BB0EE470AF0EE6E
:10170000670A16F0CBFB51EC100B0DA3D3E90023B5
:10171000FEF772FF02460B4610461946FFF73CFAE9
:1017200002467B68DA6403E07B684FF00002DA640B
:10173000002318460837BD4680BD00BFAFF30080C8
:101740000000000080842E4180B582B000AF786038
:1017500087ED000A7B6893ED067AD7ED007A67EE95
:10176000277AFCEEE77A17EE903A9BB21946786832
:10177000FFF79EFF034618460837BD4680BD80B47C
:1017800083B000AF78607B681B689B6907EE903A76
:10179000B8EEE77A7B68D3ED067AC7EE276AF0EEFB
:1017A000667AB0EE670A0C37BD465DF8047B704779
:1017B000B0B582B000AF786087ED000A7B685B7DD2
:1017C000012B02D04FF0FF33B6E07B683A685A64D1
:1017D0007B68D3ED117AF5EE407AF1EE10FA0CBF8A
:1017E00001230023DAB27B6883F848207B68D3EDBD
:1017F000117AF5EE407AF1EE10FA0BD17B689B8BF3
:10180000002B07D17B6800221A617868FFF7EFFD93
:10181000002391E0D7ED007AF5EEC07AF1EE10FAF0
:1018200001DD012201E04FF0FF327B681B681A776F
:10183000D7ED007AF0EEE77A17EE900AFEF784FE15
:1018400042A3D3E90023FFF749F90346002B14D044
:101850007B681B681B7F5BB21846FEF763FE3BA3E9
:10186000D3E90023FEF7C8FE02460B461046194690
:10187000FFF792F902467B685A647B689B8B002BCA
:1018800025D17B685A6C7B681A647B685B6C184650
:10189000FEF75AFE02460B462EA1D1E90001FEF7E3
:1018A000D5FF02460B46144623F000454FF00002D8
:1018B000254B20462946FEF7E7FC02460B4610461C
:1018C0001946FFF749F902467B681A6130E07B68E8
:1018D000D3ED107AF5EE407AF1EE10FA14D17B6870
:1018E0005B6C1846FEF730FE15A3D3E90023FFF723
:1018F00013F90346002B01D0012201E04FF0FF3223
:101900007B681B681A7713E07B681B6C1846FEF730
:101910001BFE0BA3D3E90023FFF7FEF80346002BC1
:1019200001D0012201E04FF0FF327B681B681A777B
:101930007B680322DA75002318460837BD46B0BD20
:1019400011EA2D819997713D00001440DFBC9A780F
:101950005634323F0000000080842E4180B582B0B2
:1019600000AF786087ED000A7B6893ED067AD7EDCB
:10197000007A67EE277AB0EE670A7868FFF718FFFB
:10198000034618460837BD4680BD000080B485B0C8
:1019900000AF78600C4B1B680C4AA2FB03239A0C27
:1019A0007B6802FB03F3FB60094B00221A6000BF57
:1019B000074B1B68FA689A42FAD800BF00BF143779
:1019C000BD465DF8047B70474004002083DE1B4366
:1019D000041000E080B485B000AFF860B9607A60B0
:1019E000FB687A68DA60FB68BA681A60FB681B6893
:1019F000002B02D14FF0FF3300E0012318461437CB
:101A0000BD465DF8047B704780B485B000AF786058
:101A10000023FB6008E07B681A68FB68134400221F
:101A20001A70FB680133FB607B68DB68FA689A42D6
:101A3000F1D37B6801229A607B6800225A600423FC
:101A400018461437BD465DF8047B704780B483B0F8
:101A500000AF78607B689A687B685B689A420FD2B7
:101A60007B68DB689AB27B685B689BB2D31A9AB2D8
:101A70007B689B689BB213449BB2013B9BB209E01D
:101A80007B689B689AB27B685B689BB2D31A9BB2F7
:101A9000013B9BB218460C37BD465DF8047B70478E
:101AA00080B582B000AF78607868FFF7CFFF03465B
:101AB000002B01D0002300E0022318460837BD4662
:101AC00080BD90B583B000AF78607B68DB689CB266
:101AD0007868FFF7BBFF0346E31A9BB2023B9BB259
:101AE00018460C37BD4690BD80B582B000AF786017
:101AF0007868FFF7E6FF0346002B01D1032300E0DF
:101B0000002318460837BD4680BD80B483B000AFBF
:101B100078600B46FB707B689A687B68DB689A424A
:101B200002D37B6800229A607B681A687B689B6896
:101B30001344FA781A707B689B685A1C7B689A6019
:101B4000002318460C37BD465DF8047B704780B40F
:101B500083B000AF786039603B68002B02D14FF052
:101B6000FF3317E07B685B685A1C7B685A607B68B0
:101B70005A687B68DB689A4202D37B6800225A600D
:101B80007B681A687B685B68134493F900203B68A4
:101B90001A70002318460C37BD465DF8047B704769
:101BA00080B485B000AFF860B9607A60FB687A688D
:101BB000DA60FB68BA681A60FB681B68002B02D108
:101BC0004FF0FF3300E0012318461437BD465DF89F
:101BD000047B704780B483B000AF78607B689A68FC
:101BE0007B685B689A420FD27B68DB689AB27B683D
:101BF0005B689BB2D31A9AB27B689B689BB2134412
:101C00009BB2013B9BB209E07B689B689AB27B6800
:101C10005B689BB2D31A9BB2013B9BB218460C3750
:101C2000BD465DF8047B704780B582B000AF786038
:101C30007868FFF7CFFF0346002B01D0002300E0B8
:101C4000022318460837BD4680BD80B582B000AF7C
:101C5000786039603B68002B02D14FF0FF3319E008
:101C60007B685B685A1C7B685A607B685A687B6833
:101C7000DB689A4202D37B6800225A607B681A684C
:101C80007B685B689B0013441B681946386814F036
:101C900024F9002318460837BD4680BD80B582B0C0
:101CA00000AF78607B680D4A1A607B6802221A7167
:101CB0007B68FF225A717B681B68184600F002FAA5
:101CC0004FF4807206490748FFF76AFF054BF3227D
:101CD0009A6000BF0837BD4680BD00BF6406002083
:101CE000000000204007002080B5A2B000AF78605F
:101CF0007B6893F90430022B40F04A8107F1080316
:101D000080220021184614F03AF807F1080319461A
:101D1000A348FFF79AFF3B7A472B40F0358107F144
:101D200008035821184614F032F8034601331846C8
:101D300012F0EEFFB0EE407AF0EE607A994B83ED50
:101D4000007B07F108035921184614F020F80346D8
:101D50000133184612F0DCFFB0EE407AF0EE607A04
:101D6000914B83ED007BBB7A302B4CD18D4BD3E96B
:101D7000000189A3D3E90023FEF768FD02460B4664
:101D800043EC172BB0EE470AF0EE670A16F078FB2B
:101D900053EC102B10461946FFF774F802460B4619
:101DA0008249C1E90023804BD3E900017AA3D3E93A
:101DB0000023FEF74BFD02460B4643EC172BB0EE1B
:101DC000470AF0EE670A16F05BFB53EC102B104647
:101DD0001946FFF757F802460B467549C1E900233B
:101DE000704BD3E900237349C1E900236E4BD3E95B
:101DF00000237149C1E900237B6800225A717B6886
:101E000001221A71C5E0BB7A312B1AD1654B93EDD3
:101E1000007B654B93ED006BB0EE461AF0EE661A50
:101E2000B0EE470AF0EE670A644800F061F9034635
:101E3000002B06D17B6801225A717B6801221A713E
:101E4000A7E0BB7A322B4DD107F108034921184690
:101E500013F09DFF03460133184612F059FFB0EE10
:101E6000407AF0EE607A564B83ED007B07F1080371
:101E70004A21184613F08BFF03460133184612F02F
:101E800047FFB0EE407AF0EE607A4E4B83ED007B78
:101E9000444B93ED007B444B93ED006B484B93ED2B
:101EA000005B484B93ED004B0121B0EE443AF0EE5D
:101EB000643AB0EE452AF0EE652AB0EE461AF0EE2E
:101EC000661AB0EE470AF0EE670A3F4800F0B4FA2F
:101ED0000346002B06D17B6802225A717B680122DF
:101EE0001A7156E0BB7A332B52D107F1080349210E
:101EF000184613F04CFF03460133184612F008FF52
:101F0000B0EE407AF0EE607A2D4B83ED007B07F166
:101F100008034A21184613F03AFF034601331846D6
:101F200012F0F6FEB0EE407AF0EE607A254B83EDCB
:101F3000007B1C4B93ED007B1B4B93ED006B204B08
:101F400093ED005B1F4B93ED004B4FF0FF31B0EE74
:101F5000443AF0EE643AB0EE452AF0EE652AB0EE6F
:101F6000461AF0EE661AB0EE470AF0EE670A164817
:101F700000F062FA0346002B0AD17B6803225A71F3
:101F80007B6801221A7104E07B6802221A7100E06A
:101F900000BF8837BD4680BD000000A09999693F09
:101FA000400700206806002070060020500700202F
:101FB00058070020600700206807002088060020DE
:101FC0007806002080060020E806002080B584B056
:101FD00002AF78607B6893F90430012B4CD17B68A9
:101FE00093F905300133042B46D801A252F823F0AF
:101FF000052000080D2000081520000833200008E7
:10200000512000087B6802221A7136E07B680222A8
:102010001A7132E0012300930023194A19491A4822
:1020200000F002FC0346002B21D17B6802221A71CA
:102030001DE0012300930023144A1249124800F0C6
:10204000D7FD0346002B14D17B6802221A7110E0E1
:102050000123009300230D4A0A490B4800F0C8FDF4
:102060000346002B07D17B6802221A7103E000BFF0
:1020700002E000BF00E000BF00BF0837BD4680BDE2
:1020800088060020701B002064060020E80600205F
:1020900080B483B000AF78607B6893F90430022B82
:1020A00009D17B681B6893F90030012B03D17B6851
:1020B00000221A7100BF00BF0C37BD465DF8047BDB
:1020C0007047000080B582B000AF78607B68012265
:1020D0001A704FF4A05204490448FFF77BFC00BF7C
:1020E0000837BD4680BD00BF70070020701B002070
:1020F0002DE9B04F88B000AFF86187ED040B87ED94
:10210000021B954BD3E90023F969C1E90023934BE6
:10211000D3E90023F969C1E90223F969D7E9042366
:10212000C1E90423F969D7E90223C1E906238A4BEF
:10213000D3E90001D7E90423FEF7A6F802460B46CF
:102140003A6023F000437B6081A3D3E90023D7E901
:102150000001FEF7CDFC0346002B18D07F4BD3E9DE
:102160000001D7E90223FEF78FF802460B4692469C
:1021700023F0004B76A3D3E9002350465946FEF7DF
:10218000B7FC0346002B02D04FF0FF3344E1FB695C
:10219000D3E90401FB69D3E90023FEF775F8024691
:1021A0000B46F969C1E90823FB69D3E90601FB691C
:1021B000D3E90223FEF768F802460B46F969C1E944
:1021C0000A23674BD3E9002310461946FEF704FEA5
:1021D00007EE100ADFED637A67EE277A17EE900AB2
:1021E000FEF7B2F9FB69D3E90023FEF74DF802468A
:1021F0000B46F969C1E90C235B4BD3E90023104678
:102200001946FEF7E9FD07EE100ADFED567A67EE94
:10221000277A17EE900AFEF797F9FB69D3E90223B4
:10222000FEF732F802460B46F969C1E90E23FB6955
:10223000D3E90801FB69D3E90E23FEF7DDF9024675
:102240000B4692469B46FB69D3E90A01FB69D3E939
:102250000C23FEF7D1F902460B4650465946FEF7CD
:1022600013F802460B46F969C1E91023FB69D3E96B
:1022700008014FF000024FF00003FEF743FC034655
:10228000002B18D0FB69D3E90A014FF000024FF090
:102290000003FEF741FC0346002B0CD0FB69012232
:1022A00083F84820FB69012283F84920FB69012259
:1022B00083F858207EE0FB69D3E90A014FF0000261
:1022C0004FF00003FEF714FC0346002B18D0FB6907
:1022D000D3E908014FF000024FF00003FEF71CFCA9
:1022E0000346002B0CD0FB69012283F84820FB69D0
:1022F000FF2283F84920FB69FF2283F8582059E028
:10230000FB69D3E908014FF000024FF00003FEF72C
:10231000EFFB0346002B29D0FB69D3E90A014FF0FC
:1023200000024FF00003FEF7D9FB0346002B1DD03F
:10233000FB69FF2283F84820FB69FF2283F84920CC
:10234000FB69012283F8582034E000BFAFF300801E
:10235000000000A09999693F6007002068070020ED
:1023600050070020CDCC4C3B58070020FB69D3E937
:102370000A014FF000024FF00003FEF7C3FB0346D3
:10238000002B17D0FB69D3E908014FF000024FF092
:102390000003FEF7A3FB0346002B0BD0FB69FF22D3
:1023A00083F84820FB69012283F84920FB69FF225A
:1023B00083F85820FB69D3E90823904623F00049AD
:1023C00019A3D3E9002340464946FEF791FB034693
:1023D000002B06D0F96916A3D3E90023C1E9142321
:1023E00019E0FB69D3E90A01FB69D3E90823FEF789
:1023F0002DFA02460B4643EC172BB0EE470AF0EEDF
:10240000670A15F079FD53EC102B144623F00045B4
:10241000FB69C3E91445002318462037BD46BDE8D3
:10242000B08F00BFAFF30080000000A09999693F12
:10243000182D4454FB21F93F2DE9B0438AB000AF79
:10244000786287ED060B87ED041B87ED022B87ED85
:10245000003B0B4687F82330A34BD3E90023796A6E
:10246000C1E90023A14BD3E90023796AC1E9022322
:10247000796AD7E90623C1E90423796AD7E90423F5
:10248000C1E906237B6AD3E90001D7E90223FDF7FE
:10249000FDFE02460B46796AC1E908237B6AD3E94F
:1024A0000201D7E90023FDF7F1FE02460B46796AE7
:1024B000C1E90A238C4BD3E90001D7E90623FDF7D4
:1024C000E3FE02460B46904623F0004984A3D3E97D
:1024D000002340464946FEF70BFB0346002B18D06D
:1024E000824BD3E90001D7E90423FDF7CDFE024674
:1024F0000B46144623F0004579A3D3E90023204678
:102500002946FEF7F5FA0346002B02D04FF0FF33C1
:1025100085E1774BD3E9002310461946FEF75CFCB2
:1025200007EE100ADFED737A67EE277A17EE900A4E
:10253000FEF70AF87B6AD3E90823FDF7A5FE0246F9
:102540000B46796AC1E90C236B4BD3E90023104693
:102550001946FEF741FC07EE100ADFED667A67EEDA
:10256000277A17EE900AFDF7EFFF7B6AD3E90A237B
:10257000FDF78AFE02460B46796AC1E90E237B6AA3
:10258000D3E900017B6AD3E90823FDF77DFE02460B
:102590000B46796AC1E900237B6AD3E902017B6AB1
:1025A000D3E90A23FDF770FE02460B46796AC1E9BA
:1025B00002237B6AD3E904017B6AD3E90823FDF790
:1025C00063FE02460B46796AC1E904237B6AD3E9BC
:1025D00006017B6AD3E90A23FDF756FE02460B4645
:1025E000796AC1E90623D7E90223D7E90201FEF798
:1025F00003F802460B4614461D46D7E90023D7E9E7
:102600000001FDF7F9FF02460B4620462946FDF77B
:102610003DFE02460B46796AC1E910237B6AD3E985
:102620000C017B6AD3E90C23FDF7E6FF02460B465B
:1026300014461D467B6AD3E90E017B6AD3E90E235B
:10264000FDF7DAFF02460B4620462946FDF71EFE3F
:1026500002460B46104619467B6AD3E91023FDF764
:1026600013FE02460B46796AC1E912237B6A97F88A
:10267000232083F853207B6AD3E90C014FF000023A
:102680004FF00003FEF73EFA0346002B36D07B6A7C
:10269000D3E90E014FF000024FF00003FEF73CFAC1
:1026A0000346002B2AD07B6A93F953207B6A83F878
:1026B00050207B6A93F95330DBB25B42DBB25AB2F3
:1026C0007B6A83F851207B6A93F95330DBB25B421B
:1026D000DBB25AB27B6A83F852209FE0AFF30080EE
:1026E000000000A09999693F60070020680700205A
:1026F00050070020CDCC4C3B580700207B6AD3E923
:102700000E014FF000024FF00003FEF7F1F903460F
:10271000002B26D07B6AD3E90C014FF000024FF06A
:102720000003FEF7F9F90346002B1AD07B6A93F9F0
:102730005330DBB25B42DBB25AB27B6A83F8502083
:102740007B6A93F95330DBB25B42DBB25AB27B6AED
:1027500083F851207B6A93F953207B6A83F85220D7
:102760005CE07B6AD3E90C014FF000024FF00003FC
:10277000FEF7BEF90346002B26D07B6AD3E90E0193
:102780004FF000024FF00003FEF7A8F90346002BBC
:102790001AD07B6A93F95330DBB25B42DBB25AB298
:1027A0007B6A83F850207B6A93F953207B6A83F815
:1027B00051207B6A93F95330DBB25B42DBB25AB2F1
:1027C0007B6A83F8522029E07B6AD3E90E014FF03F
:1027D00000024FF00003FEF795F90346002B1DD0D1
:1027E0007B6AD3E90C014FF000024FF00003FEF7C3
:1027F00075F90346002B11D07B6A93F953207B6A4D
:1028000083F850207B6A93F953207B6A83F8512028
:102810007B6A93F953207B6A83F852200023184681
:102820002837BD46BDE8B0832DE9B04F94B000AF66
:10283000F864B9647A6487F84330FB6C93F900302C
:10284000012B40F0C281B86CFFF74EF90346002B14
:1028500040F0BB81FA6C022313707B6CD3E9102328
:10286000144623F0004580A3D3E9002320462946DF
:10287000FEF73EF90346002B00F08F807B6CD3E916
:1028800014017BA3D3E90023FEF728F90346002BAC
:1028900041D07B6CD3E90C457B6C93F9483007EE53
:1028A000903AF8EEE77A9FED747A67EE877A17EE42
:1028B000900AFDF749FE02460B4620462946FDF7E1
:1028C000E5FC02460B46796CC1E90C237B6C93F95D
:1028D00048305BB2DA179A469346614BD3E900233E
:1028E0001AEB0201B9634BEB0303FB635C4BD7E9C3
:1028F0000E12C3E900127B6C93F9482097F843301D
:102900001146184600F03AFC03465BB21946B86C13
:10291000FFF7FBF8F6E07B6CD3E90E457B6C93F98F
:10292000493007EE903AF8EEE77A9FED537A67EE7A
:10293000877A17EE900AFDF707FE02460B462046FF
:102940002946FDF7A3FC02460B46796CC1E90E232C
:102950007B6C93F949305BB2DA1798469146414B4C
:10296000D3E9002318EB0201396349EB03037B63CE
:102970003C4BD7E90C12C3E900127B6C93F9492058
:1029800097F870301146184600F0F8FB03465BB22A
:102990001946B86CFFF7B9F8B4E07B6CD3E9104581
:1029A0007B6C93F958301846FDF7BCFD02460B4688
:1029B00020462946FDF720FE02460B4610461946E2
:1029C0004FF000024FF00003FEF7A6F80346002B7D
:1029D00054D07B6CD3E90C457B6C93F9483007EEFF
:1029E000903AF8EEE77A9FED247A67EE877A17EE51
:1029F000900AFDF7A9FD02460B4620462946FDF741
:102A000045FC02460B46796CC1E90C237B6C93F9BB
:102A100048305BB2DA17BB62FA62114BD3E900238C
:102A2000D7E90A45214689183962294643EB010155
:102A300079620B4BD7E90812C3E900127B6C93F95A
:102A4000482097F843301146184600F097FB03469C
:102A50005BB21946B86CFFF758F853E0AFF300804B
:102A6000500700205807002095D626E80B2E113E6F
:102A7000182D4454FB21E93FCDCC4C3B7B6CD3E972
:102A80000E457B6C93F9493007EE903AF8EEE77A01
:102A90001FED077A67EE877A17EE900AFDF754FD6F
:102AA00002460B4620462946FDF7F0FB02460B4640
:102AB000796CC1E90E237B6C93F949305BB2DA176C
:102AC000BB61FA61464BD3E90023D7E906452146AD
:102AD00089183961294643EB01017961404BD7E9F7
:102AE0000412C3E900127B6C93F9492097F8703007
:102AF0001146184600F042FB03465BB21946B86C1B
:102B0000FFF703F87B6CD3E908017B6CD3E90E2354
:102B1000FDF772FD02460B4614461D467B6CD3E959
:102B20000A017B6CD3E90C23FDF766FD02460B46D8
:102B300020462946FDF7A8FB02460B46796CC1E901
:102B400010237B6CD3E90C017B6CD3E90823FDF7E0
:102B50009BFB02460B46BA6023F00043FB601EA3BA
:102B6000D3E90023D7E90201FDF7B8FF0346002BA4
:102B700028D07B6CD3E90E017B6CD3E90A23FDF7E7
:102B800083FB02460B463A6023F000437B6012A3AE
:102B9000D3E90023D7E90001FDF7A0FF0346002B8E
:102BA00010D07B6CD3E904230E49C1E900237B6C70
:102BB000D3E906230C49C1E90023FB6C01221A70FA
:102BC000002303E0FB6C01221A70022318465037E1
:102BD000BD46BDE8B08F00BF000000A09999693FD5
:102BE0005807002060070020680700200000000050
:102BF0002DE9B04F98B000AFF865B9657A6587F8F0
:102C00005330FB6D93F90030012B40F0B082B86D6A
:102C1000FEF76AFF0346002B40F0A982FA6D0223FB
:102C200013707B6D93F95230B3F1FF3F40F09A80FF
:102C30007B6DD3E912014FF000024FF00003FDF766
:102C400061FF0346002B46D07B6DD3E90E457B6DBB
:102C500093F9513007EE903AF8EEE77A9FED6B7AF0
:102C600067EE877A17EE900AFDF76EFC02460B4678
:102C700020462946FDF70AFB02460B461046194638
:102C80007B6DC3E90E017B6D93F951305BB2DA17AE
:102C9000BB64FA645B4BD3E90023D7E912452146B4
:102CA00089183964294643EB01017964554BD7E90A
:102CB0001012C3E900127B6D93F9512097F8803010
:102CC0001146184600F05AFA03465BB21946B86D31
:102CD000FEF71BFFDFE07B6DD3E90C457B6D93F9BD
:102CE000503007EE903AF8EEE77A9FED487A67EEBB
:102CF000877A17EE900AFDF727FC02460B4620461E
:102D00002946FDF7C3FA02460B46104619467B6D6D
:102D1000C3E90C017B6D93F950305BB2DA17BB63EA
:102D2000FA63394BD3E90023D7E90E4521468918C8
:102D30003963294643EB01017963334BD7E90C1220
:102D4000C3E900127B6D93F9502097F85330114678
:102D5000184600F013FA03465BB21946B86DFEF749
:102D6000D4FE98E07B6DD3E912014FF000024FF0E2
:102D70000003FDF7C7FE0346002B49D07B6DD3E966
:102D80000C457B6D93F9503007EE903AF8EEE77AF8
:102D90009FED1E7A67EE877A17EE900AFDF7D4FB57
:102DA00002460B4620462946FDF770FA02460B46BE
:102DB000104619467B6DC3E90C017B6D93F95030C9
:102DC0005BB2DA179A4693460F4BD3E900231AEB0E
:102DD0000201B9624BEB0303FB620B4BD7E90A120A
:102DE000C3E900127B6D93F9502097F853301146D8
:102DF000184600F0C3F903465BB21946B86DFEF7FA
:102E000084FE48E05807002050070020CDCC4C3B02
:102E10007B6DD3E90E457B6D93F9513007EE903A07
:102E2000F8EEE77A1FED077A67EE877A17EE900AD9
:102E3000FDF78AFB02460B4620462946FDF726FA97
:102E400002460B46104619467B6DC3E90E017B6DA9
:102E500093F951305BB2DA1798469146AA4BD3E901
:102E6000002318EB0201396249EB03037B62A64B96
:102E7000D7E90812C3E900127B6D93F9512097F846
:102E800080301146184600F079F903465BB21946C6
:102E9000B86DFEF73AFE7B6DD3E90C017B6DD3E98B
:102EA0000C23FDF7A9FB02460B4614461D467B6D1D
:102EB000D3E90E017B6DD3E90E23FDF79DFB02469E
:102EC0000B4620462946FDF7E1F902460B4610461F
:102ED00019467B6DD3E91023FDF7D6F902460B4660
:102EE000796DC1E912237B6DD3E90C017B6DD3E9C8
:102EF0000423FDF7C9F902460B46BA6123F00043EB
:102F0000FB617FA3D3E90023D7E90601FDF7E6FDC6
:102F10000346002B36D07B6DD3E90E017B6DD3E9E0
:102F20000623FDF7B1F902460B463A6123F0004350
:102F30007B6173A3D3E90023D7E90401FDF7CEFD3C
:102F40000346002B1ED07B6DD3E904017B6DD3E9D2
:102F50000823FDF79BF902460B466C49C1E90023A3
:102F60007B6DD3E906017B6DD3E90A23FDF78EF96A
:102F700002460B466649C1E90023FB6D01221A7027
:102F80000023F5E07B6DD3E90C23BA6023F0004306
:102F9000FB605BA3D3E90023D7E90201FDF7A8FD9D
:102FA0000346002B11D17B6DD3E90E233A6023F049
:102FB00000437B6052A3D3E90023D7E90001FDF76A
:102FC00097FD0346002B00F0CF807B6DD3E90C0109
:102FD0004FF000024FF00003FDF794FD0346002B75
:102FE00026D07B6DD3E90E014FF000024FF00003B5
:102FF000FDF792FD0346002B1AD07B6D93F9532009
:103000007B6D83F850207B6D93F95330DBB25B42CC
:10301000DBB25AB27B6D83F851207B6D93F953304C
:10302000DBB25B42DBB25AB27B6D83F852209BE08D
:103030007B6DD3E90E014FF000024FF00003FDF766
:1030400057FD0346002B26D07B6DD3E90C014FF0D2
:1030500000024FF00003FDF75FFD0346002B1AD07E
:103060007B6D93F95330DBB25B42DBB25AB27B6DBE
:1030700083F850207B6D93F95330DBB25B42DBB2B7
:103080005AB27B6D83F851207B6D93F953207B6D91
:1030900083F8522068E07B6DD3E90C014FF0000209
:1030A0004FF00003FDF724FD0346002B32D07B6D6B
:1030B000D3E90E014FF000024FF00003FDF70EFDC3
:1030C0000346002B26D07B6D93F95330DBB25B4275
:1030D000DBB25AB27B6D83F850207B6D93F953209D
:1030E0007B6D83F851207B6D93F95330DBB25B42EB
:1030F000DBB25AB27B6D83F8522035E0AFF300802B
:10310000000000A09999693F58070020600700203F
:10311000680700207B6DD3E90E014FF000024FF0ED
:103120000003FDF7EFFC0346002B1DD07B6DD3E9B8
:103130000C014FF000024FF00003FDF7CFFC0346F7
:10314000002B11D07B6D93F953207B6D83F85020B9
:103150007B6D93F953207B6D83F851207B6D93F940
:1031600053207B6D83F85220FB6D01221A700223DD
:1031700018466037BD46BDE8B08F00BF80B485B04B
:1031800000AF03460A46FB711346BB710023FB7375
:1031900097F90630012B09D1FB795B00012202FA75
:1031A00003F35AB2FB7B1343FB730DE097F9063030
:1031B000B3F1FF3F08D1FB795B00032202FA03F36E
:1031C0005AB2FB7B1343FB73FB7B18461437BD4697
:1031D0005DF8047B7047000080B582B002AF01F05B
:1031E00099FE00F0E3F800F0D7FB00F049F900F099
:1031F00099F900F0CBF900F0FDF900F0FDFA00F0CC
:1032000049FB00F09BFB00F023FA00F06DFB06F099
:10321000B7FB00F0A5FA00F051FA00F0B9FE504BF0
:103220001B68184601F036F84E4B18684E4B19686B
:103230004E4B1A684E4B1B68FDF7D8FF4D494E4860
:1032400001F038F84D494E4801F034F8002300935E
:103250004FF4C8634B4A48494B48FDF7E9FF002348
:1032600000934FF4C863494A45494948FDF7E0FFD8
:10327000484800F041FF3D4B1B68184600F02CFF0A
:103280004548FEF70BFD00223F49424800F0F0FFA1
:1032900001223F493F4800F0EBFF00F0CBFC3A48E9
:1032A000FEF782F83A48FEF77FF8374B1B68012299
:1032B000DA77384B394A1A61364B1B69354AD36085
:1032C000344B1B691846FDF73FF902460B4622A115
:1032D000D1E90001FDF7BAFA02460B46104619463D
:1032E000FDF73AFC03462B4A53622D4B1B78002B0B
:1032F0002FD02C48FEF798FC0346002B02D126481D
:10330000FEF7F2FC2448FEF761FE2748FEF7ECFBCF
:103310000346032B02D11F4B03229A762248FEF765
:10332000BFFB0346002B02D11A4800F035FF1D48B1
:10333000FEF77AFC0346022B0BD11B48FEF7B0FBCD
:103340000346022B05D11448FEF7A2FE144B0022BF
:103350001A7006F055FCC8E70000000080842E417A
:10336000CC030020D0030020D4030020D803002089
:10337000DC030020E0030020FC220020F8030020F2
:103380001C230020100400203C23002028040020DF
:103390009C230020FC230020A424002000409C4506
:1033A000AC24002040070020701B002080B594B0A2
:1033B00000AF07F1200330220021184612F0DFFC95
:1033C00007F10C0300221A605A609A60DA601A61F1
:1033D0000023BB60284B1B6C274A43F080531364C7
:1033E000254B1B6C03F08053BB60BB6800237B60E4
:1033F000224B1B68214A43F4804313601F4B1B6818
:1034000003F480437B607B6801233B624FF480338D
:103410007B620223BB634FF48003FB6304233B64A2
:10342000A8237B640223BB640723FB6407F120030A
:10343000184604F047F80346002B01D000F0A2FD27
:103440000F23FB6002233B6100237B614FF4A053F9
:10345000BB614FF48053FB6107F10C030521184653
:1034600004F0A8FA0346002B01D000F08BFD00BF4A
:103470005037BD4680BD00BF00380240007000409C
:1034800080B584B000AF3B4600221A605A609A6053
:10349000DA60214B214A1A601F4B4FF480325A6088
:1034A0001D4B00229A601C4B00221A611A4B00220D
:1034B0001A76194B002283F82020174B0022DA627B
:1034C000154B174A9A62144B0022DA60124B012204
:1034D000DA61114B002283F830200F4B01225A6130
:1034E0000D4801F0ADFD0346002B01D000F04AFD70
:1034F00000233B6001237B600023BB603B461946F1
:10350000054801F0E1FD0346002B01D000F03AFD33
:1035100000BF1037BD4680BD801B00200020014049
:103520000100000F80B500AF164B174A1A60154B0B
:1035300010225A60134B00229A60124B0022DA606C
:10354000104B00221A610F4B00225A610D4B0022D2
:103550001A760C4B00225A760A4B00229A76094BB7
:103560000022DA76074B00221A77064B00225A77A0
:10357000044801F0C7FF0346002B01D000F002FD14
:1035800000BF80BDC81B00200064004080B582B031
:1035900000AF3B4600221A605A60144B144A1A606E
:1035A000124802F0BCF90346002B01D000F0EAFCFF
:1035B00000233B6000237B603B46002219460B48FA
:1035C00002F0CFF90346002B01D000F0DBFC3B46B4
:1035D00010221946054802F0C4F90346002B01D019
:1035E00000F0D0FC00BF0837BD4680BDF01B0020B6
:1035F0000074004080B500AF124B134A1A60114BA3
:10360000124A5A600F4B00229A600E4B0022DA6079
:103610000C4B4FF480421A610A4B00225A61094B4D
:1036200000229A61074B0022DA61064B00221A62DF
:10363000044803F0F3FC0346002B01D000F0A2FC89
:1036400000BF80BD041C002000540040A086010083
:1036500080B500AF174B184A1A60164B4FF48272B0
:103660005A60144B00229A60124B0022DA60114B10
:1036700000221A610F4B00225A610E4B4FF4007268
:103680009A610C4B0022DA610A4B00221A62094B44
:1036900000225A62074B00229A62064B0A22DA6223
:1036A000044804F0A7FB0346002B01D000F06AFC9D
:1036B00000BF80BD581C0020003C004080B586B093
:1036C00000AF07F1080300221A605A609A60DA60BE
:1036D0003B4600221A605A601F4B204A1A601E4B5C
:1036E00040F28F625A601C4B00229A601A4B4CF2D7
:1036F0004F32DA60184B00221A61174B00225A61D0
:10370000154B00229A61144804F0FDFB0346002B80
:1037100001D000F037FC4FF48053BB6007F1080381
:1037200019460D4804F0E8FE0346002B01D000F0D6
:1037300029FC20233B6000237B603B46194606485A
:1037400005F0CAFA0346002B01D000F01BFC00BFB5
:103750001837BD4680BD00BFB01C002000000140EE
:1037600080B586B000AF07F1080300221A605A60E6
:103770009A60DA603B4600221A605A601D4B4FF097
:1037800080421A601B4B53225A601A4B00229A60E7
:10379000184B4FF0FF32DA60164B00221A61154BBE
:1037A00000229A61134804F0AEFB0346002B01D0BF
:1037B00000F0E8FB4FF48053BB6007F108031946A3
:1037C0000C4804F099FE0346002B01D000F0DAFB10
:1037D00000233B6000237B603B461946054805F00B
:1037E0007BFA0346002B01D000F0CCFB00BF18375A
:1037F000BD4680BDF81C002080B588B000AF3B1DE1
:1038000000221A605A609A60DA601A615A619A61FD
:103810001E4B1F4A1A601D4B00225A601B4B002290
:103820009A601A4B4FF6FF72DA60184B00221A6149
:10383000164B00229A61154804F065FB0346002BE5
:1038400001D000F09FFB114804F04BFC0346002B15
:1038500001D000F097FB60237B600023BB60002356
:10386000FB6000237B613B1D00221946074804F0E2
:1038700081FD0346002B01D000F084FB034800F0DB
:10388000EDFF00BF2037BD4680BD00BF401D0020BA
:10389000001C004080B500AF114B124A1A60104B5B
:1038A0004FF4E1325A600E4B00229A600C4B00221A
:1038B000DA600B4B00221A61094B0C225A61084B4B
:1038C00000229A61064B0022DA61054805F094FA5D
:1038D0000346002B01D000F055FB00BF80BD00BFA8
:1038E000881D00200010014080B500AF114B124A26
:1038F0001A60104B4FF4E1325A600E4B00229A606E
:103900000C4B0022DA600B4B00221A61094B0C228F
:103910005A61084B00229A61064B0022DA61054881
:1039200005F06AFA0346002B01D000F02BFB00BF24
:1039300080BD00BFD01D00200048004080B500AF12
:10394000144B4FF0A0421A60124B04221A71114B13
:103950000222DA710F4B00229A710E4B02225A7228
:103960000C4B00229A720B4B0022DA72094B002298
:103970001A73084B00229A73064B0022DA7305482B
:1039800003F090FC0346002B01D000F0FBFA00BFCF
:1039900080BD00BF181E002080B58CB000AF07F1BD
:1039A0001C0300221A605A609A60DA601A610023D0
:1039B000BB619A4B1B6B994A43F010031363974BFF
:1039C0001B6B03F01003BB61BB6900237B61934B4E
:1039D0001B6B924A43F004031363904B1B6B03F081
:1039E00004037B617B6900233B618C4B1B6B8B4A1F
:1039F00043F080031363894B1B6B03F080033B612F
:103A00003B690023FB60854B1B6B844A43F0010339
:103A10001363824B1B6B03F00103FB60FB68002305
:103A2000BB607E4B1B6B7D4A43F0020313637B4BF1
:103A30001B6B03F00203BB60BB6800237B60774B0A
:103A40001B6B764A43F008031363744B1B6B03F044
:103A500008037B607B6800224FF68871704803F092
:103A6000A9FA00224EF280016E4803F0A3FA002268
:103A70004CF213716C4803F09DFA00224FF401419F
:103A80006A4803F097FA00220821694803F092FA85
:103A90004523FB6100233B6200237B6207F11C038B
:103AA00019465F4803F0EAF80823FB6101233B62F3
:103AB00000237B620023BB6207F11C0319465848B0
:103AC00003F0DCF83223FB614FF488133B620023E0
:103AD0007B6207F11C031946514803F0CFF84FF4FD
:103AE0006043FB6101233B6200237B620023BB62D6
:103AF00007F11C0319464B4803F0C0F840F24D3360
:103B0000FB614FF488133B6200237B6207F11C03C7
:103B10001946444803F0B2F84CF21343FB61012309
:103B20003B6200237B620323BB6207F11C0319463F
:103B30003D4803F0A3F84FF68073FB6101233B621D
:103B400000237B620323BB6207F11C031946344840
:103B500003F094F84FF68043FB614FF488133B6207
:103B600000237B6207F11C031946314803F086F8F5
:103B70008023FB6101233B6200237B620323BB6242
:103B800007F11C031946274803F078F84FF4014366
:103B9000FB6101233B6200237B620023BB6207F1D0
:103BA0001C031946214803F069F87423FB610023C4
:103BB0003B6200237B6207F11C0319461C4803F09B
:103BC0005DF80823FB6101233B6200237B62002335
:103BD000BB6207F11C031946154803F04FF8202378
:103BE000FB6100233B6200237B6207F11C03194643
:103BF0000D4803F043F84FF44073FB6101233B622F
:103C000000237B620023BB6207F11C0319460648B0
:103C100003F034F800BF3037BD4680BD00380240A5
:103C20000010024000080240000402400000024070
:103C3000000C024080B500AF024804F0B3F900BFA9
:103C400080BD00BFF81C002080B500AF024804F022
:103C500019FA00BF80BD00BFF81C002080B400AF7F
:103C60004FF0804300225A6200BFBD465DF8047BDE
:103C7000704780B400AF4FF080435B6A1846BD4682
:103C80005DF8047B7047000090B5ADF5437D00AF53
:103C9000AA4B1B78352B0CD1A84B5B78352B08D160
:103CA000A74B01221A7080220021A44812F067F865
:103CB00040E1A24B1B78312B15D1A04B5B78372B01
:103CC00011D1A048FDF7A0FE9F4B00225A609E4BE9
:103CD000F3229A609D4B02221A718022002197489C
:103CE00012F04DF826E1954B1B78532B40F0E980FC
:103CF000924B5B78522B34D1904B9B784D2B30D12B
:103D00008E4BDB78562B0BD1914B1A683B46914971
:103D1000184611F0A5FF01218F48FDF7FDFA16E0C6
:103D2000864BDB78502B0BD1894B1A683B468B496D
:103D3000184611F095FF00218748FDF7EDFA06E0DF
:103D4000834B1A683B468649184611F089FF3B466B
:103D5000184600F07FF980220021784812F00FF811
:103D6000E8E0764B5B78412B24D10A2200217D4884
:103D700011F098FE0346A7F80033B7F8003307EEBA
:103D8000903AF8EE677AB0EE670A7348FDF7DCFC0C
:103D90006F4B1A68B7F800333846734911F060FF6B
:103DA0003B46184600F056F980220021634811F086
:103DB000E6FFBFE0614B5B78542B28D15F4B9B78CB
:103DC000532B24D10A220021684811F06BFE0346D0
:103DD000A7F80633B7F9063307EE903AF8EEE77A1C
:103DE000B0EE670A5C48FDF7B9FD594B1A68B7F9A0
:103DF000063338465E4911F033FF3B46184600F063
:103E000029F9802200214D4811F0B9FF92E04B4B77
:103E10005B784D2B28D1494B9B78532B24D10A2218
:103E20000021524811F03EFE0346A7F80433B7F8CC
:103E3000043307EE903AF8EE677AB0EE670A464828
:103E4000FDF71AFC424B1A68B7F804333846494963
:103E500011F006FF3B46184600F0FCF880220021D6
:103E6000364811F08CFF65E0344B5B78542B28D139
:103E7000324B9B78502B24D10A2200213B4811F071
:103E800011FE0346A7F80233B7F9023307EE903A62
:103E9000F8EEE77AB0EE670A2F48FDF7A1FB2C4B4E
:103EA0001A68B7F902333846334911F0D9FE3B4658
:103EB000184600F0CFF880220021204811F05FFF63
:103EC00038E01E4B1B78472B21D11C4B5B78432BD2
:103ED0001DD11A4B9B78502B19D11D4B1C681E48C5
:103EE000FDF74DFCF0EE407AFDEEE77A384617EE2E
:103EF000903A2246214911F0B3FE3B46184600F0A5
:103F0000A9F8802200210D4811F039FF12E0104B72
:103F10001A6807F50070094B194911F0A1FE07F561
:103F20000073184600F096F880220021034811F033
:103F300026FF00BF07F54377BD4690BDB42400209F
:103F4000AC240020701B002040070020A424002087
:103F500034250020ACDF01083C230020DCDF010811
:103F60000CE00108B624002038E00108B724002046
:103F700068E0010898E00108C0E00108ECE00108F1
:103F800014E1010880B400AF72B600BF00BFFDE7C6
:103F900080B584B000AF0EF0ADFB0346164A136047
:103FA000164BBB60144B1B6807F1080140F214620A
:103FB00018460EF047FA124B7B600F4B1B68391DF9
:103FC00040F2136218460EF0C5FA0346FB7397F9E8
:103FD0000F30002B06D1084B1B68002209491846F8
:103FE0000EF026FB402208490848FDF7F3FC00BF0D
:103FF0001037BD4680BD00BFB0240020C0A8019C82
:10400000C0A80102114000084825002038250020E2
:1040100080B584B000AFF860B9607A603B607B68BF
:1040200059687B685B891A46084811F0CFFE084B37
:104030001B680133064A1360786807F0BDFFFFF77D
:1040400023FE00BF1037BD4680BD00BFB424002052
:104050003425002080B5C4B000AF07F58873A3F500
:104060008673186007F58873A3F5867307F1080057
:104070001A68174911F0F4FDC7F80C01D7F80C3194
:104080009BB24FF420721946362007F0B1FCC7F8F6
:104090000801D7F80831002B14D0D7F80C319AB2A8
:1040A00007F108031946D7F8080108F02DFA094B63
:1040B0001B68D7F8081118460DF0DAFFD7F8080189
:1040C00007F07AFF00BF07F58877BD4680BD00BFC7
:1040D0002CE10108B024002080B483B000AF7860E8
:1040E000044A7B68136000BF0C37BD465DF8047B53
:1040F000704700BF4826002080B485B000AF7860CC
:104100000023FB7307E0FA7B7B68002143F8221051
:10411000FB7B0133FB73FB7B012BF4D97B68002213
:104120009A607B684FF00002DA607B68194A1A6176
:104130007B6800225A627B6800221A767B68012223
:104140009A767B6802225A767B684FF000029A6268
:104150007B684FF00002DA627B6800221A637B689A
:1041600000225A637B684FF07E529A637B6800227C
:10417000DA637B68002283F840207B6800225A645F
:104180007B6800229A6400BF1437BD465DF8047B4B
:10419000704700BF0000484580B584B000AF78602C
:1041A0007B6893F91A30032B5AD12F4B1B68984721
:1041B00002467B68DA617B68DA697B681B6AD21A1F
:1041C0007B685B6A9A424BD37B68DA697B681A62C8
:1041D00007F10E0319462548FDF7B9FC0023FB73D0
:1041E0003AE097F90E30DBB203F00303012B0FD155
:1041F000FA7B7B6853F8223001211846FDF7C2F89C
:10420000FA7B7B6853F822301846FDF70FF927E058
:1042100097F90E30DBB203F00303032B0FD1FA7BC7
:104220007B6853F82230FF211846FDF7ABF8FA7B84
:104230007B6853F822301846FDF7F8F810E097F93C
:104240000E301A46FB7B01335B0042FA03F35BB28C
:10425000BB73FB7B0133FB73FB7B012BC1D9FFE7F6
:1042600000BF1037BD4680BD48260020701B0020CF
:1042700080B485B000AFF860B9601346FB71FA797D
:10428000FB68B96843F8221000BF1437BD465DF8DB
:10429000047B704780B483B000AF7860044A7B68C9
:1042A000136000BF0C37BD465DF8047B704700BF4C
:1042B0004C26002080B483B000AF786039603B6842
:1042C0001A687B681A603B689A887B689A803B68AA
:1042D0009A687B689A603B689A897B689A817B6858
:1042E00000221A617B6800229A827B6800229A6110
:1042F0007B6801221A777B6800225A777B6800224C
:104300009A777B680022DA7700BF0C37BD465DF8EC
:10431000047B704780B582B000AF78607B681B7FFC
:104320005AB27B689B691A447B689A617B681B7FE1
:104330005BB21946786800F019F80B4B1B687A6875
:1043400010687A689188012298470520FDF71EFBC6
:10435000054B1B687A6810687A6891880022984734
:1043600000BF0837BD4680BD4C26002080B582B016
:1043700000AF78600B46FB707B68DB7F83F0010346
:10438000DBB2002B1BD097F90330012B0BD17B68DC
:1043900001221A77194B1B687A6890687A689189AC
:1043A0000122984726E07B68FF221A77134B1B688F
:1043B0007A6890687A689189002298471AE097F99C
:1043C0000330012B0BD17B6801221A770B4B1B6842
:1043D0007A6890687A689189002298470AE07B6839
:1043E000FF221A77054B1B687A6890687A68918972
:1043F0000122984700BF0837BD4680BD4C260020EB
:1044000080B582B000AF78607B6801225A777B6804
:104410009B7F83F00103DBB2002B08D00A4B1B68A3
:104420007A6810697A68918A0122984707E0064BFA
:104430001B687A6810697A68918A0022984700BFE1
:104440000837BD4680BD00BF4C26002080B582B035
:1044500000AF78607B6800225A777B689B7F83F08F
:104460000103DBB2002B08D00A4B1B687A68106985
:104470007A68918A0022984707E0064B1B687A68A1
:1044800010697A68918A0122984700BF0837BD46B3
:1044900080BD00BF4C26002080B483B000AF002355
:1044A0007B60104B5B6C0F4A43F4804353640D4BAD
:1044B0005B6C03F480437B607B6800233B60094BAB
:1044C0001B6C084A43F080531364064B1B6C03F0CB
:1044D00080533B603B6800BF0C37BD465DF8047BF2
:1044E000704700BF0038024080B58AB000AF7860E6
:1044F00007F1140300221A605A609A60DA601A61A8
:104500007B681B68174A934227D100233B61164BF7
:104510005B6C154A43F480735364134B5B6C03F478
:1045200080733B613B690023FB600F4B1B6B0E4AA2
:1045300043F0010313630C4B1B6B03F00103FB609F
:10454000FB6809237B610323BB610023FB6107F147
:1045500014031946054802F091FB00BF2837BD46F9
:1045600080BD00BF00200140003802400000024032
:1045700080B58AB000AF786007F1140300221A609A
:104580005A609A60DA601A617B681B68194A934224
:104590002BD100233B61184B1B6C174A43F000736F
:1045A0001364154B1B6C03F000733B613B690023E4
:1045B000FB60114B1B6B104A43F0080313630E4B57
:1045C0001B6B03F00803FB60FB6803237B61022382
:1045D000BB610023FB6103233B6209237B6207F17C
:1045E00014031946054802F049FB00BF2837BD46B1
:1045F00080BD00BF0064004000380240000C024053
:1046000080B58AB000AF786007F1140300221A6009
:104610005A609A60DA601A617B681B68174A934295
:1046200027D100233B61164B1B6C154A43F0005306
:104630001364134B1B6C03F000533B613B69002375
:10464000FB600F4B1B6B0E4A43F0010313630C4BD3
:104650001B6B03F00103FB60FB6830237B610323CA
:10466000BB610023FB6107F114031946054802F002
:1046700005FB00BF2837BD4680BD00BF0074004069
:10468000003802400000024080B58AB000AF786078
:1046900007F1140300221A605A609A60DA601A6106
:1046A0007B681B68194A93422BD100233B61184B4E
:1046B0001B6B174A43F002031363154B1B6B03F08C
:1046C00002033B613B69C0237B611223BB61002372
:1046D000FB6103233B6204237B6207F11403194649
:1046E0000C4802F0CBFA0023FB60094B1B6C084A14
:1046F00043F400131364064B1B6C03F40013FB60BC
:10470000FB6800BF2837BD4680BD00BF0054004095
:10471000003802400004024080B58AB000AF7860E3
:1047200007F1140300221A605A609A60DA601A6175
:104730007B681B68194A93422CD100233B61184BBC
:104740001B6C174A43F400431364154B1B6C03F4B2
:1047500000433B613B690023FB60114B1B6B104A1C
:1047600043F0040313630E4B1B6B03F00403FB6065
:10477000FB684FF4E0537B610223BB610023FB61C4
:1047800003233B6206237B6207F1140319460548A5
:1047900002F074FA00BF2837BD4680BD003C0040DF
:1047A000003802400008024080B586B000AF786053
:1047B0007B681B68264A934216D100237B61254BF8
:1047C0005B6C244A43F001035364224B5B6C03F09F
:1047D00001037B617B6900220021192001F069F847
:1047E000192001F082F82EE07B681B68B3F1804F3E
:1047F0000ED100233B61174B1B6C164A43F001039B
:104800001364144B1B6C03F001033B613B691AE01A
:104810007B681B68104A934215D10023FB600D4B47
:104820001B6C0C4A43F0800313640A4B1B6C03F0AF
:104830008003FB60FB68002200212C2001F039F886
:104840002C2001F052F800BF1837BD4680BD00BFD4
:104850000000014000380240001C004080B588B0D4
:1048600000AF786007F10C0300221A605A609A606A
:10487000DA601A617B681B68124A93421DD10023DB
:10488000BB60114B1B6B104A43F0010313630E4BCB
:104890001B6B03F00103BB60BB684023FB6002237A
:1048A0003B6100237B610023BB610923FB6107F1AE
:1048B0000C031946054802F0E1F900BF2037BD4658
:1048C00080BD00BF001C00400038024000000240D4
:1048D00080B58CB000AF786007F11C0300221A602D
:1048E0005A609A60DA601A617B681B68334A9342A7
:1048F0002DD10023BB61324B5B6C314A43F0100376
:1049000053642F4B5B6C03F01003BB61BB69002346
:104910007B612B4B1B6B2A4A43F001031363284B2B
:104920001B6B03F001037B617B694FF4C063FB6188
:1049300002233B6200237B620323BB620723FB62EB
:1049400007F11C0319461F4802F098F931E07B6813
:104950001B681D4A93422CD100233B61184B1B6CF2
:10496000174A43F480231364154B1B6C03F4802314
:104970003B613B690023FB60114B1B6B104A43F00A
:10498000080313630E4B1B6B03F00803FB60FB680B
:104990004FF44073FB6102233B6200237B620323DD
:1049A000BB620723FB6207F11C031946074802F0AC
:1049B00065F900BF3037BD4680BD00BF0010014023
:1049C000003802400000024000480040000C024055
:1049D00080B58AB000AF786007F1140300221A6036
:1049E0005A609A60DA601A617B681B68B3F1A04F65
:1049F00032D100233B611A4B1B6B194A43F0010370
:104A00001363174B1B6B03F001033B613B694FF4CE
:104A1000C0537B610223BB610023FB6103233B6224
:104A20000A237B6207F1140319460E4802F026F9A7
:104A30000B4B5B6B0A4A43F0800353630023FB601C
:104A4000074B5B6C064A43F480435364044B5B6C36
:104A500003F48043FB60FB6800BF2837BD4680BD80
:104A6000003802400000024080B400AF00BFFDE704
:104A700080B400AF00BFFDE780B400AF00BFFDE72A
:104A800080B400AF00BFFDE780B400AF00BFFDE71A
:104A900080B400AF00BFBD465DF8047B704780B4B2
:104AA00000AF00BFBD465DF8047B704780B400AF27
:104AB00000BFBD465DF8047B704780B500AF00F0D5
:104AC0007BFA00BF80BD000080B500AF044803F052
:104AD00061FB4FF40071034802F085FA00BF80BD0E
:104AE000B01C00200010024080B500AF024803F067
:104AF00051FB00BF80BD00BF401D002080B400AF4F
:104B000001231846BD465DF8047B704780B483B02E
:104B100000AF78603960054B16221A604FF0FF3302
:104B200018460C37BD465DF8047B7047DC940020C6
:104B300080B582B000AF78604FF0FF317868FFF742
:104B4000E5FF00BFFDE780B586B000AFF860B96053
:104B50007A6000237B610AE0AFF300800146BB6806
:104B60005A1CBA60CAB21A707B6901337B617A69D8
:104B70007B689A42F0DB7B6818461837BD4680BDDB
:104B800080B586B000AFF860B9607A6000237B61C1
:104B900009E0BB685A1CBA601B781846AFF3008066
:104BA0007B6901337B617A697B689A42F1DB7B68C0
:104BB00018461837BD4680BD80B483B000AF78601A
:104BC0004FF0FF3318460C37BD465DF8047B704745
:104BD00080B483B000AF786039603B684FF4005216
:104BE0005A60002318460C37BD465DF8047B7047B9
:104BF00080B483B000AF7860012318460C37BD46FF
:104C00005DF8047B704780B485B000AFF860B96090
:104C10007A60002318461437BD465DF8047B704760
:104C200080B487B000AF7860144A154BD31A7B610B
:104C30007B693B61134B1B68002B02D1114B124A5D
:104C40001A60104B1A687B6813443A699A4205D27D
:104C50000E4B0C221A604FF0FF3309E0094B1B6822
:104C6000FB60084B1A687B681344064A1360FB68B4
:104C700018461C37BD465DF8047B704700000220D3
:104C80000040000050260020F0940020DC9400201A
:104C900080B400AF064BD3F88830054A43F4700364
:104CA000C2F8883000BFBD465DF8047B704700BF86
:104CB00000ED00E0DFF834D0FFF7EAFF0C480D49C3
:104CC0000D4A002302E0D458C4500433C4188C4267
:104CD000F9D30A4A0A4C002301E013600432A242CD
:104CE000FBD311F0D3F8FEF777FA704700000220EB
:104CF0000000002034060020381102083806002089
:104D0000EC940020FEE780B483B000AF7860396097
:104D10007B68002B0BD03B68DB68002B07D03B681F
:104D20009B68002B03D03B681B69002B02D14FF01E
:104D3000FF3314E03B681A687B689A603B685A68E6
:104D40007B68DA603B68DA687B685A613B689A681E
:104D50007B681A613B681A697B689A610023184670
:104D60000C37BD465DF8047B704780B586B000AF58
:104D700078600023FB6000237B6100233B617B683C
:104D80005B68002B39D17B689B68002B02D07B6865
:104D90009B6898477B6820221A6000237B611CE097
:104DA0007B685B6907F10C0212217869984703461A
:104DB000002B03DA6FF004033B610BE0FB6803F0A8
:104DC0001F037A699A4205D17B687A691A600023C9
:104DD0003B6105E07B6901337B617B691F2BDFD978
:104DE0007B681B681F2B02D96FF002033B613B6994
:104DF000002B02D17B6801225A603B6918461837A4
:104E0000BD4680BD80B584B000AF78600023FB60F4
:104E10007B685B697A68106807F10C02012198478A
:104E20000346002B02DA6FF004036EE07B685B69D7
:104E30007A68106807F10C02012198470346002B9D
:104E400002DA6FF0040360E0FB6803F00403002B58
:104E500001D1012359E07B685B697A68106807F12A
:104E60000C02002198470346002B02DA6FF004037E
:104E70004BE0FB6803F48053002B1BD1FB6803F469
:104E80000053002B06D0FB6803F48073002B01D085
:104E900002233AE0FB6803F40053002B01D0032304
:104EA00033E0FB6803F48073002B01D004232CE073
:104EB00005232AE07B685B697A68106807F10C02B9
:104EC0001F2198470346002B02DA6FF004031CE011
:104ED000FB6803F48053002B01D1062315E0FB6827
:104EE00003F01C03182B01D102230EE0FB6803F032
:104EF0001C03082B01D1032307E0FB6803F01C030C
:104F0000142B01D1042300E0052318461037BD46B9
:104F100080BD000080B500AF0E4B1B680D4A43F406
:104F2000007313600B4B1B680A4A43F480631360E1
:104F3000084B1B68074A43F480731360032000F09A
:104F4000ADFC0F2000F008F8FFF7A6FA0023184682
:104F500080BD00BF003C024080B582B000AF7860E9
:104F6000124B1A68124B1B7819464FF47A73B3FB35
:104F7000F1F3B2FBF3F3184600F0C5FC0346002B37
:104F800001D001230EE07B680F2B0AD8002279683C
:104F90004FF0FF3000F08DFC064A7B681360002361
:104FA00000E0012318460837BD4680BD40040020BC
:104FB000480400204404002080B400AF064B1B7856
:104FC0001A46064B1B681344044A136000BFBD46D3
:104FD0005DF8047B704700BF480400205426002081
:104FE00080B400AF034B1B681846BD465DF8047BD8
:104FF000704700BF5426002080B584B000AF7860B1
:10500000FFF7EEFFB8607B68FB60FB68B3F1FF3F22
:1050100005D00A4B1B781A46FB681344FB6000BF9F
:10502000FFF7DEFF0246BB68D31AFA689A42F7D848
:1050300000BF00BF1037BD4680BD00BF4804002040
:1050400080B584B000AF78600023FB737B68002BD1
:1050500001D1012333E07B681B6C002B09D17868F8
:10506000FFF742FA7B6800225A647B68002283F8CB
:105070003C207B681B6C03F01003002B18D17B686D
:105080001B6C23F4885323F0020343F002027B6875
:105090001A64786800F03AF97B6800225A647B68E9
:1050A0001B6C23F0030343F001027B681A6401E0E8
:1050B0000123FB737B68002283F83C20FB7B1846AE
:1050C0001037BD4680BD000080B485B000AF786069
:1050D00039600023BB607B6893F83C30012B01D121
:1050E000022305E17B68012283F83C203B681B68B2
:1050F000092B25D97B681B68D9683B681B689BB264
:105100001A4613465B0013441E3B072202FA03F3C0
:10511000DA437B681B680A40DA607B681B68D968E1
:105120003B689A683B681B689BB2184603465B0065
:1051300003441E3B9A407B681B680A43DA6022E006
:105140007B681B6819693B681B689BB21A4613464B
:105150005B001344072202FA03F3DA437B681B68FF
:105160000A401A617B681B6819693B689A683B684A
:105170001B689BB2184603465B0003449A407B6859
:105180001B680A431A613B685B68062B24D87B685E
:105190001B68596B3B685A6813469B001344053BD8
:1051A0001F2202FA03F3DA437B681B680A405A6342
:1051B0007B681B68596B3B681B689BB218463B6851
:1051C0005A6813469B001344053B00FA03F27B68C0
:1051D0001B680A435A634CE03B685B680C2B24D87D
:1051E0007B681B68196B3B685A6813469B00134425
:1051F000233B1F2202FA03F3DA437B681B680A4051
:105200001A637B681B68196B3B681B689BB2184666
:105210003B685A6813469B001344233B00FA03F291
:105220007B681B680A431A6323E07B681B68D96AA2
:105230003B685A6813469B001344413B1F2202FA05
:1052400003F3DA437B681B680A40DA627B681B68F9
:10525000D96A3B681B689BB218463B685A6813467C
:105260009B001344413B00FA03F27B681B680A432E
:10527000DA62224BFB607B681B68214A934209D1AA
:105280003B681B68122B05D1FB685B6843F4800206
:10529000FB685A607B681B68194A934223D13B68BC
:1052A0001B68102B03D03B681B68112B1BD1FB68BC
:1052B0005B6843F40002FB685A603B681B68102B74
:1052C00011D1104B1B68104AA2FB03239A0C134602
:1052D0009B0013445B00BB6002E0BB68013BBB600A
:1052E000BB68002BF9D17B68002283F83C200023A7
:1052F00018461437BD465DF8047B70470023014013
:10530000002001404004002083DE1B4380B485B0B0
:1053100000AF7860794BFB60FB685B6823F4403238
:10532000FB685A60FB685A687B685B681A43FB68D5
:105330005A607B681B685A687B681B6822F480721D
:105340005A607B681B6859687B681B691A027B6816
:105350001B680A435A607B681B685A687B681B6835
:1053600022F040725A607B681B6859687B689A68B3
:105370007B681B680A435A607B681B689A687B6875
:105380001B6822F400629A607B681B6899687B68DE
:10539000DA687B681B680A439A607B689B6A584A94
:1053A000934222D07B681B689A687B681B6822F056
:1053B00070629A607B681B6899687B689A6A7B68F0
:1053C0001B680A439A607B681B689A687B681B6845
:1053D00022F040529A607B681B6899687B68DA6AA1
:1053E0007B681B680A439A600FE07B681B689A68B9
:1053F0007B681B6822F070629A607B681B689A6801
:105400007B681B6822F040529A607B681B689A6830
:105410007B681B6822F002029A607B681B689968AF
:105420007B681B7E5A007B681B680A439A607B6816
:1054300093F82030002B1BD07B681B685A687B6870
:105440001B6842F400625A607B681B685A687B687C
:105450001B6822F460425A607B681B6859687B684D
:105460005B6A013B5A037B681B680A435A6007E08A
:105470007B681B685A687B681B6822F400625A606C
:105480007B681B68DA6A7B681B6822F47002DA6248
:105490007B681B68D96A7B68DB69013B1A057B68FE
:1054A0001B680A43DA627B681B689A687B681B6822
:1054B00022F400729A607B681B6899687B6893F895
:1054C00030305A027B681B680A439A607B681B680D
:1054D0009A687B681B6822F480629A607B681B680C
:1054E00099687B685B699A027B681B680A439A60CB
:1054F00000BF1437BD465DF8047B704700230140B0
:105500000100000F80B584B000AF78607B68002B8D
:1055100001D10123EDE07B6893F82030DBB2002B52
:1055200002D17868FFF724F87B681B681A687B68EB
:105530001B6842F001021A60FFF752FDF86012E0AA
:10554000FFF74EFD0246FB68D31A0A2B0BD97B6886
:105550005B6A43F400327B685A627B68052283F8F9
:1055600020200123C5E07B681B685B6803F0010312
:10557000002BE5D07B681B681A687B681B6822F0EB
:1055800002021A60FFF72CFDF86012E0FFF728FD19
:105590000246FB68D31A0A2B0BD97B685B6A43F47B
:1055A00000327B685A627B68052283F82020012341
:1055B0009FE07B681B685B6803F00203002BE5D16A
:1055C0007B681B7E012B08D17B681B681A687B688F
:1055D0001B6842F080021A6007E07B681B681A684B
:1055E0007B681B6822F080021A607B685B7E012B5F
:1055F00008D17B681B681A687B681B6842F0400210
:105600001A6007E07B681B681A687B681B6822F0D9
:1056100040021A607B689B7E012B08D17B681B6867
:105620001A687B681B6842F020021A6007E07B68FA
:105630001B681A687B681B6822F020021A607B686E
:10564000DB7E012B08D17B681B681A687B681B68AE
:1056500022F010021A6007E07B681B681A687B68FA
:105660001B6842F010021A607B681B7F012B08D177
:105670007B681B681A687B681B6842F008021A6026
:1056800007E07B681B681A687B681B6822F00802C9
:105690001A607B685B7F012B08D17B681B681A68E6
:1056A0007B681B6842F004021A6007E07B681B6895
:1056B0001A687B681B6822F004021A607B689A688B
:1056C0007B68DB681A437B681B691A437B685B69EC
:1056D00042EA03017B685B685A1E7B681B680A43C9
:1056E000DA617B6800225A627B68012283F82020FD
:1056F000002318461037BD4680BD000080B485B039
:1057000000AF78607B6803F00703FB600C4BDB683D
:10571000BB60BA684FF6FF031340BB60FB681A0218
:10572000BB68134343F0BF6343F40033BB60044AD8
:10573000BB68D36000BF1437BD465DF8047B70477B
:1057400000ED00E080B400AF044BDB681B0A03F0FF
:1057500007031846BD465DF8047B704700ED00E086
:1057600080B483B000AF0346FB7197F90730002B7C
:105770000BDBFB7903F01F02074997F907305B0940
:10578000012000FA02F241F8232000BF0C37BD4689
:105790005DF8047B704700BF00E100E080B483B097
:1057A00000AF03463960FB7197F90730002B0ADB25
:1057B0003B68DAB20C4997F907301201D2B20B44B8
:1057C00083F800230AE03B68DAB20849FB7903F06A
:1057D0000F03043B1201D2B20B441A7600BF0C3700
:1057E000BD465DF8047B704700E100E000ED00E09D
:1057F00080B489B000AFF860B9607A60FB6803F0EC
:105800000703FB61FB69C3F10703042B28BF0423D3
:10581000BB61FB690433062B02D9FB69033B00E043
:1058200000237B614FF0FF32BB6902FA03F3DA43D6
:10583000BB681A407B699A404FF0FF317B6901FADF
:1058400003F3D9437B680B40134318462437BD4606
:105850005DF8047B7047000080B582B000AF7860CF
:105860007B68013BB3F1807F01D301230FE00A4A3B
:105870007B68013B53600F214FF0FF30FFF78EFF35
:10588000054B00229A60044B07221A600023184639
:105890000837BD4680BD00BF10E000E080B582B093
:1058A00000AF78607868FFF729FF00BF0837BD4672
:1058B00080BD80B586B000AF0346B9607A60FB73E7
:1058C00000237B61FFF73EFF78617A68B9687869E9
:1058D000FFF78EFF024697F90F3011461846FFF783
:1058E0005DFF00BF1837BD4680BD80B582B000AFF8
:1058F0000346FB7197F907301846FFF731FF00BFE9
:105900000837BD4680BD80B582B000AF786078684A
:10591000FFF7A2FF034618460837BD4680BD80B595
:1059200082B000AF78607B68002B01D1012314E0C6
:105930007B681B79DBB2002B05D17B6800225A7192
:105940007868FEF75DFE7B6802221A717B68002290
:105950001A617B6801221A71002318460837BD4678
:1059600080BD80B489B000AFF860B9607A60002370
:10597000FB77FB68002B02D0BB68002B01D1012311
:1059800042E0FB685B79012B01D102233CE0FB681C
:1059900001225A71FB6802221A71FB681B681B689E
:1059A000BB617B6803F0100340F6FE7202FA03F35A
:1059B000DB43BA691340BB61BB681A68BB685B68AC
:1059C00013437B617B6803F010037A6902FA03F3E7
:1059D000BA691343BB61FB681B68BA691A60FB684C
:1059E0001B6819687B6803F01003C02202FA03F3F6
:1059F000DA43FB681B680A401A60FB6801221A71CF
:105A0000FB6800225A71FB7F18462437BD465DF8BB
:105A1000047B704780B584B000AF78607B68002B52
:105A200001D101238AE07B68D3F88430002B06D1B2
:105A30007B682322C3F88420786804F0A5FA002349
:105A4000BB60404B5B6C3F4A43F4804353643D4B27
:105A50005B6C03F48043BB60BB683B4B5B683A4ABA
:105A600023F400035360384B5A687B689B683649BF
:105A700013434B60344B5B687B681B6803F58053B2
:105A80001B687A68126843F0010302F580521360C4
:105A9000FFF7A6FAF86011E0FFF7A2FA0246FB68EA
:105AA000D31AB3F5FA7F09D97B680422C3F888209A
:105AB0007B68E022C3F8842001233FE07B681B68F9
:105AC00003F580531B6803F00103002BE4D17868D1
:105AD00000F016FE786800F0C1FE786800F017FF4D
