:020000040800F2
:1000000000000220E5320008B9300008C1300008C5
:10001000C9300008D1300008D930000800000000C5
:10002000000000000000000000000000E1300008B7
:10003000EF30000800000000FD3000080B31000820
:1000400035330008353300083533000835330008F0
:1000500035330008353300083533000835330008E0
:1000600035330008353300083533000835330008D0
:1000700035330008353300083533000835330008C0
:1000800035330008353300083533000835330008B0
:1000900035330008353300083533000835330008A0
:1000A0003533000835330008353300083533000890
:1000B0003533000835330008353300083533000880
:1000C0003533000835330008353300083533000870
:1000D0003533000835330008353300083533000860
:1000E0003533000835330008353300083533000850
:1000F0003533000835330008353300083533000840
:10010000353300083533000835330008353300082F
:10011000353300083533000835330008353300081F
:10012000353300083533000835330008353300080F
:10013000353300081931000835330008353300081D
:1001400035330008353300083533000835330008EF
:1001500035330008353300083533000835330008DF
:1001600035330008353300083533000835330008CF
:10017000353300083533000835330008000000002F
:08018000353300083533000897
:1001900010B5054C237833B9044B13B10448AFF3C1
:1001A00000800123237010BD00010020000000002A
:1001B000F040010808B5034B1BB103490348AFF3F6
:1001C000008008BD0000000004010020F04001088C
:1001D00001F0FF01102A2BDB10F0070F08D010F8F8
:1001E000013B013A8B422DD010F0070F42B3F6D1FC
:1001F000F0B441EA012141EA014122F007047FF015
:1002000000070023F0E80256083C85EA010586EA6B
:10021000010685FA47F5A3FA87F586FA47F6A5FAA7
:1002200087F68EB9EED1F0BC01F0FF0102F00702B3
:1002300032B110F8013B013A83EA010313B1F8D15E
:100240000020704701387047002D06BF354603383F
:10025000073815F0010F07D1013015F4807F02BF78
:10026000013015F4C03F0130F0BC0138704700BFC9
:1002700081F0004102E000BF83F0004330B54FEA57
:1002800041044FEA430594EA050F08BF90EA020FC4
:100290001FBF54EA000C55EA020C7FEA645C7FEA57
:1002A000655C00F0E2804FEA5454D4EB5555B8BF7A
:1002B0006D420CDD2C4480EA020281EA030382EAEB
:1002C000000083EA010180EA020281EA0303362D7D
:1002D00088BF30BD11F0004F4FEA01314FF4801C50
:1002E0004CEA113102D0404261EB410113F0004F62
:1002F0004FEA03334CEA133302D0524263EB430319
:1003000094EA050F00F0A780A4F10104D5F1200EB6
:100310000DDB02FA0EFC22FA05F2801841F1000111
:1003200003FA0EF2801843FA05F359410EE0A5F1E5
:1003300020050EF1200E012A03FA0EFC28BF4CF016
:10034000020C43FA05F3C01851EBE37101F00045CC
:1003500007D54FF0000EDCF1000C7EEB00006EEBD9
:100360000101B1F5801F1BD3B1F5001F0CD3490863
:100370005FEA30004FEA3C0C04F101044FEA4452BA
:1003800012F5800F80F09A80BCF1004F08BF5FEA41
:10039000500C50F1000041EB045141EA050130BD21
:1003A0005FEA4C0C404141EB0101013C28BFB1F533
:1003B000801FE9D291F0000F04BF01460020B1FA7E
:1003C00081F308BF2033A3F10B03B3F120020CDA51
:1003D0000C3208DD02F1140CC2F10C0201FA0CF02F
:1003E00021FA02F10CE002F11402D8BFC2F1200C94
:1003F00001FA02F120FA0CFCDCBF41EA0C0190404A
:10040000E41AA2BF01EB0451294330BD6FEA040492
:100410001F3C1CDA0C340EDC04F11404C4F120027D
:1004200020FA04F001FA02F340EA030021FA04F38F
:1004300045EA030130BDC4F10C04C4F1200220FAE6
:1004400002F001FA04F340EA0300294630BD21FA24
:1004500004F0294630BD94F0000F83F4801306BFEA
:1004600081F480110134013D4EE77FEA645C18BFDE
:100470007FEA655C29D094EA050F08BF90EA020F75
:1004800005D054EA000C04BF1946104630BD91EA6D
:10049000030F1EBF0021002030BD5FEA545C05D170
:1004A0004000494128BF41F0004130BD14F58004AF
:1004B0003CBF01F5801130BD01F0004545F0FE4123
:1004C00041F470014FF0000030BD7FEA645C1ABF58
:1004D000194610467FEA655C1CBF0B46024650EA8F
:1004E000013406BF52EA033591EA030F41F40021BB
:1004F00030BD00BF90F0000F04BF0021704730B541
:100500004FF4806404F132044FF000054FF0000115
:1005100050E700BF90F0000F04BF0021704730B5D6
:100520004FF4806404F1320410F0004548BF4042AB
:100530004FF000013EE700BF42004FEAE2014FEA00
:1005400031014FEA02701FBF12F07F4393F07F4FDB
:1005500081F06051704732F07F4208BF704793F0DE
:100560007F4F04BF41F40021704730B54FF46074F1
:1005700001F0004521F000411CE700BF50EA0102F4
:1005800008BF704730B54FF000050AE050EA01029D
:1005900008BF704730B511F0004502D5404261EB0D
:1005A00041014FF4806404F132045FEA915C3FF44E
:1005B000D8AE4FF003025FEADC0C18BF03325FEAEB
:1005C000DC0C18BF033202EBDC02C2F1200300FA9C
:1005D00003FC20FA02F001FA03FE40EA0E0021FAC1
:1005E00002F11444BDE600BF70B54FF0FF0C4CF4AF
:1005F000E06C1CEA11541DBF1CEA135594EA0C0F61
:1006000095EA0C0F00F0DEF82C4481EA030621EA9B
:100610004C5123EA4C5350EA013518BF52EA0335D6
:1006200041F4801143F4801338D0A0FB02CE4FF088
:100630000005E1FB02E506F00042E0FB03E54FF0B8
:100640000006E1FB03569CF0000F18BF4EF0010EB0
:10065000A4F1FF04B6F5007F64F5407404D25FEAAC
:100660004E0E6D4146EB060642EAC62141EA55515F
:100670004FEAC52040EA5E504FEACE2EB4F1FD0CA1
:1006800088BFBCF5E06F1ED8BEF1004F08BF5FEA1F
:10069000500E50F1000041EB045170BD06F00046D1
:1006A00046EA010140EA020081EA0301B4EB5C047E
:1006B000C2BFD4EB0C0541EA045170BD41F4801176
:1006C0004FF0000E013C00F3AB8014F1360FDEBF9B
:1006D000002001F0004170BDC4F10004203C35DA77
:1006E0000C341BDC04F11404C4F1200500FA05F3FA
:1006F00020FA04F001FA05F240EA020001F000429B
:1007000021F0004110EBD37021FA04F642EB060110
:100710005EEA430E08BF20EAD37070BDC4F10C043A
:10072000C4F1200500FA04F320FA05F001FA04F2FE
:1007300040EA020001F0004110EBD37041F10001EA
:100740005EEA430E08BF20EAD37070BDC4F12005F5
:1007500000FA05F24EEA020E20FA04F301FA05F25D
:1007600043EA020321FA04F001F0004121FA04F205
:1007700020EA020000EBD3705EEA430E08BF20EAD5
:10078000D37070BD94F0000F0FD101F0004640000F
:1007900041EB010111F4801F08BF013CF7D041EA91
:1007A000060195F0000F18BF704703F00046520095
:1007B00043EB030313F4801F08BF013DF7D043EA66
:1007C0000603704794EA0C0F0CEA135518BF95EA1C
:1007D0000C0F0CD050EA410618BF52EA4306D1D1A3
:1007E00081EA030101F000414FF0000070BD50EAC2
:1007F000410606BF1046194652EA430619D094EA4C
:100800000C0F02D150EA013613D195EA0C0F05D135
:1008100052EA03361CBF104619460AD181EA030189
:1008200001F0004141F0FE4141F470014FF0000041
:1008300070BD41F0FE4141F4780170BD70B54FF0DC
:10084000FF0C4CF4E06C1CEA11541DBF1CEA13555C
:1008500094EA0C0F95EA0C0F00F0A7F8A4EB05043E
:1008600081EA030E52EA03354FEA013100F0888035
:100870004FEA03334FF0805545EA131343EA1263FE
:100880004FEA022245EA111545EA10654FEA0026B3
:100890000EF000419D4208BF964244F1FD0404F56C
:1008A000407402D25B084FEA3202B61A65EB0305C8
:1008B0005B084FEA32024FF480104FF4002CB6EB85
:1008C000020E75EB030E22BFB61A754640EA0C0005
:1008D0005B084FEA3202B6EB020E75EB030E22BF45
:1008E000B61A754640EA5C005B084FEA3202B6EB86
:1008F000020E75EB030E22BFB61A754640EA9C0045
:100900005B084FEA3202B6EB020E75EB030E22BF14
:10091000B61A754640EADC0055EA060E18D04FEAD2
:10092000051545EA16754FEA06164FEAC30343EA72
:1009300052734FEAC2025FEA1C1CC0D111F4801F3F
:100940000BD141EA00014FF000004FF0004CB6E738
:1009500011F4801F04BF01430020B4F1FD0C88BFD7
:10096000BCF5E06F3FF6AFAEB5EB030C04BFB6EBE2
:10097000020C5FEA500C50F1000041EB045170BDD5
:100980000EF0004E4EEA113114EB5C04C2BFD4EB02
:100990000C0541EA045170BD41F480114FF0000E86
:1009A000013C90E645EA060E8DE60CEA135594EA02
:1009B0000C0F08BF95EA0C0F3FF43BAF94EA0C0F05
:1009C0000AD150EA01347FF434AF95EA0C0F7FF47A
:1009D00025AF104619462CE795EA0C0F06D152EACE
:1009E00003353FF4FDAE1046194622E750EA4106B2
:1009F00018BF52EA43067FF4C5AE50EA41047FF4C3
:100A00000DAF52EA43057FF4EBAE12E74FF0FF3C27
:100A100006E000BF4FF0010C02E000BF4FF0010CF8
:100A20004DF804CD4FEA410C7FEA6C5C4FEA430C71
:100A300018BF7FEA6C5C1BD001B050EA410C0CBFC0
:100A400052EA430C91EA030F02BF90EA020F002022
:100A5000704710F1000F91EA030F58BF994208BF89
:100A600090422CBFD8176FEAE37040F00100704746
:100A70004FEA410C7FEA6C5C02D150EA013C07D19D
:100A80004FEA430C7FEA6C5CD6D152EA033CD3D0E8
:100A90005DF8040B704700BF8446104662468C46E2
:100AA0001946634600E000BF01B5FFF7B7FF002815
:100AB00048BF10F1000F01BD4DF808EDFFF7F4FF3E
:100AC0000CBF012000205DF808FB00BF4DF808EDC9
:100AD000FFF7EAFF34BF012000205DF808FB00BFEC
:100AE0004DF808EDFFF7E0FF94BF012000205DF80E
:100AF00008FB00BF4DF808EDFFF7CEFF94BF0120C3
:100B000000205DF808FB00BF4DF808EDFFF7C4FFBB
:100B100034BF012000205DF808FB00BF4A0011D25D
:100B200012F5001211D20DD56FF47873B3EB625247
:100B30000ED44FEAC12343F0004343EA505323FA53
:100B400002F070474FF00000704750EA013002D1C8
:100B50004FF0FF3070474FF0000070474FEA4102FE
:100B6000B2F1E04324BFB3F5001CDCF1FE5C0DD90B
:100B700001F0004C4FEAC0024CEA5070B2F1004F55
:100B800040EB830008BF20F00100704711F0804F58
:100B900021D113F13872BCBF01F00040704741F41D
:100BA00080114FEA5252C2F11802C2F1200C10FA21
:100BB0000CF320FA02F018BF40F001004FEAC12305
:100BC0004FEAD32303FA0CFC40EA0C0023FA02F3A9
:100BD0004FEA4303CCE77FEA625307D150EA01337F
:100BE0001EBF4FF0FE4040F44000704701F000404F
:100BF00040F0FE4040F40000704700BF53B94AB9CE
:100C0000002908BF00281CBF4FF0FF314FF0FF3014
:100C100000F088B9ADF1080C6DE904CE00F006F8DB
:100C2000DDF804E0DDE9022304B070472DE9F04768
:100C3000089D8E4604468846002B4AD18A421746B4
:100C400062D9B2FA82F64EB1C6F1200301FA06F873
:100C500020FA03F3B74043EA0808B4404FEA174EBE
:100C60001FFA87FCB8FBFEF1230C0EFB118843EA48
:100C7000084301FB0CF29A4209D9FB1801F1FF303D
:100C800080F0EA809A4240F2E78002393B449A1AA7
:100C9000A3B2B2FBFEF00EFB102243EA024300FBBC
:100CA0000CFC9C4509D9FB1800F1FF3280F0D6807E
:100CB0009C4540F2D3803B44023840EA0140A3EB1C
:100CC0000C0300211DB1F3400022C5E90032BDE84C
:100CD000F0878B4205D90DB1C5E900010021084616
:100CE000F5E7B3FA83F1002946D1734502D3824276
:100CF00000F20581841A6EEB030201209046002D5C
:100D0000E5D0C5E90048E2E7002A00F09080B2FA99
:100D100082F6002E40F0A4808A1A030C4FEA174E88
:100D200080B2BCB20121B2FBFEFC0EFB1C2243EAE6
:100D3000024304FB0CF29A4207D9FB180CF1FF386E
:100D400002D29A4200F2E080C4469B1AB3FBFEF244
:100D50000EFB123340EA034302FB04F49C4207D922
:100D6000FB1802F1FF3002D29C4200F2CA80024618
:100D70001B1B42EA0C40A5E7C1F120068B4022FA7A
:100D800006F71F430EFA01F420FA06F32EFA06FEC8
:100D90004FEA1749234300FA01F81FFA87FCBEFB0C
:100DA000F9F01C0C09FB10EE44EA0E4400FB0CFEAB
:100DB000A64502FA01F209D93C1900F1FF3A80F088
:100DC0009C80A64540F2998002383C44A4EB0E0476
:100DD0001FFA83FEB4FBF9F309FB13444EEA044403
:100DE00003FB0CFCA44508D93C1903F1FF3E80F03D
:100DF0008280A4457FD9023B3C4443EA0040A4EBF7
:100E00000C04A0FB02EC64457346E14662D35FD05C
:100E10005DB1B8EB030264EB090404FA06F622FAAA
:100E200001F31E43CC40C5E9006400214FE7B1FB4C
:100E3000F2FC010C41EA0E4180B240EA01423B461D
:100E400038463C46B846BE462026B1FBF7F1A2EB39
:100E5000080241EA0C4166E7014618E710462CE714
:100E6000C6F120022EFA02F3B740B14020FA02F296
:100E70004FEA174E0A43B3FBFEF8BCB20EFB183321
:100E8000110C41EA034108FB04F9B04089454FEADF
:100E9000104380B23ED9791808F1FF3C01D2894550
:100EA0001FD8A1EB0901B1FBFEF909FB04F80EFB09
:100EB000191192B242EA0142424529D2BA1809F107
:100EC000FF31C4D24245C2D2A9F102013A44BEE781
:100ED000F0459DD2BEEB02036CEB070C0138E146F6
:100EE00096E7A7EB09094944A8F1020CB1FBFEF90A
:100EF00009FB04F8DBE773467FE7504666E70846E0
:100F0000FDE63B44023A33E7ACF1020C3B441CE7FC
:100F100049469CE7A1EB0901C446B1FBFEF909FB78
:100F200004F8C4E7704700BF80B582B000AF034645
:100F30003960FB803B68FA881A81FB88B3F5806FC3
:100F400009D8FB880221184611F0FAFD03461A461B
:100F50003B681A6008E002214FF4806011F0F0FD58
:100F600003461A463B681A603B680122DA803B68F8
:100F700000229A8000BF0837BD4680BD80B483B090
:100F800000AF78607B68DB889AB27B689B889BB2F5
:100F90009A420FD27B681B899AB27B689B889BB26E
:100FA000D31A9AB27B68DB889BB213449BB2013B95
:100FB0009BB209E07B68DB889AB27B689B889BB216
:100FC000D31A9BB2013B9BB218460C37BD465DF865
:100FD000047B704780B582B000AF78607868FFF717
:100FE000CDFF0346002B01D0012300E0002318466B
:100FF0000837BD4680BD90B583B000AF78607B6890
:101000001B899CB27868FFF7B9FF0346E31A9BB2CD
:10101000023B9BB218460C37BD4690BD80B582B0EE
:1010200000AF78607868FFF7E6FF0346002B01D138
:10103000002300E0012318460837BD4680BD80B577
:1010400082B000AF786039607868FFF7E7FF034649
:1010500083F00103DBB2002B01D002231BE07B688D
:10106000DB889AB27B681B899BB29A4202D37B6869
:101070000022DA807B681A687B68DB889BB29B0061
:1010800013443A681A607B68DB889BB201339AB2DA
:101090007B68DA80032318460837BD4680BD80B5DB
:1010A00082B000AF786039603B68002B01D100232B
:1010B00027E07868FFF78EFF034683F00103DBB279
:1010C000002B01D001231CE07B689B889BB201337D
:1010D0009AB27B689A807B689B889AB27B681B89EE
:1010E0009BB29A4202D37B6800229A807B681A687E
:1010F0007B689B889BB29B0013441A683B681A600C
:10110000032318460837BD4680BD000080B584B073
:1011100000AF0FF007FA0346154A1360154BBB608A
:10112000134B1B6807F1080140F2146218460FF0D8
:10113000E3F8114B7B600E4B1B68391D40F21362C4
:1011400018460FF061F90346FB7397F90F30002B37
:1011500006D1074B1B680022084918460FF0C2F958
:1011600007490520FFF7E0FE00BF1037BD4680BDF0
:101170001C010020C0A8019CC0A801028511000824
:10118000A401002080B584B000AFF860B9607A6037
:101190003B607B6859687B685B891A46084811F098
:1011A000C6FF084B1B680133064A1360786808F0D5
:1011B00025FF01F0E1FB00BF1037BD4680BD00BF39
:1011C00020010020A001002080B5C4B000AF07F5C9
:1011D0008873A3F58673186007F58873A3F5867383
:1011E00007F108001A68174911F00AFFC7F80C0147
:1011F000D7F80C319BB24FF420721946362008F014
:1012000019FCC7F80801D7F80831002B14D0D7F81B
:101210000C319AB207F108031946D7F8080109F012
:1012200059F9094B1B68D7F8081118460EF07AFED9
:10123000D7F8080108F0E2FE00BF07F58877BD4641
:1012400080BD00BF084101081C01002080B400AF30
:10125000084B1B68074A43F080731360064B1B68FA
:10126000054A43F00103136000BFBD465DF8047BEF
:10127000704700BFFCED00E0001000E080B485B0D6
:1012800000AF78600C4B1B680C4AA2FB03239A0C3E
:101290007B6802FB03F3FB60094B00221A6000BF6E
:1012A000074B1B68FA689A42FAD800BF00BF143790
:1012B000BD465DF8047B70477800002083DE1B4349
:1012C000041000E080B483B000AF7860044A7B680B
:1012D000136000BF0C37BD465DF8047B704700BF4C
:1012E000B001002080B483B000AF786039603B6803
:1012F0001A687B681A603B689A887B689A803B68AA
:101300009A687B689A603B689A897B689A817B6857
:1013100000221A617B6800229A827B6800229A610F
:101320007B6801221A777B6800225A777B6800224B
:101330009A777B680022DA7700BF0C37BD465DF8EC
:10134000047B704780B582B000AF78607B681B7FFC
:101350005AB27B689B691A447B689A617B681B7FE1
:101360005BB21946786800F019F80B4B1B687A6875
:1013700010687A689188012298470520FFF77EFF60
:10138000054B1B687A6810687A6891880022984734
:1013900000BF0837BD4680BDB001002080B582B0D7
:1013A00000AF78600B46FB707B68DB7F83F0010346
:1013B000DBB2002B1BD097F90330012B0BD17B68DC
:1013C00001221A77194B1B687A6890687A689189AC
:1013D0000122984726E07B68FF221A77134B1B688F
:1013E0007A6890687A689189002298471AE097F99C
:1013F0000330012B0BD17B6801221A770B4B1B6842
:101400007A6890687A689189002298470AE07B6838
:10141000FF221A77054B1B687A6890687A68918971
:101420000122984700BF0837BD4680BDB0010020AB
:1014300080B582B000AF78607B6801225A777B6804
:101440009B7F83F00103DBB2002B08D00A4B1B68A3
:101450007A6810697A68918A0122984707E0064BFA
:101460001B687A6810697A68918A0022984700BFE1
:101470000837BD4680BD00BFB001002080B582B0F6
:1014800000AF78607B6800225A777B689B7F83F08F
:101490000103DBB2002B08D00A4B1B687A68106985
:1014A0007A68918A0022984707E0064B1B687A68A1
:1014B00010697A68918A0122984700BF0837BD46B3
:1014C00080BD00BFB001002080B485B000AFF860DF
:1014D000B9607A603B60094AFB681360084ABB68E0
:1014E0001360084A7B681360074A3B68136000BFBB
:1014F0001437BD465DF8047B704700BFB40100207F
:10150000B8010020BC010020C001002080B584B0DB
:1015100000AFF860B9607A603B60FB68BA681A6037
:10152000FB687A685A60FB684FF000029A60FB68BB
:1015300043F698229A81FB6800221A61FB68002218
:101540005A61FB6800221A763868FEF7D3FF4FF025
:1015500000021F4BFFF772F902460B461046194670
:10156000FFF7FCFA0246FB68DA61FB6800221A62A8
:10157000FB684FF000025A62FB6800229A62FB6827
:101580000022DA62FB68002283F83020FB68002228
:1015900083F83120FB684FF000025A63FB680D4A64
:1015A0009A63FB680C4ADA63FB680022A3F84020C8
:1015B000FB684FF000025A64FB68002283F8482061
:1015C000FB680022DA6400BF1037BD4680BD00BF53
:1015D0000080764000409C4500007A4480B483B08F
:1015E00000AF78600B46FB707B68FA7883F8482080
:1015F00000BF0C37BD465DF8047B704780B582B0F4
:1016000000AF7860084B1B68984702467B681A62F7
:101610007B681A6A7B685A617B685A697B681A61C1
:1016200000BF0837BD4680BDBC01002080B483B038
:1016300000AF78607B684FF000025A6200BF0C3741
:10164000BD465DF8047B704780B582B000AF78601E
:101650007B6893F83030022B52D12D4B1B68984792
:1016600002467B68DA627B6893F84830002B12D11F
:101670007B68B3F840309BB2002B0CD07B68D3ED75
:101680000E7AB1EE047AF4EEC77AF1EE10FA02DBCC
:10169000786800F09DF87B6893F84830012B08D1FA
:1016A0007B68B3F840309BB2002B02D0786800F022
:1016B000C3FA7B68DB6C002B22D07B68DA6A7B681C
:1016C0001B6AD21A7B68DB6C9A4219D37B68DA6A90
:1016D0007B681A627B6893F84830002B0DD17B68D9
:1016E0009A6A7B681B689B699A4206D1786800F009
:1016F0003AF87B6893F8303005E0786800F04EF8EF
:101700007B6893F8303018460837BD4680BD00BF6F
:10171000BC01002080B582B000AF78607B680122F8
:1017200083F830207B684FF000025A637868FFF737
:1017300065FF7B681B681846FFF77AFE00BF083715
:10174000BD4680BD80B582B000AF78607B68032263
:1017500083F830207B681B681846FFF78FFE00BFB8
:101760000837BD4680BD80B582B000AF78607B6829
:10177000012283F830207B684FF000025A637868BA
:10178000FFF754FF7B6893F83130002B02D0786864
:10179000FFF7D8FF00BF0837BD4680BD80B582B0D7
:1017A00000AF78607B681B681846FFF7CBFD00BF71
:1017B0000837BD4680BD80B483B000AF78607B68D9
:1017C00093F8303018460C37BD465DF8047B7047FF
:1017D0002DE9F04385B000AF78607B68DA6A7B68FA
:1017E0005B69D31A924A12889342C0F018817B68D1
:1017F0005B698F4A12881A447B685A617B689A6ACF
:101800007B681B689B69D31AFB607B6893ED097A40
:101810007B68D3ED097A27EE277A7B68B3F84030EE
:101820009BB207EE903AF8EEE77A67EE277A17EE6A
:10183000900AFEF781FE7CA3D3E90023FEF7FEFFAA
:1018400002460B4690469946FB68002BB8BF5B42A8
:101850001846FEF75FFE02460B4601210E46404643
:101860004946FFF747F90346002B01D100231E46E6
:10187000FE727B68B3F840309BB21846FEF74AFE12
:10188000804689466A4B1B881846FEF743FE66A3CE
:10189000D3E90023FEF7D2FF02460B4640464946F5
:1018A000FEF7A2FE02460B4690469946FB7A002BB5
:1018B0000FD07B68D3ED097AF5EEC07AF1EE10FA1D
:1018C00003DB4FF000005B490DE04FF000005A4988
:1018D00009E0FB68002B03DB4FF00000564902E0F3
:1018E0004FF00000534942464B46FEF77DFE02464C
:1018F0000B46904699467B685B6A1846FEF71CFECD
:1019000002460B4640464946FEF7B8FC02460B46E7
:1019100010461946FFF722F902467B685A627B6837
:10192000D3ED0D7AF5EE407AF1EE10FA20D17B6816
:10193000D3ED097ABDEEE77A7B68D3ED0E7AF1EE4E
:10194000677AFDEEE76A7B68D3ED0E7AFDEEE77A03
:1019500017EE902A16EE901A17EE100A00F01AFBF6
:1019600007EE900AF8EEE77A7B68C3ED097A1FE08C
:101970007B68D3ED097ABDEEE77A7B68D3ED0D7A0B
:10198000F1EE677AFDEEE76A7B68D3ED0D7AFDEE46
:10199000E77A17EE902A16EE901A17EE100A00F06A
:1019A000F9FA07EE900AF8EEE77A7B68C3ED097A58
:1019B0007B68D3ED097AF0EEE77AB1EE047AF4EEC3
:1019C000C77AF1EE10FA18DD7B685B6A1846FEF7FD
:1019D000B3FD02460B4614A1D1E90001FEF72EFF2C
:1019E00002460B46144623F0004520462946FFF7E1
:1019F00095F802467B68DA6402E07B680F4ADA6495
:101A00007B68D3ED097AF5EEC07AF1EE10FA01DBCE
:101A1000012201E04FF0FF327B681B681A7700BF9C
:101A20001437BD46BDE8F0830000000080842E41DD
:101A3000000000200000F0BF0000F03F400D030058
:101A400080B582B000AF786039607B683A689A628E
:101A50007B689A6A7B681B689B699A4236D07B6870
:101A6000B3F840309BB2002B09D07B68D3ED0E7ADF
:101A7000B1EE047AF4EEC77AF1EE10FA22D57B6863
:101A80009B6B1846FEF758FD02460B4612A1D1E9A2
:101A90000001FEF7D3FE02460B4610461946FFF73B
:101AA0003DF802467B68DA647B689A6A7B681B684B
:101AB0009B699A4201DD012201E04FF0FF327B6811
:101AC0001B681A777B68022283F8302000BF083732
:101AD000BD4680BDAFF300800000000080842E4131
:101AE00080B584B002AF786087ED000A7B6893F818
:101AF0004830002B01D0002368E07B6893F8303039
:101B0000022B01D1002361E0D7ED007AF0EEE77AF5
:101B100017EE900AFEF710FD02460B469FED2E1BB6
:101B200043EC102B12F096FA53EC102B104619468A
:101B3000FFF714F802467B689A637B68B3F840307D
:101B40009BB2002B09D07B68D3ED0E7AB1EE047AFC
:101B5000F4EEC77AF1EE10FA14D57B689B6B184649
:101B6000FEF7EAFC02460B461EA1D1E90001FEF792
:101B700065FE02460B4610461946FEF7CFFF0246A9
:101B80007B68DA647B68D3ED0E7AFDEEE77A4FF47A
:101B90007A73009343F6982344F620624FF47A71E7
:101BA00017EE900A00F0DAF903469AB20C4B1A804D
:101BB0000B4B1B884FF47A7243F69821184600F0BD
:101BC000E9F903469AB2064B1A80012318460837F2
:101BD000BD4680BDAFF30080DFBC9A785634323FFB
:101BE000000000200000000080842E4180B483B0FB
:101BF00000AF78600B467B807B6893F83030022B17
:101C000001D1002304E07B687A88A3F840200123F7
:101C100018460C37BD465DF8047B704780B483B02E
:101C200000AF78607B681B689B6918460C37BD461F
:101C30005DF8047B704700002DE9B04382B000AF2F
:101C400078607B68DA6A7B681B69D31A7A68928944
:101C50009342C0F093807B68DA6A7B681A617B6884
:101C6000B3F840309BB21846FEF754FC46A3D3E9C4
:101C70000023FEF7E3FD02460B46904699467B683B
:101C80009B891846FEF746FC02460B4640464946ED
:101C9000FEF7AAFC02460B46904699467B6893EDF8
:101CA0000F7A7B68D3ED097A77EE677AF5EEC07A22
:101CB000F1EE10FA03DB4FF00000374902E04FF07D
:101CC0000000364942464B46FEF78EFC02460B4664
:101CD000904699467B685B6A1846FEF72DFC0246E3
:101CE0000B4640464946FEF7C9FA02460B461046E7
:101CF0001946FEF733FF02467B685A627B68D3EDD4
:101D0000097AF5EEC07AF1EE10FA01DB012201E06A
:101D10004FF0FF327B681B681A777B685B6A184656
:101D2000FEF70AFC02460B4617A1D1E90001FEF7B7
:101D300085FD02460B46144623F000452046294601
:101D4000FEF7ECFE02467B68DA647B681B7E002BA4
:101D500014D07B68D3ED097AF0EEE77A17EE900A9B
:101D6000FEF7EAFB0AA3D3E90023FEF7B9FE034618
:101D7000002B00D102E07868FFF7F5FC00BF0837C0
:101D8000BD46BDE8B08300BF0000000080842E4146
:101D9000DFBC9A785634323F0000F03F0000F0BFBD
:101DA000B0B582B000AF786087ED000A7B6893F829
:101DB0004830012B01D00023C1E07B683A68DA6328
:101DC0007B68D3ED0F7AF5EE407AF1EE10FA0CBF96
:101DD00001230023DAB27B681A767B68D3ED0F7A91
:101DE000F5EE407AF1EE10FA0DD17B68B3F8403091
:101DF0009BB2002B07D17B680022DA647868FFF77A
:101E0000B2FC01239BE0D7ED007AF5EEC07AF1EE4B
:101E100010FA01DD012201E04FF0FF327B681B6800
:101E20001A77D7ED007AF0EEE77A17EE900AFEF710
:101E300083FB46A3D3E90023FEF748FE0346002BAD
:101E400014D07B681B681B7F5BB21846FEF762FBF1
:101E50003EA3D3E90023FEF7C7FB02460B4610461C
:101E60001946FEF77BFE02467B68DA637B68022236
:101E700083F830207B68B3F840309BB2002B1CD134
:101E80007B68DA6B7B685A627B685B6A1846FEF790
:101E900053FB02460B462FA1D1E90001FEF7CEFC11
:101EA00002460B46144623F0004520462946FEF71D
:101EB00035FE02467B68DA6440E07B6893ED0F7A7A
:101EC0007B68D3ED097A77EE677AF0EEE77A17EE62
:101ED000900AFEF731FB04460D467B68B3F84030AC
:101EE0009BB21846FEF716FB02460B4620462946D3
:101EF000FEF7A4FC02460B4610461946FEF72EFEDE
:101F000002467B689A607B6893ED027ADFED0E6A89
:101F1000C7EE267AFCEEE77A17EE903A9AB27B6823
:101F20009A817B689B8943F698224FF4FA611846A0
:101F300000F030F803469AB27B689A810123184674
:101F40000837BD46B0BD00BF0000C842DFBC9A786C
:101F50005634323F0000000080842E4180B485B0AA
:101F600000AFF860B9607A603B60FA68BB68D31A6A
:101F7000B9693A688A1A03FB02F27968BB68CB1A1E
:101F800092FBF3F23B68134418461437BD465DF8E4
:101F9000047B704780B485B000AFF860B9607A60A8
:101FA000BA687B689A420BDAFA68BB689A4205DB2A
:101FB000FA687B689342A8BF13460CE0BB680AE04E
:101FC000FA687B689A4205DBFA68BB689342A8BF4F
:101FD000134600E07B6818461437BD465DF8047B65
:101FE000704780B483B000AF78607B68002283F8CC
:101FF0006C207B68002283F86D207B68002283F8C8
:102000006E207B68012283F86F207B68002283F8B2
:10201000702000BF0C37BD465DF8047B70470000A0
:1020200080B500AF01F08EFA00F08AF800F02CFBCA
:1020300000F0F0F800F040F900F072F900F0A4F9B7
:1020400000F052FA00F09EFA00F0F0FA00F0CAF93F
:1020500000F0C2FA05F078FF00F0FAF9FFF7F6F8A1
:10206000274B1B681846FFF72DF9264B1868264B9F
:102070001968264B1A68264B1B68FFF725FA254975
:102080002548FFF72FF925492548FFF72BF94FF48D
:10209000C863244A20492448FFF738FA4FF4C8633C
:1020A000224A1F492248FFF731FA2248FFF799FFD9
:1020B000FFF72CF800F036FC1B48FFF72BFB1C4801
:1020C000FFF728FB01211848FFF788FA1648FFF7A9
:1020D00072FB0346012B0CD117491848FEF7DFFFAE
:1020E0000346032B05D1144B1B6819460E48FFF716
:1020F000A7FC0D48FFF7A8FA06F066F8E6E700BF70
:1021000004000020080000200C0000201000002027
:102110001400002018000020F808002030000020E3
:102120001809002048000020380900206000002025
:1021300088090020D80900204C0A0020A4010020B2
:1021400080B594B000AF07F120033022002118467B
:1021500010F0E5FF07F10C0300221A605A609A6044
:10216000DA601A610023BB60284B1B6C274A43F0DE
:1021700080531364254B1B6C03F08053BB60BB681A
:1021800000237B60224B1B68214A43F48043136089
:102190001F4B1B6803F480437B607B6801233B6219
:1021A0004FF480337B620223BB634FF48003FB63F5
:1021B00004233B64A8237B640223BB640723FB64E2
:1021C00007F12003184603F097FD0346002B01D0CA
:1021D00000F0A8FC0F23FB6002233B6100237B611E
:1021E0004FF4A053BB614FF48053FB6107F10C0324
:1021F0000521184603F0F8FF0346002B01D000F03C
:1022000091FC00BF5037BD4680BD00BF0038024082
:102210000070004080B584B000AF3B4600221A60D9
:102220005A609A60DA60214B214A1A601F4B4FF4C2
:1022300080325A601D4B00229A601C4B00221A61AA
:102240001A4B00221A76194B002283F82020174BD4
:102250000022DA62154B174A9A62144B0022DA60A8
:10226000124B0122DA61114B002283F830200F4B10
:1022700001225A610D4801F0FBF90346002B01D001
:1022800000F050FC00233B6001237B600023BB6017
:102290003B461946054801F02FFA0346002B01D0B2
:1022A00000F040FC00BF1037BD4680BDC4010020D7
:1022B000002001400100000F80B500AF164B174A07
:1022C0001A60154B10225A60134B00229A60124B71
:1022D0000022DA60104B00221A610F4B00225A6173
:1022E0000D4B00221A760C4B00225A760A4B002224
:1022F0009A76094B0022DA76074B00221A77064BB2
:1023000000225A77044801F015FC0346002B01D047
:1023100000F008FC00BF80BD0C02002000640040FB
:1023200080B582B000AF3B4600221A605A60144B61
:10233000144A1A60124801F00AFE0346002B01D02D
:1023400000F0F0FB00233B6000237B603B46002253
:1023500019460B4801F01DFE0346002B01D000F08A
:10236000E1FB3B4610221946054801F012FE0346E8
:10237000002B01D000F0D6FB00BF0837BD4680BD62
:10238000340200200074004080B500AF124B134AA5
:102390001A60114B124A5A600F4B00229A600E4B82
:1023A0000022DA600C4B4FF480421A610A4B002283
:1023B0005A61094B00229A61074B0022DA61064BF1
:1023C00000221A62044803F043FA0346002B01D0AE
:1023D00000F0A8FB00BF80BD480200200054004070
:1023E000A086010080B500AF174B184A1A60164B43
:1023F0004FF482725A60144B00229A60124B0022F2
:10240000DA60114B00221A610F4B00225A610E4B09
:102410004FF400729A610C4B0022DA610A4B0022E1
:102420001A62094B00225A62074B00229A62064B3D
:102430000A22DA62044804F0F7F80346002B01D0C0
:1024400000F070FB00BF80BD9C020020003C0040FB
:1024500080B586B000AF07F1080300221A605A6009
:102460009A60DA603B4600221A605A601D4B4FF0BA
:1024700080421A601B4B53225A601A4B00229A600A
:10248000184B4FF0FF32DA60164B00221A61154BE1
:1024900000229A61134804F050F90346002B01D042
:1024A00000F040FB4FF48053BB6007F1080319466E
:1024B0000C4804F04BFB0346002B01D000F032FB2C
:1024C00000233B6000237B603B461946054804F02F
:1024D000FBFE0346002B01D000F024FB00BF1837A1
:1024E000BD4680BDF402002080B588B000AF3B1D22
:1024F00000221A605A609A60DA601A615A619A6121
:102500001E4B1F4A1A601D4B00225A601B4B0022B3
:102510009A601A4B4FF6FF72DA60184B00221A616C
:10252000164B00229A61154804F007F90346002B68
:1025300001D000F0F7FA114804F0EDF90346002B42
:1025400001D000F0EFFA60237B600023BB60002322
:10255000FB6000237B613B1D00221946074804F005
:1025600033FA0346002B01D000F0DCFA034800F0F8
:102570009DFC00BF2037BD4680BD00BF3C0300204E
:10258000001C004080B500AF114B124A1A60104B7E
:102590004FF4E1325A600E4B00229A600C4B00223D
:1025A000DA600B4B00221A61094B0C225A61084B6E
:1025B00000229A61064B0022DA61054804F000FF10
:1025C0000346002B01D000F0ADFA00BF80BD00BF74
:1025D000840300200010014080B500AF114B124A67
:1025E0001A60104B4FF4E1325A600E4B00229A6091
:1025F0000C4B0022DA600B4B00221A61094B0C22B3
:102600005A61084B00229A61064B0022DA610548A4
:1026100004F0D6FE0346002B01D000F083FA00BF81
:1026200080BD00BFCC0300200048004080B500AF53
:10263000144B4FF0A0421A60124B04221A71114B36
:102640000222DA710F4B00229A710E4B02225A724B
:102650000C4B00229A720B4B0022DA72094B0022BB
:102660001A73084B00229A73064B0022DA7305484E
:1026700003F032FA0346002B01D000F053FA00BFFA
:1026800080BD00BF1404002080B58CB000AF07F1FE
:102690001C0300221A605A609A60DA601A610023F3
:1026A000BB619A4B1B6B994A43F010031363974B22
:1026B0001B6B03F01003BB61BB6900237B61934B71
:1026C0001B6B924A43F004031363904B1B6B03F0A4
:1026D00004037B617B6900233B618C4B1B6B8B4A42
:1026E00043F080031363894B1B6B03F080033B6152
:1026F0003B690023FB60854B1B6B844A43F001035D
:102700001363824B1B6B03F00103FB60FB68002328
:10271000BB607E4B1B6B7D4A43F0020313637B4B14
:102720001B6B03F00203BB60BB6800237B60774B2D
:102730001B6B764A43F008031363744B1B6B03F067
:1027400008037B607B6800224FF68871704803F0B5
:1027500065F800224EF280016E4803F05FF8002217
:102760004CF213716C4803F059F800224FF4014108
:102770006A4803F053F800220821694803F04EF834
:102780004523FB6100233B6200237B6207F11C03AE
:1027900019465F4802F0A6FE0823FB6101233B6255
:1027A00000237B620023BB6207F11C0319465848D3
:1027B00002F098FE3223FB614FF488133B62002342
:1027C0007B6207F11C031946514802F08BFE4FF45F
:1027D0006043FB6101233B6200237B620023BB62F9
:1027E00007F11C0319464B4802F07CFE40F24D33C2
:1027F000FB614FF488133B6200237B6207F11C03EB
:102800001946444802F06EFE4CF21343FB6101236B
:102810003B6200237B620323BB6207F11C03194662
:102820003D4802F05FFE4FF68073FB6101233B627F
:1028300000237B620323BB6207F11C031946344863
:1028400002F050FE4FF68043FB614FF488133B6269
:1028500000237B6207F11C031946314802F042FE57
:102860008023FB6101233B6200237B620323BB6265
:1028700007F11C031946274802F034FE4FF40143C8
:10288000FB6101233B6200237B620023BB6207F1F3
:102890001C031946214802F025FE7423FB61002326
:1028A0003B6200237B6207F11C0319461C4802F0BF
:1028B00019FE0823FB6101233B6200237B62002396
:1028C000BB6207F11C031946154802F00BFE2023DA
:1028D000FB6100233B6200237B6207F11C03194666
:1028E0000D4802F0FFFD4FF44073FB6101233B6292
:1028F00000237B620023BB6207F11C0319460648D4
:1029000002F0F0FD00BF3037BD4680BD0038024008
:102910000010024000080240000402400000024093
:10292000000C024080B500AF024803F055FF00BF25
:1029300080BD00BFF402002080B500AF024803F064
:10294000BBFF00BF80BD00BFF402002080B400AF19
:102950004FF0804300225A6200BFBD465DF8047B01
:10296000704780B400AF4FF080435B6A1846BD46A5
:102970005DF8047B7047000080B5C4B000AF5E4BCB
:102980001B78542B28D15C4B5B78532B24D10A2223
:1029900000215A4810F056FA0346A7F80E31B7F94D
:1029A0000E3107EE903AF8EEE77AB0EE670A544837
:1029B000FFF7F6F9B7F90E21524B1B68381D524943
:1029C00010F01EFB3B1D1846FEF7FEFB8022002187
:1029D000494810F0A4FB8BE0474B1B784D2B28D1C6
:1029E000454B5B78532B24D10A220021434810F039
:1029F00029FA0346A7F80C31B7F80C3107EE903AE4
:102A0000F8EE677AB0EE670A3D48FFF769F8B7F865
:102A10000C213C4B1B68381D3C4910F0F1FA3B1D62
:102A20001846FEF7D1FB80220021334810F077FBD7
:102A30005EE0314B1B78472B17D12F4B5B78502B27
:102A400013D12F48FFF7EAF802462E4B1B68381DBA
:102A50002F4910F0D5FA3B1D1846FEF7B5FB802232
:102A60000021254810F05BFB42E0234B1B78412BF3
:102A70001FD10A220021274810F0E4F90346A7F8E5
:102A80000631B7F8063119461D48FFF7AFF8B7F819
:102A900006211C4B1B68381D1F4910F0B1FA3B1D65
:102AA0001846FEF791FB80220021134810F037FBF7
:102AB0001EE00A220021104810F0C4F9C7F80801EE
:102AC000802200210C4810F02AFBD7F80811134887
:102AD000FEF7B5FA0346022B0AD10A4B1A683B1DD2
:102AE0000F49184610F08CFA3B1D1846FEF76CFB98
:102AF00007F58877BD4680BD200100202201002017
:102B000038090020A00100200C4101084C410108B7
:102B10008441010821010020C4410108A4010020D2
:102B20000042010880B400AF72B600BF00BFFDE7ED
:102B300080B483B000AF00237B60104B5B6C0F4A06
:102B400043F4804353640D4B5B6C03F480437B6020
:102B50007B6800233B60094B1B6C084A43F08053A1
:102B60001364064B1B6C03F080533B603B6800BF53
:102B70000C37BD465DF8047B704700BF003802404B
:102B800080B58AB000AF786007F1140300221A60A4
:102B90005A609A60DA601A617B681B68174A934230
:102BA00027D100233B61164B5B6C154A43F48073BD
:102BB0005364134B5B6C03F480733B613B690023EC
:102BC000FB600F4B1B6B0E4A43F0010313630C4B6E
:102BD0001B6B03F00103FB60FB6809237B6103238C
:102BE000BB610023FB6107F114031946054802F09D
:102BF00079FC00BF2837BD4680BD00BF00200140E2
:102C0000003802400000024080B58AB000AF786012
:102C100007F1140300221A605A609A60DA601A61A0
:102C20007B681B68194A93422BD100233B61184BE8
:102C30001B6C174A43F000731364154B1B6C03F0B5
:102C400000733B613B690023FB60114B1B6B104A17
:102C500043F0080313630E4B1B6B03F00803FB6088
:102C6000FB6803237B610223BB610023FB61032319
:102C70003B6209237B6207F114031946054802F001
:102C800031FC00BF2837BD4680BD00BF0064004056
:102C900000380240000C024080B58AB000AF786076
:102CA00007F1140300221A605A609A60DA601A6110
:102CB0007B681B68174A934227D100233B61164B60
:102CC0001B6C154A43F000531364134B1B6C03F049
:102CD00000533B613B690023FB600F4B1B6B0E4AAB
:102CE00043F0010313630C4B1B6B03F00103FB6008
:102CF000FB6830237B610323BB610023FB6107F189
:102D000014031946054802F0EDFB00BF2837BD4605
:102D100080BD00BF00740040003802400000024047
:102D200080B58AB000AF786007F1140300221A6002
:102D30005A609A60DA601A617B681B68194A93428C
:102D40002BD100233B61184B1B6B174A43F0020346
:102D50001363154B1B6B03F002033B613B69C023FC
:102D60007B611223BB610023FB6103233B620423CD
:102D70007B6207F1140319460C4802F0B3FB0023F1
:102D8000FB60094B1B6C084A43F400131364064BA9
:102D90001B6C03F40013FB60FB6800BF2837BD46C3
:102DA00080BD00BF005400400038024000040240D3
:102DB00080B58AB000AF786007F1140300221A6072
:102DC0005A609A60DA601A617B681B68194A9342FC
:102DD0002CD100233B61184B1B6C174A43F4004372
:102DE0001364154B1B6C03F400433B613B690023E8
:102DF000FB60114B1B6B104A43F0040313630E4B33
:102E00001B6B03F00403FB60FB684FF4E0537B6132
:102E10000223BB610023FB6103233B6206237B6229
:102E200007F114031946054802F05CFB00BF283780
:102E3000BD4680BD003C0040003802400008024012
:102E400080B485B000AF78607B681B68B3F1804FB9
:102E50000ED10023FB60134B1B6C124A43F001039D
:102E60001364104B1B6C03F00103FB60FB6812E062
:102E70007B681B680C4A93420DD10023BB60094B51
:102E80001B6C084A43F080031364064B1B6C03F071
:102E90008003BB60BB6800BF1437BD465DF8047B90
:102EA000704700BF00380240001C004080B588B069
:102EB00000AF786007F10C0300221A605A609A6034
:102EC000DA601A617B681B68124A93421DD10023A5
:102ED000BB60114B1B6B104A43F0010313630E4B95
:102EE0001B6B03F00103BB60BB684023FB60022344
:102EF0003B6100237B610023BB610923FB6107F178
:102F00000C031946054802F0EDFA00BF2037BD4614
:102F100080BD00BF001C004000380240000002409D
:102F200080B58CB000AF786007F11C0300221A60F6
:102F30005A609A60DA601A617B681B68334A934270
:102F40002DD10023BB61324B5B6C314A43F010033F
:102F500053642F4B5B6C03F01003BB61BB69002310
:102F60007B612B4B1B6B2A4A43F001031363284BF5
:102F70001B6B03F001037B617B694FF4C063FB6152
:102F800002233B6200237B620323BB620723FB62B5
:102F900007F11C0319461F4802F0A4FA31E07B68D0
:102FA0001B681D4A93422CD100233B61184B1B6CBC
:102FB000174A43F480231364154B1B6C03F48023DE
:102FC0003B613B690023FB60114B1B6B104A43F0D4
:102FD000080313630E4B1B6B03F00803FB60FB68D5
:102FE0004FF44073FB6102233B6200237B620323A7
:102FF000BB620723FB6207F11C031946074802F076
:1030000071FA00BF3037BD4680BD00BF00100140DF
:10301000003802400000024000480040000C02401E
:1030200080B58AB000AF786007F1140300221A60FF
:103030005A609A60DA601A617B681B68B3F1A04F2E
:1030400032D100233B611A4B1B6B194A43F0010339
:103050001363174B1B6B03F001033B613B694FF498
:10306000C0537B610223BB610023FB6103233B62EE
:103070000A237B6207F1140319460E4802F032FA64
:103080000B4B5B6B0A4A43F0800353630023FB60E6
:10309000074B5B6C064A43F480435364044B5B6C00
:1030A00003F48043FB60FB6800BF2837BD4680BD4A
:1030B000003802400000024080B400AF00BFFDE7CE
:1030C00080B400AF00BFFDE780B400AF00BFFDE7F4
:1030D00080B400AF00BFFDE780B400AF00BFFDE7E4
:1030E00080B400AF00BFBD465DF8047B704780B47C
:1030F00000AF00BFBD465DF8047B704780B400AFF1
:1031000000BFBD465DF8047B704780B500AF00F09E
:103110006BFA00BF80BD000080B500AF024801F02F
:10312000F3FA00BF80BD00BF7455002080B400AF2B
:1031300001231846BD465DF8047B704780B483B018
:1031400000AF78603960054B16221A604FF0FF33EC
:1031500018460C37BD465DF8047B70474C8C002048
:1031600080B582B000AF78604FF0FF317868FFF72C
:10317000E5FF00BFFDE780B586B000AFF860B9603D
:103180007A6000237B610AE0AFF300800146BB68F0
:103190005A1CBA60CAB21A707B6901337B617A69C2
:1031A0007B689A42F0DB7B6818461837BD4680BDC5
:1031B00080B586B000AFF860B9607A6000237B61AB
:1031C00009E0BB685A1CBA601B781846AFF3008050
:1031D0007B6901337B617A697B689A42F1DB7B68AA
:1031E00018461837BD4680BD80B483B000AF786004
:1031F0004FF0FF3318460C37BD465DF8047B70472F
:1032000080B483B000AF786039603B684FF40052FF
:103210005A60002318460C37BD465DF8047B7047A2
:1032200080B483B000AF7860012318460C37BD46E8
:103230005DF8047B704780B485B000AFF860B9607A
:103240007A60002318461437BD465DF8047B70474A
:1032500080B487B000AF7860144A154BD31A7B61F5
:103260007B693B61134B1B68002B02D1114B124A47
:103270001A60104B1A687B6813443A699A4205D267
:103280000E4B0C221A604FF0FF3309E0094B1B680C
:10329000FB60084B1A687B681344064A1360FB689E
:1032A00018461C37BD465DF8047B704700000220BD
:1032B00000400000500A0020588C00204C8C002058
:1032C00080B400AF064BD3F88830054A43F470034E
:1032D000C2F8883000BFBD465DF8047B704700BF70
:1032E00000ED00E0DFF834D0FFF7EAFF0C480D49AD
:1032F0000D4A002302E0D458C4500433C4188C4251
:10330000F9D30A4A0A4C002301E013600432A242B6
:10331000FBD30FF07BFFFEF783FE70470000022017
:103320000000002000010020186F010800010020AB
:10333000548C0020FEE780B483B000AF7860396021
:103340007B68002B0BD03B68DB68002B07D03B6809
:103350009B68002B03D03B681B69002B02D14FF008
:10336000FF3314E03B681A687B689A603B685A68D0
:103370007B68DA603B68DA687B685A613B689A6808
:103380007B681A613B681A697B689A61002318465A
:103390000C37BD465DF8047B704780B586B000AF42
:1033A00078600023FB6000237B6100233B617B6826
:1033B0005B68002B39D17B689B68002B02D07B684F
:1033C0009B6898477B6820221A6000237B611CE081
:1033D0007B685B6907F10C02122178699847034604
:1033E000002B03DA6FF004033B610BE0FB6803F092
:1033F0001F037A699A4205D17B687A691A600023B3
:103400003B6105E07B6901337B617B691F2BDFD961
:103410007B681B681F2B02D96FF002033B613B697D
:10342000002B02D17B6801225A603B69184618378D
:10343000BD4680BD80B584B000AF78600023FB60DE
:103440007B685B697A68106807F10C020121984774
:103450000346002B02DA6FF004036EE07B685B69C1
:103460007A68106807F10C02012198470346002B87
:1034700002DA6FF0040360E0FB6803F00403002B42
:1034800001D1012359E07B685B697A68106807F114
:103490000C02002198470346002B02DA6FF0040368
:1034A0004BE0FB6803F48053002B1BD1FB6803F453
:1034B0000053002B06D0FB6803F48073002B01D06F
:1034C00002233AE0FB6803F40053002B01D00323EE
:1034D00033E0FB6803F48073002B01D004232CE05D
:1034E00005232AE07B685B697A68106807F10C02A3
:1034F0001F2198470346002B02DA6FF004031CE0FB
:10350000FB6803F48053002B01D1062315E0FB6810
:1035100003F01C03182B01D102230EE0FB6803F01B
:103520001C03082B01D1032307E0FB6803F01C03F5
:10353000142B01D1042300E0052318461037BD46A3
:1035400080BD000080B500AF0E4B1B680D4A43F4F0
:10355000007313600B4B1B680A4A43F480631360CB
:10356000084B1B68074A43F480731360032000F084
:10357000ADFC0F2000F008F8FFF7DAFA0023184638
:1035800080BD00BF003C024080B582B000AF7860D3
:10359000124B1A68124B1B7819464FF47A73B3FB1F
:1035A000F1F3B2FBF3F3184600F0C5FC0346002B21
:1035B00001D001230EE07B680F2B0AD80022796826
:1035C0004FF0FF3000F08DFC064A7B68136000234B
:1035D00000E0012318460837BD4680BD7800002072
:1035E000800000207C00002080B400AF064B1B78D8
:1035F0001A46064B1B681344044A136000BFBD46BD
:103600005DF8047B704700BF80000020540A002052
:1036100080B400AF034B1B681846BD465DF8047BC1
:10362000704700BF540A002080B584B000AF7860B6
:10363000FFF7EEFFB8607B68FB60FB68B3F1FF3F0C
:1036400005D00A4B1B781A46FB681344FB6000BF89
:10365000FFF7DEFF0246BB68D31AFA689A42F7D832
:1036600000BF00BF1037BD4680BD00BF80000020F6
:1036700080B584B000AF78600023FB737B68002BBB
:1036800001D1012333E07B681B6C002B09D17868E2
:10369000FFF776FA7B6800225A647B68002283F881
:1036A0003C207B681B6C03F01003002B18D17B6857
:1036B0001B6C23F4885323F0020343F002027B685F
:1036C0001A64786800F03AF97B6800225A647B68D3
:1036D0001B6C23F0030343F001027B681A6401E0D2
:1036E0000123FB737B68002283F83C20FB7B184698
:1036F0001037BD4680BD000080B485B000AF786053
:1037000039600023BB607B6893F83C30012B01D10A
:10371000022305E17B68012283F83C203B681B689B
:10372000092B25D97B681B68D9683B681B689BB24D
:103730001A4613465B0013441E3B072202FA03F3AA
:10374000DA437B681B680A40DA607B681B68D968CB
:103750003B689A683B681B689BB2184603465B004F
:1037600003441E3B9A407B681B680A43DA6022E0F0
:103770007B681B6819693B681B689BB21A46134635
:103780005B001344072202FA03F3DA437B681B68E9
:103790000A401A617B681B6819693B689A683B6834
:1037A0001B689BB2184603465B0003449A407B6843
:1037B0001B680A431A613B685B68062B24D87B6848
:1037C0001B68596B3B685A6813469B001344053BC2
:1037D0001F2202FA03F3DA437B681B680A405A632C
:1037E0007B681B68596B3B681B689BB218463B683B
:1037F0005A6813469B001344053B00FA03F27B68AA
:103800001B680A435A634CE03B685B680C2B24D866
:103810007B681B68196B3B685A6813469B0013440E
:10382000233B1F2202FA03F3DA437B681B680A403A
:103830001A637B681B68196B3B681B689BB2184650
:103840003B685A6813469B001344233B00FA03F27B
:103850007B681B680A431A6323E07B681B68D96A8C
:103860003B685A6813469B001344413B1F2202FAEF
:1038700003F3DA437B681B680A40DA627B681B68E3
:10388000D96A3B681B689BB218463B685A68134666
:103890009B001344413B00FA03F27B681B680A4318
:1038A000DA62224BFB607B681B68214A934209D194
:1038B0003B681B68122B05D1FB685B6843F48002F0
:1038C000FB685A607B681B68194A934223D13B68A6
:1038D0001B68102B03D03B681B68112B1BD1FB68A6
:1038E0005B6843F40002FB685A603B681B68102B5E
:1038F00011D1104B1B68104AA2FB03239A0C1346EC
:103900009B0013445B00BB6002E0BB68013BBB60F3
:10391000BB68002BF9D17B68002283F83C20002390
:1039200018461437BD465DF8047B704700230140FC
:10393000002001407800002083DE1B4380B485B066
:1039400000AF7860794BFB60FB685B6823F4403222
:10395000FB685A60FB685A687B685B681A43FB68BF
:103960005A607B681B685A687B681B6822F4807207
:103970005A607B681B6859687B681B691A027B6800
:103980001B680A435A607B681B685A687B681B681F
:1039900022F040725A607B681B6859687B689A689D
:1039A0007B681B680A435A607B681B689A687B685F
:1039B0001B6822F400629A607B681B6899687B68C8
:1039C000DA687B681B680A439A607B689B6A584A7E
:1039D000934222D07B681B689A687B681B6822F040
:1039E00070629A607B681B6899687B689A6A7B68DA
:1039F0001B680A439A607B681B689A687B681B682F
:103A000022F040529A607B681B6899687B68DA6A8A
:103A10007B681B680A439A600FE07B681B689A68A2
:103A20007B681B6822F070629A607B681B689A68EA
:103A30007B681B6822F040529A607B681B689A681A
:103A40007B681B6822F002029A607B681B68996899
:103A50007B681B7E5A007B681B680A439A607B6800
:103A600093F82030002B1BD07B681B685A687B685A
:103A70001B6842F400625A607B681B685A687B6866
:103A80001B6822F460425A607B681B6859687B6837
:103A90005B6A013B5A037B681B680A435A6007E074
:103AA0007B681B685A687B681B6822F400625A6056
:103AB0007B681B68DA6A7B681B6822F47002DA6232
:103AC0007B681B68D96A7B68DB69013B1A057B68E8
:103AD0001B680A43DA627B681B689A687B681B680C
:103AE00022F400729A607B681B6899687B6893F87F
:103AF00030305A027B681B680A439A607B681B68F7
:103B00009A687B681B6822F480629A607B681B68F5
:103B100099687B685B699A027B681B680A439A60B4
:103B200000BF1437BD465DF8047B70470023014099
:103B30000100000F80B584B000AF78607B68002B77
:103B400001D10123EDE07B6893F82030DBB2002B3C
:103B500002D17868FFF758F87B681B681A687B68A1
:103B60001B6842F001021A60FFF752FDF86012E094
:103B7000FFF74EFD0246FB68D31A0A2B0BD97B6870
:103B80005B6A43F400327B685A627B68052283F8E3
:103B900020200123C5E07B681B685B6803F00103FC
:103BA000002BE5D07B681B681A687B681B6822F0D5
:103BB00002021A60FFF72CFDF86012E0FFF728FD03
:103BC0000246FB68D31A0A2B0BD97B685B6A43F465
:103BD00000327B685A627B68052283F8202001232B
:103BE0009FE07B681B685B6803F00203002BE5D154
:103BF0007B681B7E012B08D17B681B681A687B6879
:103C00001B6842F080021A6007E07B681B681A6834
:103C10007B681B6822F080021A607B685B7E012B48
:103C200008D17B681B681A687B681B6842F04002F9
:103C30001A6007E07B681B681A687B681B6822F0C3
:103C400040021A607B689B7E012B08D17B681B6851
:103C50001A687B681B6842F020021A6007E07B68E4
:103C60001B681A687B681B6822F020021A607B6858
:103C7000DB7E012B08D17B681B681A687B681B6898
:103C800022F010021A6007E07B681B681A687B68E4
:103C90001B6842F010021A607B681B7F012B08D161
:103CA0007B681B681A687B681B6842F008021A6010
:103CB00007E07B681B681A687B681B6822F00802B3
:103CC0001A607B685B7F012B08D17B681B681A68D0
:103CD0007B681B6842F004021A6007E07B681B687F
:103CE0001A687B681B6822F004021A607B689A6875
:103CF0007B68DB681A437B681B691A437B685B69D6
:103D000042EA03017B685B685A1E7B681B680A43B2
:103D1000DA617B6800225A627B68012283F82020E6
:103D2000002318461037BD4680BD000080B485B022
:103D300000AF78607B6803F00703FB600C4BDB6827
:103D4000BB60BA684FF6FF031340BB60FB681A0202
:103D5000BB68134343F0BF6343F40033BB60044AC2
:103D6000BB68D36000BF1437BD465DF8047B704765
:103D700000ED00E080B400AF044BDB681B0A03F0E9
:103D800007031846BD465DF8047B704700ED00E070
:103D900080B483B000AF0346FB7197F90730002B66
:103DA0000BDBFB7903F01F02074997F907305B092A
:103DB000012000FA02F241F8232000BF0C37BD4673
:103DC0005DF8047B704700BF00E100E080B483B081
:103DD00000AF03463960FB7197F90730002B0ADB0F
:103DE0003B68DAB20C4997F907301201D2B20B44A2
:103DF00083F800230AE03B68DAB20849FB7903F054
:103E00000F03043B1201D2B20B441A7600BF0C37E9
:103E1000BD465DF8047B704700E100E000ED00E086
:103E200080B489B000AFF860B9607A60FB6803F0D5
:103E30000703FB61FB69C3F10703042B28BF0423BD
:103E4000BB61FB690433062B02D9FB69033B00E02D
:103E500000237B614FF0FF32BB6902FA03F3DA43C0
:103E6000BB681A407B699A404FF0FF317B6901FAC9
:103E700003F3D9437B680B40134318462437BD46F0
:103E80005DF8047B7047000080B582B000AF7860B9
:103E90007B68013BB3F1807F01D301230FE00A4A25
:103EA0007B68013B53600F214FF0FF30FFF78EFF1F
:103EB000054B00229A60044B07221A600023184623
:103EC0000837BD4680BD00BF10E000E080B582B07D
:103ED00000AF78607868FFF729FF00BF0837BD465C
:103EE00080BD80B586B000AF0346B9607A60FB73D1
:103EF00000237B61FFF73EFF78617A68B9687869D3
:103F0000FFF78EFF024697F90F3011461846FFF76C
:103F10005DFF00BF1837BD4680BD80B582B000AFE1
:103F20000346FB7197F907301846FFF731FF00BFD2
:103F30000837BD4680BD80B582B000AF7860786834
:103F4000FFF7A2FF034618460837BD4680BD80B57F
:103F500082B000AF78607B68002B01D1012314E0B0
:103F60007B681B79DBB2002B05D17B6800225A717C
:103F70007868FEF791FE7B6802221A717B68002246
:103F80001A617B6801221A71002318460837BD4662
:103F900080BD80B489B000AFF860B9607A6000235A
:103FA000FB77FB68002B02D0BB68002B01D10123FB
:103FB00042E0FB685B79012B01D102233CE0FB6806
:103FC00001225A71FB6802221A71FB681B681B6888
:103FD000BB617B6803F0100340F6FE7202FA03F344
:103FE000DB43BA691340BB61BB681A68BB685B6896
:103FF00013437B617B6803F010037A6902FA03F3D1
:10400000BA691343BB61FB681B68BA691A60FB6835
:104010001B6819687B6803F01003C02202FA03F3DF
:10402000DA43FB681B680A401A60FB6801221A71B8
:10403000FB6800225A71FB7F18462437BD465DF8A5
:10404000047B704780B584B000AF78607B68002B3C
:1040500001D101238AE07B68D3F88430002B06D19C
:104060007B682322C3F88420786804F071FA002367
:10407000BB60404B5B6C3F4A43F4804353643D4B11
:104080005B6C03F48043BB60BB683B4B5B683A4AA4
:1040900023F400035360384B5A687B689B683649A9
:1040A00013434B60344B5B687B681B6803F580539C
:1040B0001B687A68126843F0010302F580521360AE
:1040C000FFF7A6FAF86011E0FFF7A2FA0246FB68D4
:1040D000D31AB3F5FA7F09D97B680422C3F8882084
:1040E0007B68E022C3F8842001233FE07B681B68E3
:1040F00003F580531B6803F00103002BE4D17868BB
:1041000000F032FF786800F0DDFF786801F033F8E6
:104110007B685B681A460021786800F09BFF7B682B
:104120001B68DA6B7B681B6842F40272DA637B6897
:104130001B68D3F80C317A68126843F4003343F0FB
:104140006003C2F80C317B681B68D3F810217B68D0
:104150001B6842F40312C3F810217B680022C3F8E5
:1041600088207B681022C3F884200023184610376B
:10417000BD4680BD003802400038014080B584B0A3
:1041800000AF78607B68D3F88430102B61D17B68F6
:104190002322C3F884207B6801229A657B6804226D
:1041A000DA66786800F02CFA7B681B681B68FB6095
:1041B0000120FFF739FA7B681B68FA681A607B6890
:1041C0001B6803F580539B697A68126843F40053B7
:1041D00002F5805293617B681B6803F580539B69ED
:1041E0007A68126843F0020302F58052936178689E
:1041F00000F056FD7B681B681A687B681B6842F0FC
:1042000008021A607B681B681B68FB600120FFF7CF
:104210000BFA7B681B68FA681A607B681B681A686F
:104220007B681B6842F004021A607B681B6803F518
:104230008053DB697A68126843F4D03343F0C103DA
:1042400002F58052D3617B682322C3F884200023C7
:1042500000E0012318461037BD4680BD80B586B00A
:1042600000AF78607B68D3F88430232B70D17B68F3
:104270002322C3F884207B681B6803F58053DB6925
:104280007A68126823F4D03323F0C10302F5805218
:10429000D3617B681B6803F580539B697A68126859
:1042A00023F4005302F5805293617B681B6803F589
:1042B00080539B697A68126823F0020302F58052EA
:1042C00093617B681B681A687B681B6822F0040294
:1042D0001A607B681B681B683B610120FFF7A4F92B
:1042E0007B681B683A691A60786800F0D9FC7B68C3
:1042F0001B681A687B681B6822F008021A607B68DA
:104300001B681B683B610120FFF78EF97B681B6807
:104310003A691A6000237B610EE07B687A69123289
:1043200053F82230FB60FB685B6843F00042FB6897
:104330005A607B6901337B617B69032BEDD97B6814
:1043400000229A657B681022C3F88420002300E0D5
:10435000012318461837BD4680BD80B586B000AF32
:10436000F860B9607A60BB68002B09D1FB68D3F8AC
:10437000883043F00102FB68C3F8882001237CE009
:10438000FB68D3F88430232B76D10022B968F86813
:1043900000F060FF0346002B09D0FB68D3F888309B
:1043A00043F00202FB68C3F88820012365E0BFF3F5
:1043B0004F8F00BFFB689A6AFB68063253F82230C1
:1043C0007B61FB689B6A5A1CFB689A62FB689B6A6C
:1043D000032B04D9FB689B6A1A1FFB689A62FB686F
:1043E000996AFB681A68FB68063153F8213002F5B8
:1043F00080525360FFF70CF9386137E0FB681B68A7
:1044000003F580535B6903F40053002B11D0FB6864
:10441000D3F8883043F00802FB68C3F88820FB68B3
:104420001B6803F580535A69FB68C3F88C2001238D
:1044300023E07B68B3F1FF3F18D0FFF7E9F80246AD
:104440003B69D31A7A689A4202D37B68002B0DD15C
:10445000FB68D3F8883043F00402FB68C3F8882077
:104460007B694FF040521A60012306E07B691B68AC
:10447000002BC3DB002300E0012318461837BD469C
:1044800080BD80B588B000AF7860396000237B6163
:104490000023FB743B68002B09D17B68D3F888307C
:1044A00043F001027B68C3F888200123A4E07B6805
:1044B000D3F88430232B01D001239DE07B68DB6D92
:1044C000FB617B68FA69123253F82230BB617B686A
:1044D000DB6EC3F10403FB6066E0BB691B6803F499
:1044E0008073002B07D0BB69DA697B689A67BB6968
:1044F0009A697B685A67BB691B6803F40073002BD9
:1045000003D17B68DB6F002B3CD0BB691B6803F4D5
:104510000073002B05D07B6800221A667B6800229E
:104520005A66BB691B681B0CC3F30D03BB60BB69F8
:104530001B6803F48073002B05D0BB691A687B6885
:104540001A670123FB74BB699A68BB691A627B68AE
:1045500003F17C007B6803F18001BB691B6A1A468A
:10456000BB689BB204F0ACF97B681B6E5A1C7B687D
:104570001A667B685A6EBB681A447B685A66BB69C8
:1045800000221A62FB690133FB61FB69032B02D92C
:10459000FB69043BFB617B68FA69123253F82230F5
:1045A000BB617B6901337B61BB691B68002B06DB48
:1045B0007A69FB689A4202D2FB7C002B8DD07B6823
:1045C000DA6E7B691A447B68DA667B68DB6E002BE7
:1045D00002D0786800F014F87B68FA69DA65FB7C31
:1045E000012B08D17B68DA6F3B681A607B68002278
:1045F000DA67002300E0012318462037BD4680BD5E
:1046000080B588B000AF78600023BB600123FB74E5
:104610007B689B6EFB617B68FA69123253F822302B
:104620007B617B68DB6EBB6144E07B691B6A002BAE
:1046300012D107F10803184604F012F9BB68002BE9
:1046400002D10023FB7407E0BB681A467B691A623B
:10465000BB681A467B699A60FB7C002B2AD07B687A
:104660009B6D002B08D17B685B6943F0004343F4EA
:1046700080437A69536005E07B685B6943F480425C
:104680007B695A607B691B6843F000427B691A6052
:10469000FB690133FB61FB69032B02D9FB69043B16
:1046A000FB617B68FA69123253F822307B61BB6987
:1046B000013BBB61BB69002B02D0FB7C002BB4D15A
:1046C0007B68DB6EBA699A421AD0FB69013303F04A
:1046D0000303FB60BFF35F8F00BF7B681969FA6853
:1046E00013469B001344DB00CA187B681B6803F564
:1046F00080539A607B68FA699A667B68BA69DA6661
:1047000000BF2037BD4680BD80B586B000AF786061
:104710007B681B689B6B7B617B681B6803F5805320
:104720005B693B617B681B6803F58053DB69FB6059
:104730004B4B5B69BB603B6903F04003002B0ED021
:10474000FB6803F04003002B09D07B681B6803F56E
:1047500080531A46434B5361786800F091F83B69E7
:1047600003F00103002B0FD0FB6803F00103002BC3
:104770000AD07B681B6803F580531A464FF001137B
:104780005361786800F072F83B6903F40043002B32
:1047900042D0FB6803F40043002B3DD07B68D3F884
:1047A000883043F008027B68C3F888203B6903F433
:1047B0000053002B1AD07B681B6803F580535A699D
:1047C000294B13407A68C2F88C307B681B6803F56C
:1047D0008053DB697A68126823F4C03302F5805293
:1047E000D3617B68E022C3F8842012E07B681B68F9
:1047F00003F580535A6948F2806313407A68C2F81F
:104800008C307B681B6803F580531A4648F280633E
:104810005361786800F03EF87B6903F00803002BD1
:104820000ED07B681B68DB6A03F060027B68C3F80C
:104830009420786800F038F87B680022C3F8942050
:10484000BB6803F40023002B06D0054B4FF4002275
:104850005A61786800F032F800BF1837BD4680BD55
:10486000003C01404000010000207E0080B483B085
:1048700000AF786000BF0C37BD465DF8047B704721
:1048800080B483B000AF786000BF0C37BD465DF8E0
:10489000047B704780B483B000AF786000BF0C37F2
:1048A000BD465DF8047B704780B483B000AF78608C
:1048B00000BF0C37BD465DF8047B704780B483B001
:1048C00000AF786000BF0C37BD465DF8047B7047D1
:1048D00080B586B000AFF860B9607A603B60FB6875
:1048E0001B681B697B617B6903F01C037B61BB68F0
:1048F000DB029BB27A6913437B617B689B0103F403
:10490000F8637A6913437B617B6923F002037B615F
:104910007B6943F001037B61FB681B687A691A615C
:10492000FEF776FE38610DE0FEF772FE02463B6947
:10493000D31AB3F5803F01D3012310E0FB681B6855
:104940001B697B617B6903F00103002BECD1FB68E1
:104950001B685B699BB21A463B681A6000231846C5
:104960001837BD4680BD80B586B000AFF860B9602D
:104970007A603B60FB681B681B697B617B6903F0A5
:104980001C037B61BB68DB029BB27A6913437B61CA
:104990007B689B0103F4F8637A6913437B617B694D
:1049A00043F002037B617B6943F001037B613B6859
:1049B0009AB2FB681B685A61FB681B687A691A61C6
:1049C000FEF726FE38610DE0FEF722FE02463B6947
:1049D000D31AB3F5803F01D3012309E0FB681B68BC
:1049E0001B697B617B6903F00103002BECD1002381
:1049F00018461837BD4680BD80B483B000AF7860DC
:104A000039603B68002B01D10123E6E07B681B681D
:104A10001B6803F01003002B14BF01230023DBB23B
:104A20001A463B6883F828207B681B681B6803F0E4
:104A300060023B685A627B681B681B6803F4007362
:104A4000002B0CBF01230023DBB21A463B6883F81E
:104A500020207B681B681B6803F48033002B14BF85
:104A600001230023DBB21A463B68DA777B681B68B8
:104A70001B6803F40053002B0CBF01230023DBB29F
:104A80001A463B689A777B681B681B6803F480535F
:104A9000002B14BF01230023DBB21A463B681A77B0
:104AA0007B681B681B6803F400623B689A617B6843
:104AB0001B681B6803F480423B685A617B681B6873
:104AC0001B6803F48003002B0CBF01230023DBB21F
:104AD0001A463B685A747B681B681B6803F4000322
:104AE000002B0CBF01230023DBB21A463B681A746B
:104AF0007B681B681B6803F08003002B14BF012335
:104B00000023DBB21A463B68DA737B681B681B68BC
:104B100003F460223B689A607B681B681B6803F49F
:104B20008063002B14BF01230023DBB21A463B68CD
:104B30001A717B681B681B6803F00073002B14BF9D
:104B400001230023DBB21A463B689A737B681B681B
:104B50009B6903F00203002B14BF01230023DBB287
:104B60001A463B6883F854207B681B689B6903F0F6
:104B70008003002B0CBF01230023DBB21A463B68E5
:104B800083F84C207B681B689B6903F030023B680C
:104B90001A657B681B689B691B0C9AB23B689A6418
:104BA0007B681B689B6903F00403002B14BF01237F
:104BB0000023DBB21A463B6883F856207B681B68EB
:104BC0009B6903F00803002B14BF01230023DBB211
:104BD0001A463B6883F85520002318460C37BD461B
:104BE0005DF8047B704780B582B000AF78603960B3
:104BF0003B68002B01D101230BE07B68D3F88430A4
:104C0000102B05D13968786800F070F8002300E0B7
:104C1000012318460837BD4680BD000080B584B02A
:104C200000AF78607B681B681B69FB60FB6823F042
:104C30001C03FB6001F0C4FCB860BB68144A9342DB
:104C400004D8FB6843F00803FB6019E0BB68114A15
:104C5000934204D2FB6843F00C03FB6010E0BB6896
:104C60000D4A93420CD9BB680C4A934204D8FB68A6
:104C700043F00403FB6003E0FB6843F01003FB60B8
:104C80007B681B68FA681A6100BF1037BD4680BD9B
:104C9000BF0E160200879303FFE0F5057FD1F008F1
:104CA00080B584B000AF78600023FB607B681B6830
:104CB00003F580539B697A68126843F4801302F508
:104CC000805293617B681B6803F580539B69FB608E
:104CD0000120FEF7A9FC7B681A68FB6802F5805288
:104CE000936100BF1037BD4680BD000080B584B021
:104CF00000AF786039607B681B681B68FB60FA68EE
:104D0000534B1340FB603B689B7B5B063A68127C0D
:104D1000002A02D14FF4000200E0002213433A6857
:104D2000527C002A02D14FF4800200E000221A4394
:104D30003B689B681A433B68DB7F1B041A433B6854
:104D40005B6913433A68927F002A02D14FF4005204
:104D500000E000221A433B681B7F1B031A433B6899
:104D60009B691A433B681B799B0213433A6892F88C
:104D70002020002A02D14FF4007200E000221A43E2
:104D80003B68DB7BDB011A433B685B6A1A433B6889
:104D900093F828301B011343FA681343FB607B68C8
:104DA0001B68FA681A607B681B681B68FB6001203F
:104DB000FEF73AFC7B681B68FA681A607B681B6820
:104DC0009B69FB60FA684FF641731340FB603B68D8
:104DD0009B6C1B043A6892F84C20002A01D1802277
:104DE00000E000221A433B681B6D13433A6892F8B7
:104DF0005520012A01D1082200E0002213433A681D
:104E000092F85620012A01D1042200E00022134327
:104E10003A6892F85420012A01D1022200E00022CF
:104E20001343FA681343FB607B681B68FA689A6156
:104E30007B681B689B69FB600120FEF7F5FB7B68C4
:104E40001B68FA689A6100BF1037BD4680BD00BF7D
:104E50000F8120FD80B584B000AF786039607B6839
:104E60001B6803F580539B69FB60FA683D4B134058
:104E7000FB603B681B7B002B02D14FF0806200E09F
:104E800000223B685B7B5B0613433A68527F002A33
:104E900002D14FF4801200E000221A433B689B7B52
:104EA0005B051A433B685B691A433B681B7FDB0168
:104EB0001A433B689B7F9B011A433B681B6A1A435A
:104EC0003B6893F824309B001343FA681343FB605C
:104ED0007B681B6803F580531A46FB6893617B6807
:104EE0001B6803F580539B69FB600120FEF79CFB68
:104EF0007B681B6803F580531A46FB6893613B6827
:104F00001B795A063B689B681A433B689B691A43A6
:104F10003B681B691A433B6893F82530DB011A4351
:104F20003B689B6A9B001A433B681B6813437A6883
:104F3000126843F4000302F5805213607B681B681B
:104F400003F580531B68FB600120FEF76DFB7B6857
:104F50001B6803F580531A46FB68136000BF1037C7
:104F6000BD4680BD233FDEF880B5A6B000AF7860B7
:104F7000012387F84430012387F845300023FB6381
:104F8000002387F85330012387F85230002387F835
:104F90005030012387F84230012387F8383000234E
:104FA00087F85430002387F843300023BB65002383
:104FB00087F85C300023FB67002387F880300023EC
:104FC000C7F88430002387F88A30002387F88830B8
:104FD0004FF48043BB644FF40063FB64002387F805
:104FE000893007F1340319467868FFF77FFE012303
:104FF0003B7501237B75012387F825300123BB75A1
:105000000023FB61002387F82430002387F8263033
:105010000023BB62012387F82C3001233B734FF43C
:1050200080333B614FF480033B624FF40053BB611C
:10503000012387F82D3000233B630023BB6007F179
:10504000080319467868FFF705FF00BF9837BD468B
:1050500080BD000080B487B000AFF860B9607A60AE
:105060007B6805331B781B027A680432127813437D
:105070007B61BA68114B13441A467B6913607B68E5
:1050800003331B781A067B6802331B781B041A4310
:105090007B6801331B781B0213437A681278134331
:1050A0007B61BA68064B13441A467B69136000BFE4
:1050B0001C37BD465DF8047B704700BF408002404E
:1050C0004480024080B485B000AF78600023FB606C
:1050D0003EE07B68D968FA6813469B001344DB0006
:1050E0000B44BB60BB6800221A60BB6800225A6098
:1050F000BB6800229A60BB680022DA60B9687B68EE
:10510000FA68063243F82210BB681B6843F4801229
:10511000BB681A60FB68022B0CD87B68D968FB68F7
:105120005A1C13469B001344DB000B441A46BB6811
:10513000DA6004E07B68DB681A46BB68DA60BB684B
:105140001B6843F44002BB681A60FB680133FB60D4
:10515000FB68032BBDD97B6800229A627B68DA6802
:105160007B681B6803F580531A6100BF1437BD4686
:105170005DF8047B704780B485B000AF7860002391
:10518000FB6048E07B681969FA6813469B0013448A
:10519000DB000B44BB60BB6800221A60BB680022C6
:1051A0005A60BB6800229A60BB680022DA60BB6864
:1051B00000221A62BB6800225A62BB684FF00042AC
:1051C0001A607B685B6943F48042BB685A60BB68C5
:1051D0005B6823F00042BB685A60B9687B68FA6874
:1051E000123243F82210FB68022B0CD87B68196935
:1051F000FB685A1C13469B001344DB000B441A4601
:10520000BB68DA6004E07B681B691A46BB68DA6039
:10521000FB680133FB60FB68032BB3D97B6800227A
:10522000DA657B6800221A667B6800229A667B68D2
:105230000022DA667B6800229A657B681A697B68BF
:105240001B6803F58053DA6000BF1437BD465DF874
:10525000047B704780B491B000AFF860B9607A60A9
:10526000FB6818337B627B6A1B69FB637B6A1B6983
:105270003B6200237B637B6AFA6B53F822303B630B
:10528000BB689B68FB620023BB623B6B1B6803F03F
:105290000043B3F1004F07D07A6AFB6B04339B00E5
:1052A00013445B68002B01D0022315E17B6B0133B3
:1052B0007B63FB6A1B681A463B6B9A603B6B5B68BF
:1052C00023F4FF5323F01F03FA6A52681A433B6B1F
:1052D0005A60BB681B6803F00103002B08D03B6BCE
:1052E0001B6823F44002BB685B691A433B6B1A607E
:1052F000BB681B6803F02003002B08D03B6B1B68C6
:1053000023F04062BB681B691A433B6B1A60BB68A1
:105310001B6803F00403002B05D03B6B1B6843F0B4
:1053200080023B6B1A603B6B1B6843F080523B6B07
:105330001A6084E03B6B1B6823F000523B6B1A60E1
:105340007B68002B06D03B6B1B6843F080423B6BB5
:105350001A6005E03B6B1B6823F080423B6B1A60D0
:10536000FB6B0133FB63FB6B032B02D9FB6B043B31
:10537000FB637B6AFA6B53F822303B633B6B1B6821
:1053800003F00043B3F1004F07D07A6AFB6B04339C
:105390009B0013445B68002B29D03B6AFB637B6A4C
:1053A000FA6B53F822303B630023BB6319E0BFF371
:1053B0005F8F00BF3B6B1B6823F000423B6B1A60A2
:1053C000FB6B0133FB63FB6B032B02D9FB6B043BD1
:1053D000FB637B6AFA6B53F822303B63BB6B013390
:1053E000BB63BA6B7B6B9A42E1D3022374E03B6BE5
:1053F0001B6823F080523B6B1A607B6B01337B632D
:10540000FB6A9B68FB62FB6A1B681A463B6B9A60EF
:105410003B6B5B6823F4FF5323F01F03FA6A526867
:105420001A433B6B5A60BB6A0133BB62BFF35F8FA9
:1054300000BF3B6B1B6843F000423B6B1A60FB6A8A
:105440009B68002B7FF476AF7B68002B06D03B6B0C
:105450001B6843F080423B6B1A6005E03B6B1B68A6
:1054600023F080423B6B1A603B6B1B6843F0005299
:105470003B6B1A607B6A3A6A53F822303B63BFF396
:105480005F8F00BF3B6B1B6843F000423B6B1A60B1
:105490007B6A5A6A796AFB6B04339B000B445A603F
:1054A0007B6AFA6B1A61EFF310833B613B69FB6126
:1054B00001237B617B6983F3108800BF7B6A9A6A52
:1054C000BB6A13445A1C7B6A9A62FB69BB61BB6965
:1054D00083F3108800BF002318464437BD465DF8AB
:1054E000047B704780B489B000AF786039600023D6
:1054F0007B6100233B610023BB610023FB616BE107
:105500000122FB6902FA03F37B613B681B687A693D
:1055100013403B613A697B699A4240F05A813B688B
:105520005B6803F00303012B05D03B685B6803F065
:105530000303022B30D17B689B68BB61FB695B0076
:10554000032202FA03F3DB43BA691340BB613B68F1
:10555000DA68FB695B0002FA03F3BA691343BB61C3
:105560007B68BA699A607B685B68BB610122FB69F2
:1055700002FA03F3DB43BA691340BB613B685B6823
:105580001B0903F00102FB6902FA03F3BA69134332
:10559000BB617B68BA695A603B685B6803F00303D0
:1055A000032B17D07B68DB68BB61FB695B000322C0
:1055B00002FA03F3DB43BA691340BB613B689A68A4
:1055C000FB695B0002FA03F3BA691343BB617B68B2
:1055D000BA69DA603B685B6803F00303022B23D1EE
:1055E000FB69DA087B68083253F82230BB61FB693B
:1055F00003F007039B000F2202FA03F3DB43BA69AF
:105600001340BB613B681A69FB6903F007039B0009
:1056100002FA03F3BA691343BB61FB69DA087B68DA
:105620000832B96943F822107B681B68BB61FB69CB
:105630005B00032202FA03F3DB43BA691340BB6148
:105640003B685B6803F00302FB695B0002FA03F34B
:10565000BA691343BB617B68BA691A603B685B68CF
:1056600003F44033002B00F0B4800023FB60604B58
:105670005B6C5F4A43F4804353645D4B5B6C03F4A3
:105680008043FB60FB685B4AFB699B08023352F86E
:105690002330BB61FB6903F003039B000F2202FA76
:1056A00003F3DB43BA691340BB617B68524A934200
:1056B0002BD07B68514A934225D07B68504A934255
:1056C0001FD07B684F4A934219D07B684E4A934261
:1056D00013D07B684D4A93420DD07B684C4A93426D
:1056E00007D07B684B4A934201D107230EE0082381
:1056F0000CE006230AE0052308E0042306E0032368
:1057000004E0022302E0012300E00023FA6902F032
:10571000030292009340BA691343BB613549FB69A8
:105720009B080233BA6941F823203B4B9B68BB615D
:105730003B69DB43BA691340BB613B685B6803F4B8
:105740008013002B03D0BA693B691343BB61324A13
:10575000BB699360304BDB68BB613B69DB43BA6973
:105760001340BB613B685B6803F40013002B03D05C
:10577000BA693B691343BB61274ABB69D360264BB7
:105780005B68BB613B69DB43BA691340BB613B6843
:105790005B6803F40033002B03D0BA693B69134301
:1057A000BB611D4ABB6953601B4B1B68BB613B69F6
:1057B000DB43BA691340BB613B685B6803F4803329
:1057C000002B03D0BA693B691343BB61124ABB6922
:1057D0001360FB690133FB61FB690F2B7FF690AE11
:1057E00000BF00BF2437BD465DF8047B704700BF93
:1057F000003802400038014000000240000402402E
:1058000000080240000C0240001002400014024058
:1058100000180240001C0240003C014080B483B0EC
:1058200000AF78600B467B8013467B707B78002B43
:1058300003D07A887B689A6103E07B881A047B68CE
:105840009A6100BF0C37BD465DF8047B70470000CD
:1058500080B584B000AF78607B68002B01D1012354
:105860002BE17B6893F83D30DBB2002B06D17B68DF
:10587000002283F83C207868FDF752FA7B682422E6
:1058800083F83D207B681B681A687B681B6822F0E0
:1058900001021A607B681B681A687B681B6842F407
:1058A00000421A607B681B681A687B681B6822F4D8
:1058B00000421A6000F090FEF8607B685B68814AE5
:1058C000934207D8FB68804A934294BF0123002388
:1058D000DBB206E0FB687D4A934294BF01230023BC
:1058E000DBB2002B01D00123E7E0FB68784AA2FB82
:1058F00003239B0CBB607B681B685B6823F03F0144
:105900007B681B68BA680A435A607B681B681B6A1D
:1059100023F03F017B685B686A4A934202D8BB6808
:10592000013309E0BB684FF4967202FB03F3694A46
:10593000A2FB03239B0901337A6812680B431362AD
:105940007B681B68DB6923F44F4222F0FF027B680F
:105950005B685C498B4219D8FB68591E7B685B68A1
:105960005B00B1FBF3F3591C40F6FC730B40002BBA
:105970000AD0FB68591E7B685B685B00B1FBF3F3E0
:105980000133C3F30B0351E004234FE07B689B68B2
:10599000002B11D1FB68581E7B6859680B465B00D1
:1059A0000B44B0FBF3F30133C3F30B03002B0CBF29
:1059B00001230023DBB212E0FB68581E7B685968A4
:1059C0000B469B000B4499000B44B0FBF3F30133EF
:1059D000C3F30B03002B0CBF01230023DBB2002B0E
:1059E00001D0012322E07B689B68002B0ED1FB686D
:1059F000581E7B6859680B465B000B44B0FBF3F301
:105A00000133C3F30B0343F400430FE0FB68581E5C
:105A10007B6859680B469B000B4499000B44B0FB14
:105A2000F3F30133C3F30B0343F44043796809688C
:105A30001343CB617B681B681B6823F0C0017B6844
:105A4000DA697B681B6A1A437B681B680A431A6021
:105A50007B681B689B6823F4034323F0FF037A6889
:105A600011697A68D26811437A6812680B439360AF
:105A70007B681B68DB6823F0FF017B685A697B68E1
:105A80009B691A437B681B680A43DA607B681B6862
:105A90001A687B681B6842F001021A607B6800226A
:105AA0001A647B68202283F83D207B6800221A63F9
:105AB0007B68002283F83E20002318461037BD463D
:105AC00080BD00BFA08601007F841E00FF083D004E
:105AD00083DE1B43D34D621080B586B002AF786081
