:020000040800F2
:1000000000000220356C0008E9690008F169000869
:10001000F9690008016A0008096A00080000000088
:10002000000000000000000000000000116A00084D
:100030001F6A0008000000002D6A00083B6A0008E3
:10004000856C0008856C0008856C0008856C0008CC
:10005000856C0008856C0008856C0008856C0008BC
:10006000856C0008856C0008856C0008856C0008AC
:10007000856C0008856C0008856C0008856C00089C
:10008000856C0008856C0008856C0008856C00088C
:10009000856C0008856C0008856C0008856C00087C
:1000A000856C0008496A0008856C0008856C0008AA
:1000B000856C0008856C0008856C0008856C00085C
:1000C000856C0008856C0008856C0008856C00084C
:1000D000856C0008856C0008856C0008856C00083C
:1000E000856C0008856C0008856C0008856C00082C
:1000F000696A0008856C0008856C0008856C00083A
:10010000856C0008856C0008856C0008856C00080B
:10011000856C0008856C0008856C0008856C0008FB
:10012000856C0008856C0008856C0008856C0008EB
:10013000856C0008856C0008856C0008856C0008DB
:10014000856C0008856C0008856C0008856C0008CB
:10015000856C0008856C0008856C0008856C0008BB
:10016000856C0008856C0008856C0008856C0008AB
:10017000856C0008856C0008856C00080000000094
:08018000856C0008856C000885
:1001900010B5054C237833B9044B13B10448AFF3C1
:1001A00000800123237010BDE80A00200000000039
:1001B0009CA4010808B5034B1BB103490348AFF3E6
:1001C000008008BD00000000EC0A00209CA401088B
:1001D00010F8012B11F8013B012A28BF9A42F7D0F1
:1001E000D01A7047034613F8012B002AFBD1181AC6
:1001F000013870470000000000000000000000000F
:1002000001F0FF01102A2BDB10F0070F08D010F8C7
:10021000013B013A8B422DD010F0070F42B3F6D1CB
:10022000F0B441EA012141EA014122F007047FF0E4
:1002300000070023F0E80256083C85EA010586EA3B
:10024000010685FA47F5A3FA87F586FA47F6A5FA77
:1002500087F68EB9EED1F0BC01F0FF0102F0070283
:1002600032B110F8013B013A83EA010313B1F8D12E
:100270000020704701387047002D06BF354603380F
:10028000073815F0010F07D1013015F4807F02BF48
:10029000013015F4C03F0130F0BC0138704700BF99
:1002A00081F0004102E000BF83F0004330B54FEA27
:1002B00041044FEA430594EA050F08BF90EA020F94
:1002C0001FBF54EA000C55EA020C7FEA645C7FEA27
:1002D000655C00F0E2804FEA5454D4EB5555B8BF4A
:1002E0006D420CDD2C4480EA020281EA030382EABB
:1002F000000083EA010180EA020281EA0303362D4D
:1003000088BF30BD11F0004F4FEA01314FF4801C1F
:100310004CEA113102D0404261EB410113F0004F31
:100320004FEA03334CEA133302D0524263EB4303E8
:1003300094EA050F00F0A780A4F10104D5F1200E86
:100340000DDB02FA0EFC22FA05F2801841F10001E1
:1003500003FA0EF2801843FA05F359410EE0A5F1B5
:1003600020050EF1200E012A03FA0EFC28BF4CF0E6
:10037000020C43FA05F3C01851EBE37101F000459C
:1003800007D54FF0000EDCF1000C7EEB00006EEBA9
:100390000101B1F5801F1BD3B1F5001F0CD3490833
:1003A0005FEA30004FEA3C0C04F101044FEA44528A
:1003B00012F5800F80F09A80BCF1004F08BF5FEA11
:1003C000500C50F1000041EB045141EA050130BDF1
:1003D0005FEA4C0C404141EB0101013C28BFB1F503
:1003E000801FE9D291F0000F04BF01460020B1FA4E
:1003F00081F308BF2033A3F10B03B3F120020CDA21
:100400000C3208DD02F1140CC2F10C0201FA0CF0FE
:1004100021FA02F10CE002F11402D8BFC2F1200C63
:1004200001FA02F120FA0CFCDCBF41EA0C01904019
:10043000E41AA2BF01EB0451294330BD6FEA040462
:100440001F3C1CDA0C340EDC04F11404C4F120024D
:1004500020FA04F001FA02F340EA030021FA04F35F
:1004600045EA030130BDC4F10C04C4F1200220FAB6
:1004700002F001FA04F340EA0300294630BD21FAF4
:1004800004F0294630BD94F0000F83F4801306BFBA
:1004900081F480110134013D4EE77FEA645C18BFAE
:1004A0007FEA655C29D094EA050F08BF90EA020F45
:1004B00005D054EA000C04BF1946104630BD91EA3D
:1004C000030F1EBF0021002030BD5FEA545C05D140
:1004D0004000494128BF41F0004130BD14F580047F
:1004E0003CBF01F5801130BD01F0004545F0FE41F3
:1004F00041F470014FF0000030BD7FEA645C1ABF28
:10050000194610467FEA655C1CBF0B46024650EA5E
:10051000013406BF52EA033591EA030F41F400218A
:1005200030BD00BF90F0000F04BF0021704730B510
:100530004FF4806404F132044FF000054FF00001E5
:1005400050E700BF90F0000F04BF0021704730B5A6
:100550004FF4806404F1320410F0004548BF40427B
:100560004FF000013EE700BF42004FEAE2014FEAD0
:1005700031014FEA02701FBF12F07F4393F07F4FAB
:1005800081F06051704732F07F4208BF704793F0AE
:100590007F4F04BF41F40021704730B54FF46074C1
:1005A00001F0004521F000411CE700BF50EA0102C4
:1005B00008BF704730B54FF000050AE050EA01026D
:1005C00008BF704730B511F0004502D5404261EBDD
:1005D00041014FF4806404F132045FEA915C3FF41E
:1005E000D8AE4FF003025FEADC0C18BF03325FEABB
:1005F000DC0C18BF033202EBDC02C2F1200300FA6C
:1006000003FC20FA02F001FA03FE40EA0E0021FA90
:1006100002F11444BDE600BF70B54FF0FF0C4CF47E
:10062000E06C1CEA11541DBF1CEA135594EA0C0F30
:1006300095EA0C0F00F0DEF82C4481EA030621EA6B
:100640004C5123EA4C5350EA013518BF52EA0335A6
:1006500041F4801143F4801338D0A0FB02CE4FF058
:100660000005E1FB02E506F00042E0FB03E54FF088
:100670000006E1FB03569CF0000F18BF4EF0010E80
:10068000A4F1FF04B6F5007F64F5407404D25FEA7C
:100690004E0E6D4146EB060642EAC62141EA55512F
:1006A0004FEAC52040EA5E504FEACE2EB4F1FD0C71
:1006B00088BFBCF5E06F1ED8BEF1004F08BF5FEAEF
:1006C000500E50F1000041EB045170BD06F00046A1
:1006D00046EA010140EA020081EA0301B4EB5C044E
:1006E000C2BFD4EB0C0541EA045170BD41F4801146
:1006F0004FF0000E013C00F3AB8014F1360FDEBF6B
:10070000002001F0004170BDC4F10004203C35DA46
:100710000C341BDC04F11404C4F1200500FA05F3C9
:1007200020FA04F001FA05F240EA020001F000426A
:1007300021F0004110EBD37021FA04F642EB0601E0
:100740005EEA430E08BF20EAD37070BDC4F10C040A
:10075000C4F1200500FA04F320FA05F001FA04F2CE
:1007600040EA020001F0004110EBD37041F10001BA
:100770005EEA430E08BF20EAD37070BDC4F12005C5
:1007800000FA05F24EEA020E20FA04F301FA05F22D
:1007900043EA020321FA04F001F0004121FA04F2D5
:1007A00020EA020000EBD3705EEA430E08BF20EAA5
:1007B000D37070BD94F0000F0FD101F000464000DF
:1007C00041EB010111F4801F08BF013CF7D041EA61
:1007D000060195F0000F18BF704703F00046520065
:1007E00043EB030313F4801F08BF013DF7D043EA36
:1007F0000603704794EA0C0F0CEA135518BF95EAEC
:100800000C0F0CD050EA410618BF52EA4306D1D172
:1008100081EA030101F000414FF0000070BD50EA91
:10082000410606BF1046194652EA430619D094EA1B
:100830000C0F02D150EA013613D195EA0C0F05D105
:1008400052EA03361CBF104619460AD181EA030159
:1008500001F0004141F0FE4141F470014FF0000011
:1008600070BD41F0FE4141F4780170BD70B54FF0AC
:10087000FF0C4CF4E06C1CEA11541DBF1CEA13552C
:1008800094EA0C0F95EA0C0F00F0A7F8A4EB05040E
:1008900081EA030E52EA03354FEA013100F0888005
:1008A0004FEA03334FF0805545EA131343EA1263CE
:1008B0004FEA022245EA111545EA10654FEA002683
:1008C0000EF000419D4208BF964244F1FD0404F53C
:1008D000407402D25B084FEA3202B61A65EB030598
:1008E0005B084FEA32024FF480104FF4002CB6EB55
:1008F000020E75EB030E22BFB61A754640EA0C00D5
:100900005B084FEA3202B6EB020E75EB030E22BF14
:10091000B61A754640EA5C005B084FEA3202B6EB55
:10092000020E75EB030E22BFB61A754640EA9C0014
:100930005B084FEA3202B6EB020E75EB030E22BFE4
:10094000B61A754640EADC0055EA060E18D04FEAA2
:10095000051545EA16754FEA06164FEAC30343EA42
:1009600052734FEAC2025FEA1C1CC0D111F4801F0F
:100970000BD141EA00014FF000004FF0004CB6E708
:1009800011F4801F04BF01430020B4F1FD0C88BFA7
:10099000BCF5E06F3FF6AFAEB5EB030C04BFB6EBB2
:1009A000020C5FEA500C50F1000041EB045170BDA5
:1009B0000EF0004E4EEA113114EB5C04C2BFD4EBD2
:1009C0000C0541EA045170BD41F480114FF0000E56
:1009D000013C90E645EA060E8DE60CEA135594EAD2
:1009E0000C0F08BF95EA0C0F3FF43BAF94EA0C0FD5
:1009F0000AD150EA01347FF434AF95EA0C0F7FF44A
:100A000025AF104619462CE795EA0C0F06D152EA9D
:100A100003353FF4FDAE1046194622E750EA410681
:100A200018BF52EA43067FF4C5AE50EA41047FF492
:100A30000DAF52EA43057FF4EBAE12E74FF0FF3CF7
:100A400006E000BF4FF0010C02E000BF4FF0010CC8
:100A50004DF804CD4FEA410C7FEA6C5C4FEA430C41
:100A600018BF7FEA6C5C1BD001B050EA410C0CBF90
:100A700052EA430C91EA030F02BF90EA020F0020F2
:100A8000704710F1000F91EA030F58BF994208BF59
:100A900090422CBFD8176FEAE37040F00100704716
:100AA0004FEA410C7FEA6C5C02D150EA013C07D16D
:100AB0004FEA430C7FEA6C5CD6D152EA033CD3D0B8
:100AC0005DF8040B704700BF8446104662468C46B2
:100AD0001946634600E000BF01B5FFF7B7FF0028E5
:100AE00048BF10F1000F01BD4DF808EDFFF7F4FF0E
:100AF0000CBF012000205DF808FB00BF4DF808ED99
:100B0000FFF7EAFF34BF012000205DF808FB00BFBB
:100B10004DF808EDFFF7E0FF94BF012000205DF8DD
:100B200008FB00BF4DF808EDFFF7CEFF94BF012092
:100B300000205DF808FB00BF4DF808EDFFF7C4FF8B
:100B400034BF012000205DF808FB00BF4FEA410CD4
:100B50007FEA6C5C02D150EA013C0AD14FEA430CB7
:100B60007FEA6C5C02D152EA033C02D14FF00000F4
:100B700070474FF0010070474FEA410212F5001232
:100B800015D211D56FF47873B3EB625212D94FEAD4
:100B9000C12343F0004343EA505311F0004F23FABE
:100BA00002F018BF404270474FF00000704750EA13
:100BB000013005D111F0004008BF6FF000407047D0
:100BC0004FF00000704700BF4A0011D212F500122A
:100BD00011D20DD56FF47873B3EB62520ED44FEA95
:100BE000C12343F0004343EA505323FA02F0704715
:100BF0004FF00000704750EA013002D14FF0FF3053
:100C000070474FF0000070474FEA4102B2F1E043F5
:100C100024BFB3F5001CDCF1FE5C0DD901F0004CE3
:100C20004FEAC0024CEA5070B2F1004F40EB830033
:100C300008BF20F00100704711F0804F21D113F15F
:100C40003872BCBF01F00040704741F480114FEA98
:100C50005252C2F11802C2F1200C10FA0CF320FA21
:100C600002F018BF40F001004FEAC1234FEAD3233E
:100C700003FA0CFC40EA0C0023FA02F34FEA4303A8
:100C8000CCE77FEA625307D150EA01331EBF4FF031
:100C9000FE4040F44000704701F0004040F0FE404C
:100CA00040F40000704700BF80F0004002E000BF49
:100CB00081F0004142001FBF5FEA410392EA030F47
:100CC0007FEA226C7FEA236C6AD04FEA1262D2EB91
:100CD0001363C1BFD218414048404140B8BF5B4296
:100CE000192B88BF704710F0004F40F4000020F02F
:100CF0007F4018BF404211F0004F41F4000121F045
:100D00007F4118BF494292EA030F3FD0A2F101028E
:100D100041FA03FC10EB0C00C3F1200301FA03F1CC
:100D200000F0004302D5494260EB4000B0F5000FEF
:100D300013D3B0F1807F06D340084FEA310102F1AE
:100D40000102FE2A51D2B1F1004F40EBC25008BF60
:100D500020F0010040EA03007047490040EB00002A
:100D6000013A28BFB0F5000FEDD2B0FA80FCACF12B
:100D7000080CB2EB0C0200FA0CF0AABF00EBC25058
:100D800052421843BCBFD0401843704792F0000F46
:100D900081F4000106BF80F400000132013BB5E799
:100DA0004FEA41037FEA226C18BF7FEA236C21D00F
:100DB00092EA030F04D092F0000F08BF0846704774
:100DC00090EA010F1CBF0020704712F07F4F04D142
:100DD000400028BF40F00040704712F100723CBF55
:100DE00000F50000704700F0004343F0FE4040F47F
:100DF000000070477FEA226216BF08467FEA23633D
:100E00000146420206BF5FEA412390EA010F40F427
:100E1000800070474FF0000304E000BF10F0004373
:100E200048BF40425FEA000C08BF704743F096435A
:100E300001464FF000001CE050EA010208BF704775
:100E40004FF000030AE000BF50EA010208BF7047FC
:100E500011F0004302D5404261EB41015FEA010C11
:100E600002BF84460146002043F0B64308BFA3F109
:100E70008053A3F50003BCFA8CF2083AA3EBC253EB
:100E800010DB01FA02FC634400FA02FCC2F120020A
:100E9000BCF1004F20FA02F243EB020008BF20F041
:100EA0000100704702F1200201FA02FCC2F12002A7
:100EB00050EA4C0021FA02F243EB020008BF20EA9C
:100EC000DC70704753B94AB9002908BF00281CBF1D
:100ED0004FF0FF314FF0FF3000F0BEB9ADF1080C1C
:100EE0006DE904CE00F03CF8DDF804E0DDE9022312
:100EF00004B0704738B50022002304460D46FFF7C2
:100F0000FDFD28B920462946BDE8384000F00AB862
:100F1000204605F1004100F005F8404261EB410137
:100F200038BD00BFD0B50C4B002206460F46FFF778
:100F300073FBFFF749FE0446FFF7F4FA074B002264
:100F4000FFF76AFB02460B4630463946FFF7ACF91D
:100F5000FFF73AFE2146D0BD0000F03D0000F04111
:100F60002DE9F047089D8E4604468846002B4AD15D
:100F70008A42174662D9B2FA82F64EB1C6F1200310
:100F800001FA06F820FA03F3B74043EA0808B44030
:100F90004FEA174E1FFA87FCB8FBFEF1230C0EFB3D
:100FA000118843EA084301FB0CF29A4209D9FB1865
:100FB00001F1FF3080F0EA809A4240F2E780023986
:100FC0003B449A1AA3B2B2FBFEF00EFB102243EA96
:100FD000024300FB0CFC9C4509D9FB1800F1FF32D1
:100FE00080F0D6809C4540F2D3803B44023840EAF2
:100FF0000140A3EB0C0300211DB1F3400022C5E921
:101000000032BDE8F0878B4205D90DB1C5E900017A
:1010100000210846F5E7B3FA83F1002946D173456C
:1010200002D3824200F20581841A6EEB0302012092
:101030009046002DE5D0C5E90048E2E7002A00F01F
:101040009080B2FA82F6002E40F0A4808A1A030C37
:101050004FEA174E80B2BCB20121B2FBFEFC0EFB80
:101060001C2243EA024304FB0CF29A4207D9FB1804
:101070000CF1FF3802D29A4200F2E080C4469B1A7B
:10108000B3FBFEF20EFB123340EA034302FB04F40F
:101090009C4207D9FB1802F1FF3002D29C4200F2B9
:1010A000CA8002461B1B42EA0C40A5E7C1F120069C
:1010B0008B4022FA06F71F430EFA01F420FA06F3DA
:1010C0002EFA06FE4FEA1749234300FA01F81FFAE9
:1010D00087FCBEFBF9F01C0C09FB10EE44EA0E4441
:1010E00000FB0CFEA64502FA01F209D93C1900F1F9
:1010F000FF3A80F09C80A64540F2998002383C443B
:10110000A4EB0E041FFA83FEB4FBF9F309FB1344AE
:101110004EEA044403FB0CFCA44508D93C1903F136
:10112000FF3E80F08280A4457FD9023B3C4443EAE5
:101130000040A4EB0C04A0FB02EC64457346E146BE
:1011400062D35FD05DB1B8EB030264EB090404FA2B
:1011500006F622FA01F31E43CC40C5E900640021E3
:101160004FE7B1FBF2FC010C41EA0E4180B240EACC
:1011700001423B4638463C46B846BE462026B1FBB7
:10118000F7F1A2EB080241EA0C4166E7014618E7D5
:1011900010462CE7C6F120022EFA02F3B740B14008
:1011A00020FA02F24FEA174E0A43B3FBFEF8BCB234
:1011B0000EFB1833110C41EA034108FB04F9B0405F
:1011C00089454FEA104380B23ED9791808F1FF3CB7
:1011D00001D289451FD8A1EB0901B1FBFEF909FB3A
:1011E00004F80EFB191192B242EA0142424529D29B
:1011F000BA1809F1FF31C4D24245C2D2A9F10201A5
:101200003A44BEE7F0459DD2BEEB02036CEB070CFF
:101210000138E14696E7A7EB09094944A8F1020C19
:10122000B1FBFEF909FB04F8DBE773467FE75046A4
:1012300066E70846FDE63B44023A33E7ACF1020CB0
:101240003B441CE749469CE7A1EB0901C446B1FBBE
:10125000FEF909FB04F8C4E7704700BF80B485B00D
:1012600000AFF860B9607A603B60094AFB681360C0
:10127000084ABB681360084A7B681360074A3B68EA
:10128000136000BF1437BD465DF8047B704700BF94
:10129000040B0020080B00200C0B0020100B00207A
:1012A00080B584B000AFF860B9607A607B80FB687D
:1012B000BA681A60FB687A685A60FB683A7F1A72EB
:1012C000FB680022DA60FB6800221A61FB680022DA
:1012D0005A61FB683A7E1A76FB6800225A76FB68F0
:1012E00000229A76FB680122DA76FB687A889A8374
:1012F0003B7E002B0FD1FB6805229A847B88324A03
:10130000A2FB03239B089AB2FB68DA84FB684FF0C8
:1013100000021A621AE03B7E012B17D17B88184627
:10132000FFF710F94FF00002284BFFF79FFA024633
:101330000B4610461946FFF767FC0246FB681A6227
:10134000FB6800229A84FB680022DA84FB684FF471
:101350007A721A85FB680022DA62FB681C4A1A63FB
:10136000FB6800225A63FB6800229A63FB68002234
:10137000DA63FB6800221A64FB6800225A64FB6887
:1013800000229A64FB684FF00002DA64FB684FF0B9
:1013900000021A65FB68002283F85420FB684FF0B6
:1013A00000029A65FB684FF00002DA65FB680022D4
:1013B0001A66FB6800225A66FB684FF07E529A66F6
:1013C00000BF1037BD4680BDCDCCCCCC0080764070
:1013D00000007A4480B483B000AF78600B46FB70A5
:1013E0007B68FA785A7600BF0C37BD465DF8047BFF
:1013F0007047000080B582B000AF7860084B1B6872
:10140000984702467B681A617B681A697B68DA62D2
:101410007B68DA6A7B689A6400BF0837BD4680BD86
:101420000C0B002080B582B000AF78607B68022290
:10143000DA767868FFF7DEFF7B681B68184604F0F1
:101440009AFF00BF0837BD4680BD80B582B000AFAF
:1014500078607B680122DA767B681B68184604F0A6
:10146000B2FF00BF0837BD4680BD000080B582B026
:1014700000AF78607B68DB7E5BB2032B48D1284BE2
:101480001B68984702467B68DA607B685B7EDBB24C
:10149000002B07D17B681B8D9BB2002B02D0786894
:1014A00000F05EF87B685B7EDBB2012B07D17B68C6
:1014B0001B8D9BB2002B02D0786800F001FC7B688A
:1014C0005B69002B24D07B68DA687B681B69D21AC1
:1014D0007B685B699A421BD37B68DA687B681A6118
:1014E0007B685B7EDBB2002B0DD17B685A6B7B681F
:1014F0001B685B689A4206D1786800F013F87B6835
:10150000DB7E5BB207E07B681B68184604F0B4FE24
:101510007B68DB7E5BB218460837BD4680BD00BFE6
:101520000C0B002080B582B000AF78607B6802228F
:10153000DA767B6800225A617B684FF00002DA6439
:101540007B6800221A667B689B7EDBB2002B02D090
:101550007868FFF77AFF00BF0837BD4680BD0000FE
:101560002DE9B04F84B000AF78607B681B681B7AB0
:10157000FB737B689A6B7B685B6CD31A002B01DB77
:10158000012301E04FF0FF33BB737B68DA687B68AF
:10159000DB6AD21A7B685B699A42C0F01D817B6866
:1015A000DA687B68DA627B685A6C7B689B6B9A426C
:1015B00006D37B685A6C7B68DB6B9A4240F2A18051
:1015C0007B681B6E002B04D17B689A6D7B68DA65A3
:1015D00064E07B681B6E012B13D17B689B6D184602
:1015E000FEF7C2FF84A3D3E90023FFF715F80246F4
:1015F0000B4610461946FFF707FB02467B68DA6583
:101600004CE07B681B6E012B48DD7B68DB6D184668
:10161000FEF7AAFF04460D4697F90E301846FEF76E
:1016200091FF02460B46FEF741FE02460B469046EE
:1016300099467B681B6E1846FEF784FF4FF0000248
:101640006B4BFEF7E9FF02460B4692469B4697F925
:101650000E301846FEF776FF02460B4650465946B6
:10166000FEF724FE02460B4640464946FFF7FEF8C9
:1016700002460B464FF000005E49FEF715FE02469B
:101680000B4620462946FEF7C7FF02460B4610468A
:101690001946FFF7B9FA02467B68DA657B68D3ED35
:1016A000177AFCEEE77A17EE903A5A1F7B685A6178
:1016B00097F90F301846FEF745FF4BA3D3E90023F7
:1016C000FEF7AAFF02460B4614461D467B68DB6DFB
:1016D0001846FEF749FF02460B4620462946FFF70B
:1016E000C5F802460B4610461946FFF78DFA02462A
:1016F0007B68DA647B681A6E97F90E301A447B684F
:101700001A667B685A6C7B689B6B9A4228D17B680F
:101710009A6B7B68DB6B9A4222D097F90F3007EE09
:10172000903AB8EEE77A7B68D3ED0C7A67EE277AC9
:101730007B68C3ED137A7B681B6B1846FEF714FFBA
:1017400002460B4628A1D1E90001FFF78FF80246B7
:101750000B4610461946FFF737FA02467B685A6176
:101760007B685A6C7B68DB6B9A4230D17B68D3ED27
:10177000177AFCEEE77A17EE903A5A1F7B685A61A7
:1017800097F90F301846FEF7DDFE17A3D3E90023C3
:10179000FEF742FF02460B4614461D467B68DB6D92
:1017A0001846FEF7E1FE02460B4620462946FFF7A3
:1017B0005DF802460B4610461946FFF725FA024629
:1017C0007B68DA647B681B6E5A1E7B681A667B68CE
:1017D0005B6C5A1C7B685A6400BF1037BD46BDE87D
:1017E000B08F00BFAFF300800000000080842E4166
:1017F000000010400000F03F857CD0B359F5D93F80
:10180000B0B584B000AF786039607B681B685B68F6
:101810003A68D31A002BB8BF5B42FB607B685B7EE3
:10182000DBB2002B02D04FF0FF33B0E07B68DB7EF1
:101830005BB2032B02D14FF0FF33A8E07B683A681C
:101840005A637B685A6B7B681B685B689A4200F03E
:101850009D807B685A6B7B681B685B689A4201DDE0
:10186000012201E04FF0FF327B681B681A727B682F
:101870001B8D9BB2002B0CD07B681B6B1846FEF7B0
:1018800073FE4FF01132464BFFF738F90346002B39
:1018900015D07B681B6B1846FEF766FE02460B46AA
:1018A0003DA1D1E90001FEF7E1FF02460B461046DB
:1018B0001946FFF789F902467B685A6163E07B6845
:1018C00093ED0C7A7B68D3ED0C7A67EE277A17EEEE
:1018D000900AFEF749FE04460D467B681B8D9BB2BD
:1018E0001846FEF72FFE02460B46FEF7DFFC0246C7
:1018F0000B4620462946FEF7B9FF02460B46104626
:101900001946FFF761F902467B685A667B685B6E91
:101910005B00FA689A4215D97B685A6E7B689A63B5
:101920007B689A6BFB681A447B685B6E5B00D21A1B
:101930007B68DA637B68DA6B7B685B6E1A447B6872
:101940001A641DE0FB685A087B689A637B689B6B8E
:10195000FA6802F00102002A0CBF01220022D2B272
:101960001344002B0CBF01230023DBB21A467B6813
:10197000DA637B68DA6B7B689B6B1A447B681A645A
:101980007B6800225A647B680322DA7600231846BB
:101990001037BD46B0BD00BF0000000080842E415E
:1019A0001111913F80B582B000AF786087ED000AD9
:1019B0007B681B7EDBB2012B0FD17B6893ED087A2D
:1019C000D7ED007A67EE277AFDEEE77A17EE901AE8
:1019D0007868FFF715FF034601E04FF0FF33184624
:1019E0000837BD4680BD80B582B000AF786087ED16
:1019F000000A7B681B7EDBB2002B12D17B68DB8C7C
:101A000007EE903AB8EEE77AD7ED007A67EE277ADC
:101A1000FDEEE77A17EE901A7868FFF7F1FE0346BD
:101A200001E04FF0FF3318460837BD4680BD000087
:101A300080B582B000AF786087ED000A7B68DB7EFE
:101A40005BB2032B02D14FF0FF3319E0D7ED007AE0
:101A5000F0EEE77A17EE900AFEF786FD02460B4697
:101A60009FED091B43EC102B18F0AEFB53EC102B31
:101A700010461946FFF7C8F802467B681A63002330
:101A800018460837BD4680BD111111111111913F43
:101A900080B582B000AF786087ED000A7B681B7E5E
:101AA000DBB2012B0FD1D7ED007AB0EEE77A7B687D
:101AB000D3ED087A67EE277AB0EE670A7868FFF709
:101AC000B7FF034601E04FF0FF3318460837BD4625
:101AD00080BDB0B582B000AF786087ED000A7B684A
:101AE0001B7EDBB2002B22D1D7ED007AF0EEE77A35
:101AF00017EE900AFEF738FD04460D467B68DB8C36
:101B00001846FEF71FFD02460B4620462946FEF703
:101B100083FD02460B4610461946FFF775F803464B
:101B200000EE103A7868FFF783FF034601E04FF0BC
:101B3000FF3318460837BD46B0BD00000000000066
:101B400080B582B000AF78600B467B807B68DB7E1F
:101B50005BB2032B02D14FF0FF3339E0B7F902300B
:101B6000002BB8BF5B429AB27B681A85B7F9023086
:101B7000002B28D07B681B8D9BB21846FEF7E2FC39
:101B800002460B464FF000004FF08041FEF76EFE1C
:101B900002460B4643EC172BB0EE470AF0EE670AFD
:101BA00018F044F951EC100B0BA3D3E90023FEF716
:101BB00033FD02460B4610461946FFF725F802464C
:101BC0007B689A6503E07B684FF000029A6500230A
:101BD00018460837BD4680BD0000000080842E41B5
:101BE00080B582B000AF786087ED000A7B681B7E0D
:101BF000DBB2012B11D17B6893ED087AD7ED007A27
:101C000067EE277AFDEEE77A17EE903A1BB2194697
:101C10007868FFF795FF034601E04FF0FF33184661
:101C20000837BD4680BD80B582B000AF786087EDD3
:101C3000000A7B681B7EDBB2002B14D17B68DB8C37
:101C400007EE903AB8EEE77AD7ED007A67EE277A9A
:101C5000FDEEE77A17EE903A1BB219467868FFF767
:101C60006FFF034601E04FF0FF3318460837BD46CB
:101C700080BD000080B483B000AF78607B681B7EBD
:101C8000DBB2012B0CD17B681B685B6807EE903AD6
:101C9000B8EEE77A7B68D3ED087AC7EE276A01E0F1
:101CA000DFED056AF0EE667AB0EE670A0C37BD46E6
:101CB0005DF8047B704700BF0000000000000000DA
:101CC0002DE9B04F84B000AF78607B6893ED147A53
:101CD0007B68D3ED137A77EE677AC7ED037A7B687A
:101CE0001B681B7AFB727B6893F85430002B14D06E
:101CF0007B68D3ED137AF0EEE77A17EE900AFEF7E1
:101D000033FC4FF011329A4BFEF702FF0346002BD3
:101D100003D07868FFF706FC1AE17B68DA687B6815
:101D20009B6CD21A7B685B699A42C0F011817B6818
:101D3000DA687B689A647B681B6E002B04D17B6831
:101D40009A6D7B68DA65B8E07B681B6E012B13D156
:101D50007B689B6D1846FEF707FC7FA3D3E9002341
:101D6000FEF75AFC02460B4610461946FEF74CFF9A
:101D700002467B68DA65A0E07B681B6E012B77DD8D
:101D80007B68DB6D1846FEF7EFFB04460D4697F9BE
:101D90000B3007EE903AB8EEE77AD7ED037A67EEAC
:101DA000277A17EE900AFEF7DFFB6DA3D3E9002335
:101DB000FEF7C2FE0346002B03D04FF000006D4932
:101DC00002E04FF000006C4902460B46FEF76EFA47
:101DD00002460B46904699467B681B6E1846FEF7F6
:101DE000B1FB4FF00002654BFEF716FC02460B46B6
:101DF00092469B4697F90B3007EE903AB8EEE77A99
:101E0000D7ED037A67EE277A17EE900AFEF7ACFB60
:101E100053A3D3E90023FEF78FFE0346002B03D024
:101E20004FF00000534902E04FF000005249524683
:101E30005B46FEF73BFA02460B4640464946FEF734
:101E400015FD02460B464FF000004A49FEF72CFAFA
:101E500002460B4620462946FEF7DEFB02460B46AD
:101E600010461946FEF7D0FE02467B68DA6524E08C
:101E70007B681B6E002B20DA7B684FF00002DA646F
:101E80007B6893F85430002B03D07868FFF74AFB47
:101E90005EE07B681B6D1846FEF766FB30A3D3E956
:101EA0000023FEF749FE0346002B01D0012201E08A
:101EB0004FF0FF327B681B681A727B68D3ED177A8C
:101EC000FCEEE77A17EE903A5A1F7B685A6197F951
:101ED0000B301846FEF736FB23A3D3E90023FEF7A9
:101EE0009BFB02460B4614461D467B68DB6D18467D
:101EF000FEF73AFB02460B4620462946FEF7B6FCA3
:101F000002460B4610461946FEF77EFE02467B68E7
:101F1000DA647B681C6E97F90B3007EE903AB8EEE6
:101F2000E77AD7ED037A67EE277A17EE900AFEF785
:101F30001BFB0BA3D3E90023FEF7FEFD0346002B9A
:101F400001D0012301E04FF0FF331A197B681A66B4
:101F50001037BD46BDE8B08F857CD0B359F5D93F69
:101F600011EA2D81999771BD0000000080842E41F7
:101F70001111913F0000F03F0000F0BF0000104041
:101F8000B0B582B000AF786087ED000A7B685B7EF9
:101F9000DBB2012B02D04FF0FF33B8E07B683A6828
:101FA0001A657B68D3ED147AF5EE407AF1EE10FAFB
:101FB0000CBF01230023DAB27B6883F854207B68CE
:101FC000D3ED147AF5EE407AF1EE10FA0CD17B687D
:101FD0001B8D9BB2002B07D17B6800225A61786869
:101FE000FFF7A0FA002392E0D7ED007AF5EEC07A71
:101FF000F1EE10FA01DD012201E04FF0FF327B68C3
:102000001B681A72D7ED007AF0EEE77A17EE900AA5
:10201000FEF7AAFA4FF01132434BFEF76FFD03466D
:10202000002B14D07B681B681B7A5BB21846FEF746
:1020300089FA4FF011323C4BFEF7EEFA02460B469E
:1020400010461946FEF7E0FD02467B681A657B687C
:102050001B8D9BB2002B25D17B681A6D7B68DA64DF
:102060007B681B6D1846FEF77FFA02460B462AA1D5
:10207000D1E90001FEF7FAFB02460B46144623F0B5
:1020800000454FF00002294B20462946FEF70CF987
:1020900002460B4610461946FEF796FD02467B683F
:1020A0005A6130E07B68D3ED137AF5EE407AF1EEB9
:1020B00010FA14D17B681B6D1846FEF755FA18A369
:1020C000D3E90023FEF738FD0346002B01D001229F
:1020D00001E04FF0FF327B681B681A7213E07B68E7
:1020E000DB6C1846FEF740FA0DA3D3E90023FEF798
:1020F00023FD0346002B01D0012201E04FF0FF3207
:102100007B681B681A727B680322DA760023184604
:102110000837BD46B0BD00BF0000000080842E41DE
:1021200011EA2D81999771BD1111913F0000144062
:1021300080B582B000AF786087ED000A7B681B7EB7
:10214000DBB2012B0DD17B6893ED087AD7ED007AD5
:1021500067EE277AB0EE670A7868FFF711FF03464B
:1021600001E04FF0FF3318460837BD4680BD000040
:1021700080B400AF084B1B68074A43F080731360BC
:10218000064B1B68054A43F00103136000BFBD46C0
:102190005DF8047B704700BFFCED00E0001000E03C
:1021A00080B485B000AF78600C4B1B680C4AA2FB72
:1021B00003239A0C7B6802FB03F3FB60094B0022AC
:1021C0001A6000BF074B1B68FA689A42FAD800BF32
:1021D00000BF1437BD465DF8047B7047F00800204F
:1021E00083DE1B43041000E080B485B000AFF860CC
:1021F000B9607A60FB687A68DA60FB68BA681A606E
:10220000FB6800225A60FB6801229A60FB681B6829
:10221000002B02D14FF0FF3300E0012318461437A2
:10222000BD465DF8047B704780B485B000AF786030
:102230000023FB6008E07B681A68FB6813440022F7
:102240001A70FB680133FB607B68DB68FA689A42AE
:10225000F1D37B6800225A607B6801229A600423D4
:1022600018461437BD465DF8047B704780B483B0D0
:1022700000AF78607B689A687B685B689A420FD28F
:102280007B68DB689AB27B685B689BB2D31A9AB2B0
:102290007B689B689BB213449BB2013B9BB209E0F5
:1022A0007B689B689AB27B685B689BB2D31A9BB2CF
:1022B000013B9BB218460C37BD465DF8047B704766
:1022C00080B582B000AF78607868FFF7CFFF034633
:1022D000002B01D0002300E0022318460837BD463A
:1022E00080BD90B583B000AF78607B68DB689CB23E
:1022F0007868FFF7BBFF0346E31A9BB2023B9BB231
:1023000018460C37BD4690BD80B582B000AF7860EE
:102310007868FFF7E6FF0346002B01D1032300E0B6
:10232000002318460837BD4680BD80B483B000AF97
:1023300078600B46FB707B689A687B68DB689A4222
:1023400002D37B6800229A607B681A687B689B686E
:102350001344FA781A707B689B685A1C7B689A60F1
:10236000002318460C37BD465DF8047B704780B4E7
:1023700083B000AF786039603B68002B02D14FF02A
:10238000FF3317E07B685B685A1C7B685A607B6888
:102390005A687B68DB689A4202D37B6800225A60E5
:1023A0007B681A687B685B68134493F900203B687C
:1023B0001A70002318460C37BD465DF8047B704741
:1023C00080B485B000AFF860B9607A60FB687A6865
:1023D000DA60FB68BA681A60FB6800225A60FB6822
:1023E00001229A60FB681B68002B02D14FF0FF337B
:1023F00000E0012318461437BD465DF8047B7047A2
:1024000080B483B000AF78607B689A687B685B6853
:102410009A420FD27B68DB689AB27B685B689BB29A
:10242000D31A9AB27B689B689BB213449BB2013B60
:102430009BB209E07B689B689AB27B685B689BB241
:10244000D31A9BB2013B9BB218460C37BD465DF8D0
:10245000047B704780B582B000AF78607868FFF782
:10246000CFFF0346002B01D0002300E002231846D3
:102470000837BD4680BD80B582B000AF7860396056
:102480003B68002B02D14FF0FF3319E07B685B689B
:102490005A1C7B685A607B685A687B68DB689A4282
:1024A00002D37B6800225A607B681A687B685B688D
:1024B0009B0013441B681946386815F0D6FC0023AE
:1024C00018460837BD4680BD80B582B000AF786041
:1024D0007B680B4A1A607B6802221A717B68FF22B4
:1024E0005A717B681B68184600F014FA4FF480722A
:1024F00004490548FFF764FF00BF0837BD4680BDAB
:10250000F00F0020F00B0020F40F002080B582B007
:1025100000AF78600748FFF79DFF0346002B02D10C
:10252000786800F009F8786800F078F900BF08379B
:10253000BD4680BDF40F002080B5A2B000AF78602A
:102540007B6893F90430022B40F04A8107F10803BD
:1025500080220021184615F0DAFB07F1080319461E
:10256000A348FFF788FF3B7A472B40F0358107F1FE
:1025700008035821184615F0D2FB034601331846CC
:1025800014F086FBB0EE407AF0EE607A994B83ED62
:10259000007B07F108035921184615F0C0FB0346DC
:1025A0000133184614F074FBB0EE407AF0EE607A16
:1025B000914B83ED007BBB7A302B4CD18D4BD3E913
:1025C000000189A3D3E90023FEF750F902460B4628
:1025D00043EC172BB0EE470AF0EE670A17F018FF2E
:1025E00053EC102B10461946FEF784FC02460B46AE
:1025F0008249C1E90023804BD3E900017AA3D3E9E2
:102600000023FEF733F902460B4643EC172BB0EEDE
:10261000470AF0EE670A17F0FBFE53EC102B10464A
:102620001946FEF767FC02460B467549C1E90023CF
:10263000704BD3E900237349C1E900236E4BD3E902
:1026400000237149C1E900237B6800225A717B682D
:1026500001221A71C5E0BB7A312B1AD1654B93ED7B
:10266000007B654B93ED006BB0EE461AF0EE661AF8
:10267000B0EE470AF0EE670A644800F061F90346DD
:10268000002B06D17B6801225A717B6801221A71E6
:10269000A7E0BB7A322B4DD107F108034921184638
:1026A00015F03DFB03460133184614F0F1FAB0EE85
:1026B000407AF0EE607A564B83ED007B07F1080319
:1026C0004A21184615F02BFB03460133184614F037
:1026D000DFFAB0EE407AF0EE607A4E4B83ED007B8D
:1026E000444B93ED007B444B93ED006B484B93EDD3
:1026F000005B484B93ED004B0121B0EE443AF0EE05
:10270000643AB0EE452AF0EE652AB0EE461AF0EED5
:10271000661AB0EE470AF0EE670A3F4800F0B4FAD6
:102720000346002B06D17B6802225A717B68012286
:102730001A7156E0BB7A332B52D107F108034921B5
:10274000184615F0ECFA03460133184614F0A0FAC7
:10275000B0EE407AF0EE607A2D4B83ED007B07F10E
:1027600008034A21184615F0DAFA034601331846E1
:1027700014F08EFAB0EE407AF0EE607A254B83EDDD
:10278000007B1C4B93ED007B1B4B93ED006B204BB0
:1027900093ED005B1F4B93ED004B4FF0FF31B0EE1C
:1027A000443AF0EE643AB0EE452AF0EE652AB0EE17
:1027B000461AF0EE661AB0EE470AF0EE670A1648BF
:1027C00000F062FA0346002B0AD17B6803225A719B
:1027D0007B6801221A7104E07B6802221A7100E012
:1027E00000BF8837BD4680BD000000A09999793FA1
:1027F000F40F0020180B0020200B002008100020F0
:10280000101000201810002020100020380B00208D
:10281000280B0020300B0020980B002080B584B0DE
:1028200002AF78607B6893F90430012B4CD17B6850
:1028300093F905300133042B46D801A252F823F056
:10284000552800085D28000865280008832800082E
:10285000A12800087B6802221A7136E07B680222F8
:102860001A7132E0012300930023194A19491A48CA
:1028700000F002FC0346002B21D17B6802221A7172
:102880001DE0012300930023144A1249124800F06E
:10289000D7FD0346002B14D17B6802221A7110E089
:1028A0000123009300230D4A0A490B4800F0C8FD9C
:1028B0000346002B07D17B6802221A7103E000BF98
:1028C00002E000BF00E000BF00BF0837BD4680BD8A
:1028D000380B002028D80020F00F0020980B002093
:1028E00080B483B000AF78607B6893F90430022B2A
:1028F00009D17B681B6893F90030012B03D17B68F9
:1029000000221A7100BF00BF0C37BD465DF8047B82
:102910007047000080B582B000AF78607B6801220C
:102920001A704FF4484204490448FFF75DFC00BFA9
:102930000837BD4680BD00BF2810002028D80020E1
:102940002DE9B04F88B000AFF86187ED040B87ED3B
:10295000021B954BD3E90023F969C1E90023934B8E
:10296000D3E90023F969C1E90223F969D7E904230E
:10297000C1E90423F969D7E90223C1E906238A4B97
:10298000D3E90001D7E90423FDF78EFC02460B468C
:102990003A6023F000437B6081A3D3E90023D7E9A9
:1029A0000001FEF7B5F80346002B18D07F4BD3E9A2
:1029B0000001D7E90223FDF777FC02460B46924659
:1029C00023F0004B76A3D3E9002350465946FEF787
:1029D0009FF80346002B02D04FF0FF3344E1FB6920
:1029E000D3E90401FB69D3E90023FDF75DFC02464E
:1029F0000B46F969C1E90823FB69D3E90601FB69C4
:102A0000D3E90223FDF750FC02460B46F969C1E900
:102A10000A23674BD3E9002310461946FEF714FA40
:102A200007EE100ADFED637A67EE277A17EE900A59
:102A3000FDF79AFDFB69D3E90023FDF735FC02465B
:102A40000B46F969C1E90C235B4BD3E9002310461F
:102A50001946FEF7F9F907EE100ADFED567A67EE30
:102A6000277A17EE900AFDF77FFDFB69D3E9022371
:102A7000FDF71AFC02460B46F969C1E90E23FB6912
:102A8000D3E90801FB69D3E90E23FDF7C5FD024632
:102A90000B4692469B46FB69D3E90A01FB69D3E9E1
:102AA0000C23FDF7B9FD02460B4650465946FDF78B
:102AB000FBFB02460B46F969C1E91023FB69D3E928
:102AC00008014FF000024FF00003FEF72BF8034619
:102AD000002B18D0FB69D3E90A014FF000024FF038
:102AE0000003FEF729F80346002B0CD0FB690122F6
:102AF00083F84820FB69012283F84920FB69012201
:102B000083F858207EE0FB69D3E90A014FF0000208
:102B10004FF00003FDF7FCFF0346002B18D0FB69C4
:102B2000D3E908014FF000024FF00003FEF704F86C
:102B30000346002B0CD0FB69012283F84820FB6977
:102B4000FF2283F84920FB69FF2283F8582059E0CF
:102B5000FB69D3E908014FF000024FF00003FDF7D5
:102B6000D7FF0346002B29D0FB69D3E90A014FF0B8
:102B700000024FF00003FDF7C1FF0346002B1DD0FC
:102B8000FB69FF2283F84820FB69FF2283F8492074
:102B9000FB69012283F8582034E000BFAFF30080C6
:102BA000000000A09999793F181000202010002003
:102BB00008100020CDCCCC3B10100020FB69D3E9DD
:102BC0000A014FF000024FF00003FDF7ABFF034690
:102BD000002B17D0FB69D3E908014FF000024FF03A
:102BE0000003FDF78BFF0346002B0BD0FB69FF2290
:102BF00083F84820FB69012283F84920FB69FF2202
:102C000083F85820FB69D3E90823904623F0004954
:102C100019A3D3E9002340464946FDF779FF03464F
:102C2000002B06D0F96916A3D3E90023C1E91423C8
:102C300019E0FB69D3E90A01FB69D3E90823FDF731
:102C400015FE02460B4643EC172BB0EE470AF0EE9A
:102C5000670A17F019F953EC102B144623F00045BE
:102C6000FB69C3E91445002318462037BD46BDE87B
:102C7000B08F00BFAFF30080000000A09999793FAA
:102C8000182D4454FB21F93F2DE9B0438AB000AF21
:102C9000786287ED060B87ED041B87ED022B87ED2D
:102CA000003B0B4687F82330A34BD3E90023796A16
:102CB000C1E90023A14BD3E90023796AC1E90223CA
:102CC000796AD7E90623C1E90423796AD7E904239D
:102CD000C1E906237B6AD3E90001D7E90223FDF7A6
:102CE000E5FA02460B46796AC1E908237B6AD3E913
:102CF0000201D7E90023FDF7D9FA02460B46796AAB
:102D0000C1E90A238C4BD3E90001D7E90623FDF77B
:102D1000CBFA02460B46904623F0004984A3D3E940
:102D2000002340464946FDF7F3FE0346002B18D02A
:102D3000824BD3E90001D7E90423FDF7B5FA024637
:102D40000B46144623F0004579A3D3E9002320461F
:102D50002946FDF7DDFE0346002B02D04FF0FF337E
:102D600085E1774BD3E9002310461946FEF76CF84E
:102D700007EE100ADFED737A67EE277A17EE900AF6
:102D8000FDF7F2FB7B6AD3E90823FDF78DFA0246D3
:102D90000B46796AC1E90C236B4BD3E9002310463B
:102DA0001946FEF751F807EE100ADFED667A67EE76
:102DB000277A17EE900AFDF7D7FB7B6AD3E90A233F
:102DC000FDF772FA02460B46796AC1E90E237B6A67
:102DD000D3E900017B6AD3E90823FDF765FA0246CF
:102DE0000B46796AC1E900237B6AD3E902017B6A59
:102DF000D3E90A23FDF758FA02460B46796AC1E97E
:102E000002237B6AD3E904017B6AD3E90823FDF737
:102E10004BFA02460B46796AC1E904237B6AD3E97F
:102E200006017B6AD3E90A23FDF73EFA02460B4608
:102E3000796AC1E90623D7E90223D7E90201FDF740
:102E4000EBFB02460B4614461D46D7E90023D7E9A3
:102E50000001FDF7E1FB02460B4620462946FDF73F
:102E600025FA02460B46796AC1E910237B6AD3E949
:102E70000C017B6AD3E90C23FDF7CEFB02460B461F
:102E800014461D467B6AD3E90E017B6AD3E90E2303
:102E9000FDF7C2FB02460B4620462946FDF706FA1F
:102EA00002460B46104619467B6AD3E91023FDF70C
:102EB000FBF902460B46796AC1E912237B6A97F84F
:102EC000232083F853207B6AD3E90C014FF00002E2
:102ED0004FF00003FDF726FE0346002B36D07B6A39
:102EE000D3E90E014FF000024FF00003FDF724FE7E
:102EF0000346002B2AD07B6A93F953207B6A83F820
:102F000050207B6A93F95330DBB25B42DBB25AB29A
:102F10007B6A83F851207B6A93F95330DBB25B42C2
:102F2000DBB25AB27B6A83F852209FE0AFF3008095
:102F3000000000A09999793F18100020201000206F
:102F400008100020CDCCCC3B101000207B6AD3E9C8
:102F50000E014FF000024FF00003FDF7D9FD0346CC
:102F6000002B26D07B6AD3E90C014FF000024FF012
:102F70000003FDF7E1FD0346002B1AD07B6A93F9AD
:102F80005330DBB25B42DBB25AB27B6A83F850202B
:102F90007B6A93F95330DBB25B42DBB25AB27B6A95
:102FA00083F851207B6A93F953207B6A83F852207F
:102FB0005CE07B6AD3E90C014FF000024FF00003A4
:102FC000FDF7A6FD0346002B26D07B6AD3E90E0150
:102FD0004FF000024FF00003FDF790FD0346002B79
:102FE0001AD07B6A93F95330DBB25B42DBB25AB240
:102FF0007B6A83F850207B6A93F953207B6A83F8BD
:1030000051207B6A93F95330DBB25B42DBB25AB298
:103010007B6A83F8522029E07B6AD3E90E014FF0E6
:1030200000024FF00003FDF77DFD0346002B1DD08D
:103030007B6AD3E90C014FF000024FF00003FDF76B
:103040005DFD0346002B11D07B6A93F953207B6A08
:1030500083F850207B6A93F953207B6A83F85120D0
:103060007B6A93F953207B6A83F852200023184629
:103070002837BD46BDE8B0832DE9B04F94B000AF0E
:10308000F864B9647A6487F84330FB6C93F90030D4
:10309000012B40F0C281B86CFFF736F90346002BD4
:1030A00040F0BB81FA6C022313707B6CD3E91023D0
:1030B000144623F0004580A3D3E900232046294687
:1030C000FDF726FD0346002B00F08F807B6CD3E9D3
:1030D00014017BA3D3E90023FDF710FD0346002B69
:1030E00041D07B6CD3E90C457B6C93F9483007EEFB
:1030F000903AF8EEE77A9FED747A67EE877A17EEEA
:10310000900AFDF731FA02460B4620462946FDF7A4
:10311000CDF802460B46796CC1E90C237B6C93F920
:1031200048305BB2DA179A469346614BD3E90023E5
:103130001AEB0201B9634BEB0303FB635C4BD7E96A
:103140000E12C3E900127B6C93F9482097F84330C4
:103150001146184600F03AFC03465BB21946B86CBB
:10316000FFF7E3F8F6E07B6CD3E90E457B6C93F94F
:10317000493007EE903AF8EEE77A9FED537A67EE22
:10318000877A17EE900AFDF7EFF902460B462046C4
:103190002946FDF78BF802460B46796CC1E90E23F0
:1031A0007B6C93F949305BB2DA1798469146414BF4
:1031B000D3E9002318EB0201396349EB03037B6376
:1031C0003C4BD7E90C12C3E900127B6C93F9492000
:1031D00097F870301146184600F0F8FB03465BB2D2
:1031E0001946B86CFFF7A1F8B4E07B6CD3E9104541
:1031F0007B6C93F958301846FDF7A4F902460B464C
:1032000020462946FDF708FA02460B4610461946A5
:103210004FF000024FF00003FDF78EFC0346002B39
:1032200054D07B6CD3E90C457B6C93F9483007EEA6
:10323000903AF8EEE77A9FED247A67EE877A17EEF8
:10324000900AFDF791F902460B4620462946FDF704
:103250002DF802460B46796CC1E90C237B6C93F97F
:1032600048305BB2DA17BB62FA62114BD3E9002334
:10327000D7E90A45214689183962294643EB0101FD
:1032800079620B4BD7E90812C3E900127B6C93F902
:10329000482097F843301146184600F097FB034644
:1032A0005BB21946B86CFFF740F853E0AFF300800B
:1032B000081000201010002095D626E80B2E113E95
:1032C000182D4454FB21E93FCDCCCC3B7B6CD3E99A
:1032D0000E457B6C93F9493007EE903AF8EEE77AA9
:1032E0001FED077A67EE877A17EE900AFDF73CF933
:1032F00002460B4620462946FCF7D8FF02460B46FD
:10330000796CC1E90E237B6C93F949305BB2DA1713
:10331000BB61FA61464BD3E90023D7E90645214654
:1033200089183961294643EB01017961404BD7E99E
:103330000412C3E900127B6C93F9492097F87030AE
:103340001146184600F042FB03465BB21946B86CC2
:10335000FEF7EBFF7B6CD3E908017B6CD3E90E230E
:10336000FDF75AF902460B4614461D467B6CD3E91D
:103370000A017B6CD3E90C23FDF74EF902460B469C
:1033800020462946FCF790FF02460B46796CC1E9BE
:1033900010237B6CD3E90C017B6CD3E90823FCF789
:1033A00083FF02460B46BA6023F00043FB601EA376
:1033B000D3E90023D7E90201FDF7A0FB0346002B68
:1033C00028D07B6CD3E90E017B6CD3E90A23FCF790
:1033D0006BFF02460B463A6023F000437B6012A36A
:1033E000D3E90023D7E90001FDF788FB0346002B52
:1033F00010D07B6CD3E904230E49C1E900237B6C18
:10340000D3E906230C49C1E90023FB6C01221A70A1
:10341000002303E0FB6C01221A7002231846503788
:10342000BD46BDE8B08F00BF000000A09999793F6C
:1034300010100020181000202010002000000000B4
:103440002DE9B04F98B000AFF865B9657A6587F897
:103450005330FB6D93F90030012B40F0B082B86D12
:10346000FEF752FF0346002B40F0A982FA6D0223BB
:1034700013707B6D93F95230B3F1FF3F40F09A80A7
:103480007B6DD3E912014FF000024FF00003FDF70E
:1034900049FB0346002B46D07B6DD3E90E457B6D7F
:1034A00093F9513007EE903AF8EEE77A9FED6B7A98
:1034B00067EE877A17EE900AFDF756F802460B463C
:1034C00020462946FCF7F2FE02460B4610461946F6
:1034D0007B6DC3E90E017B6D93F951305BB2DA1756
:1034E000BB64FA645B4BD3E90023D7E9124521465C
:1034F00089183964294643EB01017964554BD7E9B2
:103500001012C3E900127B6D93F9512097F88030B7
:103510001146184600F05AFA03465BB21946B86DD8
:10352000FEF703FFDFE07B6DD3E90C457B6D93F97C
:10353000503007EE903AF8EEE77A9FED487A67EE62
:10354000877A17EE900AFDF70FF802460B462046E1
:103550002946FCF7ABFE02460B46104619467B6D2A
:10356000C3E90C017B6D93F950305BB2DA17BB6392
:10357000FA63394BD3E90023D7E90E452146891870
:103580003963294643EB01017963334BD7E90C12C8
:10359000C3E900127B6D93F9502097F85330114620
:1035A000184600F013FA03465BB21946B86DFEF7F1
:1035B000BCFE98E07B6DD3E912014FF000024FF0A2
:1035C0000003FDF7AFFA0346002B49D07B6DD3E92A
:1035D0000C457B6D93F9503007EE903AF8EEE77AA0
:1035E0009FED1E7A67EE877A17EE900AFCF7BCFF14
:1035F00002460B4620462946FCF758FE02460B467B
:10360000104619467B6DC3E90C017B6D93F9503070
:103610005BB2DA179A4693460F4BD3E900231AEBB5
:103620000201B9624BEB0303FB620B4BD7E90A12B1
:10363000C3E900127B6D93F9502097F8533011467F
:10364000184600F0C3F903465BB21946B86DFEF7A1
:103650006CFE48E01010002008100020CDCCCC3BC0
:103660007B6DD3E90E457B6D93F9513007EE903AAF
:10367000F8EEE77A1FED077A67EE877A17EE900A81
:10368000FCF772FF02460B4620462946FCF70EFE69
:1036900002460B46104619467B6DC3E90E017B6D51
:1036A00093F951305BB2DA1798469146AA4BD3E9A9
:1036B000002318EB0201396249EB03037B62A64B3E
:1036C000D7E90812C3E900127B6D93F9512097F8EE
:1036D00080301146184600F079F903465BB219466E
:1036E000B86DFEF722FE7B6DD3E90C017B6DD3E94B
:1036F0000C23FCF791FF02460B4614461D467B6DDA
:10370000D3E90E017B6DD3E90E23FCF785FF02465A
:103710000B4620462946FCF7C9FD02460B461046DB
:1037200019467B6DD3E91023FCF7BEFD02460B461C
:10373000796DC1E912237B6DD3E90C017B6DD3E96F
:103740000423FCF7B1FD02460B46BA6123F00043A7
:10375000FB617FA3D3E90023D7E90601FDF7CEF98A
:103760000346002B36D07B6DD3E90E017B6DD3E988
:103770000623FCF799FD02460B463A6123F000430D
:103780007B6173A3D3E90023D7E90401FDF7B6F900
:103790000346002B1ED07B6DD3E904017B6DD3E97A
:1037A0000823FCF783FD02460B466C49C1E9002360
:1037B0007B6DD3E906017B6DD3E90A23FCF776FD27
:1037C00002460B466649C1E90023FB6D01221A70CF
:1037D0000023F5E07B6DD3E90C23BA6023F00043AE
:1037E000FB605BA3D3E90023D7E90201FDF790F961
:1037F0000346002B11D17B6DD3E90E233A6023F0F1
:1038000000437B6052A3D3E90023D7E90001FDF711
:103810007FF90346002B00F0CF807B6DD3E90C01CC
:103820004FF000024FF00003FDF77CF90346002B38
:1038300026D07B6DD3E90E014FF000024FF000035C
:10384000FDF77AF90346002B1AD07B6D93F95320CC
:103850007B6D83F850207B6D93F95330DBB25B4274
:10386000DBB25AB27B6D83F851207B6D93F95330F4
:10387000DBB25B42DBB25AB27B6D83F852209BE035
:103880007B6DD3E90E014FF000024FF00003FDF70E
:103890003FF90346002B26D07B6DD3E90C014FF096
:1038A00000024FF00003FDF747F90346002B1AD042
:1038B0007B6D93F95330DBB25B42DBB25AB27B6D66
:1038C00083F850207B6D93F95330DBB25B42DBB25F
:1038D0005AB27B6D83F851207B6D93F953207B6D39
:1038E00083F8522068E07B6DD3E90C014FF00002B1
:1038F0004FF00003FDF70CF90346002B32D07B6D2F
:10390000D3E90E014FF000024FF00003FDF7F6F887
:103910000346002B26D07B6D93F95330DBB25B421C
:10392000DBB25AB27B6D83F850207B6D93F9532044
:103930007B6D83F851207B6D93F95330DBB25B4292
:10394000DBB25AB27B6D83F8522035E0AFF30080D2
:10395000000000A09999793F101000201810002055
:10396000201000207B6DD3E90E014FF000024FF0D4
:103970000003FDF7D7F80346002B1DD07B6DD3E97C
:103980000C014FF000024FF00003FDF7B7F80346BB
:10399000002B11D07B6D93F953207B6D83F8502061
:1039A0007B6D93F953207B6D83F851207B6D93F9E8
:1039B00053207B6D83F85220FB6D01221A70022385
:1039C00018466037BD46BDE8B08F00BF80B485B0F3
:1039D00000AF03460A46FB711346BB710023FB731D
:1039E00097F90630012B09D1FB795B00012202FA1D
:1039F00003F35AB2FB7B1343FB730DE097F90630D8
:103A0000B3F1FF3F08D1FB795B00032202FA03F315
:103A10005AB2FB7B1343FB73FB7B18461437BD463E
:103A20005DF8047B704780B483B000AF7860396084
:103A30007B681B683A6812681A607B681B683A6882
:103A400092889A807B6800221A717B6800225A71E2
:103A500000BF0C37BD465DF8047B704780B584B06D
:103A600002AF03F017FA00F0E3F800F0D7FB00F024
:103A700049F900F099F900F0CBF900F0FDF900F0F8
:103A8000FDFA00F049FB00F09BFB00F023FA00F088
:103A90006DFB07F035FF00F0A5FA00F051FAFEF7D4
:103AA00067FB01F007FD4E4B1B68184602F056F805
:103AB0004C4B18684C4B19684C4B1A684C4B1B68A4
:103AC000FDF7CCFB4B494C4802F09EFB4B494C4860
:103AD00002F09AFB58230193002300934FF448739C
:103AE000484A45494848FDF7DBFB59230193002329
:103AF00000934FF44873454A41494548FDF7D0FBD0
:103B0000444802F05FF8394B1B68184602F04AF847
:103B10004148FEF7D9FC41494148FFF784FF0022A4
:103B200039493C4802F026FB01223949394802F064
:103B300021FB00F0C1FC0023FB710BE0FB796C2240
:103B400002FB03F3304A13441846FDF76BFCFB7984
:103B50000133FB71FB79012BF0D92B4B1B68012240
:103B6000DA72294BDB6E0122DA720023BB710BE0A3
:103B7000BB796C2202FB03F3234A13441846FDF77A
:103B800075FCBB790133BB71BB79012BF0D922489D
:103B9000FEF7BCFC234B1B78002B1DD02248FEF700
:103BA0008FFB0346002B02D11A4802F065F81F482C
:103BB000FEF750FC0346022B0ED11B48FEF780FB9C
:103BC0000346022B08D11448FEF78AFE114B05224A
:103BD000DA76144B00221A7007F0D2FFC5E700BF57
:103BE0001C080020200800202408002028080020AD
:103BF0002C08002030080020B4DF002048080020F6
:103C0000C0DF00206008002014E0002078080020B9
:103C100080E0002074E3002024E4002090080020CD
:103C20001CE400202CE4002028D80020F40F002001
:103C300080B594B000AF07F1200330220021184670
:103C400014F065F807F10C0300221A605A609A60BC
:103C5000DA601A610023BB60284B1B6C274A43F0D3
:103C600080531364254B1B6C03F08053BB60BB680F
:103C700000237B60224B1B68214A43F4804313607E
:103C80001F4B1B6803F480437B607B6801233B620E
:103C90004FF480337B620223BB634FF48003FB63EA
:103CA00004233B64A8237B640223BB640723FB64D7
:103CB00007F12003184605F0C5FB0346002B01D091
:103CC00001F0F2FB0F23FB6002233B6100237B61C9
:103CD0004FF4A053BB614FF48053FB6107F10C0319
:103CE0000521184605F026FE0346002B01D001F001
:103CF000DBFB00BF5037BD4680BD00BF003802402F
:103D00000070004080B584B000AF3B4600221A60CE
:103D10005A609A60DA60214B214A1A601F4B4FF4B7
:103D200080325A601D4B00229A601C4B00221A619F
:103D30001A4B00221A76194B002283F82020174BC9
:103D40000022DA62154B174A9A62144B0022DA609D
:103D5000124B0122DA61114B002283F830200F4B05
:103D600001225A610D4803F02BF90346002B01D0C4
:103D700001F09AFB00233B6001237B600023BB60C2
:103D80003B461946054803F05FF90346002B01D076
:103D900001F08AFB00BF1037BD4680BD38D8002037
:103DA000002001400100000F80B500AF164B174AFC
:103DB0001A60154B10225A60134B00229A60124B66
:103DC0000022DA60104B00221A610F4B00225A6168
:103DD0000D4B00221A760C4B00225A760A4B002219
:103DE0009A76094B0022DA76074B00221A77064BA7
:103DF00000225A77044803F045FB0346002B01D00C
:103E000001F052FB00BF80BD80D80020006400405C
:103E100080B582B000AF3B4600221A605A60144B56
:103E2000144A1A60124803F03AFD0346002B01D0F1
:103E300001F03AFB00233B6000237B603B460022FD
:103E400019460B4803F04DFD0346002B01D001F04D
:103E50002BFB3B4610221946054803F042FD034662
:103E6000002B01D001F020FB00BF0837BD4680BD0C
:103E7000A8D800200074004080B500AF124B134A50
:103E80001A60114B124A5A600F4B00229A600E4B77
:103E90000022DA600C4B4FF480421A610A4B002278
:103EA0005A61094B00229A61074B0022DA61064BE6
:103EB00000221A62044805F071F80346002B01D075
:103EC00001F0F2FA00BF80BDBCD8002000540040D1
:103ED000A086010080B500AF174B184A1A60164B38
:103EE0004FF482725A60144B00229A60124B0022E7
:103EF000DA60114B00221A610F4B00225A610E4BFF
:103F00004FF400729A610C4B0022DA610A4B0022D6
:103F10001A62094B00225A62074B00229A62064B32
:103F20000A22DA62044805F025FF0346002B01D07F
:103F300001F0BAFA00BF80BD10D90020003C00405B
:103F400080B586B000AF07F1080300221A605A60FE
:103F50009A60DA603B4600221A605A601F4B204A82
:103F60001A601E4B40F28F625A601C4B00229A600E
:103F70001A4B4CF24F32DA60184B00221A61174B81
:103F800000225A61154B00229A61144805F07BFF0C
:103F90000346002B01D001F087FA4FF48053BB6039
:103FA00007F1080319460D4806F066FA0346002B90
:103FB00001D001F079FA20233B6000237B603B466F
:103FC0001946064806F048FE0346002B01D001F0D2
:103FD0006BFA00BF1837BD4680BD00BF68D900200E
:103FE0000000014080B586B000AF07F10803002251
:103FF0001A605A609A60DA603B4600221A605A6082
:104000001D4B4FF080421A601B4B53225A601A4BD3
:1040100000229A60184B4FF0FF32DA60164B0022F4
:104020001A61154B00229A61134805F02CFF0346D4
:10403000002B01D001F038FA4FF48053BB6007F138
:10404000080319460C4806F017FA0346002B01D066
:1040500001F02AFA00233B6000237B603B461946AF
:10406000054806F0F9FD0346002B01D001F01CFACB
:1040700000BF1837BD4680BDB0D9002080B588B0DC
:1040800000AF3B1D00221A605A609A60DA601A6124
:104090005A619A611E4B1F4A1A601D4B00225A60DA
:1040A0001B4B00229A601A4B4FF6FF72DA60184BD6
:1040B00000221A61164B00229A61154805F0E3FEB2
:1040C0000346002B01D001F0EFF9114805F0C9FFBC
:1040D0000346002B01D001F0E7F960237B60002349
:1040E000BB600023FB6000237B613B1D002219465F
:1040F000074806F0FFF80346002B01D001F0D4F981
:10410000034802F06BFB00BF2037BD4680BD00BFF7
:10411000F8D90020001C004080B500AF114B124AB6
:104120001A60104B4FF4E1325A600E4B00229A6035
:104130000C4B0022DA600B4B00221A61094B0C2257
:104140005A61084B00229A61064B0022DA61054849
:1041500006F012FE0346002B01D001F0A5F900BFC6
:1041600080BD00BF40DA00200010014080B500AFE4
:10417000114B124A1A60104B4FF4E1325A600E4B49
:1041800000229A600C4B0022DA600B4B00221A616D
:10419000094B0C225A61084B00229A61064B0022FF
:1041A000DA61054806F0E8FD0346002B01D001F076
:1041B0007BF900BF80BD00BF88DA002000480040C6
:1041C00080B500AF144B4FF0A0421A60124B04228E
:1041D0001A71114B0222DA710F4B00229A710E4BA9
:1041E00002225A720C4B00229A720B4B0022DA7296
:1041F000094B00221A73084B00229A73064B0022C7
:10420000DA73054805F00EF80346002B01D001F0E3
:104210004BF900BF80BD00BFD0DA002080B58CB064
:1042200000AF07F11C0300221A605A609A60DA603E
:104230001A610023BB619A4B1B6B994A43F0100330
:104240001363974B1B6B03F01003BB61BB69002327
:104250007B61934B1B6B924A43F004031363904BB7
:104260001B6B03F004037B617B6900233B618C4B78
:104270001B6B8B4A43F080031363894B1B6B03F06A
:1042800080033B613B690023FB60854B1B6B844AC9
:1042900043F001031363824B1B6B03F00103FB60CC
:1042A000FB680023BB607E4B1B6B7D4A43F002031F
:1042B00013637B4B1B6B03F00203BB60BB680023E3
:1042C0007B60774B1B6B764A43F008031363744B98
:1042D0001B6B03F008037B607B6800224FF688713C
:1042E000704804F027FE00224EF280016E4804F070
:1042F00021FE00224CF213716C4804F01BFE0022D8
:104300004FF401416A4804F015FE00220821694873
:1043100004F010FE4523FB6100233B6200237B6217
:1043200007F11C0319465F4804F068FC0823FB6191
:1043300001233B6200237B620023BB6207F11C0365
:104340001946584804F05AFC3223FB614FF4881395
:104350003B6200237B6207F11C031946514804F0BD
:104360004DFC4FF46043FB6101233B6200237B6201
:104370000023BB6207F11C0319464B4804F03EFCC6
:1043800040F24D33FB614FF488133B6200237B62A4
:1043900007F11C031946444804F030FC4CF2134367
:1043A000FB6101233B6200237B620323BB6207F1B5
:1043B0001C0319463D4804F021FC4FF68073FB6155
:1043C00001233B6200237B620323BB6207F11C03D2
:1043D0001946344804F012FC4FF68043FB614FF459
:1043E00088133B6200237B6207F11C0319463148A6
:1043F00004F004FC8023FB6101233B6200237B6209
:104400000323BB6207F11C031946274804F0F6FB9F
:104410004FF40143FB6101233B6200237B620023D5
:10442000BB6207F11C031946214804F0E7FB742323
:10443000FB6100233B6200237B6207F11C031946EA
:104440001C4804F0DBFB0823FB6101233B620023D3
:104450007B620023BB6207F11C031946154804F078
:10446000CDFB2023FB6100233B6200237B6207F12D
:104470001C0319460D4804F0C1FB4FF44073FB6167
:1044800001233B6200237B620023BB6207F11C0314
:104490001946064804F0B2FB00BF3037BD4680BD68
:1044A00000380240001002400008024000040240B0
:1044B00000000240000C024080B500AF024805F049
:1044C00031FD00BF80BD00BFB0D9002080B500AF76
:1044D000024805F097FD00BF80BD00BFB0D90020A5
:1044E00080B400AF4FF0804300225A6200BFBD4647
:1044F0005DF8047B704780B400AF4FF080435B6A87
:104500001846BD465DF8047B7047000090B5D7B0F3
:1045100002AFAF4B1B681946AE48FBF759FE034686
:10452000002B36D1AC4B1B78002B11D0AB4B1A684B
:104530003B46AB49184613F05BFB3B46184601F07F
:104540005BF880220021A34813F0E1FB00F08FBF4D
:10455000A448FDF769FE4FF48072A349A348FDF714
:104560002FFFA24B13229A60A14B02221A719B4B80
:104570001A683B469F49184613F03AFB3B461846DB
:1045800001F03AF880220021924813F0C0FB00F0BD
:104590006EBF8F4B5B6819468E48FBF719FE0346CA
:1045A000002B36D18C4B1B78002B11D08B4B1A680B
:1045B0003B468B49184613F01BFB3B46184601F05F
:1045C0001BF880220021834813F0A1FB00F04FBFAD
:1045D0008448FDF729FE4FF4807287498348FDF730
:1045E000EFFE824B77229A60814B02221A717B4B3D
:1045F0001A683B468149184613F0FAFA3B461846BA
:1046000000F0FAFF80220021724813F080FB00F0D6
:104610002EBF6F4B9B6819466E48FBF7D9FD0346CA
:10462000002B36D16C4B1B78002B11D06B4B1A68CA
:104630003B466B49184613F0DBFA3B46184600F040
:10464000DBFF80220021634813F061FB00F00FBF05
:104650006448FDF7E9FD4FF4807269496348FDF74E
:10466000AFFE624B81229A60614B02221A715B4B52
:104670001A683B466349184613F0BAFA3B46184697
:1046800000F0BAFF80220021524813F040FB00F0F6
:10469000EEBE4F4BDB6819464E48FBF799FD0346CB
:1046A000002B36D14C4B1B78002B11D04B4B1A688A
:1046B0003B464B49184613F09BFA3B46184600F020
:1046C0009BFF80220021434813F021FB00F0CFBE66
:1046D0004448FDF7A9FD4FF480724B494348FDF76C
:1046E0006FFE424BF3229A60414B02221A713B4B00
:1046F0001A683B464549184613F07AFA3B46184675
:1047000000F07AFF80220021324813F000FB00F015
:10471000AEBE2F4B1B6919462E48FBF759FD0346C9
:10472000002B36D12C4B1B78002B11D02B4B1A6849
:104730003B462B49184613F05BFA3B46184600F0FF
:104740005BFF80220021234813F0E1FA00F08FBEC6
:104750002448FDF769FD4FF480722D492348FDF789
:104760002FFE224B04229A60214B02221A711B4B0E
:104770001A683B462749184613F03AFA3B46184652
:1047800000F03AFF80220021124813F0C0FA00F036
:104790006EBE0F4B5B6919460E48FBF719FD0346C9
:1047A000002B5AD10C4B1B78002B35D00B4B1A68C1
:1047B0003B460B49184613F01BFA3B46184600F0DF
:1047C0001BFF80220021034813F0A1FA00F04FBE26
:1047D0009808002034E400202CE4002034E5002078
:1047E000BCFF010828D8002024000020F40F00207E
:1047F00024E40020080002087000002038000208AD
:104800004C020020680002085004002098000208B2
:1048100014000020C8000208B248FDF705FD4FF45F
:104820008072B149B148FDF7CBFDB04B05229A60CB
:10483000AF4B02221A71AF4B1A683B46AE4918467D
:1048400013F0D6F93B46184600F0D6FE8022002130
:10485000AA4813F05CFA00F00ABEA94B9B691946FE
:10486000A648FBF7B5FC0346002B45D1A54B1B78AA
:10487000002B11D09F4B1A683B46A349184613F0F2
:10488000B7F93B46184600F0B7FE802200219B484E
:1048900013F03DFA00F0EBBD9248FDF711FD034621
:1048A000022B11D1934B1A683B469849184613F0D6
:1048B0009FF93B46184600F09FFE802200218F485A
:1048C00013F025FA00F0D3BD914801F051FB8D4B58
:1048D00001221A70874B1A683B468E49184613F01E
:1048E00087F93B46184600F087FE80220021834866
:1048F00013F00DFA00F0BBBD814BDB6919467F4810
:10490000FBF766FC0346002B2DD17E4B1B7883F012
:104910000103DBB2002B11D0764B1A683B467E496F
:10492000184613F065F93B46184600F065FE8022F4
:104930000021724813F0EBF900F099BD744801F0C2
:104940002BFC6C4B1A683B467449184613F050F91F
:104950003B46184600F050FE80220021674813F0C5
:10496000D6F900F084BD664B1B6A19466348FBF715
:104970002FFC0346002B2DD1624B1B7883F00103E3
:10498000DBB2002B11D05B4B1A683B4662491846DC
:1049900013F02EF93B46184600F02EFE802200212F
:1049A000564813F0B4F900F062BD594801F00EFC0E
:1049B000504B1A683B465A49184613F019F93B46C2
:1049C000184600F019FE802200214C4813F09FF990
:1049D00000F04DBD4A4B5B6A19464848FBF7F8FBAF
:1049E0000346002B2DD1474B1B7883F00103DBB22C
:1049F000002B11D03F4B1A683B464749184613F02D
:104A0000F7F83B46184600F0F7FD802200213B48AE
:104A100013F07DF900F02BBD3D4801F0E8FB354B6C
:104A20001A683B463F49184613F0E2F83B461846E1
:104A300000F0E2FD80220021304813F068F900F018
:104A400016BD2F4BDC6A2E4BDB6A1846FBF7CAFB00
:104A500003461A462146294813F06EF90346002BF7
:104A600066D1284B1B78002B11D0224B1A683B468D
:104A70002D49184613F0BCF83B46184600F0BCFD23
:104A8000802200211D4813F042F900F0F0BC2021E3
:104A90001A4813F044F903460133184612F0F8F8A7
:104AA00053EC102B10461946FCF7AEF80346C7F836
:104AB000003197ED400A164801F0C6FA0D4B1A680E
:104AC000134B5B693846194913F092F83B46184678
:104AD00000F092FD80220021084813F018F900F040
:104AE000C6BC00BF28D8002000000020F40F002022
:104AF00024E4002034E50020F400020834E400201F
:104B0000980800202CE40020200102085C01020823
:104B100074E3002084010208B0010208E8010208E1
:104B200014020208400202086C020208A4020208F1
:104B3000BD4B9C6ABC4B9B6A1846FBF753FB034674
:104B40001A462146B94813F0F7F80346002B3FD127
:104B5000B74B1B78002B11D0B64B1A683B46B649B1
:104B6000184613F045F83B46184600F045FD8022F4
:104B70000021AE4813F0CBF800F079BC2021AB48FF
:104B800013F0CDF803460133184612F081F853ECC8
:104B9000102B10461946FCF737F80346C7F80431C6
:104BA00097ED410AA54801F0B9FAA24B1A68A34B48
:104BB0001B693846A24913F01BF83B46184600F023
:104BC0001BFD80220021994813F0A1F800F04FBC92
:104BD000954B1C6B944B1B6B1846FBF703FB034672
:104BE0001A462146914813F0A7F80346002B5BD1E3
:104BF00020218E4813F093F803460133184612F033
:104C00004AF8034687F80B31874B1B6B1846FBF7B6
:104C1000E9FA03460333854AD35C562B13D1854BFF
:104C20001A6897F90B313846864912F0E1FF97F977
:104C30000B316C2202FB03F3834A13440121184613
:104C4000FCF7C8FB26E0784B1B6B1846FBF7CAFA4B
:104C500003460333754AD35C502B13D1754B1A6846
:104C600097F90B313846794912F0C2FF97F90B31A9
:104C70006C2202FB03F3744A134400211846FCF72C
:104C8000A9FB07E06B4B1A6897F90B31384670495E
:104C900012F0AEFF3B46184600F0AEFC8022002129
:104CA000624813F034F8E2E35F4B9C6B5E4B9B6B06
:104CB0001846FBF797FA03461A4621465B4813F05D
:104CC0003BF80346002B4FD12021584813F027F81A
:104CD00003460133184611F0DEFF034687F813310F
:104CE0002021524813F01BF803460333184611F0F5
:104CF000CFFF53EC102B10461946FBF785FF0346F8
:104D0000C7F80C3197F913316C2202FB03F34E4ABA
:104D1000134497ED430A1846FCF762FF0346002B45
:104D200010D1444B1A6897F91331D7ED437AFDEE51
:104D3000E77A17EE901A09B238460091454912F009
:104D400057FF07E03B4B1A6897F913313846424941
:104D500012F04EFF3B46184600F04EFC8022002128
:104D6000324812F0D4FF82E32F4BDC6B2E4BDB6B0F
:104D70001846FBF737FA03461A4621462B4812F02D
:104D8000DBFF0346002B6BD12021284812F0C7FF20
:104D900003460133184611F07EFF034687F81B31A6
:104DA0002021224812F0BBFF03460333184611F0BE
:104DB0006FFF53EC102B10461946FBF725FF0346F7
:104DC000C7F8143197F91B316C2202FB03F31E4A1A
:104DD000134497ED450A1846FCF725FF0346002BC0
:104DE00010D1144B1A6897F91B31D7ED457AFDEEB7
:104DF000E77A17EE901A09B238460091174912F077
:104E0000F7FE07E00B4B1A6897F91B313846124939
:104E100012F0EEFE3B46184600F0EEFB8022002129
:104E2000024812F074FF22E39808002034E40020C6
:104E30002CE4002034E500206C02020874E300201A
:104E4000DC0202081403020814E0002050030208E8
:104E50008C030208C8030208040402084004020884
:104E6000BB4B5C6BBA4B5B6B1846FBF7BBF903465D
:104E70001A462146B74812F05FFF0346002B46D181
:104E80002021B44812F04BFF03460133184611F0BD
:104E900002FF034687F81F312021AE4812F03FFF82
:104EA00003460333184611F0FAFE0346A7F81C31F7
:104EB00097F91F316C2202FB03F3A74A1344B7F999
:104EC0001C2111461846FCF73BFE0346002B0CD173
:104ED000A24B1A6897F91F11B7F91C313846009395
:104EE0000B469F4912F084FE07E09C4B1A6897F925
:104EF0001F3138469B4912F07BFE3B46184600F0B6
:104F00007BFB80220021934812F001FFAFE2904B1F
:104F10005C6C8F4B5B6C1846FBF764F903461A46D2
:104F200021468C4812F008FF0346002B4FD1202168
:104F3000884812F0F4FE03460133184611F0ABFE28
:104F4000034687F827312021824812F0E8FE034605
:104F50000333184611F09CFE53EC102B10461946F3
:104F6000FBF752FE0346C7F8203197F927316C2230
:104F700002FB03F3784A134497ED480A1846FCF7FE
:104F800087FD0346002B10D1744B1A6897F927311F
:104F9000D7ED487AFDEEE77A17EE901A09B2384657
:104FA0000091714912F024FE07E06C4B1A6897F9E2
:104FB000273138466D4912F01BFE3B46184600F07B
:104FC0001BFB80220021634812F0A1FE4FE2604BE0
:104FD0009C6C5F4B9B6C1846FBF704F903461A4622
:104FE00021465C4812F0A8FE0346002B4FD1202139
:104FF000584812F094FE03460133184611F04BFE58
:10500000034687F82F312021524812F088FE0346CC
:105010000333184611F03CFE53EC102B1046194692
:10502000FBF7F2FD0346C7F8283197F92F316C22C0
:1050300002FB03F3484A134497ED4A0A1846FCF76B
:1050400048FD0346002B10D1444B1A6897F92F31C5
:10505000D7ED4A7AFDEEE77A17EE901A09B2384694
:105060000091434912F0C4FD07E03C4B1A6897F9E0
:105070002F3138463D4912F0BBFD3B46184600F043
:10508000BBFA80220021334812F041FEEFE1304BA1
:105090001C6C2F4B1B6C1846FBF7A4F803461A46F2
:1050A00021462C4812F048FE0346002B64D12021F3
:1050B000284812F034FE03460133184611F0EBFD88
:1050C000034687F837312021224812F028FE034694
:1050D0000333184611F0DCFD53EC102B1046194633
:1050E000FBF792FD0346C7F8303197F937316C2250
:1050F00002FB03F3184A134497ED4C0A1846FCF7D9
:1051000097FC0346002B10D1144B1A6897F93731DE
:10511000D7ED4C7AFDEEE77A17EE901A09B23846D1
:105120000091144912F064FD07E00C4B1A6897F9DE
:10513000373138460D4912F05BFD3B46184600F00A
:105140005BFA80220021034812F0E1FD8FE100BFED
:105150009808002034E4002014E0002034E500200A
:105160007C04020804040208B8040208F0040208DF
:10517000280502085C050208BF4B1C6DBE4B1B6D69
:105180001846FBF72FF803461A462146BB4812F093
:10519000D3FD0346002B4ED12021B84812F0BFFDAD
:1051A00003460133184611F076FD034687F83F3178
:1051B0002021B24812F0B3FD03460333184611F024
:1051C00067FD53EC102B10461946FBF71DFD0346F7
:1051D000C7F8383197F93F316C2202FB03F3A84A34
:1051E000134497ED4E0A1846FCF7DCFB0346002BF0
:1051F0000FD1A44B1A6897F93F31D7ED4E7AFDEEE7
:10520000E77A17EE901A384600919F4912F0F0FCA9
:1052100007E09C4B1A6897F93F3138469B4912F0DA
:10522000E7FC3B46184600F0E7F98022002193484E
:1052300012F06DFD1BE1904B5C6D8F4B5B6D184662
:10524000FAF7D0FF03461A4621468C4812F074FD47
:105250000346002B4ED12021884812F060FD034602
:105260000133184611F017FD034687F84731202116
:10527000824812F054FD03460333184611F008FD2E
:1052800053EC102B10461946FBF7BEFC0346C7F83B
:10529000403197F947316C2202FB03F3784A1344FB
:1052A00097ED500A1846FCF79EFB0346002B0FD1E2
:1052B000744B1A6897F94731D7ED507AFDEEE77ACB
:1052C00017EE901A38460091714912F091FC07E0F0
:1052D0006C4B1A6897F9473138466C4912F088FCD4
:1052E0003B46184600F088F980220021634812F0FE
:1052F0000EFDBCE0604BDC6C5F4BDB6C1846FAF7D4
:1053000071FF03461A4621465C4812F015FD03461C
:10531000002B44D12021594812F001FD03460133EE
:10532000184611F0B8FC034687F84D312021534848
:1053300012F0F5FC03460333184611F0B0FCC7F831
:10534000480197F94D316C2202FB03F34C4A134498
:10535000D7F848111846FCF753FA0346002B0CD136
:10536000484B1A6897F94D113846D7F848310093E1
:105370000B46484912F03CFC07E0424B1A6897F98B
:105380004D313846414912F033FC3B46184600F097
:1053900033F980220021394812F0B9FC67E0374B1D
:1053A0001B78532B2CD1354B5B78542B28D1334BA6
:1053B0009B78532B24D10A220021374812F03AFB64
:1053C0000346A7F84E31B7F94E3107EE903AF8EEA2
:1053D000E77AB0EE670A2A48FCF7AAFE294B1A685A
:1053E000B7F94E3138462D4912F002FC3B461846BB
:1053F00000F002F980220021204812F088FC36E0FB
:105400001E4B1B78472B21D11C4B5B78432B1DD1A6
:105410001A4B9B78502B19D11A4B1C681848FCF773
:1054200029FCF0EE407AFDEEE77A384617EE903A26
:1054300022461B4912F0DCFB3B46184600F0DCF824
:10544000802200210D4812F062FC10E00D4B1A681A
:1054500038460A4B134912F0CBFB3B46184600F086
:10546000CBF880220021054812F051FC00BF07F55F
:10547000AA77BD4690BD00BF9808002034E4002004
:1054800014E0002034E5002094050208CC05020851
:105490000C0602084406020837E4002080060208D1
:1054A000B0060208D806020880B400AF72B600BF8A
:1054B00000BFFDE780B584B000AF0FF0DBF8034616
:1054C000174A1360174BBB60154B1B6807F10801A7
:1054D00040F2136218460EF075FF134B7B60104BC1
:1054E0001B68391D40F2136218460EF0F3FF0346A5
:1054F000FB7397F90F30002B06D1094B1B68002274
:105500000A4918460FF054F800F016F880220849AE
:105510000848FCF769FE00BF1037BD4680BD00BFDC
:1055200030E40020C0A8019CC0A8010285550008F5
:1055300048E5002038E5002080B483B000AF0023A8
:10554000FB7106E0FB790E4A0021D154FB7901334F
:10555000FB7197F90730002BF4DA094B002283F82E
:105560008020074B002283F88120054B002283F81E
:10557000822000BF0C37BD465DF8047B704700BF3A
:10558000C8E5002080B586B000AFF860B9607A60E9
:105590003B607B685B683B610023FB7509E0FB7D3A
:1055A0003A691A44FB7D1178104AD154FB7D0133CE
:1055B000FB75FB7D9AB27B685B899A42EFD37B686F
:1055C00059687B685B891A46094812F0C7FB094B8A
:1055D0001B680133074A1360786808F0ADFC00F0DF
:1055E00097F800BF1837BD4680BD00BFC8E5002052
:1055F00034E4002034E5002080B5C4B000AF07F5E6
:105600008873A3F58673186007F58873A3F586730E
:1056100007F108001A68174912F0EAFAC7F80C01F6
:10562000D7F80C319BB24FF420721946362008F09F
:105630009FF9C7F80801D7F80831002B14D0D7F824
:105640000C319AB207F108031946D7F8080108F09F
:105650001BFF094B1B68D7F8081118460EF0C8FC51
:10566000D7F8080108F068FC00BF07F58877BD4649
:1056700080BD00BF5008020830E4002080B584B02F
:1056800000AF78600B46FB70FB789BB24FF4207242
:105690001946362008F06CF9F860FB68002B0FD033
:1056A000FB789BB21A467968F86808F0EDFE064B65
:1056B0001B68F96818460EF09BFCF86808F03CFC83
:1056C00000BF1037BD4680BD30E4002080B485B0F7
:1056D00000AF78600B46FB700023FB730023BB73A5
:1056E00009E0BB7B7A6813441A78FB7B1344FB7395
:1056F000BB7B0133BB73BA7BFB789A42F1D3FB7B54
:105700005B42DBB218461437BD465DF8047B704738
:1057100080B500AF514B1A78504B83F880204F4B27
:105720005A784E4B83F881204C4B93F88030013BE4
:105730004A4AD25C494B83F88220484B93F8813027
:10574000332B5FDC102B0FDA82E0A03B032B7FD8DA
:1057500001A252F823F000BF0F58000815580008A6
:105760001B58000821580008103B232B70D801A2B9
:1057700052F823F0395800083F58000845580008EF
:105780004B5800085158000851580008515800085B
:105790005158000851580008515800085158000845
:1057A0005158000851580008515800085158000835
:1057B0005158000851580008515800085158000825
:1057C0005158000851580008515800085158000815
:1057D0005158000851580008515800085158000805
:1057E00051580008515800085158000851580008F5
:1057F00051580008275800082D5800085158000833
:1058000033580008A32B23DCA02B9EDA20E000F005
:105810005FF81FE000F08CF81CE000F0A9F819E038
:1058200000F0D3F816E000F0FDF813E000F015F9F1
:1058300010E000F015F80DE000F016F90AE000F0B5
:105840002CF907E000F056F904E000F06EF901E0F1
:10585000FEF75CFEFFF770FE00BF80BDC8E50020CC
:1058600080B584B000AF194B9B78BB720023FB60FE
:105870000023FB720FE0FB7AC3F10603134AD35CEB
:105880001A46FB7ADB0002FA03F3FA681344FB6062
:10589000FB7A0133FB72FB7A032BECD905233B71B6
:1058A00033237B71BB7ABB710123FB713B1D052147
:1058B0001846FFF70BFF03463B723B1D05211846B8
:1058C000FFF7DCFE00BF1037BD4680BDC8E50020F5
:1058D00080B586B000AF10233B70A0237B700123FE
:1058E000BB70124B3B610323FB750CE0FB7D033B5C
:1058F0003A691A44FB7D127818333B4403F8182C9C
:10590000FB7D0133FB75FB7D0E2BEFD93B46102150
:105910001846FFF7DBFE0346FB733B461021184693
:10592000FFF7ACFE00BF1837BD4680BD5408020823
:1059300080B582B000AF0D4B9B78FB7110233B709C
:10594000A1237B70FB79BB700123FB703B460521D3
:105950001846FFF7BBFE03463B713B460521184640
:10596000FFF78CFE00BF0837BD4680BDC8E50020AC
:1059700080B58AB000AF20233B71A2237B71022344
:1059800087F827300CE097F8273028333B4497F806
:10599000272003F8242C97F82730013387F8273085
:1059A00097F827301E2BEED93B1D20211846FFF714
:1059B0008DFE034687F823303B1D20211846FFF754
:1059C0005DFE00BF2837BD4680BD80B590B000AFFA
:1059D00038233B71A3237B71022387F83F300CE00F
:1059E00097F83F3040333B4497F83F2003F83C2C76
:1059F00097F83F30013387F83F3097F83F30362B28
:105A0000EED93B1D38211846FFF760FE034687F8A4
:105A10003B303B1D38211846FFF730FE00BF4037B2
:105A2000BD4680BD80B582B000AF05233B703023FA
:105A30007B700323BB700123FB703B460521184696
:105A4000FFF744FE03463B713B4605211846FFF72E
:105A500015FE00BF0837BD4680BD80B400AF00BF53
:105A6000BD465DF8047B704780B582B000AF04236B
:105A70003B7110237B710123BB713B1D0421184630
:105A8000FFF724FE0346FB713B1D04211846FFF778
:105A9000F5FD00BF0837BD4680BD80B58AB000AFB8
:105AA00026233B7011237B70022387F827300CE0FC
:105AB00097F8273028333B4497F8272003F8282C01
:105AC00097F82730013387F8273097F82730242BB1
:105AD000EED93B4626211846FFF7F8FD034687F826
